:02000004710089
:10000000ECB754BE16FE333D2CA1A3BD2CA1233D5D
:10001000015BC4BCD614E53DD61465BD7B5B173EC1
:10002000C171F53D015BC43C16FE33BE56E782BB91
:1000300056E702BCCB158BBD4C43ED3D414493BD0F
:100040004144933D16FEB3BDD614E53C16FEB33DC8
:10005000A1CFAB3D56E782BB56E702BC2CA1A3BCA7
:10006000414413BDB6729B3D26CF58BE56E702BE33
:1000700066B8273E56E7823C37A0FD3D2CA1A3BDC4
:10008000D614E53C16FE333DC171F53D5115383EA1
:100090002CA1A33D2CA1A33C414493BD56E702BC37
:1000A00056E782BCB9DB803E56E782BBD614E5BD7D
:1000B0002CA123BD56E782BCB6729B3D015BC4BC3C
:1000C0002CA1A33DDCE62FBEB6729BBDECB7D43DA0
:1000D000C17175BD2CA1A33D56E7823D56E702BC18
:1000E0002CA123BD4144133D56E782BB4144133D3F
:1000F0002CA1A3BC414493BD015B443DD614653D96
:10010000015BC4BD015BC4BD56E7823D16FE333DB5
:1001100016FE33BD414413BE8C2C3C3E61E6DC3DF3
:100120002CA1233D56E782BB56E702BCC171753D49
:1001300016FEB33DA1CFABBDA1CFABBDD61465BEFE
:10014000D614653DD614653D015BC4BC56E7023C40
:1001500056E7823C16FE333E56E782BCD61465BD98
:1001600056E7823DECB7543D015B44BCCB158BBDDB
:10017000B1A0503EECB7D43D56E702BC2CA1A3BCC5
:10018000A1CFABBD16FE333EDCE62FBEECB754BDAF
:10019000414493BD56E7823BD61465BD015BC43C28
:1001A0002CA1233D015B443C015B44BC56E782BC6F
:1001B000015B443C015BC4BC015BC43C2CA1A3BCFF
:1001C00056E7023CECB7D4BD2CA1A33CD614E5BC49
:1001D00016FEB33DC171753D56E7023CCB158B3D14
:1001E000CB150B3ED614E53C56E782BB56E702BC66
:1001F0004144933D8C2CBC3D91FE063E4144133E50
:100200004144133DECB7D43DD614653D16FEB33DD5
:10021000D614E5BCD614E53D56E782BD8C2CBCBD9A
:1002200056E782BC7689CCBD2CA1A3BD56E702BEA1
:10023000015BC43D414413BEB6729B3D015B443D2E
:100240002CA1A3BC16FE33BE56E782BC4C43ED3D49
:1002500061E6DCBDCB150B3E16FE333D8C2CBCBDE0
:10026000015B44BD56E782BB56E7023CF1891FBEE5
:10027000D614E53DC171F53DD614E53D56E702BC07
:10028000F1891FBE7689CC3D37A0FDBD2CA1233D51
:10029000C171F53D4C43EDBD4C43ED3DCB158B3D60
:1002A00016FE333D015B443DA1CFAB3D2CA1A3BD68
:1002B0004C43EDBD4C43ED3D61E6DC3D91FE06BE99
:1002C000CB158BBD56E7023D16FE333DC17175BDA2
:1002D00056E782BB2CA1A33C062D0F3EA1CFAB3D20
:1002E000414413BD56E782BC015B44BD56E782BB67
:1002F0004144133D7689CCBDCB150B3E7689CC3D70
:100300002CA123BED614653D87E1013FECB7D4BDD7
:1003100056E702BC062D0F3ECB150B3E16FE333DB5
:10032000015B443D015B44BC015B44BC16FE33BD34
:10033000B6729BBD2CA1233D015BC43C015B443CD8
:1003400056E7023C56E7823CC17175BD015BC4BCF7
:1003500056E7823DA1CFABBD2CA1A3BC015BC43D40
:10036000414493BD2CA1A3BC414493BDB6729BBD37
:100370002CA1233D4144933DC17175BD414413BD42
:1003800016FE333E015B44BC56E7023C8C2CBC3D60
:1003900091FE06BE16FE333DB6729B3D2CA1A33CDA
:1003A00016FE33BD015BC4BC4C43EDBD56E782BCB9
:1003B000C17175BDECB754BD56E702BE015B443C4C
:1003C00037A0FD3D015BC43D56E782BB2CA123BD98
:1003D000ECB7D4BD015B443C8C2CBCBDB6721B3E5B
:1003E0002CA1A33DC171F5BD015B443CF1891F3EC9
:1003F0003C72483ECB158BBDB6729BBD015B44BCC5
:10040000414413BDD614E5BCD614E5BDD614E53C75
:100410004144133DECB7543D015B443DB6729B3DF6
:10042000C171753DD614653D4144933D2CA123BD5A
:10043000C171F53D56E702BE015B44BE16FE333D79
:10044000015B443CD614E53C015BC4BDECB7543DB4
:10045000D614E5BC015B443DC171F5BD2CA1A3BD23
:10046000C171F53DECB7D4BD56E782BDC643403EF1
:10047000CB158BBD7689CCBD015B44BD4C436D3E35
:1004800056E7823BECB754BD2CA1A3BCA1CFABBDBA
:100490002CA1A33C56E7823C2CA1A33C56E7023C8E
:1004A00056E7023CD614653D015B44BC015B443C0D
:1004B0002CA123BDD61465BD015BC4BC56E7823BAD
:1004C000015B443D56E7823B56E7823C015BC43CFE
:1004D000CB158B3D4144133D56E782BD16FE333D9F
:1004E000414493BDD614E5BCD614E53C00000000A1
:1004F00056E7823B56E702BD16FE333D0000000082
:100500002CA1A33D56E782BC56E702BC56E7823CCD
:1005100056E782BC56E782BBD614E53C015B443DFE
:100520002CA1A3BC56E702BC015BC43C0000000048
:1005300056E702BD2CA1A3BCB6729B3DECB7543D5F
:1005400000000000CB158BBD015BC43C56E7823C2C
:1005500056E7023C4144133D56E7823CCB150BBEA7
:10056000015B443C56E7823DB6729B3DA1CFAB3D5B
:1005700056E782BC56E7023D2CA1A3BC414413BD03
:100580002CA1233D56E7023C8C2CBC3D16FE333D8E
:100590004144933D2CA123BD56E702BC16FE333DDA
:1005A000C171753DECB754BD2CA1233D61E6DCBDA6
:1005B0000000000056E7823C4C43EDBD56E702BC0C
:1005C000ECB754BD015B443D56E7823BD614E53C95
:1005D00056E7823DB6729BBD56E7023D56E7023DA7
:1005E000015BC43CD614E53DCB158B3D414493BD26
:1005F0002CA1A33CD614E5BCC171753D015B443D03
:10060000414493BD2CA1233D015B44BC56E702BC91
:100610007689CC3ED614653D4144933DA1CFABBD18
:100620004144133DCB158BBD2CA1233DB6721BBE9F
:10063000414413BD2CA1A33D16FEB33D00000000B4
:1006400061E6DC3DC17175BD2CA1A3BCD614653D2E
:10065000D614E5BC062D0FBE2CA1A3BCA1CFABBD0B
:1006600056E782BC015BC43D8C2C3C3E56E782BC05
:10067000D614E53C2CA123BD2CA1A3BD015B443CB9
:100680004C43ED3D16FEB33DECB754BDB6729BBD79
:100690007689CC3DC171F53D2CA1233E015BC43C64
:1006A000015BC4BCD614E5BD4144133DC17175BDA9
:1006B00056E782BCECB754BDC171753D66B8273EA4
:1006C000D614653DB6729BBD61E6DCBDB6729B3D3E
:1006D0007689CCBD16FEB33D4C43ED3D015BC43D78
:1006E0002CA1A33C16FE333D56E7823CA1CF2BBE86
:1006F000015BC43CD61465BD015B44BD2CA1A3BD08
:1007000056E782BC37A0FD3D015BC43CD614E53CF6
:1007100091FE063E00000000D614E5BC61E6DC3D1B
:1007200066B8273E2CA1233E2CA1233E56E782BB70
:10073000015BC4BCECB7543D56E7823B4144133DDA
:100740002CA123BD2CA123BD7689CCBD414493BDF2
:1007500056E782BDDCE62FBE2CA1233DECB7543E0C
:10076000112C69BE015B44BC66B827BE56E7023C4B
:10077000015BC43CECB754BD7B5B17BE4C436D3E84
:1007800061E6DCBDECB7D4BD56E7823D56E782BCDE
:10079000015BC4BC8E95A13E7689CCBD2CA123BD46
:1007A00056E702BC4144133DC17175BD56E7023E98
:1007B000CB150B3E37A0FD3D4C43ED3D8C2CBCBD15
:1007C00056E702BE16FEB33DECB7D4BD61E6DC3D94
:1007D00056E702BD56E7823C56E702BD16FE333DA2
:1007E00091FE063E015BC43DC64340BE4C43EDBD99
:1007F0004144933DD61465BD56E7823B2CA1233D71
:100800002CA123BD015B443CC171753D2CA1A33CCF
:10081000414413BD2CA123BDD61465BD2CA1A3BC9E
:100820002CA1A33C91FE863E56E702BC015BC43D71
:1008300056E782BD7689CCBD56E7023DA1CF2B3E5F
:10084000B6729BBD015B443CDCE62FBEA1CFABBDC5
:100850007689CC3D2CA123BDD614E53C2CA1A33C2C
:10086000F1891F3E56E702BD015BC4BC2CA123BD2C
:1008700056E782BD4144933D56E7823B56E782BB33
:1008800056E7823B56E7823C414493BD56E782BD22
:10089000CB158BBD56E7023E56E782BD56E7023EBA
:1008A00016FE333D4C43ED3D56E782BD7689CCBD07
:1008B0002CA123BD91FE063E00000000C171F53D54
:1008C000C171F5BD000000002CA123BD015BC4BDBA
:1008D000C171F53D56E702BD56E702BD56E702BCC1
:1008E000CB158B3DC643403E414493BDCB158B3D5C
:1008F000ECB754BD56E7823CECB754BD66B827BE92
:1009000056E702BD2CA1A3BC015B443D015B44BC86
:10091000015BC4BDB6729BBD015BC43E062D0FBE1C
:10092000414413BE015BC4BC015B44BCA1CFABBD61
:10093000C171753D015B443DD614E53CB6729BBD6B
:1009400056E782BB91FE06BE2CA123BD414493BD58
:100950004C43EDBD2CA1233DCB158B3D56E702BD8D
:100960002CA1A3BC56E782BC16FE333D56E782BCE1
:10097000C171F53D56E782BCD614653D015B44BCB0
:10098000112C693E414413BDC17175BD2CA1A33C1E
:100990002CA123BE7B5B17BE2CA1A33C015B443C76
:1009A000A1CFAB3D015B44BCF1891F3E56E782BD40
:1009B000ECB754BD015BC4BC56E782BD16FE333DA7
:1009C000C171F5BD015BC4BC56E702BCD614E53C61
:1009D000015BC4BDC17175BDECB754BDECB754BD6E
:1009E00056E702BC0000000056E782BCD614653D05
:1009F00016FEB3BD015B443C4144133D2CA1A33D15
:100A000056E702BD8C2CBC3D16FEB33D56E7023DB9
:100A1000ECB7543D2CA123BD16FE33BD7B5B97BEC6
:100A2000015BC4BCD614653D2CA1A33C015B44BE54
:100A3000C17175BDB1A0503EB1A050BE537E9D3E68
:100A4000414413BD015BC4BCCB150B3E2CA1233D1F
:100A5000D614E53CC171753D7B5B17BE015B44BCA0
:100A60004144933D16FE333E2CA1A33D015B44BDA2
:100A7000015B44BD56E782BC4144133D16FE33BDC5
:100A800056E7823DCB158BBD2CA1A33C56E782BC1B
:100A9000414413BD56E782BB56E7823BC64340BE86
:100AA000C171753D61E6DC3D56E7023DD614653DFA
:100AB000062D0F3E56E7823B2CA123BDD614E53C04
:100AC0004144933DD614E53C56E782BB56E7823B52
:100AD000D614E5BC56E7023EECB7D4BD56E7823CDF
:100AE000CB158BBD56E7823B56E7023D2CA123BDBB
:100AF0002CA1A33D56E7023DC171F53D2CA1A33CBD
:100B00002CA123BD015BC4BC56E782BD4144933D8B
:100B1000CB158BBD015BC43D56E7023D015B443CF8
:100B200056E7823C16FEB3BD015BC4BD56E702BD6D
:100B3000015BC43CC17175BD2CA1A33D8C2CBC3D97
:100B4000A1CFAB3DC171753D56E7823C56E702BC73
:100B5000015B443D56E702BD56E7023DA1CFABBD68
:100B60002CA1233D414413BD7689CC3D37A0FD3DEA
:100B7000CB158B3DD614E5BC16FE333DC17175BD5A
:100B8000015B443D56E702BE56E702BDD614E53C84
:100B90004144133DD614653D015B443DD614E5BC8C
:100BA000414493BD16FE33BD0000000016FE333DE8
:100BB0008C2CBCBDB6729BBDD614E53C56E782BBFF
:100BC000A1CFABBD56E7023CD614E5BC2CA1A3BC1B
:100BD000015B44BC56E702BD4144133D56E782BC6D
:100BE00056E782BCD614E53C015BC4BC56E7823CA8
:100BF000B1A0503E56E7823C015BC4BC015B44BCE3
:100C0000015BC4BC56E7823D015B443DECB7543EFA
:100C1000D614E53DECB754BD56E782BCCB158BBD71
:100C200056E7023D2CA1A33D7689CCBDB6729B3D13
:100C3000B6729B3D414413BDC17175BD76894CBEF2
:100C4000015BC43C8C2C3CBEA1CF2BBE56E782BCC2
:100C50004144133D16FE33BE61E6DC3D2CA1A33DAD
:100C6000C171753D9CFD60BE015BC4BDCB150BBE63
:100C7000015B443C2CA1A33CD614E5BC015B44BC05
:100C800056E782BC56E702BCCB158BBD91FE063EF3
:100C90002CA1A33CD614653D56E7823C56E782BCA6
:100CA000015BC43C4144133E8C2CBC3D2CA123BEB3
:100CB000414493BD2CA1A33C2CA1A3BDECB7D43DD2
:100CC00056E702BDC17175BDD61465BEA1CFAB3E5E
:100CD00056E702BDC171F53D015BC4BC56E7023C5D
:100CE00056E7023D56E7823D56E7823D2CA1A33DE3
:100CF000F1891F3E16FE333ED614653DB6721BBE0B
:100D00002CA1A3BCB1A0D03E37A07DBE16FEB33D42
:100D1000CB158B3DA1CFABBD37A0FD3D7689CC3D3A
:100D200056E782BB0000000061E6DC3D4144133E13
:100D30004144133DECB7D4BDD614E53DECB7D43DEA
:100D4000015B44BDCB158B3D8C2C3CBE2CA1A33C40
:100D5000015B443CC171F5BD00000000015B44BC77
:100D600016FE333E56E7823ED614E5BD37A0FD3D64
:100D7000D614E53D4144133D56E782BC7B5B17BE6C
:100D8000D614E5BCB6729B3D61E6DC3D91FE06BE25
:100D9000015BC43C56E7023C015B44BCB6729BBDA0
:100DA000015BC4BC66B827BE2CA123BDF1891F3EE0
:100DB0004C43ED3D56E7823DECB7543E062D0FBE49
:100DC00056E702BCB6729B3D015B44BC015B44BC70
:100DD000A1CFAB3DC171F53D56E7023C56E702BCE1
:100DE0008C2CBCBD56E7023CC171F53DA1CFABBD1B
:100DF00056E702BC56E7023DD614653D414493BD1B
:100E000056E7023EB6721BBE8C2CBC3D56E7023D37
:100E1000015BC4BC015BC4BD56E7023C015BC4BCC2
:100E2000062D0FBEB6729BBD0000000037A0FDBDB1
:100E3000D614653DD614E5BD015B44BD56E7823B43
:100E4000015BC4BCC17175BDCB158B3D56E782BB40
:100E500016FE333DECB7D43D015B44BCF1891FBEA7
:100E6000414413BDD614E53D16FE333D4144133EC7
:100E7000D614653D2CA1A33DD614653DD614653D21
:100E8000D614E5BC414413BD16FE333D56E702BC03
:100E9000015BC43C56E7823CF1891F3EECB7543DF0
:100EA000015BC43C16FE333D015B443C56E702BC8B
:100EB000015BC4BC16FEB3BDD614E53C015B443DEA
:100EC0002CA123BE4144933D16FE33BD56E702BC20
:100ED000CB150B3E56E782BB4C43EDBD414413BEE0
:100EE000015BC4BDD614653D56E702BD015B44BE3F
:100EF000ECB7D43DD614E5BC7B5B173EB6729BBD08
:100F0000D614E5BC015BC4BD56E7823B015B443CA3
:100F100056E702BC8C2CBCBDECB7543D61E6DCBD91
:100F200056E702BDD61465BDC643C03E015BC4BCD6
:100F3000ECB7D4BD015BC43C015B443C56E782BBCB
:100F400056E7023C015B443D414413BDD614E5BC69
:100F50002CA1A3BD56E702BCB6729B3DD61465BD5D
:100F6000015B443CD61465BD2CA1A33D4144933D97
:100F7000D61465BD2CA1233D015B443D015B443C7F
:100F800056E782BD4144133ED614E5BCD61465BD78
:100F9000C171753D015BC4BC56E782BBD614E53C0C
:100FA000D614653DB6729B3DD614653D015BC4BC4D
:100FB000015B44BD2CA123BD015BC43C2CA1A3BC9F
:100FC000A1CFABBD2CA1A3BDD614E5BC56E7823B97
:100FD00056E782BB16FE333D015B44BC2CA1A33D0A
:100FE000015B44BDB1A050BECB150BBE2CA1A33CF0
:100FF000015B44BD8C2CBC3DD61465BD015B44BD7A
:10100000D614E5BCB6729B3D56E702BD015BC43CFD
:10101000015B443DCB158BBD015BC4BCD61465BDE3
:101020002CA1A33C4144133E414493BD16FEB33D65
:10103000ECB7543D015B443D2CA1A33C56E702BDF7
:10104000015B443D7689CC3D414493BD2CA1A3BCBA
:10105000C171F53D91FE06BE4144133D4144133D2F
:10106000C171F53DC171753D56E7023C56E7023C42
:10107000015BC43CA1CFABBD56E782BB015B443CE6
:10108000414493BDA1CF2B3E56E7023D56E7023CBB
:10109000015BC4BC56E782BB7689CCBD414413BE1C
:1010A000015B44BD56E782BC16FE33BD875AF13E54
:1010B00016FEB33D015B443CC171753DCB158BBD44
:1010C0004144133D16FEB33D56E7023D8C2CBCBD9A
:1010D0002CA123BD2CA1A33DECB7D4BD56E782BD06
:1010E00091FE063E015B443D56E7023C2CA1A33C29
:1010F00016FE333D2CA1A33CA1CFABBDB1A050BE89
:10110000015BC43C16FE33BD8C2CBCBDB6729B3D4E
:10111000C171753D4C43EDBD16FE33BE015B443CD1
:10112000015BC43DF1891F3ED614E5BC91FE063E2D
:10113000015BC4BCECB7D4BDC17175BD7B5B17BE90
:10114000CB158B3D16FE333DD614E5BD56E7023D6B
:10115000015B443D56E7023D2CA1233DECB7543DD5
:10116000414493BD8C2CBC3D015BC43D2CA1A3BC70
:101170002CA1233D2CA1A3BC0000000056E7023C9B
:10118000B6729BBDECB7D4BD4144933DC17175BDF2
:10119000ECB754BDDCE62FBEECB7D4BD56E702BCBD
:1011A00037A0FD3D7B5B173E2CA123BE511538BEF9
:1011B00056E782BDB6729BBDD61465BD16FEB33D23
:1011C000ECB7D43D2CA123BD56E702BC56E782BD47
:1011D000015BC4BC8C2CBC3D7689CCBD8C2CBCBDC9
:1011E0002CA1A3BC4144933DECB7D43DB6721BBEC9
:1011F000B6721BBED614653D2CA1A33CECB754BD02
:1012000016FE33BDD61465BD414413BDCB158BBD51
:1012100056E7023C015BC43C56E782BB91FE063EAA
:10122000D614653D015BC43CD614E53C2CA123BD1E
:101230009CFD60BED61465BD015B44BC56E7023C14
:1012400056E702BD2CA1233D414493BD56E702BCA5
:101250002CA1A3BCECB754BD0000000056E782BC33
:10126000D614653DB6721B3E56E702BD0000000075
:10127000ECB7543D2CA1A33DDCE62FBEECB754BD2A
:101280002CA123BD16FE33BD7689CC3D2CA1A3BC79
:1012900056E7823B56E7023C015B44BC7B5B17BED2
:1012A00056E782BD56E702BDECB754BDECB754BD5E
:1012B00056E7023C56E782BBDCE62F3ED61465BDFE
:1012C00056E7023D2CA1A3BDC171F5BD4144933D3C
:1012D000A1CFABBD4144933DD614E5BD4144133D80
:1012E000015BC43CD614653D56E7023D91FE063EC7
:1012F0000000000056E782BD00000000B6729BBDF2
:10130000015B44BC4144133D015B443C56E7823DD4
:10131000CB158B3DB6721BBE2CA1A33C4144133DA3
:10132000B6729B3D56E7023CD614653D16FE33BDB2
:1013300061E6DCBD56E7823CA1CFABBDECB7D4BDC6
:1013400056E782BCCB158B3D2CA1233D56E702BE50
:1013500056E782BC16FEB33D56E7823D0000000012
:10136000D614E53C015BC43C7689CCBDD614E53D82
:10137000A1CFAB3D015BC43C2CA1A3BD015B443CB0
:1013800016FEB33D414493BD7689CC3D56E7023D00
:10139000ECB7543DF1891FBE015B44BC8C2CBCBD35
:1013A0002CA123BD9CFD60BE56E7823B015B443C03
:1013B000F1891FBE61E65C3ED614E5BC015B443D8D
:1013C000015BC43D91FE06BE2CA1233D56E782BBC6
:1013D00056E7023E015B443D7689CCBDDCE62F3EFC
:1013E000000000002CA1A3BC015B44BD015B44BC18
:1013F000ECB7543D8C2CBC3D16FEB3BD015BC43D27
:101400002CA1A33D2CA1A3BCDCE62FBECB158B3DAC
:1014100016FEB33D4144133D4144133DECB7D43D6A
:1014200056E7023D015BC4BDD614653D015BC4BDFA
:10143000D614E5BC015BC4BC16FE333E015B44BD63
:10144000ECB7543D015BC43DC171F53DC171F53D43
:1014500056E7023D56E7023C66B8273E8C2CBCBDE1
:1014600056E702BD7689CCBDC171753D56E7823B1A
:10147000C171F53D015B443CECB754BD4144133DA3
:101480007B5B17BEECB7543D56E7823BF1891F3EAC
:101490007B5B17BE16FE33BE16FE33BE16FEB33D93
:1014A0007B5B17BED614E5BD56E782BC015BC4BDAD
:1014B00056E702BE16FE333D414413BE16FE333DD1
:1014C0002CA1A33DC643403EC17175BD112C693EA0
:1014D00056E7823B56E782BC2CA123BD56E782BC6F
:1014E000F1891FBE511538BE4C43ED3DD614E53D84
:1014F000D614E53C015B44BC56E7823B015BC4BCAF
:10150000ECB7D4BD015B44BD015B443DA1CFABBD95
:10151000A1CF2B3E8C2CBC3DC171F53D062D0FBEDD
:1015200016FE33BD66B827BE2CA1233D015B443CAB
:10153000015B443DECB754BD26CF583E56E782BB15
:101540002CA1A3BC56E782BB414413BDA1CFABBDC8
:10155000414493BD56E702BD37A0FD3D015BC4BCCD
:101560002CA123BD015B44BD015BC4BC015B443DB8
:1015700016FE33BD2CA1233D414413BD16FE33BDE1
:1015800016FE33BD015B443CD61465BD015BC4BD92
:101590002CA1233D414413BD16FEB33DD61465BDB9
:1015A0002CA1A3BCECB7543D56E782BB414413BE0B
:1015B00016FEB3BD56E7823B7689CC3D414493BDD0
:1015C0002CA1233D015B44BC4144133D2CA123BD10
:1015D000015BC4BCCB158B3D61E6DCBD16FEB33DA3
:1015E0008C2CBCBD015B44BCECB7D4BD062D0F3EBA
:1015F000414413BD56E7823B56E7823B015BC4BCC6
:10160000B6729BBD0000000056E782BC015B443C03
:1016100091FE06BE61E6DC3DB6729B3DB6729BBD97
:1016200056E7823B7689CC3D0000000000000000B8
:101630002CA1A33C76894CBE56E7823C00000000FA
:101640002CA1A3BD56E7823D4144933D015BC43DBF
:10165000D614E5BC16FEB3BD015B44BC56E702BD23
:10166000ECB7D43D015B443C414493BD2CA1A33D68
:1016700056E782BD000000002CA1233DA1CFABBDE9
:1016800016FE33BDECB7D43D16FE333DB6729B3D1E
:101690008C2CBC3D2CA1A3BCA1CFAB3DC171753D31
:1016A000CB150B3E56E782BDECB754BD4C43EDBDA8
:1016B00056E7023D8C2CBCBD2CA1233D062D0F3ED0
:1016C000F1891FBE16FE33BD015B44BC015B443D86
:1016D000015B44BEC171753DD614E53CD614E53CB2
:1016E00000000000ECB7D43D61E6DC3D015BC4BD09
:1016F000ECB754BD16FE33BD56E7823DCB158BBD0E
:10170000DCE62FBE2CA1A33CECB7543DCB150B3E21
:10171000ECB7D4BD56E782BB61E6DCBD56E702BD3F
:10172000015BC4BDB6729B3DC171753E66B8A7BE74
:1017300016FE33BE16FEB3BDD614E5BCB6729B3D95
:1017400056E7823CB1A0D0BECB150BBEB6721B3E95
:10175000015B443C414413BD91FE06BEA1CFABBD2D
:10176000D614E53DB6729BBD414413BD56E7823B9E
:1017700056E782BB015B44BC61E6DC3D16FEB3BDAF
:1017800037A07D3E56E702BE4C436D3E8C2CBCBD5F
:10179000C17175BD015BC4BD062D0F3EC17175BD24
:1017A0004144133E414493BDCB158B3D16FE33BDE2
:1017B0004144133D56E7823CECB7D43DB6721BBEA4
:1017C000015BC4BDD614E53C015B443C61E65CBEF4
:1017D000ECB7543D16FE33BE61E65CBED614653DE3
:1017E00056E7023C015B44BC2CA1A33C2CA123BDC9
:1017F00056E7023DF1891FBE16FEB3BD9CFD603E5B
:10180000414493BD015B443CECB7D43DCB158B3DCB
:10181000015B443C2CA1A3BC91FE06BE2CA123BDC0
:10182000015B44BD56E702BD414493BD16FE33BD86
:101830002CA1A33C56E7823C7689CC3D015BC43D9C
:101840009CFD60BE56E702BD015BC4BC8C2C3CBE57
:1018500016FE333D3C7248BE2CA1A33C56E7823BAA
:101860004144133E2CA1A33D61E65CBED614E53C89
:10187000DCE62F3E61E6DC3D91FE063E015B443D29
:10188000EE20BA3E56E7823B56E702BE56E7023CE0
:101890004144933D015BC43D2CA123BD56E782BB6F
:1018A0002CA1A3BC16FE33BD2CA1A33C56E7023CE1
:1018B00016FE33BD2CA1A3BCECB754BDD614E53C39
:1018C0004144133D56E7023D7B5B173E4144133DC7
:1018D000F1891F3E8C2CBC3DD614E53DC17175BD10
:1018E000015BC4BC16FEB3BD66B827BE015BC43C39
:1018F000D614E5BDC17175BE56E7823C56E702BD00
:10190000D614653D7B5B173E56E7823CA1CFAB3DCD
:10191000CB150BBE56E7823CB9DB803EA1CFABBDF9
:101920007689CCBD015B443C015BC4BD7B5B17BECB
:1019300037A0FDBDB6729B3DD614E53C8C2CBCBDDA
:101940004144933DA1CFAB3D7B5B17BEF3F284BE18
:101950002CA1A33DD614653D56E782BC5115383EF7
:1019600016FE333D4144133E16FEB3BD2CA1A3BD6C
:1019700076894C3E2CA1233DD61465BD16FEB3BD21
:10198000414413BD015BC4BDCB150BBE015BC43C20
:1019900056E7023C56E7823B4144933D56E702BD81
:1019A000C17175BDB6729BBDD614E53DD614653DBB
:1019B000CB150BBE56E702BCB6729BBD91FE06BEB0
:1019C000B6729B3D61E6DCBD56E7023E56E702BDBE
:1019D0004C43ED3DECB7D43DB6729BBD015BC43DBD
:1019E000B6729BBDA1CFAB3D37A0FD3DB6729BBD8E
:1019F000CB150B3EA1CFABBDB6721BBE015BC4BC09
:101A000056E7023CF1891F3EB6729B3D7689CCBDFC
:101A1000CB150BBEB1A0503ED614E5BDCB158B3D0A
:101A2000015BC43D91FE06BED61465BD56E7023C7F
:101A3000015B443D56E7023C2CA1A3BC2CA1A33C76
:101A4000A1CFABBDF1891FBE66B827BE56E7023DE8
:101A5000414413BD16FEB33D16FE333E015BC43D4B
:101A600056E782BB56E702BE015B443EA1CF2B3E48
:101A700016FE33BD16FEB3BDB6729BBD56E7023DE2
:101A80004C43EDBD91FE063E9CFD60BE2CA1A33DE6
:101A9000D61465BDCB150B3EC171753DDCE62FBE7E
:101AA000CB158BBD2CA123BE16FE33BD2CA123BEAE
:101AB00091FE06BE9CFD60BEC643403E4144133DC0
:101AC000112C69BED614E53CCB150BBE2CA1233ED0
:101AD00056E7023D56E7823C015BC4BD2CA1233E84
:101AE000D61465BE61E65C3E015BC43D16FE33BDA7
:101AF0007B5B17BE7B5B17BE56E7823C3C72483E61
:101B00007689CCBDECB7543D015BC43C16FE33BDB9
:101B100016FE333D2CA1A33D16FE333D015BC43CB4
:101B2000CB158BBDD614E53DD614E53DECB7D4BD41
:101B300056E7823B015BC43D414413BD4144133D24
:101B4000D614E5BC56E702BCA1CFAB3ED614E5BD2A
:101B500061E6DCBDECB7543DD614E5BCD614E5BC5B
:101B6000D614653D37A0FDBD062D0F3E2CA1A33D2B
:101B70008C2CBCBD2CA1A3BCCB158BBDB6721B3E5F
:101B8000CB158BBDB6729BBD56E702BD56E782BB37
:101B9000CB150B3ED614653D16FE33BD56E782BC11
:101BA0002CA1A3BCC171753D56E7823D37A0FDBD98
:101BB000D614E5BC56E7823C56E782BDCB158B3D7B
:101BC0007689CCBD015BC43D015BC43C015B44BC78
:101BD000015B44BD56E7823DECB7543D37A0FD3D67
:101BE000D614E5BD015B443CECB754BD56E7823BDF
:101BF000D614E5BC015B443C2CA123BD015BC4BDF4
:101C00004144133D4144133E062D0F3E015B44BD4C
:101C100056E782BB4C43EDBD2CA1A3BC8C2C3C3EB3
:101C2000D614653DD614E53D015B44BC56E7823BC6
:101C3000D61465BD015B443CD614653D2CA1233D03
:101C40004144933D56E7823CA1CFABBDECB7D43DB8
:101C500037A07D3E16FE33BECB150B3E4C43ED3D0B
:101C6000A1CFABBD16FE333E4144933D8C2C3CBE10
:101C700056E702BCA1CF2B3E015B443D7689CC3DAB
:101C8000C171753D56E7823D16FEB33D16FEB33D6C
:101C9000C17175BDCB150B3E61E6DC3DF1891F3E80
:101CA0007689CCBD015BC43CB6729B3DC171753D6C
:101CB00016FE333E414493BDB6729B3DD614E5BC3F
:101CC0002CA123BDECB7543D56E782BCB409B63E07
:101CD00056E782BB015B443DCB150B3E56E7823B8A
:101CE0000000000016FEB33D56E702BC56E7023E78
:101CF00016FEB3BD015BC4BC015BC4BD015B44BD4A
:101D0000A1CFAB3D8C2CBC3D7689CCBDB6729B3D42
:101D1000015B443D414493BD2CA1A3BCC17175BD81
:101D200061E6DCBDECB7543D56E7823C015BC4BCC8
:101D3000D614E5BDB6721BBED614E53CF1891F3E34
:101D4000414413BD015BC4BDB1A050BE56E702BC07
:101D5000F1891F3E4144933DD61465BD16FEB33D47
:101D600037A07DBEA1CFAB3DD614653D91FE063EAA
:101D7000B6729BBD56E702BDD614653D644FC2BE28
:101D80007B5B17BE26CF583E16FEB33D015BC43DBC
:101D90002CA1A3BD4C43ED3D015B44BD66B8273E7D
:101DA00056E702BDD61465BDD614E53CC171F53DBC
:101DB00056E702BE2CA123BDC171753E61E65CBE33
:101DC000C64340BE8C2C3CBEECB7543D9CFD603EEF
:101DD000112C693ED614E53D015B443D91FE063E63
:101DE000B6721B3E8C2CBC3D56E7823C66B827BEC3
:101DF00016FEB33DDCE62FBE2CA1A33C4C43ED3DCB
:101E0000CB158BBD062D0F3E2CA1233D015BC43CA1
:101E1000414493BDECB7543DD614E5BC4144933DD9
:101E2000015B44BCD614653D56E7823C16FE33BDCB
:101E30002CA1233D00000000C171F53DD61465BD05
:101E400016FEB33D56E7023DD61465BD56E7823C0B
:101E5000A1CFABBDD614E5BC015B443C015B443D66
:101E6000414413BDD61465BD7689CC3DC17175BDA5
:101E700056E702BC0000000056E7823B414413BD18
:101E80004144133E7689CCBD2CA123BDECB7D43D93
:101E900016FE33BDD614653D56E782BBECB754BD84
:101EA000015BC43CD61465BD56E782BD56E782BCD3
:101EB000015B443D56E7023C16FE33BDA1CFAB3D6E
:101EC000ECB7D4BDD61465BD015B443DD614653D69
:101ED00056E7823D00000000015B44BC56E702BCAF
:101EE00056E702BC56E7823B56E7823C91FE06BEAF
:101EF00056E782BD56E7023D91FE063E0000000017
:101F00002CA1A3BD2CA1233D56E7823B015BC4BCA1
:101F1000C17175BDD61465BD7689CC3D56E702BD4D
:101F2000CB158BBD56E782BBD614E5BC66B827BE81
:101F3000015BC43C56E782BD015B443C2CA1A33D40
:101F40002CA1233DECB7543D015B44BC56E702BDD8
:101F50004144133DCB158BBD015BC4BC2CA1A3BC7C
:101F600016FEB33D56E702BCCB158B3D56E7823CCF
:101F700056E7823B16FEB3BD4144133D16FE333D8A
:101F8000015BC43D56E702BD7689CCBD2CA1233E42
:101F90002CA1A33C91FE06BE56E7823C56E7023DCB
:101FA0008C2CBCBD414413BE56E782BB56E7823B36
:101FB00056E702BDECB754BD61E6DC3D7689CCBD89
:101FC000015B443C414493BDC171F53D56E782BB82
:101FD00056E7823C3EDBADBE8C2CBC3D56E7023C56
:101FE00056E7023D015B443C56E702BD2CA123BEEF
:101FF000015B443D16FE333D16FEB33D56E782BB02
:10200000C171F53DCB158BBD16FE333D015B44BC64
:10201000015BC43D2CA1A33D414413BD56E782BBE7
:10202000C171753DECB7D4BD56E7823C56E7823CA2
:10203000015BC43C56E782BD56E7823D56E7023C51
:1020400056E7023DECB7543D56E7823B66B827BEE3
:1020500016FE33BD56E7023C2CA1A33C2CA123BEA7
:1020600056E782BBC171F53D37A0FDBDB6729B3D01
:1020700066B827BEC17175BD56E7823CECB7543EC9
:102080007B5B17BE2CA1A3BD2CA1A3BC2CA1233D1F
:10209000C17175BD56E7023C76894CBEECB754BEA3
:1020A00076894C3E8C2CBCBD4144133ECB158BBD78
:1020B0007B5B173E61E6DC3D16FEB3BD56E7023E94
:1020C000C643403E37A0FD3D4C43EDBD000000003F
:1020D000B6729B3D015BC43CD614E53DDCE62F3E69
:1020E0004C436DBEECB7543E61E6DCBD015B44BDC4
:1020F000CB158B3D56E702BC56E7823B16FE33BE3E
:10210000C171753D414493BDA1CFABBD56E7023DC2
:102110000000000056E702BDD61465BDB6729BBD37
:10212000A1CF2B3EA338913EC17175BDA1CFAB3D70
:10213000015B443C56E7023DECB754BD0000000093
:1021400091FE063E4C43ED3D56E7823BD614653D7D
:102150002CA123BE015B443CC9ACA53E56E7023C22
:1021600056E7823CD614E5BCCB158BBD66B827BEBE
:1021700056E7023D37A0FD3D61E6DCBDC643403E6B
:1021800016FE333D4144933DECB7D43D16FE333D3E
:10219000C64340BE4144933D015B44BD56E782BD0A
:1021A000ECB7543D2CA1A3BCC643C0BE56E7823B4E
:1021B0008C2CBC3D56E782BDD61465BD56E7823DEA
:1021C0004144933DB6729B3D062D0FBE56E782BD3E
:1021D00091FE86BE56E782BB56E782BB2CA123BD8B
:1021E000ECB7543D511538BE2CA1A3BD4144133E5C
:1021F00056E7823B2CA1233DB6729BBDD614E53C2D
:10220000CB150BBE000000008C2CBC3D56E7823D78
:10221000D614E5BD2CA1A3BCECB754BD16FEB3BDCE
:10222000D614E53C37A0FD3D56E7023CCB150B3EEE
:1022300016FE333D26CF58BE16FE33BD062D0FBE0B
:1022400056E702BC062D0F3EB6729BBD4C436DBED9
:102250007B5B173E3C72483E062D8FBEFC88793E64
:10226000C643403EF1891F3ED614E53D015BC43DA7
:1022700016FEB33D062D0F3E8C2CBCBD16FE33BEA4
:1022800056E7023E7689CC3DECB7D43D56E7023D99
:102290002CA123BD7689CC3DECB7543D16FE33BE50
:1022A00056E7823BECB754BD015B44BD56E7823B29
:1022B00056E7823C56E7823C7689CC3DD614653D94
:1022C0007689CCBD56E782BB414413BDD61465BDAB
:1022D000C171753D56E702BC2CA1A33D16FE33BE6D
:1022E000015BC43D56E7823B2CA1A33CC17175BD87
:1022F0002CA1A33C56E782BD00000000D614653D2A
:10230000015BC43CECB754BE2CA123BDC171753D2B
:10231000ECB7543D2CA1233E015B443C56E782BB05
:10232000015BC43C414413BD56E702BC26CF58BEF6
:102330009CFD60BE015BC4BD015BC43CC171753DC9
:102340004144933D015B44BDB6721BBEC171753DF6
:1023500016FE333D2CA1A33D4144933D16FE33BDF3
:102360008C2CBCBDECB754BD000000007B5B973EDD
:1023700056E702BC015B44BD015B44BDECB7543D74
:1023800056E7823B26CF58BEECB7D43D2CA1233D67
:10239000015BC43CD61465BD16FE333EC643403EC9
:1023A0002CA1A33CD614E53D4144933DD614E5BC95
:1023B0008C2CBC3D56E7023D0000000066B827BEED
:1023C000D61465BD015BC43C2CA123BED614E5BC6C
:1023D000B6721B3E2CA1A33D56E702BCD614E5BC49
:1023E00056E7823BC171753D4144933D015BC4BCDE
:1023F000ECB7D4BD4144133DA1CFAB3DDCE62F3E4D
:10240000414413BD015B44BD61E6DC3D015B44BC5E
:102410008C2CBC3DD614653D4144133E015BC4BCCD
:10242000015BC43C414493BD015B44BC56E702BC24
:1024300056E702BC16FEB33D2CA1A3BCC171F5BD8D
:10244000015BC4BC015BC43C56E7023C16FE333D55
:1024500016FEB33DD614653DA1CFAB3DCB158BBD6C
:1024600016FEB33D2CA1A3BC4C43ED3DCB158BBD5B
:1024700091FE06BE61E6DCBD015B44BDECB754BD18
:10248000ECB7543D015BC43D414493BDCB150BBE3D
:10249000015B443D2CA1A3BD56E702BD8C2CBCBD05
:1024A000D61465BD4144133DD614653DD61465BDB3
:1024B000ECB7D4BD56E7823C91FE06BE7689CC3D92
:1024C00016FEB3BDCB158BBD56E7023DC17175BD80
:1024D000ECB7543D2CA1233D56E7023C2CA123BD73
:1024E000D614E5BC2CA1A3BC015B44BC2CA1A3BCAD
:1024F00016FE33BD015BC43C2CA1A33C61E6DCBDF0
:102500002CA1233D56E702BC2CA1A3BD7689CCBDEE
:102510002CA1233D61E6DC3D015B44BC16FE333D4E
:1025200056E702BCD614E53C56E782BB16FE333DA7
:1025300056E702BC56E7023D8C2CBC3D8C2CBC3DC2
:102540002CA1A33C000000004144133D015BC43DAD
:102550002CA1A3BD7B5B17BE511538BE015BC4BD6A
:10256000015BC43CCB150B3E7689CCBD56E702BC63
:10257000015B443D2CA1A33C56E7023E015B443C79
:1025800000000000015B44BCC17175BD91FE06BE38
:10259000ECB7D4BD16FE333E56E782BB56E7023E8B
:1025A00056E7823CECB754BD015BC43CB6729BBDA0
:1025B000B6729BBD2CA1A3BCC171753DD614E53C80
:1025C000A1CF2B3E56E782BBB6729B3DC171753DD4
:1025D000B1A0503E2CA1A3BC2CA1233E015B443DE5
:1025E000D614653D2CA1233D7689CCBD56E7823CAF
:1025F00061E6DCBD015B443E37A0FD3D7689CC3D04
:102600002CA1A33C4C43EDBD16FE333DD614E53C56
:10261000015BC43DECB7D43D2CA1233E4C436D3E41
:10262000414413BD015BC43C56E7023C56E702BC83
:102630008C2CBCBD7689CC3D56E7823CB6729B3D66
:102640007689CCBD015BC4BCC17175BE015B443DE4
:10265000D61465BD015B443D8C2CBCBD8C2C3CBEAE
:10266000C17175BE2CA1A3BCC171F53D015B443E97
:102670005115B83EECB7D4BD56E7023E2CA1233D20
:1026800056E7023D66B8273ECB158BBD56E7023DA7
:1026900037A07DBED61465BD2CA1A3BDD614E53CE4
:1026A0004144933D16FE333D56E7823B4C436DBE9D
:1026B000D614E53C015BC43CA1CF2BBE3C72483E26
:1026C0002CA1233D015B44BD000000002CA123BED2
:1026D000C171F53D4C43EDBD66B827BE015B443C7E
:1026E000C171753D56E782BC91FE063E56E7823DBC
:1026F000B6721B3EC171F5BD56E782BC7689CC3DF2
:1027000056E782BB8C2CBCBD56E782BD4144133ECC
:102710008C2CBC3D16FE33BD414413BD8C2CBCBD7E
:102720002CA1A33D56E702BD414413BD015BC43C4F
:1027300091FE063ECB158BBD4144133DA1CFAB3D71
:10274000015BC43C56E702BD015B443D2CA1A3BC28
:102750007689CCBD56E7023D56E702BE7689CC3D70
:10276000D61465BDD614653DD614E53D015B44BD68
:10277000B9DB803EB6729B3DECB7543D2CA1233DA6
:10278000D614653D2CA123BDC171753D015B443C50
:1027900056E7823B015BC4BD56E7823B56E702BC6D
:1027A000015BC43C56E702BC56E7023D56E782BCDB
:1027B00016FE33BD015BC4BD4C43ED3D2CA1A33CD3
:1027C000015B44BC015BC4BCD614E5BC2CA1A3BD19
:1027D0002CA1A3BC2CA1A3BC61E6DC3D2CA1A33C95
:1027E000015B44BCB6729B3D56E7023D2CA1A3BCE5
:1027F000D614E5BCCB158BBD015B44BD56E782BD4D
:1028000061E6DCBD56E782BC16FE33BD015B44BC0D
:102810002CA1A3BD015B443C56E702BE4144133DDD
:102820002CA1233DCB158BBD56E702BE2CA1A3BC2A
:102830004144933DECB754BDECB754BD015B443CFF
:10284000ECB7543D56E7823B56E782BBECB7543DAC
:102850002CA1A3BCD614E5BC7689CCBD414413BDE4
:10286000015BC43C2CA1233DD614E53C9CFD603E9D
:10287000D614653D16FE33BD16FEB33D56E782BB4A
:102880002CA1A3BC66B827BEF1891FBE4144933D6D
:10289000A1CF2BBE37A0FDBD2CA1A3BC4144133D4D
:1028A000D614653DD614653D56E702BD015B44BDB7
:1028B000D614E53C414493BD2CA123BDD614653DFF
:1028C00061E6DC3DC171F53D56E7823B2CA1A33C9E
:1028D00056E7823CCB158B3DECB7D4BDD614E53C16
:1028E000ECB7D43D4144133D56E782BBB9DB80BE13
:1028F000015BC4BC015B44BCECB7543D000000006C
:1029000016FE333D16FE333D015B44BC2CA1A33DB6
:10291000015BC4BDECB7D4BD015B44BC015B44BDED
:10292000511538BE015B44BD414493BDB6729BBD99
:10293000CB158BBDD614E53CD614E5BD56E7823BDE
:102940004C43ED3D56E7823D16FE333E56E7823B53
:1029500056E7823B015BC43C56E782BC56E7823CAB
:10296000015B44BC4144133ECB158BBD015BC43CB1
:10297000C171F53D56E7023DECB7D43D00000000C3
:10298000015BC43D414413BDC17175BDD614E5BCA6
:1029900056E7023D37A0FDBDD614E5BC56E7823DA3
:1029A00056E7823C56E7023C2CA1A33CD614653D79
:1029B000D614E53CA1CFABBDD614653D4144133DD3
:1029C000015BC4BD4144133DD61465BDA1CFAB3DF1
:1029D000ECB754BD062D0F3EECB754BDB9DB803EBD
:1029E0002CA1A33D56E782BCD614653DB6729B3D33
:1029F0008C2CBCBD196799BE26CF583E16FEB33D40
:102A000056E702BC56E7823CCB150BBE56E782BBAD
:102A1000ECB7D43D37A0FD3DCB150B3E16FEB33DC4
:102A2000B6729B3DD614653D56E702BD56E782BCA3
:102A30002CA1A3BD015B443D3C72483E015BC4BC7C
:102A40007689CCBDC171753D015B44BCC171753DDA
:102A500056E7823BD614E5BCB6729B3D56E782BB77
:102A60004144933DF1891F3E0000000091FE06BEE7
:102A7000ECB7D43D26CF583E414493BD7689CCBDBA
:102A80002CA1A33D61E6DCBDD61465BDB6729B3DAD
:102A9000414413BE2CA1233DCB158BBD7689CC3D83
:102AA00056E7823DA1CF2BBE2CA1233E91FE06BE50
:102AB00091FE063E56E7823B2CA1233D414413BDC7
:102AC00016FE333D56E702BD4C43ED3D015BC4BDF0
:102AD00016FE333DCB150B3ED614E5BCCB150BBE15
:102AE000015B443C414493BD61E6DCBDCB150B3E2C
:102AF000D614E53DB6729B3DF1891F3E2CA1233DC6
:102B000066B827BEC64340BEB6729B3DA1CF2BBE62
:102B1000D61465BDC64340BE26CF583E56E702BE1A
:102B20004C43EDBDCB158B3D2CA1A3BC56E7023D1C
:102B30007689CC3D16FEB33D8C2CBCBD7689CC3D50
:102B400056E7023D015B443DB6729B3D015BC43DCF
:102B5000015BC43D91FE06BEC17175BDCB158B3DB9
:102B60008C2C3C3E414413BED614E53C062D0F3E52
:102B700061E6DCBD16FE33BDC171F53D5F7DF73EFC
:102B8000015BC43CD614653DA1CFAB3D56E7823B0B
:102B90004144933D414493BDCB158BBD76894CBEDA
:102BA000414493BDCB158BBD16FE33BD56E782BDA8
:102BB000015BC43CD614E53D56E7023DB6729BBDB1
:102BC000015BC4BD2CA1A3BC015B44BC56E7823BA6
:102BD00056E702BCC171753DC17175BDD61465BDA6
:102BE00056E7023C56E702BCECB754BDECB754BD07
:102BF0002CA1233DC4DADA3E7689CCBDECB754BDB6
:102C000061E6DCBD414413BDD614E5BC015BC43CA8
:102C100056E702BCD614E5BDCB158BBD414413BDB0
:102C20008C2CBC3D414493BD2CA1A33DB6729B3D71
:102C3000D614653D2CA1A33C2CA123BD56E702BCB4
:102C40002CA1A33C56E702BDB6729BBD16FE33BD58
:102C5000D614E5BCCB158BBDA1CFAB3DB6729B3D69
:102C60004144133D015B44BCD614E53CCB158BBD00
:102C7000015B44BC7B5B173E4C43ED3D414493BD3F
:102C800016FEB3BD7689CCBD015BC4BD8C2CBCBD2A
:102C9000C171753D2CA1A33C015B44BC015B443D6B
:102CA000414413BDC171753E56E782BBC171F5BD8C
:102CB0002CA1A33D000000002CA1233E56E782BBBF
:102CC000B6729BBD56E7823DC171F5BD16FE33BDA0
:102CD0004C43ED3D56E782BDD614E53DD614653D27
:102CE000015B443E112C693EB6729B3D2CA123BE74
:102CF0004144133D4C43EDBD56E7823BD614E5BD40
:102D000056E7823DD614653D16FEB3BD2CA1A33C0B
:102D1000015BC43CC171F53D56E782BC0000000078
:102D2000015B44BCC171753DDCE62FBED614653D28
:102D3000B9DB80BE2CA1233D5115383EECB7D4BD84
:102D400016FE333D56E7023D015B443CECB7543D73
:102D5000CB150BBE2CA1A3BC56E702BDCB158B3DFA
:102D600056E7823C56E782BDECB7D4BD015B443CDC
:102D700016FEB33D66B827BE56E7023ECB158BBDA7
:102D800016FE333D414413BE61E6DCBDA1CFABBDB1
:102D9000F3F284BE16FEB3BD4C43ED3D56E7823DD3
:102DA000CB158B3DCB150B3E2CA1A3BC062D0FBE26
:102DB00061E6DC3DD614E5BC56E702BE2CA123BD7E
:102DC000ECB7D4BD37A0FDBD56E782BB91FE06BE71
:102DD0007689CCBD56E7023D61E6DCBD414493BD3A
:102DE000015BC4BDD614E5BD4144933DECB7543EF0
:102DF000B6721BBE91FE06BE56E702BD16FE333DFF
:102E000056E7823B56E702BD511538BE56E782BCF5
:102E100056E702BD16FE33BDB1A050BEECB754BE9E
:102E2000D614E53CDE4F95BE015B44BD56E7823CBF
:102E300056E782BC56E782BDC17175BE7689CCBDAE
:102E4000C171F53D414493BEDCE62FBECB158B3DF1
:102E5000C171F53D66B8A73E37A0FDBD112C693E96
:102E6000A1CF2B3E2CA1A33DECB754BD56E702BE2B
:102E7000C17175BDD614E5BDECB7543DB6721BBE2D
:102E8000D614653D56E7023E2CA1A3BC7689CC3D05
:102E90004C43ED3D16FE33BD56E7023D2CA123BD4C
:102EA000C171753D56E702BCC17175BD015BC43C83
:102EB000015B443CD61465BD9CFD60BE015BC4BC97
:102EC00066B8273EB6729B3D015B44BDCB158BBEF9
:102ED000015B443D8C2C3CBE56E7023CC171753D04
:102EE00056E7823B015BC4BD56E782BBECB754BDDD
:102EF000ECB7543D2CA1A3BD4C43EDBD414493BD63
:102F000016FE333DD614E53C00000000015BC43CD6
:102F100037A0FDBD56E7823DD61465BD56E782BB9E
:102F20002CA1A33C56E7023C56E7023D414493BD29
:102F30002CA1233D062D0FBE8C2CBC3D16FE333D2F
:102F4000ECB7543D56E782BD56E7023C16FEB33D52
:102F500056E782BB56E7823BCB158BBD2CA1A33C29
:102F600091FE063EB6721B3E56E7823B56E7023E96
:102F7000C171F5BD2CA1A3BD015BC43C4144133D0F
:102F8000015B44BE56E7023DCB158BBEA1CFAB3DE6
:102F90004C43ED3D2CA1233E56E7023D062D0F3E4E
:102FA000015B44BC91FE86BE16FEB33D015B443C12
:102FB0004C43EDBDCB158BBD56E7023D56E7823C39
:102FC000B6729BBD61E6DC3D56E7823B2CA1233DFA
:102FD000CB150BBE2CA123BE015B443D26CF583E32
:102FE00056E782BBD614E53DCB158B3D56E7823DB7
:102FF000ECB7543DDCE62FBE4144933D4C43EDBD60
:1030000056E782BBD614E5BC56E702BCCB158B3D18
:10301000ECB7543DA1CFAB3D56E7023C56E7023D2D
:10302000414413BD56E7823D2CA1233DD61465BD16
:10303000015B443CD614E53C414413BD56E782BCD9
:103040002CA1A3BC56E702BC56E782BC56E7823BE4
:1030500056E7823D56E7823C7689CC3D56E7823B77
:10306000015B443C015B44BC2CA1A3BC16FEB33DF8
:103070002CA1A33C2CA1A33C56E782BC56E7823D81
:10308000414493BD00000000015B443D000000008E
:10309000414413BD16FEB33D4144133D0000000002
:1030A000ECB7543D56E702BD56E702BD2CA1A33C48
:1030B000D61465BD015BC4BC4144933D8C2CBC3D22
:1030C00056E7023E2CA123BD56E702BD015BC4BCFE
:1030D00056E782BC16FE33BDECB754BD16FEB3BD39
:1030E000D614E5BC7689CC3D414413BD4144933DA3
:1030F000B6729B3DC171F5BDC171753DCB158B3D60
:103100007B5B17BE56E782BB56E782BC16FE333D9B
:10311000D614E5BD015BC43C16FEB3BDD61465BD37
:1031200056E7023C8C2CBCBD56E782BB56E702BD7D
:10313000015BC4BC015B44BC7689CC3D8C2CBCBD1E
:10314000C171F5BD56E7823D37A0FD3D16FE33BD8A
:10315000B6729B3D4144933DECB754BD015B443D89
:1031600056E702BC61E6DCBD414413BD56E7823C34
:10317000015BC43D4144133D56E702BD0000000021
:1031800056E7823D56E7023DECB754BD015B44BDB6
:1031900056E702BEECB7D4BDECB754BD56E782BBD0
:1031A000C171753D4C43EDBDC17175BDC17175BD3A
:1031B00061E6DCBDECB754BDA1CFABBD56E7823DA7
:1031C000015BC4BC61E65C3E16FE333D16FEB33DBA
:1031D0004C43ED3D91FE06BE56E7823B2CA1233DBC
:1031E000015BC4BC66B8273ED614E5BC37A0FDBD64
:1031F00056E702BC4144133D015BC4BCB6729B3D23
:10320000414413BD56E7823B56E7823B56E7023CFA
:10321000C171F5BDC643403EFC88793E015BC43DAB
:1032200056E702BC2CA1A3BC414413BDECB754BE6D
:103230004C436DBE16FE33BDECB754BD015BC43DBF
:10324000062D0F3E4C43EDBDECB7D4BDDCE62FBEE2
:10325000015B44BD414413BD56E702BD2CA1A3BC94
:10326000D614E53C56E782BE66B827BECB150B3EAA
:103270008C2C3C3E062D0FBE16FEB3BD37A0FDBD07
:10328000015BC43C56E782BC61E6DC3DD614653D7B
:103290002CA1A33C91FE863ECB150B3E16FEB33D02
:1032A0008E95A1BE015BC43D61E6DC3DCB150B3EB6
:1032B000DCE6AFBED614E5BC2CA123BDA1CFABBDCF
:1032C00016FE33BD062D0FBEECB7D4BD16FE33BDC2
:1032D00056E7823DD614653D37A0FDBDECB7D43D21
:1032E000B1A0503EA1CFABBD56E702BE66B8273EA7
:1032F0001967993EA1CF2BBEC17175BD26CF583E2F
:10330000D614E5BC56E702BDD61465BD56E7023CAF
:10331000015BC43C56E7823DCB150B3E56E7823B32
:10332000015BC43DA1CFABBD56E7023CB6729BBD6D
:1033300056E7823C56E702BC2CA1A33D015BC43C8E
:1033400056E7023D4144133D56E702BD56E7023DB4
:10335000D614653D2CA1A33C56E702BD56E782BBBF
:1033600056E7023CD614E5BC015BC43DD614653D6E
:1033700056E702BD015BC43C2CA1A3BCB6729BBD49
:10338000D614E5BC2CA1A33D5115B83E2CA1233D7C
:103390004C43EDBD2CA123BD16FE333D56E7023C48
:1033A0002CA123BD91FE06BE062D0F3EF1899FBEC6
:1033B0002CA1A3BC015B44BC56E702BD2CA1A33CDD
:1033C0002CA1A33C37A07DBE56E702BC56E7023DC8
:1033D000CB150BBED614E5BC2CA1A3BD56E702BD90
:1033E00091FE06BEECB7543D16FE333D16FEB3BD4E
:1033F0002CA1A3BC2CA123BD26CF583E015BC43C0D
:10340000A1CFABBD7689CCBDD61465BD015BC43CF4
:1034100056E7823D56E782BCDCE62FBE7689CCBDFE
:10342000015B44BC2CA1A33C015B443C56E782BB3E
:103430008C2CBCBD16FE33BE015B44BDB6729BBD79
:103440002CA1A33C56E7823D015BC43C56E7823C7D
:103450008C2CBC3D56E702BDF3F284BE015B443DBB
:103460008C2CBC3DA1CFAB3D8C2CBCBD8C2CBCBDF1
:10347000537E9DBEB6729B3D062D0F3E9CFDE03EE9
:103480002CA123BD015B44BC414493BD56E782BBE4
:103490002CA1A33CA1CFAB3D2CA1A33C56E7823D80
:1034A00016FE33BDECB754BD4144133D062D0F3E0F
:1034B000D614E53CD614653D8C2CBCBD414413BDEF
:1034C00056E7823C7689CCBD015B443D56E702BCA1
:1034D00056E7023D2CA1A3BCB6729B3D8C2CBC3D93
:1034E000414493BD2CA1233DB9DB80BEECB7D43D54
:1034F000ECB7D4BD015BC4BC91FE06BE0000000069
:10350000CB158BBDF1891F3E2CA1A3BC76894CBE87
:1035100037A07DBE7689CC3DD61465BDD614E5BDF9
:10352000CB150B3EECB7D4BDCB158B3DC171753DB2
:103530008C2CBC3DB6729B3DC171F5BD61E6DC3D96
:103540000000000056E7823C2CA1A3BDD614653DC7
:103550002CA1A33CD614E53C56E7023C2938BE3EDC
:10356000015B44BC015B44BC16FEB3BDB6721B3E9E
:1035700091FE063E61E6DC3D2CA1A3BD7689CC3DE3
:1035800004C4A9BE414413BD062D0FBE91FE06BE64
:103590008E95A1BE56E7023CD614E5BC015B44BD46
:1035A000A1CFAB3D56E7023EECB754BD7B5B17BEE7
:1035B000CB158B3D015B44BC7B5B173E16FE333D58
:1035C00056E7823B015B44BC015BC4BC56E7823BCF
:1035D000F3F2843EA338913EDCE62FBED614653E5E
:1035E000B6729BBD7B5B973E61E65CBE2CA123BEA1
:1035F000D614E53CCB150BBE56E7023CECB7543E67
:10360000015B443CECB7543D56E702BE414413BD58
:103610004144133D4144133D16FE333D000000007C
:103620002CA1A3BC015BC43C4144133DD614E53C32
:1036300056E702BC56E7023C56E7823C4144133E43
:10364000015B44BCCB158B3D16FEB33D0000000072
:10365000D614E53C56E782BB56E7823D56E782BC6E
:103660002CA1A3BC4C43EDBDD614653D2CA1A33CBD
:10367000015B443C56E7823B56E7023DA1CFAB3DA0
:103680002CA1233D16FE333D015B443CECB7543D79
:103690003C7248BE2CA1A33CECB7D4BD56E7023D1A
:1036A000D614E53C4144133D414413BDECB7D4BDB1
:1036B0004C43ED3D2CA1A33C16FEB33D56E7823CA6
:1036C00056E7823B2CA123BD2CA123BDCB158BBD7E
:1036D00056E7823D2CA1A3BC015B44BD2CA1A33CB9
:1036E00056E782BD015BC4BCC17175BD414413BDC9
:1036F0002CA1A33DB6729B3DC171753D56E782BCBE
:1037000016FE33BD8C2CBCBDC17175BD0000000020
:1037100056E782BD414493BD56E7023C61E6DC3D7D
:103720004144133E61E6DC3D56E7023D56E782BB6D
:10373000C17175BD2CA1A3BC56E702BD56E782BB83
:103740002CA123BDCB158B3D4144133D56E7023CD4
:103750008C2CBCBD4144133D56E7023DA1CF2B3E0E
:1037600016FEB33DD614E5BD3C7248BEECB754BD61
:103770005115383E875A71BE56E782BC2E0A893EE3
:10378000015B44BD91FE06BED614E5BC015BC4BC22
:10379000D614653D56E7823DA1CF2BBE56E782BDCC
:1037A000D61465BD16FE33BDECB7D4BD37A0FD3DC4
:1037B000015BC43C4144933D4144133D015B44BD26
:1037C000B6729BBD015B443DECB7D43D2CA1A33C3C
:1037D000414413BD4C43ED3D015B44BCD614653DF3
:1037E0002CA1A3BC2CA1A33CECB7D4BD16FEB33DC9
:1037F00016FEB33DD614E53C16FEB3BD015B44BCDA
:10380000414493BD16FE333D61E6DCBD56E7823D83
:10381000414493BD1967993EA33891BE2CA1A3BD25
:10382000D614E5BCC171F53D56E702BDD614653D21
:1038300061E6DC3D015B44BD2CA1A33D56E782BBA4
:103840002CA123BD015BC43CD614E53D66B827BE60
:1038500016FE333D4144133DECB754BD56E7823B61
:10386000D614E5BC062D0FBEA1CFABBD015B44BD98
:103870002CA1A3BC015B443C0000000056E7823B46
:10388000196799BE37A0FDBD56E782BC2CA1A3BC29
:1038900056E702BD56E702BD015B44BC56E7823DD8
:1038A0002CA1A3BC414493BD7B5B17BEDCE62FBEBD
:1038B00056E7023D56E7023D56E782BC7689CC3D8D
:1038C00056E782BD015B44BEC17175BDA1CFAB3D62
:1038D000C17175BD015B443C015BC4BD56E7023C50
:1038E00016FEB33D2CA1A33C66B8273E015B44BD48
:1038F00056E782BD414413BE2CA123BECB150BBE9F
:1039000056E7023C56E702BC2CA123BD015BC43C38
:103910002CA123BD56E7023C015BC43CC171F53DBF
:1039200056E702BD2CA1A3BC015B443CECB754BDDF
:10393000D614E53C015BC43DD614E5BCC171753DB0
:10394000015B44BC56E7023DCB158B3D414413BDA2
:1039500091FE063E2CA123BD8C2CBC3D4144933DE1
:10396000C171753D000000002CA1A3BC56E7023DCB
:10397000D614E53C56E7823B56E782BB00000000C8
:10398000015B44BC2CA1A3BCD61465BD2CA1233D76
:10399000015BC43C062D0FBEA1CFABBD56E782BB79
:1039A0008C2CBC3D015BC43D56E7823C56E782BB94
:1039B000ECB7D4BDCB158BBD015B44BC56E7023CD4
:1039C00056E7823BD614653D4144133D2CA1A3BD6F
:1039D00056E782BB015B443D56E702BC2CA1A33DE8
:1039E00016FE33BD2CA1A33CECB7D4BD2CA1A33D46
:1039F0002CA1A33CD614E5BCECB7543D2CA1A33CB0
:103A00002CA1A33C015B44BD2CA1A3BCA1CFAB3D29
:103A1000D614E5BD015B443C56E7023C56E7823DC7
:103A200056E7823B2CA123BD015B44BC16FE333D0F
:103A3000015B443CECB754BD015B44BC015BC43D3D
:103A400016FE33BDECB754BD16FE33BD4144933D65
:103A50004144133EC171753D16FE33BD015BC43C4C
:103A600056E7023D16FE333E2CA1A33C2CA1A33CFD
:103A700056E7823B015B44BD015BC43C2CA1233D66
:103A8000ECB7543D000000002CA1A3BC015BC4BDF9
:103A9000ECB754BD16FE33BD015BC43D2CA1A33C65
:103AA00016FEB3BD56E782BDC171753D2CA1233D05
:103AB000D614E5BC66B8273E3C72483E56E7823DC8
:103AC00056E782BC16FE333D015BC4BC16FE333D97
:103AD00056E7823D8C2CBC3DCB150B3E2CA123BD63
:103AE0004C43EDBD414413BE16FE33BD56E7023DC7
:103AF000C171753D2CA1A33CC171753D16FE33BD4E
:103B00002CA1233DECB754BE414493BDD61465BDF2
:103B10002CA1A3BD37A0FDBD414413BE3EDBAD3E8D
:103B200000000000D614E53C015BC4BC56E782BB34
:103B300061E6DC3D5115383ECB150BBE16FE333E1B
:103B4000A1CFABBDCB158B3E56E7823B414493BD25
:103B500016FE333DECB7543D015B44BD7B5B17BEA5
:103B6000ECB754BE00000000414493BDC9ACA53E73
:103B700066B8273E2CA1A33C015B443D0000000039
:103B8000A1CF2BBE16FE333D37A0FDBD2CA123BE19
:103B900037A0FDBD16FEB33D2CA1A3BC56E782BBEA
:103BA00016FE333D062D0FBE56E702BC56E7823D9A
:103BB00076894C3ED614E53C00000000D614E53D65
:103BC000414493BE015BC4BC414493BDB6729BBDEE
:103BD00016FE33BD4144933D414413BEF3F2843E8F
:103BE0008C2CBC3D56E702BC16FE333D56E7023D29
:103BF0002CA1A3BC015B44BDB6729BBD8C2CBC3D0B
:103C000061E6DCBD56E7823C16FEB33D00000000D5
:103C1000000000002CA1A33D56E7023D66B827BE78
:103C2000015B44BC2CA1A3BD4144933D16FEB33DB2
:103C3000D614653DC171F53D56E7823B56E7823BA0
:103C400056E702BC511538BE56E702BCD614E53D16
:103C500056E782BC61E6DC3DECB754BD414493BD00
:103C600056E7023EDCE62F3E015BC4BD062D0F3E4B
:103C70007689CC3DD614653D16FE33BDD614E5BC21
:103C8000D614653D4144933D062D0FBED61465BD47
:103C9000015B443D015B44BCD614653DC17175BDFB
:103CA0004144133ED614E53D37A0FDBD16FEB33D9D
:103CB00056E7023CA1CFABBDB6721BBE7689CC3DA8
:103CC00016FEB3BD56E702BE015BC43D16FE33BD12
:103CD000B6729BBD16FEB33D16FE333DECB7543DA8
:103CE0002CA123BE16FEB33DD614E5BD37A0FDBD05
:103CF000015B44BC015B443C56E7823C16FE333D0D
:103D0000D614E53C4144133E015BC43C56E702BE79
:103D1000414493BD7689CCBD015B443C000000006A
:103D200000000000C171F53D4144933D56E782BB60
:103D3000ECB7D4BD015BC4BC04C4A93ECB158BBD9C
:103D4000015BC43D56E782BDB6729BBDD614653D8E
:103D500056E702BC2CA1233D196799BEC171753D80
:103D60002CA1A33C2CA1A33DECB754BDD614653DBA
:103D7000B6729B3DC171F5BD76894CBED614653DCA
:103D8000015BC43C16FE33BD015B443CECB754BD43
:103D900056E702BE2CA1A3BD00000000B6729B3DF9
:103DA00056E7023C56E702BC2CA1A3BC56E702BD75
:103DB00056E7823C414493BD7689CC3DD614E53C20
:103DC000015B443DECB754BDB6729BBD414413BD8D
:103DD00061E6DC3D56E782BB56E7023C000000008E
:103DE00061E6DC3D015BC4BC16FEB33D56E702BD97
:103DF000D614E53C2CA123BD015BC43D7689CC3DA6
:103E0000D61465BD015B443D56E782BBECB754BD9B
:103E1000414493BD56E702BD2CA1233D4144933D4F
:103E2000D614E5BC875A713ED614E53CD614E53C61
:103E3000A1CFABBD2CA1233D56E7823D56E7823D85
:103E40002CA123BD015BC4BC56E782BDD61465BD61
:103E5000015BC43C015B443DC171F5BDECB754BD91
:103E600016FE333DD61465BDC171753D56E702BDE2
:103E7000015BC43CC171753D2CA1A33CECB7543D22
:103E8000D614E53C56E7823DB1A050BE015B44BC70
:103E9000C17175BD8C2CBC3DC17175BDA1CFABBDD1
:103EA000A1CFAB3D4144133D56E782BB2CA1A3BD3E
:103EB000C17175BDD614E53CECB7543D16FEB33D5B
:103EC00061E6DCBDD614653DCB150BBE00000000DD
:103ED00016FE333D2CA1A3BDB6729B3D2CA1A33C85
:103EE000D614E5BDB1A0503E37A0FDBD015BC4BDF9
:103EF00056E782BC56E702BED614E5BC4144133EE9
:103F0000D61465BD7689CC3D015B443C414413BD6C
:103F100000000000D614E53CECB7D4BD61E6DC3D02
:103F2000015B443C2CA123BD8C2CBCBDC17175BD73
:103F3000015B443C2CA123BD062D0F3E56E702BD7C
:103F40002CA1233D61E6DC3D2CA1A33C16FEB33D34
:103F500061E6DCBD4144133D015B44BD7B5B17BEA4
:103F6000D614E53C56E702BDB6729BBDC17175BD66
:103F7000D614E53D015BC43C56E7823BCB158B3D37
:103F8000015B443C015BC43D015B443D2CA123BD6E
:103F9000CB158B3D015B44BC2CA1A33D015B44BC14
:103FA000D614E53C015BC43CB9DB80BEC171753DF4
:103FB00056E782BB0000000016FE33BD4144133DAE
:103FC000ECB7D43DD614E53C66B8273E2CA1233D82
:103FD00000000000015BC43D56E782BBD614653D7E
:103FE0002CA1A3BD16FE333D062D0F3E2CA1233E72
:103FF0001967993E4144133D015B443CC171753DD5
:1040000066B827BEECB7D43D2CA123BD112C693E68
:1040100037A0FD3D56E7023C015BC4BC61E6DCBD58
:10402000015B443C16FEB3BD56E7023C56E7823BBB
:104030002CA123BD56E782BCECB7D4BDD614E5BC99
:1040400056E702BD56E7823BCB150BBEC171753DED
:10405000D614E5BCB9DB803E7B5B17BE2CA1A33D2B
:10406000C17175BD16FEB33D56E7823ED614653D5F
:10407000ECB754BD015B44BCB6721B3E7B5B17BE04
:1040800000000000015B44BC2CA1A3BC56E702BDAC
:104090004144133DA1CFAB3D56E7823B2CA1A33C4D
:1040A0004C43ED3D56E7023C16FE333D015B443C7C
:1040B000CB150B3EB6729BBDD614653D2CA1A3BC9F
:1040C00056E7823CD614653D015B443DC171753DA8
:1040D00016FEB3BDB6729B3D61E6DC3D414493BD27
:1040E0007689CCBD2CA1A3BD2CA1A33C2CA1233D42
:1040F0002CA1A3BD2CA1233D015B443CB6729BBD0A
:10410000015BC4BD8C2CBC3D015B44BDA1CFABBDEC
:10411000D614653D2CA1A3BC0000000061E6DCBD07
:1041200056E7823D7689CC3D56E702BD414413BD3A
:10413000D614E5BD2CA123BD56E782BD56E702BCCF
:10414000CB158B3DD614E53C56E7023C56E7823C46
:10415000A1CFABBD0000000056E702BD56E7823C90
:10416000015B443D015BC43C4144933D015B443DE4
:10417000015BC4BD37A0FDBD414413BD2CA1A3BC50
:10418000015BC43C56E782BD37A0FDBD414413BD71
:104190004C43EDBDC171753D56E7823B7689CC3D00
:1041A000D614E53DD61465BD015B44BDD614E5BC0F
:1041B0002CA1A33D015B44BC015B44BC2CA1A33DED
:1041C000414493BD16FEB3BD7B5B17BE4144133E15
:1041D000CB150B3E015BC43C16FE33BD4144133D81
:1041E000015B44BC8C2CBC3DECB7543E015B443CB1
:1041F0007689CC3DCB150BBE91FE063ED614653EAE
:10420000015BC43C56E7823C015B44BC015B443C1F
:10421000D614653D16FEB3BD61E6DC3D56E782BCB3
:10422000015B44BDECB7D4BD015B44BC56E7823BA7
:10423000015BC4BCECB7543D015B443C2CA1233D65
:1042400056E7823CA1CFABBD2CA123BD56E702BCF3
:104250008C2CBC3DD614E53C2CA123BD4144133D20
:10426000CB158BBDD614653D56E7023D2CA1A3BCF2
:1042700056E782BCD614653D015B443CC171753D77
:104280002CA1A33C56E7023C2CA123BD015BC43DFD
:104290002CA1A3BD2CA1A33CD614E53C2CA1233D0D
:1042A0004144133D56E702BCB6729BBDC17175BD5A
:1042B000C171753D56E7023CC171F5BD56E702BCC0
:1042C0000000000056E702BD56E7023CA1CFABBD9F
:1042D00056E7823B015B443CD61465BD56E7823C01
:1042E00056E782BB8C2CBCBD414413BD56E7823CD3
:1042F00056E702BC56E7823B56E7023DC171F5BD69
:10430000015B44BD2CA1233D000000007B5B17BE78
:1043100056E702BCCB158B3D2CA1A33C015B44BDF1
:104320002CA1A33D61E6DC3D56E782BC56E782BC8A
:10433000015BC43CD614E53C015B44BC4144133DE5
:10434000D614E5BCB6729B3D56E702BC2CA1A33D3A
:10435000C643403E015BC4BD56E7823C015BC43CA2
:1043600056E782BB66B8273E61E6DCBD015BC43C14
:1043700056E782BC76894CBED614E53C61E6DC3D4E
:1043800016FEB3BD015BC4BD8C2CBCBDECB7543E66
:1043900016FEB33D56E7823B56E7823C015B44BDC7
:1043A000015B443DECB754BDB6729B3D16FE33BD78
:1043B000ECB7D43D56E7023DCB158B3DD614653D99
:1043C0002CA1A3BDD614E5BC8C2CBCBDECB7D43D50
:1043D000D614E5BCC17175BD2CA123BD015B44BDE4
:1043E0002CA1A3BD56E7823B015B44BC015BC4BC6E
:1043F00056E7023D56E7023C414413BD56E702BD75
:104400008C2CBCBD16FE33BEC171753D16FEB33D8E
:10441000015BC4BC414493BD015B44BC56E7023D13
:10442000CB150BBE015BC4BD015BC4BCECB7D4BDF6
:104430007689CC3DB409B6BE015B443C26CF583EDC
:1044400056E7023D2CA1233E2CA1A33DA1CFAB3DBD
:10445000D614E53D414413BDC171F5BD2CA1233DEA
:104460002CA1A33DD61465BD015B44BD16FEB33D32
:1044700056E7023C7B5B17BE2CA1A33CA33891BE40
:104480002CA1A33CC171753D16FEB33D015BC43C3C
:1044900016FE33BD16FEB3BDECB7D43DA1CF2BBE87
:1044A000015BC4BC4144933D56E7023DD61465BD53
:1044B00016FEB3BD4C43EDBD2CA1A3BC56E782BD97
:1044C00076894CBED614E53C56E782BC56E702BD61
:1044D000015B443C4144133D56E7823EC171753E49
:1044E00056E702BDD614653EECB7D4BD5115383E33
:1044F000414413BDC17175BE56E7023ED61465BD79
:10450000015B443CA1CFABBDD614E53D414413BE95
:1045100066B827BE61E6DC3DECB7D4BD015B443C28
:1045200056E7023D015BC43DD614E5BDECB7D43D72
:10453000D614E5BDD614653DECB7543D66B827BE2C
:10454000B6729BBD16FEB3BD56E7023D2CA1A3BDBE
:104550002CA1A3BCECB754BDCB158B3D61E6DCBDF3
:10456000DCE62F3ED614E5BC4144933D015BC43DDF
:10457000D614E5BC2CA1233D2CA1A33C56E782BC5C
:10458000062D0F3EECB7D4BDD61465BD015B443C8F
:10459000D614653DD614E5BC015B44BCF1891FBE51
:1045A000015B443C56E7823B56E702BDECB7D4BD05
:1045B000015BC4BD56E782BBC64340BE8C2CBCBD6C
:1045C0002CA1A3BD015BC4BD16FE333D56E7823C62
:1045D0002CA1A3BDA1CFAB3D56E7023C2CA123BD2E
:1045E000414493BD16FE33BDD614E5BC3C72483E33
:1045F000ECB7D43D56E702BD8C2C3C3E56E7823CDE
:1046000091FE86BECB158BBD56E702BDA1CFABBDDB
:104610004144133D56E782BC56E7023DC17175BD6A
:104620002CA123BD062D0F3ED61465BDB6729BBDD1
:1046300056E782BC015B443DF1891FBE56E782BD4F
:10464000D614653D56E782BB2CA1A3BCC171F5BD54
:104650009CFD603E015B44BD16FEB3BD56E7023EC5
:10466000015B443C015B44BD2CA1A33CB6729B3E64
:104670008C2C3CBE26CF58BECB158BBD56E7023ED8
:10468000B6721BBE4144133D4144933D4144133E29
:10469000ECB754BD56E7023C16FEB33D414413BD92
:1046A00066B827BE16FEB33D16FE333D56E782BB05
:1046B000CB150BBE76894C3E015BC4BC2CA1A3BCC0
:1046C00056E7023D56E7823C414413BD2CA123BD71
:1046D000C171753D2CA1A3BD56E702BC015BC43C72
:1046E00056E7023D8C2CBC3D16FE333D56E7023C9E
:1046F000062D0FBE015B44BCECB754BD015B443ECC
:10470000414413BDB6729B3D2CA1A3BCA1CFABBD50
:10471000D614E53C2CA1A3BC16FE333D015BC43D81
:1047200056E702BD00000000A1CFAB3D61E6DC3DD5
:10473000015BC4BDD614E53CD614E5BC015B44BCAA
:10474000CB158BBDCB150B3E4144933DECB754BD0F
:10475000C17175BD062D0F3E015B443DA1CF2B3EBF
:1047600061E6DCBD16FE333DC64340BE56E702BCE3
:1047700056E782BDCB150BBE16FE333D91FE06BE3D
:10478000A1CFAB3D2CA1A33C56E7023C16FE333D26
:104790002CA123BDD614E53D37A0FDBD56E7023C54
:1047A00061E6DCBD56E782BCCB150BBED614653E78
:1047B00056E7023CECB7543DB6729B3D2CA1233D1D
:1047C0002CA1233DF1899FBE37A0FDBDA1CFAB3DFC
:1047D000015B443D56E7823D015BC4BD015B44BDC6
:1047E000ECB754BE015B44BC015BC43C56E7823C61
:1047F000D614653D2CA1233D91FE86BE37A0FDBD9C
:1048000056E782BC2CA1A33C56E702BDD614E53C7A
:1048100016FE333D2CA1A3BD015BC43C56E7023C10
:1048200056E7823C414413BDD614653D56E702BCB1
:1048300016FE33BD015B443D56E7023D2CA123BD6E
:1048400056E782BDC171753D56E702BC015B443C31
:1048500056E702BC91FE063ED61465BD2CA123BDD1
:10486000D614E5BC56E782BDD614E53C56E782BCBB
:10487000ECB7D4BD56E702BD16FE333D4144933D2F
:1048800056E702BCC171753D2CA1A3BD56E7823C21
:10489000B6729B3D015BC4BC56E7823C414413BDEC
:1048A00056E702BC56E782BC2CA1A3BC015B443D89
:1048B000ECB7543DECB7D43DB6729B3D414413BDBB
:1048C000D61465BD015B44BC16FEB3BDD614E5BC71
:1048D00037A0FDBD4144933D56E702BC56E782BC7C
:1048E00056E782BD56E782BB16FEB33D2CA1A3BDA1
:1048F00056E7023C00000000D61465BD56E7023DB5
:1049000056E702BD015B443C015BC4BDB6729BBD72
:1049100056E702BD0000000037A0FDBDD614E53CFF
:104920002CA1A3BD2CA123BDB6729B3D4144133DD8
:10493000C17175BDD614E53C015BC43DC17175BD47
:1049400056E702BC56E7023DD614E53C56E7823BEB
:10495000C17175BDD614E53C4144133D015BC4BC37
:104960007689CCBD56E7023CA1CFABBD2CA1A3BD3F
:10497000015B443C2CA1A33C2CA1A3BD414493BDAD
:1049800037A0FDBDD61465BD2CA1A3BC16FE33BD5A
:10499000C171F5BD56E782BDC17175BD015BC4BC77
:1049A000015BC43C56E782BD015BC43C2CA1A33C27
:1049B00056E782BBD614E5BC56E702BD56E702BDFA
:1049C000D614653D015BC4BD015B44BC2CA1233DF5
:1049D000ECB7543D16FE333D56E782BB2CA1A3BD78
:1049E0004144933DD614E5BC56E702BDD614653D5F
:1049F0002CA1A3BCB6729BBD61E6DCBD8C2CBCBDFA
:104A0000C17175BDECB754BD56E782BCC17175BDAF
:104A1000015BC4BCD614653D16FEB3BD4144133DD5
:104A200016FE33BD56E7023D8C2CBC3D015B44BCF9
:104A3000062D0F3ECB158BBD61E6DCBD56E7023D72
:104A400056E702BC4144933D2CA123BD4144933D14
:104A500056E702BCA1CFAB3DB6729BBD56E7023D07
:104A600056E7023D2CA1A33DD61465BD015B44BCB5
:104A700056E782BCD614E53C015BC4BCB6729B3DD4
:104A8000015BC4BC7B5B17BE56E782BB2CA1A33D78
:104A90002CA123BDD614E53C56E7023EA1CFABBD09
:104AA000015BC43CCB158BBD015B44BDECB754BD71
:104AB000015B44BCD614E5BC2CA1233DD614E5BD56
:104AC0004144133D2CA1233DD614E53C015BC43D7C
:104AD000D614E5BC015BC4BC2CA1A3BC16FEB3BDBF
:104AE000CB158B3DCB150BBE56E7023C76894C3E71
:104AF000ECB7543DB6729B3DB6729B3D56E782BB08
:104B0000414413BD4C43EDBD062D0FBE3C7248BE63
:104B10004C43EDBD16FEB33D56E702BD2CA1A3BC30
:104B2000414413BDB6729BBDC17175BDECB7543D18
:104B300056E782BC56E702BDB6729BBDECB754BDCA
:104B400056E7023D015BC43C015B443C56E7023C36
:104B500056E7023C56E7023D0000000037A0FDBDCD
:104B6000015BC43CA1CFABBD16FE33BDA1CFABBD35
:104B70002CA1A33D56E702BD015B44BC015B44BCD4
:104B8000015BC4BC16FE33BED614653D7B5B17BE0D
:104B9000414413BD56E702BC7B5B17BEB6729BBD9A
:104BA000C171753D015B44BD91FE063E644FC2BEBE
:104BB00016FE333D2CA123BECB150B3E015BC43C3E
:104BC000D61465BD56E782BC0000000026CFD83E53
:104BD000015B44BD56E7823BA1CFAB3D0000000026
:104BE000D61465BD0000000016FE333E4144133D5F
:104BF000B6729B3D2CA1A33C8C2CBC3DD614E53C4D
:104C0000414413BDF1891F3E414413BDECB754BD6F
:104C1000ECB7543D56E702BD015B443CD614653DFC
:104C2000D614E5BC56E7823B7689CC3DD614E53CEC
:104C300056E782BC56E782BD66B8273E7689CC3DF2
:104C4000015BC4BC8C2C3C3E015BC4BC56E7823B80
:104C50007689CC3D2CA1A3BCD614E5BD4144133DBF
:104C6000D614E5BC8C2C3C3E56E7023E015B443D2D
:104C70002CA123BD8C2CBCBD8E95A13E7689CC3D4C
:104C8000015BC43CB6729B3D2CA1A33C56E7823B22
:104C900056E782BBD614E53C015B44BC56E702BD37
:104CA000CB158BBD61E6DCBD2CA123BDB6721B3ECE
:104CB00056E7023E414413BDCB158B3D56E7023DFE
:104CC000D614653D56E7823D2CA123BD56E7823BB5
:104CD0002CA1A33C56E782BD015B44BCECB7D4BD1C
:104CE0002CA1A3BC414413BE2CA1233D015B443C39
:104CF000015B443C56E782BC4144133DB6729B3D88
:104D0000D614E53C16FEB3BD015B44BC56E782BC3D
:104D1000CB158BBD0000000056E7023C8C2CBC3D3F
:104D200056E782BD56E702BC2CA1233DC171F5BDFB
:104D3000015B44BC8C2CBCBD4144933D511538BE35
:104D400061E6DC3D015B443CCB150BBE015B443CA2
:104D5000C171753D56E782BCC171753D4C43EDBDD7
:104D60004144933DECB7543D56E7823B2CA1A33C14
:104D7000D614E5BC56E782BB2CA123BD015B44BD24
:104D80004144933D56E782BC8C2CBCBD4144933DCD
:104D90002CA1A33CD614653DD61465BD2CA1233DA2
:104DA000015BC4BD015BC4BC015BC4BCCB150B3E45
:104DB00056E702BC2CA1A3BCECB7D43D7689CCBD90
:104DC00016FE333D2CA123BDD61465BD4144133DD1
:104DD000CB150B3EB6729BBDB6729BBD56E7823DAE
:104DE000414493BD56E7023D062D0FBE56E782BCF7
:104DF0002CA1A3BD414413BDDCE62F3E56E7823B08
:104E000056E782BC56E7023D56E7823C56E7023C35
:104E1000015B443D56E702BD56E782BCD614E53D32
:104E2000015B443CECB7D43DA1CFAB3D015B443DBD
:104E300056E702BC16FE33BD015BC4BC56E7023D1B
:104E400056E702BDD614E53C2CA1233D2CA1A33D81
:104E500056E702BC56E7023D2CA1A33C56E7823D33
:104E60002CA123BD015B44BD56E782BBD614E5BC33
:104E7000CB158B3D00000000ECB754BD2CA1A33D29
:104E800056E782BB2CA1A3BC414413BD56E702BD2B
:104E9000015B44BD015B44BC16FE333D56E702BCDA
:104EA000A1CFABBD56E7023D414493BD56E7023D5D
:104EB000414413BD56E7023CD61465BDD614E5BC8B
:104EC000015B44BC16FE333DC171753D16FE333D9A
:104ED000B1A0D0BE015B44BCECB7D43D56E702BDE7
:104EE000C171753D56E7823CB6729BBDC171753D7F
:104EF0004144133D015B44BDD614E53C56E782BCFA
:104F000016FE333D015B44BC4144133D56E702BCF1
:104F100056E782BB015B443D7689CC3DD614E53C27
:104F200056E782BBA1CFAB3DC17175BDC171F53DE7
:104F3000015B44BC56E782BC37A0FDBD015B44BCAD
:104F400056E702BC7689CCBD8C2CBCBD16FE33BDA9
:104F50004144133D0000000056E7023C2CA1A33D54
:104F60008C2CBCBD0000000056E7823D015BC43CB8
:104F7000015BC43CECB754BD4144933D4144933D77
:104F8000000000002CA1A33D414493BDCB150B3E76
:104F9000D614E53C062D0F3E56E7823CA1CFAB3D33
:104FA000015B44BCA1CFABBD2CA1A3BCA1CFABBDC9
:104FB00056E782BBECB754BD015B44BD56E702BC6B
:104FC000015B44BCECB754BD56E7023C4144133E80
:104FD00016FE33BD2CA1233D56E7023D4C43ED3D6B
:104FE00056E7823CD614653D56E7023C015BC43C63
:104FF0002CA123BD56E7023D2CA1A3BCB6721B3EDB
:105000002CA1A3BD7689CCBD015BC4BC2CA1A3BCE3
:1050100000000000C171F5BD015BC4BC00000000D0
:105020004C43EDBDC171753D015BC4BC61E6DCBDA7
:105030008C2CBC3DB6729BBDB6721B3E56E7823CC3
:10504000D61465BD015B44BD2CA1A3BCD614653D3F
:10505000A1CFAB3D062D8F3E56E7023CB6721B3EFC
:10506000ECB7543D56E7023E4144933D56E7823D3E
:10507000F1891F3ECB158B3D91FE063E414493BD09
:10508000ECB7543DCB158B3D56E782BC16FE333D45
:10509000015BC4BC56E782BD8C2CBC3D56E782BB8D
:1050A000015B443D37A0FD3DA1CFABBD56E7023CBF
:1050B000D614653D56E702BD61E6DCBD56E7823C8D
:1050C00056E7823B8C2CBC3DDCE62FBE16FE333D02
:1050D000D614E5BCB6729B3D2CA1233D7689CC3D10
:1050E00091FE063EECB7D43D015BC43CD61465BDD1
:1050F0004144133D69218DBEB9DB803E66B8273E31
:1051000016FE33BDCB150B3EECB754BDB6729B3DBE
:10511000015BC4BD2CA1A3BC56E702BC16FEB3BD07
:105120002CA1233D2CA1A3BCA1CFAB3DB6729B3DCE
:1051300056E782BBD614E5BC015B44BD015BC4BD30
:1051400056E702BC2CA123BD015B443DB6729BBD5A
:1051500056E702BD91FE06BE16FE333ED614653DEF
:1051600056E702BD015B44BC00000000CB158B3D3F
:105170002CA1233D062D0FBE015BC4BDA1CFABBD4D
:105180007689CCBD56E702BD56E7023CCB150BBE77
:1051900037A0FDBD2CA123BD37A0FD3D015B443CE4
:1051A000015BC43CECB7D43D4C43EDBD4144933D61
:1051B000A1CFABBD015B443CC171753D16FEB33D53
:1051C000414413BDC171753D8C2C3CBE37A0FDBD63
:1051D00056E7823C2CA123BDC9ACA5BE16FE33BD4B
:1051E0004144933D56E702BDB6729B3D56E7023EF1
:1051F00056E782BC56E7823B4144133E76894CBE5B
:105200000000000056E7823B8C2C3CBEECB7543DBE
:10521000015B44BC56E7823B56E7023C8C2CBCBD8C
:1052200091FE063EF1891FBE2CA1A33C3C7248BEF4
:105230004C43ED3D062D0FBEF1891F3E2CA1A33D31
:1052400056E702BD015BC4BDD614653D7689CC3DF1
:105250008C2CBC3DECB7D43D56E7023CB1A0503E8F
:10526000062D0F3E7B5B173E16FEB33DC171F5BDAB
:10527000015B443DD614E5BDC643403E2CA123BE90
:10528000015B44BC0000000056E7823C015B443DEA
:10529000015BC4BCD614E53C56E702BC2CA1A33C80
:1052A000015BC43D015BC4BC414493BD16FEB3BD6C
:1052B0002CA1A3BCECB754BDD614E5BC56E702BD87
:1052C000062D0F3ECB150BBE015B443C56E782BD5D
:1052D000C643403E015B44BC015BC43CD61465BD83
:1052E000015BC4BDD614653D2CA1A3BCD614E5BD9D
:1052F000C171F53DC171753D56E702BC000000006B
:10530000D614653D8C2CBCBD56E702BC015B443D08
:105310004C43ED3DC171753DD61465BD015BC43C88
:1053200016FEB3BD56E7023C2CA1233DD61465BD45
:10533000C17175BDD614653D7689CC3D0000000075
:10534000ECB754BD56E782BBB6729BBD66B8273E2C
:10535000015B44BC16FEB33D2CA1A33C37A0FD3D30
:10536000D614E53C2CA1A33C56E7023D4C43EDBDD1
:1053700016FE33BD2CA1A3BC16FE333D2CA123BDCC
:10538000B6729B3DD614E53CB6721B3E56E782BB17
:10539000ECB754BD2CA1A3BD16FE333D56E782BC2D
:1053A000015B443D56E702BD015B44BDECB7D4BD93
:1053B0008C2CBCBDC171753D7B5B173ED614E5BC22
:1053C000D614653D56E7023D56E782BBECB754BDA7
:1053D00056E702BDECB7D4BD7B5B173E16FE33BD6E
:1053E00056E7023D56E782BB4C43ED3D015BC4BC32
:1053F000DCE62F3E16FE333DCB150B3E56E7023C56
:10540000D614E53C56E702BCD614E53C000000008B
:1054100037A0FDBDD614E53CECB7543EECB7D43D07
:1054200061E6DC3DD614653D56E702BE8C2CBCBD62
:1054300016FE333DA1CFABBDC171753D2CA1233EFE
:105440008C2CBCBDD614653D56E7023D4C43ED3D6A
:1054500016FE33BD00000000D614E5BD56E7823CC1
:105460002CA123BDC171753DB6721BBE56E7823CAF
:10547000015BC4BDECB754BD76894CBED614E5BD06
:1054800056E702BE2CA1A33C015B44BD37A0FD3D05
:1054900056E7823B414493BD000000004144933DE8
:1054A000CB158BBDCB150BBE16FE333E56E7823CAB
:1054B000015BC43C16FEB33D015B443CECB7543D7C
:1054C00056E702BCB6721BBE2CA1A33D56E782BDB7
:1054D00056E782BD2CA1233E7689CC3DA1CFAB3DC2
:1054E00089C3D6BE56E702BD56E782BD062D0F3EE4
:1054F000414413BD2CA1A3BDD614E5BC4C43EDBD66
:10550000A1CFAB3DCB158BBD112C693E56E7023CBC
:10551000CB158BBD414413BD015BC4BD7B5B173E06
:1055200056E7023E16FE333D015B44BD000000001D
:10553000D61465BD015B443C015B44BD414493BD51
:10554000414493BD66B827BE56E702BC61E6DC3D28
:10555000CB158B3D414493BDC643403ECB150B3E1E
:10556000D614E5BC112C693EB1A050BE56E7023DF1
:1055700056E702BDF1891FBEC17175BDC171753D90
:10558000015BC4BC015BC43C8C2CBC3D61E6DC3DD2
:10559000ECB7543E56E7023C56E782BB2CA1A3BDB4
:1055A000C171F53D7689CCBD61E6DC3DECB7D4BD7B
:1055B000B6729B3D56E782BB015BC43DB6729BBD94
:1055C00056E7023C56E702BCB6729BBD414413BD90
:1055D000C171753D2CA1A33C414493BD015B443C8A
:1055E000015BC43CFC88793ED614E53D2CA1A3BDEB
:1055F000414493BD61E6DCBD56E702BDD614E53CEF
:105600002CA1233DECB7543D56E702BD56E7023DC1
:105610007B5B17BE537E9DBE16FE333D16FEB3BDAB
:1056200056E702BDCB158B3D015B44BC56E702BC7F
:1056300056E782BB56E7823C2CA1233D16FE333D44
:10564000D614E5BD8C2CBC3D2CA1233DB6729BBD70
:1056500056E782BCECB754BD4144133DCB158BBD1E
:10566000F1891FBEA33891BE4144133DD61465BDD8
:10567000015BC4BC4C43ED3D56E7823C2CA1233D6D
:10568000D614E5BCA1CFABBD16FE333D56E702BC38
:105690005115383E56E702BC66B8273ED614E5BC25
:1056A00056E7023CC171F53D015B443C8C2CBC3D8E
:1056B000ECB7D4BD56E782BB56E7823DDCE62F3E11
:1056C000015B443CC17175BD37A0FDBDC171753E24
:1056D0002CA1233DD614E53CECB754BD56E7023C63
:1056E000A33891BE8C2CBCBDCB158B3D16FE333D33
:1056F00056E7023C8C2C3CBE56E7023ED614E53CF5
:10570000015BC4BC4144133D2CA1233D56E7823BC1
:10571000ECB7543DD614653D2CA1233DECB754BDE8
:10572000015B443CD61465BD015B443C2CA1A3BC89
:105730000000000016FE33BD4144133DECB7543D5C
:105740002CA1A33C56E7023C2CA1A3BD015BC4BC29
:10575000D614653DD614E5BC2CA1A3BC2CA1A33C5A
:1057600056E702BD56E7023CA1CFABBD015B44BC8E
:10577000D61465BD56E782BD414413BD015B44BCF0
:10578000D614653D4144133D015BC4BC015B44BC80
:10579000D614E53C414413BDD614653D16FE33BD19
:1057A000CB158B3D8C2CBCBD2CA1A33CC17175BD10
:1057B000D61465BD16FEB33D56E7023D16FE33BD59
:1057C0004144933D56E7823C56E782BDD614E5BC82
:1057D000015BC4BC8C2CBCBD015BC43CC171753D7C
:1057E000B6729BBD56E7823CC171F5BDD614E5BCCF
:1057F00056E782BB015BC4BC2CA1A3BD56E7023DAA
:10580000414413BD2CA1A33C16FE33BD56E7023D17
:10581000015BC4BC4144133DC171F5BD015BC4BC17
:1058200056E782BCB6729BBD2CA1233D56E7023CD5
:1058300037A0FDBD16FE333D4144133D000000007E
:10584000CB158B3DECB754BD56E7023C015B44BD24
:1058500056E782BB015B44BC015B443C015B44BC3A
:105860002CA1A33C2CA1233DC171753D56E7823B81
:105870002CA1233D414413BD7689CCBD56E7823B24
:10588000C171F5BD56E7023D2CA1A3BD56E7023C10
:105890004144933D7B5B17BECB158B3DECB754BDAC
:1058A000015BC4BC56E782BB2CA1A3BCD614E53C6B
:1058B000015B44BC2CA1A3BCCB158B3D56E782BD3C
:1058C000414493BDC17175BD56E7823B56E7023C2A
:1058D00056E782BD2CA1233DB6729B3D000000001F
:1058E000B6729B3D414413BDECB7D4BD56E7023DB3
:1058F00056E7823B56E782BBECB7D43D56E7023D04
:10590000D614E5BCA1CFAB3D56E702BCD614653D2D
:10591000F1891F3E015B443D56E7023D2CA1A3BC2B
:1059200000000000D614E53C56E782BB015B443C16
:105930002CA1A33C8C2CBC3D16FE33BED614653D79
:10594000015B44BDB6729BBD16FE33BD56E702BD7A
:10595000C17175BD015B443CA1CFABBD56E782BBB5
:1059600056E702BDCB158BBD414413BD2CA1A3BD91
:10597000C171753D56E7023D56E782BD56E782BCD0
:10598000B6729B3DD614E5BCC171F5BDECB7D4BD74
:1059900000000000A1CFAB3D16FEB33D062D0FBEAB
:1059A0007689CC3D56E702BCECB7543D2CA1A33C14
:1059B00066B8273ED61465BD00000000ECB7543D24
:1059C00056E7823C414493BD56E7823BCB158BBDE5
:1059D000C17175BD56E782BB4144133D2CA1233DE7
:1059E000B6729BBDD614653EF1891F3E56E7823BD9
:1059F000F1891F3ED614E5BC015BC4BCC171F5BD85
:105A0000015BC43CC17175BDCB158B3DCB150B3E05
:105A1000ECB7543D56E7823C4C43ED3D56E7023C23
:105A20007689CCBD8C2CBCBD414493BD015BC43C8C
:105A3000D614E5BC16FEB33D56E782BC56E782BDE0
:105A40007B5B173E0000000056E7823B56E702BD35
:105A500056E782BC56E7023CD614E53C56E7823C4A
:105A600056E702BC16FEB3BD2CA1233D56E782BC0F
:105A7000015BC4BC56E702BD2CA1A3BCD614E5BC97
:105A800056E7823C56E7823B2CA1A33C2CA123BDC8
:105A900016FE333D56E7823B062D0FBE16FEB33D84
:105AA000015B443C2CA1A3BD56E702BCD614E5BC67
:105AB000CB158BBD2CA1A3BDB6729BBE2CA1A33C64
:105AC0002CA1A3BD0000000056E782BDD61465BD21
:105AD000015B44BC0000000016FE333E2CA123BD38
