:0200000470107A
:1000000053544D32000000000000000000000000CA
:1000100000000000000000000000000000000000E0
:1000200000000000000000000000000000000000D0
:1000300000000000000000000000000000000000C0
:1000400000000000000000000000000000000000B0
:1000500000000000000000000000000000000000A0
:100060000000000041063B0300030200808C0800F2
:10007000CDD0023400000000FFFFFFFF00000000B1
:100080000000000000000080A0010000000000004F
:100090000000000000000000000000000000000060
:1000A0005354FFFFA0010000CF9D9E52A6AAE60870
:1000B000EEFD044CBAF73B48E8A7CE4905DFD5DD95
:1000C000C089CD8C3F291884D8B981DE58C09FD50E
:1000D0004349660A96918E457F112B186C4302CADC
:1000E000A3C4DC9E95FA9946A8AAA7469B66CC5461
:1000F0000CFAC97E409BF09BCD82CD2F2A64BFAF06
:100100008F19B984770E23B02295CE5E6422C5681C
:10011000FFAB7ACA4090A076A1D8500C94EB42F283
:1001200013AE894423B913CC2B8D63D593DE73F8BA
:10013000E91B27128DAF4684BF9205048FD81BEEB2
:100140006F99BC399CA635EF0619631B96C3F72D32
:100150007487F9F44AA69EFB570046F831AC449EDA
:10016000A6781A42F4C565FA229A3D9578F0C051F6
:100170009D8CFAFB2DC222BCD9E336D9B5F57500AA
:10018000DF9136DDC125081333B5567AE52D34CA23
:10019000D36AC5A20EDBE6ED9159AA960AE853FC94
:1001A000B375E209E8CA5E74F59072905408093894
:1001B0003D8F324B2597906E2886C25EA242E3B3F4
:1001C000015176DBC578B79D29273E03DCDDE5AE1E
:1001D000738687DE16262A92BB7341777A4FF541E4
:1001E00000FDA7F61A8345D73257DB0D7FC1E41314
:1001F000FEA11615560A728E36CE2CB5900D282605
:10020000874978C3202825E2A54C78C9D1E609534F
:10021000D3D6A3FBEA5B0CAE0A2C792DC11321B80F
:10022000B89B02D6DE639114FD07B89DB30C6783BB
:10023000BBC7455B01C677B8521F82A67ADF8178BB
:1002400000000000000000000000000000000000AE
:10025000000000000000000000000000000000009E
:10026000000000000000000000000000000000008E
:10027000000000000000000000000000000000007E
:10028000000000000000000000000000000000006E
:10029000000000000000000000000000000000005E
:1002A000000000000000000000000000000000004E
:1002B000000000000000000000000000000000003E
:1002C000000000000000000000000000000000002E
:1002D000000000000000000000000000000000001E
:1002E000000000000000000000000000000000000E
:1002F00000000000000000000000000000000000FE
:1003000000000000000000000000000000000000ED
:1003100000000000000000000000000000000000DD
:1003200000000000000000000000000000000000CD
:1003300000000000000000000000000000000000BD
:1003400000000000000000000000000000000000AD
:10035000000000000000000000000000000000009D
:10036000000000000000000000000000000000008D
:10037000000000000000000000000000000000007D
:10038000000000000000000000000000000000006D
:10039000000000000000000000000000000000005D
:1003A000000000000000000000000000000000004D
:1003B000000000000000000000000000000000003D
:1003C000000000000000000000000000000000002D
:1003D000000000000000000000000000000000001D
:1003E000000000000000000000000000000000000D
:1003F00000000000000000000000000000000000FD
:1004000000001034CDD00234F93A0034073B0034F8
:100410000F3B0034173B00341F3B0034273B0034B4
:100420000000000000000000000000002F3B00342E
:100430003D3B003400000000453B00344D3B0034A0
:1004400029D102340000000029D1023429D102341C
:1004500029D1023429D1023429D1023429D10234DC
:1004600029D102340000000029D1023429D10234FC
:1004700029D102344543003429D102340000000060
:1004800029D102340000000029D1023429D10234DC
:1004900029D1023429D1023429D1023429D102349C
:1004A00029D1023429D1023429D1023429D102348C
:1004B00029D1023429D1023429D1023429D102347C
:1004C00029D1023429D1023429D1023429D102346C
:1004D00029D1023429D1023429D1023429D102345C
:1004E00029D102340000000029D1023429D102347C
:1004F00029D1023429D1023429D10234593B0034A4
:10050000733B003400000000000000000000000009
:1005100029D1023499C9023429D1023429D10234B3
:1005200029D1023429D1023429D1023429D102340B
:1005300029D1023429D1023429D1023429D10234FB
:1005400029D1023429D1023429D1023429D10234EB
:1005500029D1023429D1023429D1023429D10234DB
:100740000000000029D1023429D102340000000049
:1007500010B5054C237833B9044B13B10448AFF3FB
:1007600000800123237010BDC08E083400000000FB
:100770001420033408B5034B1BB103490348AFF3FE
:10078000008008BD00000000C48E0834142003342B
:1007900090EDAD6A30B52DED108B90EDA87BB5EEE8
:1007A000C06A87B08DED027B002390EDA47BF1EE53
:1007B00010FA91ED015A91ED004A91ED02FB91ED95
:1007C00004EB044690ED123B90EDAACB90ED16ABF6
:1007D0008DED047B90EDA6BB80F8603009DCD0F88D
:1007E000C832D14898474FF0FF3007B0BDEC108BAE
:1007F00030BDB8EE455B9FEDBE7BB8EE444B25EEB9
:10080000077BB4EEC47BF1EE10FA0FDD90ED1C7B9C
:100810009FEDB92B37EE022B9FEDB97BB4EEC72BC2
:10082000F1EE10FA37FE027B80ED1C7B9FEDB67B6C
:1008300025EE075BB4EEC45BF1EE10FA10D594ED33
:100840001C7B9FEDAD5B37EE457B9FEDB15BB4EE5E
:10085000C57BF1EE10FA58BFB0EE475B84ED1C5B30
:1008600083EE0C8BBCEEC88BB8EE488B94F85050DE
:1008700028EE0C8B012DB7EEC66A40F0AC809FEDE0
:10088000A67B3FEE4E5B85EE07DB3FEE0E5B85EE13
:10089000079BB0EECD7BB4EEC76BF1EE10FAB0EE75
:1008A000C95B1FDBB4EEC56BF1EE10FA1ADB002357
:1008B00084F8783094ED1A7BB5EEC07BF1EE10FA37
:1008C00040F33481012384F860309DED027BB4EE67
:1008D000C7ABF1EE10FA40F13C819DED047B3AEE9E
:1008E00007BB28E1B4EEC56BF1EE10FA0CD589EE2A
:1008F0000D5B94EDAE6AB0EEC55BB7EEC66AB4EEC2
:10090000C65BF1EE10FAD5DAF7EECA0BB7EEC70BFD
:1009100031F05AF8B2EE047BB7EEC00A20EE070BB6
:10092000FCEEC87BB0EECE6BCDED017AB0EECF7BA6
:10093000B4EEC67BF1EE10FA62DCB5EEC0EBF1EE80
:1009400010FA62D538EE000B94ED3C7BB4EEC07B20
:10095000F1EE10FA03D5B0EE4BABB0EE470B94EDD1
:100960003A7BB4EEC07BF1EE10FA03DDB0EE4BAB98
:10097000B0EE470B80EE0C8BBCEEC88BB8EE488B0C
:10098000012D2CEE088B16D1B4F8E030022B3FD8A5
:10099000DDED017AB8EE677B04EBC30282ED207BCC
:1009A00082ED268B04EB0312013382ED2CDB82ED0A
:1009B0002E9BA4F8E03094F87830012B07D0FCEEA1
:1009C000C87B17EE903A019A93423FF473AF01232C
:1009D00084F860306EE7B0EECF7BB0EECE5BB4EE65
:1009E000475BF1EE10FA35FE077BB4EEC67BF1EE05
:1009F00010FA7FF65FAF9FED4A9BB0EE49DB83E7CD
:100A0000B5EEC0FBF1EE10FA9CD538EE400B9BE73B
:100A100094ED2A7B94EDAF6A38EE477BB7EEC66A59
:100A2000B0EEC77BB4EEC67BF1EE10FA56DB94ED68
:100A3000287B38EE477BB0EEC77BB4EEC76BF1EE98
:100A400010FA4BDD94ED320B94ED307B39EE400B18
:100A50003DEE477B20EE000BA7EE070B30F004FCC9
:100A600094EDB07AB7EEC77AB4EEC70BF1EE10FA98
:100A700034D5DDED017AB8EE678B84F8785094F8C0
:100A80007830002B97D1102204F1880104F1800006
:100A90002EF0A2FB102204F1A00104F198002EF028
:100AA0009BFBD4E93023DDED017AB8EE677BC4E926
:100AB0002C23D4E9322384ED247BC4E92E23D4E90A
:100AC000342384ED2A8BC4E93023D4E9362384ED22
:100AD00034DB84ED369BC4E932236CE794F878303C
:100AE000012B04BF002384F87830C8E7AFF30080FF
:100AF0009A9999999999A93F7B14AE47E17A843FD5
:100B0000343333333333C33F333333333333C33F7C
:100B1000111111111111B13FCD3B7F669EA0F63F1F
:100B20000000000000000000CA55083494F860304E
:100B3000002B7FF4CAAE88EE0C7BBCEEC77BB8EE10
:100B4000477B27EE0C7B84ED16BB84ED127B0120E6
:100B50004BE69DED02BBEEE790ED1A6BB5EEC06B78
:100B600090ED124BF1EE10FA90EDAA5BB0EE467BE1
:100B7000DFBF84EE057BBCEEC77BB8EE477B27EE7C
:100B8000057BB7EEC77B90ED3C5BB7EEC74AB4EE92
:100B9000C54BF1EE10FAC8BFB7EEC57B90ED3A5BDE
:100BA000B7EEC74AB4EEC54BF1EE10FA48BFB7EE48
:100BB000C57BB7EEC75AD0F8743230B580ED125B02
:100BC00093ED005AD0EDAC7AB4EEC75AF1EE675A05
:100BD000F1EE10FA4FF00001B0F8F83075FEA77A88
:100BE000013B8AB2934205D8442202FB030303F57A
:100BF000907311E000EB8204D4ED445A77EEA55ACD
:100C0000F4EEC75AF1EE10FA01F10101E9DB4423D9
:100C100003FB020202F59073B5EEC06BF1EE10FA21
:100C2000C0F8743205DC93ED007AB7EEC77A80ED38
:100C3000127B5A6803F1380142609A6803F1240478
:100C40008260DA68C2601A69026100F138025D6987
:100C50000C334561DD680C30C5601D69A342056138
:100C600051F8045B42F8045BF1D1012030BD10B5AE
:100C7000044690B070B10023084C40212370C4F8A2
:100C8000C802074B6846074A2EF05CF96846D4F85C
:100C9000C8329847204610B010BD00BFE08E08341F
:100CA000388A08340A560834002814BF01204FF04F
:100CB000FF30704780ED000A30B50C6844604C6826
:100CC00084608C68C460C96802F12404016100F189
:100CD000380115680C32456152F8085C0C30C5606B
:100CE00052F8045CA242056153F8045B41F8045BCE
:100CF000EFD130BD2DE9F04F2DED068B0E46B0EE55
:100D0000409BB0EE418B1D460446C7B0002800F062
:100D10008F819FEDCBAB80ED12AB0020CE494FF021
:100D20000008C4E91601C4E9A601C4E9AA01CB4937
:100D3000DFF85C93C4F8B0124FF07E51C4F8B412DF
:100D40004FF07C51C4E91A890FF2FC29D9E90089D6
:100D5000C4E91C89C4E9A4894FF00008C4F8B8129A
:100D6000BF49DFF83093C4F8BC124FF07F51002325
:100D7000C4E9A88901274FF00008C4F8C012711E09
:100D8000DFF8149388B20428C4E9A0890FF2C029BF
:100D9000D9E9008984F86030C4E9A289A4F8E03078
:100DA00084F87830A4F8787214D905234FF4807150
:100DB000AC4A06A82EF0C6F8D4F8C83206A8984760
:100DC00084F85070204647B0BDEC068BBDE8F04F6C
:100DD000FFF7C2BE95ED007AB7EEC77AB4EEC70B47
:100DE000F1EE10FA12DDD4F8C8329F48984795ED1D
:100DF000007AB7EEC77A8DED009B8DED027B9B4AA2
:100E00004FF4807106A82EF09DF8D5E74FF0440C02
:100E10000CFB065818ED117AB7EEC77AB4EEC71B73
:100E2000F1EE10FA41D5D4F8C8329148984798EDC0
:100E3000007AB7EEC77A8DED008B8DED027B8D4A7F
:100E4000DEE70CFB08F705EB070944372F4499ED63
:100E5000007AD7ED007AB4EEE77AF1EE10FA08F1F5
:100E6000010A00F1010021DBD4F8C832824898471A
:100E700097ED007AB7EEC77A8DED047BCDF808A028
:100E800099ED007AB7EEC77A43468DED007B7B4A39
:100E90004FF4807106A82EF055F8D4F8C83206A891
:100EA0009847012384F850308CE718461FFA80F8E1
:100EB0004145C6D800234FF0440CB01E9FB2B94242
:100EC00039D884ED3A9B84ED3C8B0020A4F8F8607F
:100ED00083B2994200F1010000F28B800027B846EE
:100EE00004F1FC0A04F5907905EB070B09EB070008
:100EF000442259462EF019FCDBF8003008F10108B5
:100F00004AF8043B1FFA88F39E4207F14407EBD8E6
:100F1000731E9BB2002E03F1010314BF1A46012277
:100F2000C4F8749204F5B271013A6AD1012384F8CD
:100F30005030237046E702EB8709B842D9ED007ABA
:100F40004FEA870807F1010A1ED908F10408904406
:100F500098ED007AB4EEE77AF1EE10FA14D8D4F8EE
:100F6000C8324748984798ED007AB7EEC77A8DEDBA
:100F7000047BCDF808A099ED007AB7EEC77A3B461E
:100F80008DED007B3F4A83E70CFB07F805EB080A71
:100F90009AED007AB4EEE77AF1EE10FA08F144081F
:100FA000A84408DA98ED007AB4EEE77AF1EE10FA88
:100FB00003F1010382D8D4F8C8323348984798ED3A
:100FC000007AB7EEC77A8DED047B9AED007AB7EE22
:100FD000C77A8DED027B99ED007AB7EEC77A3B4672
:100FE0008DED007B4FF48071284A06A82DF0AAFFF2
:100FF00053E702EB83073F6804EB8303C3F81071E8
:1010000066E7D4F8743291ED006A93ED007AB7EE9A
:10101000C66AB7EEC77A36EE4A6B37EE4A7BB4EE55
:10102000C76BF1EE10FA48BFC4F8741244317BE785
:101030004FF0FF3047B0BDEC068BBDE8F08F00BF2E
:10104000000000000088B3409A9999999999B93F96
:101050000000000000A06E400000F03F0000484289
:1010600000002F431A5608345E560834E5560834FB
:1010700043570834CB570834285808348C58083460
:10108000E458083453590834BD590834145A083404
:101090000000F0BF000008400000244030B50546C5
:1010A00014468DB052B9D0F8C8321D489847D5F8CB
:1010B000C8321C48984720460DB030BD93ED042B34
:1010C00093ED021B93ED000B0AAA08A906A800F0F5
:1010D0002FF8DDE90823CDE90223DDE90A23CDE974
:1010E0000423012398420446CDE90033DFD1694649
:1010F0002846FFF74DFB0128044603D0D5F8C83237
:101100000948D7E795F86030012BD4D12846FFF77E
:1011100023FD01280446CED0D5F8C8320348C9E7DC
:101120009A5A0834FB5A0834245B0834585B083454
:10113000B5EEC00BF1EE10FA1FB509D4B5EEC01B29
:10114000F1EE10FA04D4B5EEC02BF1EE10FA0DD585
:101150008DED022B8DED001B53EC102B44482DF030
:1011600081FE4FF0FF3005B05DF804FB9FED327B50
:10117000B4EEC70BF1EE10FA09DCB4EEC71BF1EECA
:1011800010FA04DCB4EEC72BF1EE10FA07DD8DED9A
:10119000022B8DED001B53EC102B3648DFE728B1F6
:1011A00089B1B2B93449354B084607E071B13349CA
:1011B0003148002A304A314B18BF134602463048A6
:1011C0002DF050FECDE72C492C48F2E72B4908467C
:1011D000EFE79FED1B7B9FED1C6B21EE077BB3EED2
:1011E000005BA0EE067B9FED1A6BA2EE057BA7EEDF
:1011F000065B9FED197B80ED005B27EE417BBBEE2C
:101200000A5BA0EE057B9FED165BA2EE057B27EE49
:10121000067B81ED007B9FED147B27EE411BB2EE38
:10122000047BA0EE051BA2EE471B21EE061B01204E
:1012300082ED001B97E700BF0000000000E06F4058
:101240000000000000A06340000000000080474054
:10125000000000000000703F0000000000805540CA
:101260000000000000005C400000000000805940C9
:10127000955B0834D35B08348F5B08348D5B08348E
:10128000135C08340000000010B5044690B060B153
:101290000023074C40212370A065064B6846064A90
:1012A0002DF050FE6846A36D9847204610B010BD43
:1012B000B09108343E8A08345D5C0834002814BFBD
:1012C00001204FF0FF30704738220A23C0E9042381
:1012D00064232D227821C0E9063240F2DC5230B579
:1012E000C0E9081241F2707442F6E062C0E90A42B5
:1012F0000BA5D5E9004505224FF0000C026548F228
:10130000E802C0E910C20122C0E90C4506A5D5E9F2
:101310000045C0E91223C0E90E4530BDAFF300809F
:1013200000000040E17A943F000000E04D62703F11
:1013300010B5044620B1FFF7C7FF0120207010BD93
:101340004FF0FF30FBE72DE9F0410E460446002840
:1013500000F0E180017801290BD102210170A56C18
:10136000C4E90126B54208D2616C914205D9A56055
:101370004CE00229F3D0002049E0D4F810C0B6EECA
:10138000005B07EE90CAB8EE676A07EE903AB8EED7
:10139000E77BB7EEC66A37EE057B86EE070B216D5D
:1013A000B7EEC00B8B424BD2F0EE007AB4EEE70AF8
:1013B000F1EE10FA44D4616CB7EE007A8A4220D282
:1013C000012A134638BF012307EE903AF8EEE77A78
:1013D00067EE807AFDEEE77A17EE903A8B42C1BF56
:1013E00007EE901AB8EEE76A07EE902AF8EE676A01
:1013F000C3BFC6EE267A0B4680EE270AB0EE470A38
:101400006360B4EEC70AF1EE10FA02DC0120BDE819
:10141000F081B7EEC00A2FF0F3FEB3EE047B20EEAE
:10142000070B9FED3F7B20EE070BBDEEC00B10EED0
:10143000103AE26C33449342D4BFA360A260E5E764
:10144000ACEB0307E16987EAE770A0EBE77088423D
:1014500047D8606AD4F814E0A1690EEB0C089845EF
:1014600007FB01F143D207EE900A9FED2F7AF8EEC9
:10147000E77A67EE877A07EE101AF1EE676AB8EE40
:10148000C77AB4EEE67AF1EE10FA04D5FDEEE77A0B
:1014900017EE903A59420029B8D0B54232D1606C6B
:1014A000904201D800292DDA02FB077707EE902A37
:1014B00006EE907A0029B8EEE77BB8EEE66B1EDA0E
:1014C00094ED0E5BA5EE067BBDEEC77B17EE102AF2
:1014D000236C9A42B8BF1A468242D4BF62606060F1
:1014E00094E7216A88422CBFE06AA06AB2E7ACEBBD
:1014F0000E0C9C458ADD8142A8BF0146CBE794EDE6
:101500000C5BDFE70E44B5423FF731AFE56CB54207
:10151000A8BF35462BE74FF0FF3078E7AFF30080E8
:101520000000000000408F409A99593F034613F88D
:10153000012B002AFBD1181A013870477BB972B908
:101540000029BEBF00204FF0004106E008BF002880
:101550001CBF6FF000414FF0FF3000F0FBB9ADF160
:10156000080C6DE904CE002909DB002B1ADB00F022
:101570004DF8DDF804E0DDE9022304B07047404295
:1015800061EB4101002B1BDB00F040F8DDF804E0CB
:10159000DDE9022304B0404261EB4101524263EBBA
:1015A00043037047524263EB430300F02FF8DDF82A
:1015B00004E0DDE9022304B0404261EB41017047E1
:1015C000524263EB430300F021F8DDF804E0DDE96B
:1015D000022304B0524263EB4303704753B94AB944
:1015E000002908BF00281CBF4FF0FF314FF0FF302B
:1015F00000F0B0B9ADF1080C6DE904CE00F006F8CA
:10160000DDF804E0DDE9022304B070472DE9F04F76
:10161000099D884604468E46002B4AD18A421746C9
:101620005FD9B2FA82F64EB1C6F1200301FA06FE86
:10163000B740B44020FA03F343EA0E0E4FEA1748CE
:101640001FFA87FC230CBEFBF8F108FB11EE01FB2F
:101650000CF243EA0E439A4207D9FB1801F1FF301E
:1016600002D29A4200F2548101469B1AA2B2B3FB05
:10167000F8F008FB103300FB0CFC42EA03429445EF
:101680000BD9BA1800F1FF332CBF01240024944574
:1016900002D9002C00F03F81184640EA0140A2EB3D
:1016A0000C0200211DB1F2400023C5E90023BDE872
:1016B000F08F8B4205D90DB1C5E900010021084624
:1016C000F5E7B3FA83F100294ED14345C0F012810A
:1016D000824240F20F810846002DE8D0C5E9004E55
:1016E000E5E7002A00F0AC80B2FA82F6002E40F066
:1016F000BB808B1A4FEA124EBCB20121020C80B2A1
:10170000B3FBFEFC0EFB1C3342EA034304FB0CF26A
:101710009A420ED9FB180CF1FF382CBF4FF001098B
:101720004FF000099A4203D9B9F1000F00F0EC80A4
:10173000C4469B1AB3FBFEF80EFB183304FB08F4F7
:1017400040EA034294420BD9BA1808F1FF332CBF88
:1017500001200020944202D9002800F0D180984650
:10176000121B48EA0C409DE7C1F120068B4008FAA5
:1017700001F400FA01F922FA06F728FA06F88A407D
:101780001F4320FA06F3380C23431FFA87FC1C0C76
:10179000B8FBF0FE00FB1E8844EA08440EFB0CF880
:1017A000A0450ED93C190EF1FF3A2CBF4FF0010BAA
:1017B0004FF0000BA04503D9BBF1000F00F0B8803B
:1017C000D646A4EB08041FFA83F8B4FBF0F300FB41
:1017D000134403FB0CFC48EA0444A4450ED93C190D
:1017E00003F1FF302CBF4FF001084FF00008A44573
:1017F00003D9B8F1000F00F09F80034643EA0E4082
:10180000A4EB0C04A0FB02EC64457346E04602D353
:1018100007D1F14505D2BEEB02036CEB070C013892
:10182000E0465DB1B9EB030264EB080404FA06F686
:1018300022FA01F3CC401E43C5E90064002136E7DB
:10184000B1FBF2FC010C144680B2964641EA084115
:101850002026904640EA01431046B1FBF2F1A3EB8B
:10186000080341EA0C414BE7B740C6F1200301FAF7
:1018700006F221FA03F84FEA174E20FA03F3BCB23E
:10188000B0401343020C190C80B2B8FBFEF90EFBFA
:10189000198841EA084109FB04F8884551D97918AB
:1018A00009F1FF3C2CBF4FF0010A4FF0000A8845B8
:1018B00002D9BAF1000F31D0A1EB0801B1FBFEF95A
:1018C00009FB04F80EFB19119BB243EA014343459F
:1018D00035D2FB1809F1FF312CBF4FF0010A4FF050
:1018E000000A4345BBD2BAF1000FB8D1A9F10201F9
:1018F0003B44B4E7841A68EB030201209646EBE60A
:101900003A44A8F102082BE7ACF1020C3B4410E783
:1019100002393B44A9E63A440238BEE6A7EB080880
:10192000A9F1020C4144B1FBFEF909FB04F8C9E737
:10193000AEF1020E3C4444E7023B3C445EE74946BC
:101940008DE7A1EB0801CC46B1FBFEF909FB04F8D9
:10195000B8E700BF704700BF80B594B000AFF86033
:10196000B9607A60002387F84730FB685B68B3F59D
:10197000F07F03D8FB685B68BB6402E04FF4F07350
:10198000BB64FB685B68B3F5F07F03D8FB685B68FA
:10199000FB6402E04FF4F073FB64FA6CBB681A60FE
:1019A000BA6C7B681A60FB6C7B61BB6CBB6101230A
:1019B000FB6102233B6297F84730FB6200237B62A6
:1019C0000023BB6207F1100207F11403194601203E
:1019D00020F0CCF938643B6C002B05D0044B054A51
:1019E0005A2105482CF004FA00BF5037BD4680BD8F
:1019F00060200334345603347020033480B590B033
:101A000000AF7860002387F83F308023FB6080239D
:101A10003B6100237B610323BB6197F83F307B620E
:101A20000123FB6100233B6207F10C037A6819462E
:101A3000022020F09BF9B863BB6B002B05D0054B4F
:101A4000054A7C2105482CF0D3F900BF4037BD463C
:101A500080BD00BF602003344C5603347020033433
:101A600080B58CB000AFF860B9607A6000237B610C
:101A70000023BB611E23FB6100233B6200237B62CA
:101A80000023BB6207F11403184620F09BF9F862AB
:101A9000FB6A002B05D00A4B0A4A8C210A482CF01D
:101AA000A7F907F11403BA68F9681846FFF754FF5D
:101AB0007868FFF7A3FF00BF3037BD4680BD00BF89
:101AC000A8200334605603347020033480B584B0FA
:101AD00000AF786039603A687968012020F008FA30
:101AE000F860FB68002B05D0044B054A9C21054893
:101AF0002CF07EF900BF1037BD4680BDA82003340E
:101B00006C5603347020033480B584B000AF786025
:101B100039603A687968022020F0EAF9F860FB68D9
:101B2000002B05D0044B054AA42105482CF060F990
:101B300000BF1037BD4680BDA8200334845603344F
:101B40007020033480B582B000AF00237B6020F0AA
:101B50009FFA78607B68002B05D0054B054AB221BF
:101B600005482CF045F900BF0837BD4680BD00BFD1
:101B7000A8200334985603347020033480B483B013
:101B800000AF78607B68022B05D1064B1B680133E0
:101B9000044A136000BF002318460C37BD465DF8A9
:101BA000047B70472095083480B586B000AF214B88
:101BB0007B607C237B6107F10C023B1D7969184631
:101BC00006F012FB0346002B2ED14FF4C0333B61CD
:101BD000FA683B6913403A699A4227D0FA683B6930
:101BE0001343FB60FA68381D0023796906F034FB63
:101BF0000346002B15D107F10C023B1D79691846ED
:101C000006F0F2FA0346002B08D1FA683B6913404C
:101C10003A699A420AD000F00FF807E000F00CF899
:101C200004E000F009F801E000F006F800BF183702
:101C3000BD4680BD0090005680B400AF00BFFDE7F8
:101C400080B586B000AF78607B683B613B698022DD
:101C50001A603B6980225A603B6906229A603B69A0
:101C6000194ADA603B69194A1A613B694FF460729C
:101C70005A613B690A229A613B69154ADA6101F0AF
:101C8000D1FE00237B6112E07A6913465B001344A6
:101C90001B01104A991810487A6913465B001344D7
:101CA000DB000344143319607B6901337B617B697A
:101CB000092BE9DD386925F0CDFFF860FB6818468F
:101CC0001837BD4680BD00BF3333333F9A99993EE4
:101CD0008C150A34009308341092083480B588B00B
:101CE00000AFF860B9607A603B60BB68022B06D039
:101CF0000F4B104A40F219110F482CF079F87B680D
:101D0000FB61FB681B683B61FB685B687B61FB698F
:101D10000A4A1A6007F110033A68F969184625F073
:101D2000A4FFB861BB6918462037BD4680BD00BF1F
:101D3000C0200334A8560334D02003341092083452
:101D400080B588B000AFF860B9607A607B80FB68CE
:101D50007B61BB68FB617B88BA8D02FB03F33B614F
:101D60000023BB6111E0BB697A6802FB03F37A6967
:101D700013443A691946F8692DF0D7FCFA693B69B2
:101D80001344FB61BB690133BB613B8DBA699A4265
:101D9000E9D300BF00BF2037BD4680BD90B58BB0F2
:101DA00002AF78603960854B1868844B5968834B63
:101DB0009A68824BDB680024009425F0B1F8002378
:101DC000FB61F1E0FA6913465B001344DB001A463D
:101DD0007B68134493ED017AFA6913465B00134460
:101DE000DB001A467B681344D3ED036AB0EE006A49
:101DF000C6EE867A37EE677A714B9B6807EE903AAB
:101E0000F8EE677A67EE277AFCEEE77A17EE902A0B
:101E10006B4B1B681344BB61FA6913465B001344A8
:101E2000DB001A467B68134493ED027AFA69134685
:101E30005B001344DB001A467B681344D3ED046A4D
:101E4000B0EE006AC6EE867A37EE677A5C4BDB68E6
:101E500007EE903AF8EE677A67EE277AFCEEE77ABB
:101E600017EE903A7B61FA6913465B001344DB007E
:101E70001A467B68134493ED037A514B9B6807EE37
:101E8000903AF8EE677A67EE277AFCEEE77A17EE7B
:101E9000903A3B61FA6913465B001344DB001A4633
:101EA0007B68134493ED047A454BDB6807EE903A68
:101EB000F8EE677A67EE277AFCEEE77A17EE903A4B
:101EC000FB603F4B1A683E4B9B681344BA699A42C9
:101ED00006D33B4B1A683A4B9B681344013B00E026
:101EE000BB69BB61364B5A68354BDB6813447A6972
:101EF0009A4206D3324B5A68314BDB681344013B9C
:101F000000E07B697B61BA693B691A442C4B196814
:101F10002B4B9B680B449A4208D3294B1A68284BD9
:101F20009B681A44BB69D31A013B00E03B693B61E3
:101F30007A69FB681A44224B5968214BDB680B44D1
:101F40009A4208D31E4B5A681D4BDB681A447B69C2
:101F5000D31A013B00E0FB68FB604FF0FF230093C6
:101F6000FB683A697969B86924F0B0FFBB695A42E5
:101F70003B69D01AFA6913465B001344DB001A462A
:101F80007B681344D3ED007A9FED0E7A67EE877A73
:101F9000B7EEE77A8DED007B0B4B0222796901F0F9
:101FA0008BFDFB690133FB61FA693B689A42FFF4E0
:101FB00009AF00BF00BF2437BD4690BD648A083416
:101FC000548A08340000C8421821033480B588B010
:101FD00000AFF860B9607A600023FB616FE0002316
:101FE000BB6165E0FA6913465B001344DB001A46E7
:101FF000FB6813445A69BB69DB00134493ED007A14
:10200000334B9B6807EE903AF8EE677A67EE277AD3
:10201000FCEEE77A17EE902A2D4B1B6813447B6188
:10202000FA6913465B001344DB001A46FB6813444D
:102030005A69BB69DB00134493ED017A244BDB68DA
:1020400007EE903AF8EE677A67EE277AFCEEE77AC9
:1020500017EE903A3B611E4B1A681D4B9B68134468
:102060007A699A4206D31A4B1A68194B9B68134433
:10207000013B00E07B697B61154B5A68144BDB68C0
:1020800013443A699A4206D3114B5A68104BDB68E5
:102090001344013B00E03B693B617B699BB23A69B9
:1020A00091B20C4A184624F095FDBB690133BB611F
:1020B000BA697B689A4295D3FB690133FB61FA697F
:1020C000BB689A428BD300BF00BF2037BD4680BD9E
:1020D000548A08340000FFFF80B586B002AFF86074
:1020E000B9607A604FF0804024F03CFC24F062FC40
:1020F0000346DB885B001946FB680093184B0122FE
:10210000002001F0D9FC24F055FC0346DB881A4678
:1021100013469B0013449B001946BB680093114B68
:102120000122002001F0C8FC24F044FC0346DB88B7
:102130001A4613465B001344DA00D31A19467B682B
:102140000093094B0122002001F0B6FC002024F08E
:1021500009FC00F0CFF800BF1037BD4680BD00BFBE
:10216000202103342C2103343C21033480B586B074
:1021700000AFF860B9607A60234B1B68234A02FB0A
:1021800003F3234A13440122194622480DF080F933
:1021900003467B617B69002B05D01F4B1F4AA6219C
:1021A0001F482BF025FEFB681A68FB685B68194620
:1021B0001046FFF7F3FDFB681868FB685B680622B2
:1021C0001946FFF703FFFB685B687A68B968184631
:1021D000FFF782FF012202210E480DF015F9034698
:1021E0007B617B69002B05D00B4B0C4ABF210C484F
:1021F0002BF0FEFD044B1B68C3F10103024A136080
:1022000000BF1837BD4680BDE094083400B80B000D
:1022100000000091A8590A344C210334BC56033401
:102220005C21033480B500AF0121002003F0C2FC23
:10223000294B1B68294A1360274B5B68274A936028
:10224000254B1A68244B9B681344244A5360224B45
:102250005A68214BDB681344204AD3601F4B02228B
:102260001A611F4A1D4B5A611C4A0021002003F0CD
:1022700055FE1C4B1B68194A13601A4B5B68174AC2
:102280009360184B1A68174B9B681344134A5360AA
:10229000144B5A68134BDB681344104AD3600F4B3E
:1022A00004221A61104A0D4B5A610C4A0121002088
:1022B00003F034FE0D4824F0A7FA012024F0FAFAC6
:1022C000002024F0F5FC0A4824F060FB4FF0FF30BA
:1022D00024F034FB00BF80BD548A0834E4940834F1
:1022E00000701791648A0834000000916C3B083438
:1022F000248C083480B500AF214B1B68002B04D11F
:1023000005F042FF03461E4A136005F03DFF0246FA
:102310001B4B1B68D31AB3F57A6F2ED24FF0804057
:1023200024F020FB24F046FB0346DB881B01194602
:10233000144B0122002001F0BFFB24F03BFB0346BD
:10234000DB881A4613461B01134419460E4B012223
:10235000002001F0B1FB24F02DFB0346DB881A4678
:102360001346DB0013445B001946084B0122002092
:1023700001F0A2FB002024F0F5FA00BF80BD00BFF1
:10238000FC9408349C210334B0210334CC21033461
:1023900080B485B000AF7860074A7B68C2F84C3AD9
:1023A000054BD3F84C32FB60FB6800BF1437BD46C9
:1023B0005DF8047B704700BF0080025680B485B092
:1023C00000AF7860074A7B68C2F8603A054BD3F8E3
:1023D0006032FB60FB6800BF1437BD465DF8047BCC
:1023E000704700BF0080025680B483B000AF7860B1
:1023F000044A7B68C2F8203A00BF0C37BD465DF83E
:10240000047B70470080025680B483B000AF7860D0
:10241000064B03F580531A467B68C2F8203200BF92
:102420000C37BD465DF8047B704700BF0080025644
:1024300080B483B000AF7860064B1B6A23F440324F
:1024400004497B6813430B6200BF0C37BD465DF83F
:10245000047B70470080025680B483B000AF786080
:10246000064B1B6A23F0407204497B6813430B62DE
:1024700000BF0C37BD465DF8047B704700800256F4
:1024800080B485B000AF78607B681B7D002B05D0E1
:102490007B685B68FB60FB681B6801E07B685B68CE
:1024A00018461437BD465DF8047B704780B582B08E
:1024B00000AF78607868FFF7E3FF02467B689B68AF
:1024C000134418460837BD4680BD80B483B000AFC2
:1024D00078607B68DA687B689B68D31A18460C378B
:1024E000BD465DF8047B704780B5ACB002AFBB4B16
:1024F0001B68BA4A43F4005313600020FFF798FFAB
:102500000020FFF7A9FF05F0D9FDB54B5B6903F487
:102510000033002B1BD1BFF34F8F00BFBFF36F8F72
:1025200000BFAF4B0022C3F85022BFF34F8F00BF54
:10253000BFF36F8F00BFAA4B5B69A94A43F4003316
:102540005361BFF34F8F00BFBFF36F8F00E000BF39
:10255000A24B1B68A14A43F480531360A04B5B69F4
:1025600003F48033002B3FD19D4B0022C3F884201D
:10257000BFF34F8F00BF9A4BD3F88030C7F8843039
:10258000D7F884305B0BC3F30E03C7F88030D7F85D
:102590008430DB08C3F30903FB67D7F880305A01A6
:1025A00043F6E0731340FA6F92078D491343C1F865
:1025B0006032FB6F5A1EFA67002BEED1D7F88030DD
:1025C0005A1EC7F88020002BE1D1BFF34F8F00BF08
:1025D000834B5B69824A43F480335361BFF34F8F6F
:1025E00000BFBFF36F8F00E000BF01F02DFD01F0D1
:1025F0003FFCFFF7D9FA01F0B9FC01F009FA00201D
:1026000004F0CAFC002004F095FD012387F838305F
:10261000012387F8393007F138031946002004F008
:10262000D9FA002004F0C0FB01F0A8FC01F0FCFC8A
:1026300001F066FC01F0AEF9C7F8980001F0B4F9BA
:10264000C7F89400D7F89800FFF730FF0346654AB3
:1026500013600023C7F8A43004E0D7F8A430013396
:10266000C7F8A430D7F8A4201346DB009B1ADB0080
:102670001A46D7F8943013441B68002BEDD1D7F8D5
:10268000A430052B05DD584B584A9A2158482BF0A9
:10269000AFFB0023C7F8A0302FE0D7F8A0201346E7
:1026A000DB009B1ADB001A46D7F894301344184617
:1026B000FFF7FCFE0246D7F8A0309B00A8333B444E
:1026C00043F8842CD7F8A0201346DB009B1ADB00CC
:1026D0001A46D7F8943013441846FFF7F6FE03461F
:1026E0001A46D7F8A0309B00A8333B4443F8982CF7
:1026F000D7F8A0300133C7F8A030D7F8A020D7F81A
:10270000A4309A42C9DBD7F89800FFF7DEFEC7F87D
:1027100090000023FB603748FFF792FA07F10C03A3
:102720001A4635493548FFF79BF9FFF77BFD002135
:102730003348FFF7CBF93B4600221A605A609A6093
:10274000FFF700FAFB68B3F5C07F04D004212D48E1
:10275000FFF7DAF903E004212B48FFF7D5F900BFB2
:102760002A4B1B68002BFBD0284B00221A60FB6809
:10277000B3F5C07F4CD0234BBB674CF220037B6783
:102780007B6F002B1DDDBB6F03F01F027B6F1344BB
:102790003B67BB6FFB66BFF34F8F00BF104AFB6EFA
:1027A000C2F85C32FB6E2033FB663B6F203B3B671D
:1027B0003B6F002BF2DCBFF34F8F00BFBFF36F8F77
:1027C00000BF00BFFA680323019380230093802396
:1027D0000D490C48FFF7B4FA41E000BF00E001E00A
:1027E00000ED00E024950834F8210334D456063473
:1027F0001C22033400950834608A08345C8A08344B
:1028000000701791605509344095083420950834BC
:10281000654BBB664FF440437B667B6E002B1DDD32
:10282000BB6E03F01F027B6E13443B66BB6EFB6501
:10283000BFF34F8F00BF5D4AFB6DC2F85C32FB6D8A
:102840002033FB653B6E203B3B663B6E002BF2DC8E
:10285000BFF34F8F00BFBFF36F8F00BF00BF544B5C
:102860001B68D7F89020534918462CF05EFF504B58
:102870001A68D7F89030BA657B657B6D002B1DDD3B
:10288000BB6D03F01F027B6D13443B65BB6DFB64A6
:10289000BFF34F8F00BF454AFB6CC2F87032FB6C30
:1028A0002033FB643B6D203B3B653B6D002BF2DC32
:1028B000BFF34F8F00BFBFF36F8F00BF00BF05F0A6
:1028C00063FC03463B603C4829F08EF807F1240086
:1028D0003A4B3B4AD7F8A410FFF700FAC7F88C0030
:1028E00005F052FC03467B60BB68002B03D105F06A
:1028F0004BFC0346BB60D7F88C30002B05D0314B26
:10290000314AEF2131482BF073FA7A683B68D31AC9
:10291000BA6819462A48FFF729FC0023C7F89C30FB
:102920003AE0D7F89C309B00A8333B4453F8843CF2
:10293000C7F88830D7F89C309B00A8333B4453F845
:10294000983CD7F88820BA647B647B6C002B1DDD33
:10295000BB6C03F01F027B6C13443B64BB6CFB63DA
:10296000BFF34F8F00BF114AFB6BC2F85C32FB6BA9
:102970002033FB633B6C203B3B643B6C002BF2DC65
:10298000BFF34F8F00BFBFF36F8F00BF00BFD7F8FB
:102990009C300133C7F89C30D7F89C20D7F8A4307E
:1029A0009A42BEDBCCE600BF4095083400ED00E063
:1029B00024950834D4560334748A083400950834B6
:1029C0004055093450220334D45606341C220334B3
:1029D00080B582B000AF78604FF48060FFF7D8FC1C
:1029E0004FF08040FFF7EAFC4FF08040FFF7FCFC1F
:1029F0004FF08040FFF708FD00BF0837BD4680BD9F
:102A000080B483B000AF7860396000BE00BFFDE7DE
:102A100080B487B000AF786039601D4B5B6903F408
:102A20008033002B01D0012300E00023002B27D0AE
:102A30007B6839687A688A1A7B613A613B69002B46
:102A40001DDD7B6903F01F023B691344FB607B695A
:102A5000BB60BFF34F8F00BF0D4ABB68C2F85C324A
:102A6000BB682033BB60FB68203BFB60FB68002B2E
:102A7000F2DCBFF34F8F00BFBFF36F8F00BF00BF0B
:102A8000002318461C37BD465DF8047B704700BF25
:102A900000ED00E080B487B000AF786039601D4B76
:102AA0005B6903F48033002B01D0012300E0002395
:102AB000002B27D07B6839687A688A1A7B613A6173
:102AC0003B69002B1DDD7B6903F01F023B6913444A
:102AD000FB607B69BB60BFF34F8F00BF0D4ABB68D3
:102AE000C2F86832BB682033BB60FB68203BFB60E8
:102AF000FB68002BF2DCBFF34F8F00BFBFF36F8F7B
:102B000000BF00BF002318461C37BD465DF8047B9C
:102B1000704700BF00ED00E080B487B000AF786080
:102B200039601D4B5B6903F48033002B01D0012316
:102B300000E00023002B27D07B6839687A688A1A66
:102B40007B613A613B69002B1DDD7B6903F01F024D
:102B50003B691344FB607B69BB60BFF34F8F00BFD1
:102B60000D4ABB68C2F87032BB682033BB60FB689B
:102B7000203BFB60FB68002BF2DCBFF34F8F00BFF4
:102B8000BFF36F8F00BF00BF002318461C37BD4640
:102B90005DF8047B704700BF00ED00E080B582B0B7
:102BA00000AF786039607A683B68134419467868EA
:102BB000FFF770FF00BF0837BD4680BD80B582B00B
:102BC00000AF786039607A683B68134419467868CA
:102BD000FFF71EFF00BF0837BD4680BD80B485B03B
:102BE00000AFF860B9607A60032318461437BD4619
:102BF0005DF8047B704780B483B000AF7860002339
:102C000018460C37BD465DF8047B704780B485B02C
:102C100000AFF860B9607A60032318461437BD46E8
:102C20005DF8047B704780B483B000AF7860002308
:102C300018460C37BD465DF8047B704780B400AF82
:102C400001231846BD465DF8047B704780B400AF91
:102C500001231846BD465DF8047B704780B5B0B0CF
:102C600000AF786007F10C03B422002118462CF065
:102C7000CDFA28233B7380233B6180237B610323B0
:102C8000BB610123FB614FF440433B624FF4C063DF
:102C90007B620C23BB620423FB624FF440333B6333
:102CA0001D4B7B638023FB6380233B6403237B6496
:102CB0000123BB644FF44043FB644FF4C0733B6596
:102CC00003237B650123BB654FF44043FB65134B36
:102CD0003B66012387F864300123BB67104BC7F8BC
:102CE0008C30012387F890300123C7F8A4300D4BB6
:102CF000C7F8B830012387F8BC3007F10C03184639
:102D000029F0D8FE4FF440410448FFF747FF00BFC9
:102D1000C037BD4680BD00BF00002E3400003134F6
:102D2000705B0271A05B027180B582B000AF786009
:102D30004FF4C0310348FFF741FF00BF0837BD46DD
:102D400080BD00BF0000313480B586B004AF78602C
:102D50004FF4C0310F48FFF731FF0021002026F06B
:102D6000BDFC0D4B19680D4B1B6807220392062210
:102D700002920B4A01920B4A00920B4A0B4827F031
:102D8000D1FC4FF4C0310348FFF708FF00BF0837FC
:102D9000BD4680BD00002E34A48A0834A88A0834B9
:102DA00044C9073440C9073408C90734D0C80734B8
:102DB00080B582B000AF78604FF4E0310348FFF790
:102DC000FDFE00BF0837BD4680BD00BF00C02F34E8
:102DD00080B586B004AF78604FF4E0310F48FFF75C
:102DE000EDFE0021002026F079FC0D4B19680D4BFB
:102DF0001B6802220392012202920B4A01920B4AA3
:102E000000920B4A0B4827F08DFC4FF4E031034849
:102E1000FFF7C4FE00BF0837BD4680BD00803134D7
:102E2000AC8A0834B08A0834FCC90734F8C90734BE
:102E3000C0C9073488C9073480B582B000AF786054
:102E40004FF400410348FFF7B9FE00BF0837BD4605
:102E500080BD00BF00802E3480B586B004AF78609E
:102E60004FF400410F48FFF7A9FE0021002026F093
:102E700035FC0D4B19680D4B1B6808220392042288
:102E800002920B4A01920B4A00920B4A0B4827F020
:102E900049FC4FF400410348FFF780FE00BF0837AC
:102EA000BD4680BD00002F34B48A0834B88A083487
:102EB000B4CA0734B0CA073478CA073440CA0734E2
:102EC00080B582B000AF78604FF400410348FFF74F
:102ED00075FE00BF0837BD4680BD00BF00802E34A0
:102EE00080B586B004AF78604FF400410F48FFF71B
:102EF00065FE0021002026F0F1FB0D4B19680D4BFB
:102F00001B6805220392032202920B4A01920B4A8C
:102F100000920B4A0B4827F005FC4FF40041034890
:102F2000FFF73CFE00BF0837BD4680BD00002F34D0
:102F3000BC8A0834C08A08346CCB073468CB0734A9
:102F400030CB0734F8CA073480B582B000AF786060
:102F50004FF410410348FFF731FE00BF0837BD466C
:102F600080BD00BF00002E3480B586B004AF78600D
:102F70004FF410410F48FFF721FE0021002026F0FA
:102F8000ADFB0D4B19680D4B1B6809220392022201
:102F900002920B4A01920B4A00920B4A0B4827F00F
:102FA000C1FB4FF410410348FFF7F8FD00BF08379D
:102FB000BD4680BD00902E34C48A0834C88A0834C7
:102FC00024CC073420CC0734E8CB0734B0CB07340B
:102FD00080B582B000AF78604FF410410348FFF72E
:102FE000EDFD00BF0837BD4680BD00BF00202F3477
:102FF00080B586B004AF78604FF410410F48FFF7FA
:10300000DDFD0021002026F069FB0D4B19680D4BFA
:103010001B6800220392092202920B4A01920B4A7A
:1030200000920B4A0B4827F07DFB4FF410410348F8
:10303000FFF7B4FD00BF0837BD4680BD0040303407
:10304000CC8A0834D08A0834DCCC0734D8CC073496
:10305000A0CC073468CC073480B582B000AF78606C
:103060004FF428410348FFF7A9FD00BF0837BD46CC
:1030700080BD00BF00A82E3480B586B004AF786054
:103080004FF428410F48FFF799FD0021002026F05A
:1030900025FB0D4B19680D4B1B680022039208227B
:1030A00002920B4A01920B4A00920B4A0B4827F0FE
:1030B00039FB4FF428410348FFF770FD00BF083784
:1030C000BD4680BD00502F34D48A0834D88A0834D5
:1030D00094CD073490CD073458CD073420CD073434
:1030E00080B582B000AF78604FF440510348FFF7DD
:1030F00065FD00BF0837BD4680BD00BF00302E34DF
:1031000080B586B004AF78604FF440510F48FFF7A8
:1031100055FD0021002026F0E1FA0D4B19680D4BFA
:103120001B6804220392032202920B4A01920B4A6B
:1031300000920B4A0B4827F0F5FA4FF44051034830
:10314000FFF72CFD00BF0837BD4680BD00602E3460
:10315000DC8A0834E08A08344CCE073448CE073481
:1031600010CE0734D8CD073480B582B000AF786078
:103170004FF440510348FFF721FD00BF0837BD461B
:1031800080BD00BF00302E3480B586B004AF7860BB
:103190004FF440510F48FFF711FD0021002026F0A9
:1031A0009DFA0D4B19680D4B1B68062203920522F0
:1031B00002920B4A01920B4A00920B4A0B4827F0ED
:1031C000B1FA4FF440510348FFF7E8FC00BF08375D
:1031D000BD4680BD00602E34E48A0834E88A083495
:1031E00004CF073400CF0734C8CE073490CE07345D
:1031F00080B582B000AF78604FF460510348FFF7AC
:10320000DDFC00BF0837BD4680BD00BF00002E3486
:1032100080B586B004AF78604FF460510F48FFF777
:10322000CDFC0021002026F059FA0D4B19680D4BFA
:103230001B6809220392022202920B4A01920B4A56
:1032400000920B4A0B4827F06DFA4FF46051034887
:10325000FFF7A4FC00BF0837BD4680BD00382E3400
:10326000EC8A0834F08A0834BCCF0734B8CF07346E
:1032700080CF073448CF073480B582B000AF786084
:103280004FF460510348FFF799FC00BF0837BD4673
:1032900080BD00BF00702E3480B586B004AF78606A
:1032A0004FF460510F48FFF789FC0021002026F001
:1032B00015FA0D4B19680D4B1B6809220392022267
:1032C00002920B4A01920B4A00920B4A0B4827F0DC
:1032D00029FA4FF460510348FFF760FC00BF08373C
:1032E000BD4680BD00E02E34F48A0834F88A0834E4
:1032F00074D0073470D0073438D0073400D0073486
:1033000080B582B000AF78604FF480410348FFF78A
:1033100055FC00BF0837BD4680BD00BF00002E34FD
:1033200080B586B004AF78604FF480410F48FFF756
:1033300045FC0021002026F0D1F90D4B19680D4BFA
:103340001B6808220392072202920B4A01920B4A41
:1033500000920B4A0B4827F0E5F94FF480410348EF
:10336000FFF71CFC00BF0837BD4680BD00402E346F
:10337000FC8A0834008B08342CD1073428D1073458
:10338000F0D00734B8D0073480B582B000AF786091
:103390004FF480410348FFF711FC00BF0837BD46DA
:1033A00080BD00BF00802E3480B586B004AF786049
:1033B0004FF480410F48FFF701FC0021002026F068
:1033C0008DF90D4B19680D4B1B68012203920022E9
:1033D00002920B4A01920B4A00920B4A0B4827F0CB
:1033E000A1F94FF480410348FFF7D8FB00BF08372D
:1033F000BD4680BD00102F34048B0834088B083480
:10340000E4D10734E0D10734A8D1073470D10734B0
:1034100080B582B000AF78604FF490410348FFF769
:10342000CDFB00BF0837BD4680BD00BF00002E3475
:1034300080B586B004AF78604FF490410F48FFF735
:10344000BDFB0021002026F049F90D4B19680D4BFA
:103450001B6808220392072202920B4A01920B4A30
:1034600000920B4A0B4827F05DF94FF49041034856
:10347000FFF794FB00BF0837BD4680BD00482E34DF
:103480000C8B0834108B08349CD2073498D2073444
:1034900060D2073428D2073480B582B000AF78609C
:1034A0004FF490410348FFF789FB00BF0837BD4642
:1034B00080BD00BF00902E3480B586B004AF786028
:1034C0004FF490410F48FFF779FB0021002026F0D0
:1034D00005F90D4B19680D4B1B6801220392002260
:1034E00002920B4A01920B4A00920B4A0B4827F0BA
:1034F00019F94FF490410348FFF750FB00BF08371C
:10350000BD4680BD00202F34148B0834188B08343E
:1035100054D3073450D3073418D30734E0D20734D8
:1035200080B582B000AF78604FF4A0410348FFF748
:1035300045FB00BF0837BD4680BD00BF00002E34EC
:1035400080B586B004AF78604FF4A0410F48FFF714
:1035500035FB0021002026F0C1F80D4B19680D4BFA
:103560001B6809220392082202920B4A01920B4A1D
:1035700000920B4A0B4827F0D5F84FF4A0410348BE
:10358000FFF70CFB00BF0837BD4680BD00502E344E
:103590001C8B0834208B08340CD4073408D407342F
:1035A000D0D3073498D3073480B582B000AF7860A9
:1035B0004FF4A0410348FFF701FB00BF0837BD46A9
:1035C00080BD00BF00A02E3480B586B004AF786007
:1035D0004FF4A0410F48FFF7F1FA0021002026F038
:1035E0007DF80D4B19680D4B1B68002203920922D0
:1035F00002920B4A01920B4A00920B4A0B4827F0A9
:1036000091F84FF4A0410348FFF7C8FA00BF08370C
:10361000BD4680BD00402F34248B0834288B0834ED
:10362000C4D40734C0D4073488D4073450D4073402
:1036300080B582B000AF78604FF4B0410348FFF727
:10364000BDFA00BF0837BD4680BD00BF00002E3464
:1036500080B586B004AF78604FF4B0410F48FFF7F3
:10366000ADFA0021002026F039F80D4B19680D4BFA
:103670001B6808220392072202920B4A01920B4A0E
:1036800000920B4A0B4827F04DF84FF4B041034825
:10369000FFF784FA00BF0837BD4680BD00582E34BE
:1036A0002C8B0834308B08347CD5073478D507341C
:1036B00040D5073408D5073480B582B000AF7860B4
:1036C0004FF4C0510348FFF779FA00BF0837BD46F1
:1036D00080BD00BF00982E3480B586B004AF7860FE
:1036E0004FF4C0510F48FFF769FA0021002025F080
:1036F000F5FF0D4B19680D4B1B6809220392072239
:1037000002920B4A01920B4A00920B4A0B4827F097
:1037100009F84FF4C0510348FFF740FA00BF0837DB
:10372000BD4680BD00182E34348B0834388B0834E5
:1037300034D6073430D60734F8D50734C0D507342B
:1037400080B582B000AF78604FF460710548FFF734
:1037500035FA4FF460510448FFF730FA00BF0837DC
:10376000BD4680BD00182E3400982E3480B5B0B010
:1037700000AF786007F10C03B422002118462BF04B
:1037800045FD2A233B7301233B614FF460737B614A
:103790000123BB610123FB614FF460733B624FF473
:1037A00060737B620123BB620123FB624FF4607391
:1037B0003B631F4B7B63012387F838300123FB6396
:1037C0004FF460733B6401237B640123BB644FF4BB
:1037D0006073FB644FF460633B6504237B650423E3
:1037E000BB654FF46063FB65124B3B66012387F8B2
:1037F00064300123BB67104BC7F88C30012387F876
:1038000090300123C7F8A4300C4BC7F8B83001231F
:1038100087F8BC3007F10C03184629F0D1FA4FF4B1
:1038200060610448FFF7BAF900BFC037BD4680BDEC
:1038300000182E3400C02F34805B0271B05B02711F
:1038400080B584B002AF78604FF460510C48FFF748
:10385000B5F90021002025F041FF03230193022345
:1038600000930323074A0221074827F01FF94FF46A
:1038700060510348FFF792F900BF0837BD4680BD8D
:1038800000E02E3420D7073478D6073480B5B0B0A6
:1038900000AF786007F10C03B422002118462BF02A
:1038A000B5FC2A233B7310233B614FF460737B61AB
:1038B0000123BB610123FB614FF460533B624FF472
:1038C00060737B620123BB620123FB624FF4605390
:1038D0003B631F4B7B63012387F838301023FB6366
:1038E0004FF460733B6401237B640123BB644FF49A
:1038F0006053FB644FF460633B6504237B650423E2
:10390000BB654FF46043FB65124B3B66012387F8B0
:1039100064300123BB67104BC7F88C30012387F854
:1039200090300123C7F8A4300C4BC7F8B8300123FE
:1039300087F8BC3007F10C03184629F041FA4FF420
:1039400060410448FFF72AF900BFC037BD4680BD7B
:1039500000E02E3400002E34605B0271905B027137
:1039600080B582B000AF78604FF460410348FFF744
:1039700025F900BF0837BD4680BD00BF00E02E34EA
:1039800080B400AF024B1846BD465DF8047B70471B
:10399000FCD7073480B400AF024B1846BD465DF833
:1039A000047B704794DB073480B400AF024B1846A9
:1039B000BD465DF8047B704724DC073480B400AF5B
:1039C000024B1846BD465DF8047B704704DD0734A2
:1039D00080B500AF034B044A1A60024804F056FD5C
:1039E00000BF80BD80150A3400FC0D5880B582B040
:1039F00000AF064804F080FD0346FB71FB79022B03
:103A0000F7D000BF00BF0837BD4680BD80150A341F
:103A100080B500AF0249002001F066FA00BF80BD0A
:103A20003C8B083480B483B000AF00237B6034E06B
:103A30007B689B001E4A9B0013441A681D497B68E3
:103A40001B010B441A607B689B000133184A9B00E2
:103A500013441A6817497B681B010B4404331A602E
:103A60007B689B000233124A9B0013441A68114979
:103A70007B681B010B4408331A607B689B0003338F
:103A80000B4A9B0013441A680A497B681B010B44CC
:103A90000C331A607B6801337B607B68B3F5607F11
:103AA000C6DB00BF00BF0C37BD465DF8047B704726
:103AB000E80208348C150A3408B480B587B000AF2A
:103AC000F860B9601346FB7107F128037B617B69DD
:103AD0007A6A302107482BF0DDFAFB79054AB9688C
:103AE000F86823F03BF900BF1C37BD46BDE88040B5
:103AF00001B070478C4D0A3480B400AF00BFBD46A2
:103B00005DF8047B704780B400AF00BFFDE780B470
:103B100000AF00BFFDE780B400AF00BFFDE780B499
:103B200000AF00BFFDE780B400AF00BFFDE780B489
:103B300000AF00BFBD465DF8047B704780B400AFA6
:103B400000BFFDE780B400AF00BFFDE780B500AF68
:103B500004F006FB00BF80BD80B582B000AF1EF050
:103B6000FBF87860786805F073FD00BF0837BD4644
:103B700080BD80B582B000AF1EF0EEF87860786846
:103B800005F082FB00BF0837BD4680BD80B400AFA2
:103B900001231846BD465DF8047B704780B582B0AE
:103BA00000AF786039602BF085FD034616221A605D
:103BB0004FF0FF3318460837BD4680BD80B582B050
:103BC00000AF78604FF0FF317868FFF7E7FF00BF84
:103BD000FDE780B586B000AFF860B9607A60002379
:103BE0007B610AE0AFF300800146BB685A1CBA60F3
:103BF000CAB21A707B6901337B617A697B689A4229
:103C0000F0DB7B6818461837BD4680BD80B586B0AE
:103C100000AFF860B9607A6000237B6109E0BB689F
:103C20005A1CBA601B781846AFF300807B690133D9
:103C30007B617A697B689A42F1DB7B6818461837AA
:103C4000BD4680BD80B483B000AF78604FF0FF33D5
:103C500018460C37BD465DF8047B704780B483B0CE
:103C600000AF786039603B684FF400525A6000231F
:103C700018460C37BD465DF8047B704780B483B0AE
:103C800000AF7860012318460C37BD465DF8047B11
:103C9000704780B485B000AFF860B9607A600023E7
:103CA00018461437BD465DF8047B704780B485B074
:103CB00000AF7860074A7B68C2F84C3A054BD3F8EE
:103CC0004C32FB60FB6800BF1437BD465DF8047BD7
:103CD000704700BF0080025680B485B000AF7860A6
:103CE000074A7B68C2F88C3A054BD3F88C32FB60EC
:103CF000FB6800BF1437BD465DF8047B704700BF0A
:103D00000080025680B485B000AF7860074A7B68B7
:103D1000C2F8543A054BD3F85432FB60FB6800BF3D
:103D20001437BD465DF8047B704700BF0080025623
:103D300080B485B000AF7860074A7B68C2F8583A13
:103D4000054BD3F85832FB60FB6800BF1437BD4603
:103D50005DF8047B704700BF0080025680B483B0DA
:103D600000AF7860044A7B68C2F8183A00BF0C378D
:103D7000BD465DF8047B70470080025680B483B076
:103D800000AF7860064B03F580531A467B68C2F893
:103D9000183200BF0C37BD465DF8047B704700BF8A
:103DA0000080025680B485B000AF7860074A7B6817
:103DB000C2F8603A054BD3F86032FB60FB6800BF85
:103DC0001437BD465DF8047B704700BF0080025683
:103DD00080B483B000AF7860044A7B68C2F8203AB0
:103DE00000BF0C37BD465DF8047B7047008002566B
:103DF00080B483B000AF7860064B03F580531A4659
:103E00007B68C2F8203200BF0C37BD465DF8047BEA
:103E1000704700BF0080025680B485B000AF786064
:103E2000074A7B68C2F8A03A054BD3F8A032FB6082
:103E3000FB6800BF1437BD465DF8047B704700BFC8
:103E40000080025680B485B000AF7860074A7B6876
:103E5000C2F8BC3A054BD3F8BC32FB60FB6800BF2C
:103E60001437BD465DF8047B704700BF00800256E2
:103E700080B584B000AF4FF00040FFF793FF4FF0E4
:103E80000040FFF7A5FF4FF00040FFF7B1FF012012
:103E9000FFF70CFF0220FFF709FF0420FFF706FFE2
:103EA0000820FFF703FF4FF48050FFF72BFF3B1D67
:103EB00000221A605A609A600D4B7B603B1D1846C9
:103EC0000CF048FF0B4B7B603B1D18460CF042FF8B
:103ED000094B7B603B1D18460CF03CFF074B7B6099
:103EE0003B1D18460CF036FF00BF1037BD4680BDA5
:103EF00000310252803102520032025280320252AC
:103F000080B500AF2020FFF787FF4FF48050FFF708
:103F100083FF4FF00040FFF77FFF4FF08040FFF737
:103F20007BFF0220FFF78EFF0220FFF775FF0420C2
:103F3000FFF788FF4020FFF785FF4FF40070FFF781
:103F4000CBFE8020FFF7C8FE4FF48070FFF7C4FE61
:103F50000120FFF7C1FE0220FFF7BEFE0420FFF79D
:103F6000BBFE0820FFF7B8FE00BF80BD80B500AFE4
:103F7000FFF72EFDFFF73AFD00BF80BD80B582B090
:103F800000AF4FF40070FFF7D3FE3B4600221A60EB
:103F90005A6002233B6003237B603B4619460120A5
:103FA0001BF00EF93B46194608201BF009F93B4669
:103FB000194609201BF004F93B4619460A201BF05C
:103FC000FFF83B4619460B201BF0FAF803210F4877
:103FD0001BF0A0F903210E481BF09CF903210D48AA
:103FE0001BF098F903210C481BF094F903210B48AE
:103FF0001BF090F903210A481BF08CF903210948B2
:104000001BF088F900BF0837BD4680BD0A000030AC
:10401000050000301C0000201D00002006000030BC
:10402000070000300800003080B500AF4FF480601A
:10403000FFF77EFE4FF48060FFF790FE4FF4806044
:10404000FFF79CFE00BF80BD2DE9B043ADF51A7DA2
:1040500000AF012000F01EFF07F5E8739822002151
:1040600018462BF0D3F807F5C873402200211846F4
:104070002BF0CCF807F51A73A3F51A7318464FF412
:10408000C8731A4600212BF0C1F80023C7F8D031BD
:104090000223C7F8F8310023C7F8FC310223C7F820
:1040A00000321923C7F808320023C7F8043201236D
:1040B000C7F80C320123C7F810320223C7F81432B4
:1040C0000023C7F818320823C7F81C320023C7F8AA
:1040D00020327D23C7F824320123C7F82832012378
:1040E000C7F82C320223C7F830320023C7F8343225
:1040F0000823C7F83832E123C7F840320023C7F855
:104100003C320123C7F844320223C7F84832022365
:10411000C7F84C320023C7F850320823C7F854328E
:104120000023C7F85832E123C7F85C320623C7F8EA
:1041300060320623C7F8643207F5E87318460DF0BD
:10414000FDF80346002B01D000BFFDE77F23C7F831
:1041500090314FF44033C7F894314FF04073C7F8B3
:1041600098310023C7F8B0310123C7F8B4310023D8
:10417000C7F8B8310223C7F8BC314FF08053C7F8F5
:10418000C0310123C7F8C4314FF00053C7F8C8311C
:104190000123C7F8CC314FF48013C7F89C310023BA
:1041A000C7F8A0310023C7F8A4310023C7F8A8310D
:1041B0000023C7F8AC3107F5C87318460DF0DEFDD3
:1041C0000346002B01D000BFFDE707F51A73A3F5E6
:1041D0001A714FF000024FF00003C1E9002307F508
:1041E0001A73A3F51A73D3E90023904643F48009A8
:1041F00007F51A73A3F51A73C3E9008907F51A7353
:10420000A3F51A73134AC3F8AC2007F51A73A3F584
:104210001A73D3E90023144643F4000507F51A7313
:10422000A3F51A73C3E9004507F51A73A3F51A73CA
:10423000094AC3F8B0203B46184610F0ABF90346D4
:10424000002B01D000BFFDE700BF07F51A77BD4680
:10425000BDE8B083140000031404000380B5E8B087
:1042600000AF07F5D073A3F5CE73186007F5D073D0
:10427000A3F5CC7318464FF4C8731A4600212AF0F0
:10428000C5FF002387F89F3107F5D073A3F5CC71E4
:104290004FF010024FF00003C1E9002307F5D0737F
:1042A000A3F5CC734FF40012C3F8C82007F5D07300
:1042B000A3F5CC734FF08052C3F8882007F5D07374
:1042C000A3F5CC730322C3F88C2007F1080318462A
:1042D00010F060F9034687F89F3197F89F31002B63
:1042E00002D097F89F3128E007F5D073A3F5CC7181
:1042F0004FF008024FF00003C1E9002307F5D07327
:10430000A3F5CC730022C3F8902007F5D073A3F572
:10431000CC732822C3F8942007F10803184610F044
:1043200039F9034687F89F3197F89F31002B02D067
:1043300097F89F3101E097F89F31184607F5D0773D
:10434000BD4680BD80B400AF00BFFDE780B59CB026
:1043500000AFF860B9607A603B6007F124034C223B
:10436000002118462AF052FF07F1140300221A60B8
:104370005A609A60DA6002237B6204233B63002365
:104380007B630023BB63BB6F002B01D1A02300E044
:104390008023FB624FF480633B644FF440537B64A3
:1043A0004FF40063BB6400233B653B68002B02D1E4
:1043B0004FF0806301E04FF0A063FB654FF00063B6
:1043C0007B667B68013BBB664FF00053FB6607F1E1
:1043D000240341F288321946F8681CF091FD034627
:1043E000002B02D04FF0FF3328E001237B62BB6F2C
:1043F000002B01D1202300E00023FB62BB68013BBE
:10440000BB6607F1240341F288321946F8681CF0B4
:1044100077FD0346002B02D04FF0FF330EE0002360
:104420007B6107F114031946F8681DF05BF9034638
:10443000002B02D04FF0FF3300E000231846703706
:10444000BD4680BD80B598B000AFF860B960134636
:10445000FB7107F114034C22002118462AF0D6FE06
:1044600000237B6104233B6200237B620023BB6249
:10447000C023FB614FF480633B634FF440537B6385
:104480004FF40063BB63BB68FB6200233B644FF0E7
:104490008063FB644FF000637B6502233B65002370
:1044A000BB650023FB6507F1140341F2883219460E
:1044B000F8681CF025FD0346002B02D04FF0FF33B7
:1044C0000DE0FB1D41F288321946F8681CF02AFF06
:1044D0000346002B02D04FF0FF3300E000231846C4
:1044E0006037BD4680BD80B483B000AF78607B6824
:1044F0004FF000621A607B684FF480325A607B682C
:104500004FF400629A607B684FF48052DA607B68F7
:104510004FF400421A617B684FF480525A617B6805
:104520004FF400429A617B684FF48072DA617B68D5
:104530004FF400221A62002318460C37BD465DF87E
:10454000047B704780B59AB000AF78600B46FB7073
:104550001346BB7007F11C034C22002118462AF0B9
:1045600055FE07F1080300221A605A609A60DA606B
:104570001A61FB78002B05D1BB78012B02D14FF0DB
:10458000FF3389E00023FB61FB78002B01D101237D
:1045900000E00423BB62BB78012B01D1082300E0BB
:1045A00000233B63FB78002B01D1002300E01023A4
:1045B000FB62FB78002B01D1052301E040F2FA53A6
:1045C0007B62FB78002B01D1002301E04FF4806374
:1045D000BB63BB78012B02D14FF4006300E00023E2
:1045E0003B644FF44053FB6300237B630023BB64B5
:1045F000FB78002B02D14FF0807301E04FF0806315
:104600007B65BB78012B02D14FF0006300E00023F3
:10461000FB65FB78002B06D0BB78012B01D105236D
:1046200002E0042300E000233B66BB78012B01D1AC
:10463000022300E00123BB65BB78012B02D14FF0C0
:10464000005300E000237B660023BB600123FB6076
:1046500000233B611023BB614FF480037B6107F1B2
:104660001C0341F28832194678681CF049FC034665
:10467000002B02D04FF0FF330EE007F1080341F2A8
:104680008832194678681CF063FF0346002B02D07D
:104690004FF0FF3300E0002318466837BD4680BD69
:1046A00080B59AB000AF78600B46FB701346BB70C4
:1046B00007F11C034C22002118462AF0A7FD07F140
:1046C0000C0300221A605A609A60DA60FB78012BB2
:1046D00005D1BB78002B02D14FF0FF3384E00123DA
:1046E000FB61FB78002B01D1012300E00423BB62B6
:1046F00000233B63FB78002B01D1002300E0102353
:10470000FB62FB78002B06D1BB78002B01D10B2379
:1047100003E00C2301E04EF613437B62FB78002B91
:1047200002D14FF4807301E04FF48063BB63002338
:104730003B64BB78002B02D14FF4005301E04FF4EF
:104740004053FB630023BB64FB78002B02D14FF086
:10475000807301E04FF080637B650023FB65FB788D
:10476000002B01D1082300E00A233B6600237B666F
:1047700007F11C0341F28832194678681CF0C0FB2F
:104780000346002B02D04FF0FF332DE00223FB61E4
:10479000FB78002B06D1BB78002B01D1022303E06C
:1047A000122301E041F2ED237B6200233B6607F117
:1047B0001C0341F28832194678681CF0A1FB0346BD
:1047C000002B02D04FF0FF330EE00023FB6007F117
:1047D0000C03194678681CF085FF0346002B02D0B5
:1047E0004FF0FF3300E0002318466837BD4680BD18
:1047F00080B59AB000AF78600B46FB7007F11C03E0
:104800004C22002118462AF001FD07F10C0300227A
:104810001A605A609A60DA600123FB610423BB626C
:1048200008233B631023FB624EF611637B624FF457
:104830008063BB634FF400633B644FF44053FB63FE
:104840000023BB644FF080637B654FF00063FB6522
:104850000A233B664FF000537B6607F11C0341F2CD
:104860008832194678681CF04BFB0346002B02D0B7
:104870004FF0FF3325E00223FB6141F2ED237B6221
:1048800000233B6600237B6607F11C0341F288325C
:10489000194678681CF034FB0346002B02D04FF019
:1048A000FF330EE00023FB6007F10C031946786824
:1048B0001CF018FF0346002B02D04FF0FF3300E03E
:1048C000002318466837BD4680BD80B59AB000AF5A
:1048D00078600B46FB701346BB7007F11C034C223B
:1048E000002118462AF092FC07F1080300221A6002
:1048F0005A609A60DA601A61FB78002B05D1BB78A8
:10490000012B02D14FF0FF33A7E00023FB61FB78BE
:10491000002B01D1012300E00423BB62BB78012BF3
:1049200001D1082300E000233B63FB78002B01D179
:10493000002300E01023FB62FB78002B01D106234B
:1049400001E040F2F9637B620023BB630023BB6498
:1049500000237B6500233B6600237B6607F11C0375
:1049600041F28832194678681CF0CAFA0346002BD7
:1049700002D04FF0FF3370E0FB78002B01D105230C
:1049800001E040F2FA537B62FB78002B01D1002357
:1049900001E04FF48063BB63BB78012B02D14FF47D
:1049A000006300E000233B644FF44053FB630023AB
:1049B0007B63FB78002B02D14FF0807301E04FF056
:1049C00080637B65BB78012B02D14FF0006300E070
:1049D0000023FB65FB78002B06D0BB78012B01D1AF
:1049E000052302E0042300E000233B66BB78012B93
:1049F00001D1022300E00123BB65BB78012B02D16A
:104A00004FF0005300E000237B6607F11C0341F2E6
:104A10008832194678681CF073FA0346002B02D0DE
:104A20004FF0FF3319E00223BB600223FB60002339
:104A30003B611023BB614FF480037B6107F10803E6
:104A400041F28832194678681CF082FD0346002B3B
:104A500002D04FF0FF3300E0002318466837BD4610
:104A600080BD80B598B000AFF8607B600B46FB72EC
:104A70001346BB7207F114034C22002118462AF09A
:104A8000C5FBFB7A002B05D1BB7A012B02D14FF07D
:104A9000FF3373E000237B61FB7A002B01D10123FC
:104AA00000E004233B62BB7A012B01D1082300E024
:104AB0000023BB62FB7A002B01D1002300E010230E
:104AC0007B62FB7A002B01D1722301E047F28D2338
:104AD000FB61FB7A002B02D14FF4807301E04FF4AD
:104AE00080633B63BB7A012B02D14FF4006300E08B
:104AF0000023BB634FF440537B637B68FB6200235E
:104B00003B64FB7A002B02D14FF0807301E04FF041
:104B10008063FB64BB7A012B02D14FF0006300E09D
:104B200000237B650023BB65FB7A002B06D0BB7A94
:104B3000012B01D1022302E0012300E001233B65A8
:104B40000023FB6507F1140341F288321946F86827
:104B50001CF0D6F90346002B02D04FF0FF330DE0D6
:104B600041F2883207F16801F8681CF0DBFB03466C
:104B7000002B02D04FF0FF3300E0002318466037CF
:104B8000BD4680BD80B598B000AFF8607B600B4635
:104B9000FB721346BB7207F114034C220021184626
:104BA0002AF034FBFB7A002B05D1BB7A012B02D112
:104BB0004FF0FF337DE000237B61FB7A002B01D1B6
:104BC000012300E004233B62BB7A012B01D10823BF
:104BD00000E00023BB62FB7A002B01D1002300E040
:104BE00010237B62FB7A002B01D1712301E047F295
:104BF0008E13FB61FB7A002B02D14FF4807301E02E
:104C00004FF480633B63BB7A012B02D14FF4006306
:104C100000E00023BB634FF440537B637B68FB627F
:104C200000233B64FB7A002B02D14FF0807301E03C
:104C30004FF08063FB64BB7A012B02D14FF000631D
:104C400000E000237B65FB7A002B06D0BB7A012BAA
:104C500001D1052302E0042300E00023BB65BB7AF9
:104C6000012B01D1022300E001233B65BB7A012B1C
:104C700002D14FF0005300E00023FB6507F114035D
:104C800041F288321946F8681CF03AF90346002BC5
:104C900002D04FF0FF330CE041F28832B96EF86871
:104CA0001CF0B3FB0346002B02D04FF0FF3300E0B3
:104CB000002318466037BD4680BD80B596B000AF72
:104CC00078600B46FB701346BB7007F10C034C2257
:104CD000002118462AF09AFAFB78002B05D1BB7800
:104CE000012B02D14FF0FF3339E00023FB6000239A
:104CF0003B61FB78002B01D1012300E00423BB6161
:104D0000BB78012B01D1082300E000233B62FB7834
:104D1000002B01D1002300E01023FB61FB78002B66
:104D200001D1662301E046F299637B610023BB62F7
:104D30000023BB6300237B6400233B6500237B656A
:104D400007F10C0341F28832194678681CF0D8F854
:104D50000346002B02D04FF0FF3300E0002318463B
:104D60005837BD4680BD80B596B000AF78600B4621
:104D7000FB701346BB7007F10C034C220021184650
:104D80002AF044FAFB78002B05D1BB78012B02D125
:104D90004FF0FF3337E00023FB60FB78002B01D19D
:104DA000012300E00423BB61BB78012B01D1082360
:104DB00000E000233B62FB78002B01D1002300E0E0
:104DC0001023FB61FB78002B01D1992301E049F608
:104DD00066137B610023BB620023BB6300237B64FB
:104DE00000233B6500237B6507F10C0341F2883209
:104DF000194678681CF084F80346002B02D04FF067
:104E0000FF3300E0002318465837BD4680BD000040
:104E100080B485B000AF7860074A7B68C2F85C3A1E
:104E2000054BD3F85C32FB60FB6800BF1437BD460E
:104E30005DF8047B704700BF0080025680B485B0E7
:104E400000AF7860074A7B68C2F8643A054BD3F834
:104E50006432FB60FB6800BF1437BD465DF8047B1D
:104E6000704700BF0080025680B485B000AF786004
:104E7000074A7B68C2F86C3A054BD3F86C32FB608A
:104E8000FB6800BF1437BD465DF8047B704700BF68
:104E90000080025680B588B000AF0346FB71202029
:104EA000FFF7B6FF07F10C0300221A605A609A6000
:104EB000DA601A611023FB6001233B6100237B61F0
:104EC0000323BB6107F10C031946064808F070FA8A
:104ED000FB791A461021034808F098FF00BF2037DD
:104EE000BD4680BD0014025680B584B000AF0346B5
:104EF0003960FB710023FB60FB79012B03D96FF054
:104F00000103FB6041E0FA79FB79224951F8222044
:104F10002149942000FB03F30B441A60FB7994228F
:104F200002FB03F31C4A1344184600F09BF8FB688D
:104F3000002B2AD1FB79002B10D1FB79942202FBA4
:104F400003F3154A13443968184600F027F803465E
:104F5000002B1AD06FF00303FB6016E0FB79012BE6
:104F600010D1FB79942202FB03F30B4A13443968F6
:104F7000184600F045F80346002B06D06FF00303F7
:104F8000FB6002E06FF00103FB60FB68184610371E
:104F9000BD4680BD4C8B0834BC4D0A3480B582B010
:104FA00000AF78603960154B1A687B681A603B68FF
:104FB0001A687B685A607B680C225A613B685B897F
:104FC0001A467B681A613B685A687B689A603B683E
:104FD0001B891A467B68DA603B689B891A467B68A6
:104FE0009A617B684FF40042DA6178681AF0F6FC47
:104FF000034618460837BD4680BD00BF4C8B0834B9
:1050000080B582B000AF78603960154B5A687B6814
:105010001A603B681A687B685A607B680C225A6188
:105020003B685B891A467B681A613B685A687B68F3
:105030009A603B681B891A467B68DA603B689B89EB
:105040001A467B689A617B684FF40042DA6178689F
:105050001AF0C4FC034618460837BD4680BD00BFA1
:105060004C8B083480B590B000AF7860404A07F1AF
:10507000200392E8030083E803003E4A07F1180387
:1050800092E8030083E803003B4B1B687B613B4BCA
:105090001B683B6140F20773BB8140F207733B81A1
:1050A0007B681B68364A93420CD1002387F83F3057
:1050B0001020FFF7ADFE1020FFF7AAFE1020FFF72B
:1050C000D3FE11E07B681B682E4A93424BD101232B
:1050D00087F83F300820FFF79BFE2020FFF798FE5F
:1050E0004FF40030FFF7AAFE97F83F305B004033E3
:1050F0003B4433F82C3CBB620223FB6202237B63FC
:1051000001233B6397F83F3040333B4413F8343C72
:10511000BB6397F83F309B0040333B4453F8203C3F
:1051200007F128021146184608F042F997F83F3077
:105130005B0040333B4433F8303CBB6297F83F3070
:1051400040333B4413F8383CBB6397F83F309B0037
:1051500040333B4453F8283C07F1280211461846D7
:1051600008F026F900E000BF4037BD4680BD00BF13
:10517000A02E0334A82E0334B02E0334B42E0334EF
:10518000001000520044005080B485B000AF786039
:10519000074A7B68C2F85C3A054BD3F85C32FB6087
:1051A000FB6800BF1437BD465DF8047B704700BF45
:1051B0000080025680B485B000AF7860074A7B68F3
:1051C000C2F8643A054BD3F86432FB60FB6800BF59
:1051D0001437BD465DF8047B704700BF008002565F
:1051E00080B483B000AF7860064B03F580531A4655
:1051F0007B68C2F8643200BF0C37BD465DF8047BA3
:10520000704700BF0080025680B483B000AF786062
:10521000044A7B68C2F8243A00BF0C37BD465DF8EB
:10522000047B70470080025680B483B000AF786082
:10523000064B03F580531A467B68C2F8243200BF40
:105240000C37BD465DF8047B704700BF00800256F6
:1052500080B582B000AF00237B60164B164A1A60FF
:10526000164B1B68002B1FD1144B1B680133134ACC
:105270001360104809F00CFA0346002B14D10D48B6
:1052800000F0E2F80DF0F8FA03460D49184600F078
:1052900091F903461946074800F038F80346002BF9
:1052A00002D06FF007037B607B6818460837BD4665
:1052B00080BD00BFEC580A3400540050E44E0A345C
:1052C000A086010080B582B000AF00237B600D4B4B
:1052D0001B68013B0B4A13600A4B1B68002B0BD168
:1052E000094800F0F3F8084808F006FF0346002BD1
:1052F00002D06FF007037B607B6818460837BD4615
:1053000080BD00BFE44E0A34EC580A3480B584B046
:1053100000AF786039600023FB737B683A685A609D
:105320007B6800229A607B680122DA607B68002239
:105330001A617B6800225A617B6800229A617B684F
:105340000022DA617B6800221A62786808F08AFD20
:105350000346002B02D00123FB7314E00023BB6043
:10536000B968786809F0D6FC0346002B02D0012307
:10537000FB7308E00021786809F05EFD0346002B0E
:1053800001D00123FB73FB7B18461037BD4680BD5F
:1053900080B588B002AFBA601A460346FB810B465F
:1053A000BB811346FB80B989F889FB880093BB68F1
:1053B000022200F0ABF80346002B02D100237B61F0
:1053C0000CE0094809F072F90346042B03D16FF091
:1053D00065037B6102E06FF003037B617B69184624
:1053E0001837BD4680BD00BFEC580A3480B588B080
:1053F00002AFBA601A460346FB810B46BB811346D7
:10540000FB80B989F889FB880093BB68022200F011
:10541000A3F80346002B02D100237B610CE009486E
:1054200009F044F90346042B03D16FF065037B6157
:1054300002E06FF003037B617B6918461837BD46B5
:1054400080BD00BFEC580A3480B588B000AF7860EA
:105450000BF070FC8020FFF797FE0420FFF794FE0E
:105460004FF40073FB6012233B6100237B61022336
:10547000BB610423FB6107F10C031946114807F0D7
:1054800097FF0223FB6012233B6100237B61022311
:10549000BB610423FB6107F10C0319460A4807F0BE
:1054A00087FF4FF40010FFF785FE4FF40010FFF761
:1054B000ABFE4FF40010FFF7B7FE00BF2037BD462C
:1054C00080BD00BF001C02560008025680B588B09F
:1054D00000AF78604FF40073FB60FB681946094821
:1054E00008F0C6FA0223FB60FB681946064808F07C
:1054F000BFFA4FF40010FFF773FE00BF2037BD4620
:1055000080BD00BF001C02560008025680B588B05E
:1055100004AF7B600346FB810B46BB8113467B8156
:105520007889BA89F9894FF47A7302933B8B019396
:105530007B6800930346074808F060FE0346002B93
:1055400001D1002301E06FF0070318461037BD4674
:1055500080BD00BFEC580A3480B588B004AF7B60D2
:105560000346FB810B46BB8113467B817889BA8950
:10557000F9894FF47A7302933B8B01937B68009314
:105580000346074808F05CFF0346002B01D10023C7
:1055900001E06FF0070318461037BD4680BD00BF1D
:1055A000EC580A3480B500AF02F0EEFD0346184611
:1055B00080BD000080B586B000AF78603960002300
:1055C0007B617B68002B6BD03B68002B68D000238D
:1055D0003B6160E0354A3B692C2101FB03F3134436
:1055E00004331B683A689A4252D3304A3B692C21F3
:1055F00001FB03F3134408331B683A689A4247D807
:105600003969786800F056F83969786800F040F92F
:10561000F860FB687F2B42D82549FA6813469B0047
:1056200013449B000B441B6819072148FA68134672
:105630009B0013449B00034404331B681B0503F4C5
:10564000700319431A48FA6813469B0013449B00E1
:10565000034408331B681B0403F4702319431448E4
:10566000FA6813469B0013449B0003440C331B68E9
:105670001B029BB219430E48FA6813469B00134461
:105680009B00034410331B68DBB20B437B6106E0D5
:105690003B6901333B613B69022B9BD900E000BFB2
:1056A0007B6918461837BD4680BD00BFE83A08340C
:1056B000E84E0A3480B48FB000AF786039601023B0
:1056C0007B637B685A086E4B13447A68B3FBF2F332
:1056D000FB613223BB614FF482737B61694A3B6893
:1056E0002C2101FB03F3134424331B681846654A3D
:1056F0003B682C2101FB03F313440C331B68C218D5
:10570000BB69D21A5F493B682C2000FB03F30B44B2
:1057100028331B680333F96901FB03F3D31A3B6396
:10572000584A3B682C2101FB03F3134410331B68D8
:105730001846544A3B682C2101FB03F313442033E1
:105740001B68C21A7B69D21A4E493B682C2000FBA9
:1057500003F30B4428331B680433F96901FB03F39B
:10576000D31AFB62474A3B682C2101FB03F3134425
:1057700020331B681846434A3B682C2101FB03F386
:10578000134414331B6803443B613B6B002B01DC67
:1057900000233B63FB6A002B01DC0023FB62002338
:1057A000BB6262E000237B6259E07B6A0133BA6A24
:1057B000013203FB02F2FB6902FB03F3FB603B696E
:1057C000FA689A4248D300233B6242E0BB6A013345
:1057D0003A6A03FB02F2FB6902FB03F3BB603B6B1B
:1057E000BA689A4232D3FB6ABA689A422ED8BA6A29
:1057F0007B6B9A422AD0244B1A68244913469B009B
:1058000013449B000B44BA6A1A601F4B1A681F4965
:1058100013469B0013449B000B4404337A6A1A60BE
:10582000194B1A68194913469B0013449B000B44FB
:1058300008333A6A1A60BB6A7B63134B1B680133F7
:10584000114A1360104B1B687F2B12D83B6A01333F
:105850003B623B6A0F2BB9D97B6A01337B627B6A5F
:105860000F2BA2D9BB6A0133BB62BB6A0F2B99D93C
:1058700000E000BF3C37BD465DF8047B704700BFC9
:1058800000CA9A3BE83A0834E8580A34E84E0A3429
:1058900080B493B000AF786039604FF0FF337B6421
:1058A0007B685A087A4B13447A68B3FBF2F3FB62C5
:1058B000784A3B682C2101FB03F313441B685A0808
:1058C000734B134473493A682C2000FB02F20A44DC
:1058D0001268B3FBF2F3BB6232237B626D4A3B6812
:1058E0002C2101FB03F3134428331A68FB6A02FBE3
:1058F00003F33B62674A3B682C2101FB03F313442B
:1059000004331B68624AB2FBF3F3FB61614A3B68F4
:105910002C2101FB03F3134408331B685C4AB2FBE0
:10592000F3F3BB61BB6A3B6400237B63A3E05A498A
:105930007A6B13469B0013449B000B441B685A1C54
:10594000FB6A02FB03F37B610023FB638CE07A6A52
:105950003B6A1A44FB6B0133796903FB01F1FB6A73
:105960005B000B4413443B614A4A3B682C2101FB1A
:1059700003F3134418331B683A699A4271D93A69A0
:105980007B6AD21A3B6AD31A9B08FA6A9A4268D297
:105990000023BB6362E07A6A3B6A1A44BB6B013343
:1059A000796903FB01F1FB6A5B000B441344FB6064
:1059B0003A69FB681A4437493B682C2000FB03F323
:1059C0000B4420331B681A4432493B682C2000FBEF
:1059D00003F30B4424331B681344BB60BA68BB69F0
:1059E0009A4238D3BA68FB699A4234D8294A3B684C
:1059F0002C2101FB03F313441C331B68FA689A4201
:105A000029D3FA6AFB689A4225D2BA68BB6AD31ACC
:105A10003B633B6B002B02DA3B6B5B423B633B6BB4
:105A20003A6C9A4217D93B6B3B641B497A6B13461D
:105A30009B0013449B000B441033FA6B1A60164909
:105A40007A6B13469B0013449B000B440C33BA6BD8
:105A50001A607B6B7B64BB6B0133BB63BB6BFF2B3F
:105A600099D9FB6B0133FB63FB6BFF2B7FF66FAFA9
:105A70007B6B01337B63094B1B687A6B9A42FFF4A3
:105A800056AF7B6C18464C37BD465DF8047B7047BB
:105A900000CA9A3BE83A0834E84E0A34E8580A3417
:105AA00080B485B000AF7860074A7B68C2F85C3A82
:105AB000054BD3F85C32FB60FB6800BF1437BD4672
:105AC0005DF8047B704700BF0080025680B485B04B
:105AD00000AF7860074A7B68C2F8603A054BD3F89C
:105AE0006032FB60FB6800BF1437BD465DF8047B85
:105AF000704700BF0080025680B483B000AF78606A
:105B0000044A7B68C2F8203A00BF0C37BD465DF8F6
:105B1000047B70470080025680B483B000AF786089
:105B2000064B03F580531A467B68C2F8203200BF4B
:105B30000C37BD465DF8047B704700BF00800256FD
:105B400080B485B000AF7860074A7B68C2F87C3AC1
:105B5000054BD3F87C32FB60FB6800BF1437BD46B1
:105B60005DF8047B704700BF0080025680B483B0AC
:105B700000AF7860044A7B68C2F83C3A00BF0C373B
:105B8000BD465DF8047B70470080025680B483B048
:105B900000AF7860064B03F580531A467B68C2F865
:105BA0003C3200BF0C37BD465DF8047B704700BF38
:105BB0000080025680B584B002AF786039604FF43F
:105BC000F07300934FF4487302223968786800F04C
:105BD00005F8034618460837BD4680BD80B58CB031
:105BE00000AFF860B9607A603B600023FB6207F1A8
:105BF000100300221A605A609A60DA601A615A61D2
:105C0000BB68012B0ED8FB68002B0BD17B68022BE5
:105C10000CD07B68012B09D07B68002B06D07B68F9
:105C2000042B03D06FF00103FB6287E07B68022B3B
:105C300009D10423BB62444AFB685B01134410335F
:105C400002221A6022E07B68012B09D10623BB6285
:105C50003D4AFB685B011344103303221A6015E0D0
:105C60007B68042B09D10823BB62374AFB685B01C0
:105C70001344103302221A6008E00023BB62324A48
:105C8000FB685B011344103304221A602E4AFB6840
:105C90005B0113440C337A681A602B4AFB685B0182
:105CA00013443A681A60284AFB685B0113440433C2
:105CB000BA6B1A60254B264A1A60264B264A1A6090
