:0200000470107A
:1000000053544D32000000000000000000000000CA
:1000100000000000000000000000000000000000E0
:1000200000000000000000000000000000000000D0
:1000300000000000000000000000000000000000C0
:1000400000000000000000000000000000000000B0
:1000500000000000000000000000000000000000A0
:100060000000000005CA910200030200803508006C
:100070008DB8033400000000FFFFFFFF0000000008
:100080000000000000000080A0010000000000004F
:100090000000000000000000000000000000000060
:1000A0005354FFFFA0010000FFA607F064AA3360CD
:1000B000CECEA4385B079246EC112222CF3EFF43FE
:1000C0003DEFF5E287D920E8AF25006F4863CF46C2
:1000D0007082EDBBA191C6FC1572D8021183E3EECC
:1000E000D040D516AB206183B18F884795E2EAFAFC
:1000F0001541EF8D87766EBFECD22E8745DE996C69
:1001000036CC3B177B08D61E6215DA2AC694DAB8BD
:100110005823F88A845CEF8163966B555CC580BF79
:100120003EE97C6D77A329E49EF2B97DF50FFC943E
:100130002F50764AB7BDC84A35F29DB2351FA66426
:1001400076CC29E198E1D85985ABC0D5438717AA69
:10015000CB704A42FE10D5352AD1FB7F96376664B4
:10016000C723E241C5964C23C8B7FB92B1F0EEF528
:10017000BBD745FDF359A64D3558C93C00FD88CD88
:100180004CC3CC3B0CFBEF6F5335578FFAA03D5B54
:10019000F1AAFC6CA16B98584536BFE626403100A9
:1001A000F68F372CD249CA9060C2484ACD8ABBFC30
:1001B00046524455EB01E7965DEE99925A64010D63
:1001C00084074980A38808846E15C7180A8939FFF7
:1001D000D14C17AC2A6C2A4DC12A5F76C8BAB456E6
:1001E000526AC5E8FABEE3EFC70643FE0329FE8163
:1001F0007BBF3C8C8E303FCE9766D18477F4DA1685
:10020000679AA95BE4BA2EA5DDFA32731440C1F9EE
:10021000763E63ABC27E97AF4B3D9E3728B41C231E
:10022000BD71C9845351E833466A54AA670E35AC90
:10023000A39796ED7E45A7C1EA08EDE4565F4D27EA
:1002400000000000000000000000000000000000AE
:10025000000000000000000000000000000000009E
:10026000000000000000000000000000000000008E
:10027000000000000000000000000000000000007E
:10028000000000000000000000000000000000006E
:10029000000000000000000000000000000000005E
:1002A000000000000000000000000000000000004E
:1002B000000000000000000000000000000000003E
:1002C000000000000000000000000000000000002E
:1002D000000000000000000000000000000000001E
:1002E000000000000000000000000000000000000E
:1002F00000000000000000000000000000000000FE
:1003000000000000000000000000000000000000ED
:1003100000000000000000000000000000000000DD
:1003200000000000000000000000000000000000CD
:1003300000000000000000000000000000000000BD
:1003400000000000000000000000000000000000AD
:10035000000000000000000000000000000000009D
:10036000000000000000000000000000000000008D
:10037000000000000000000000000000000000007D
:10038000000000000000000000000000000000006D
:10039000000000000000000000000000000000005D
:1003A000000000000000000000000000000000004D
:1003B000000000000000000000000000000000003D
:1003C000000000000000000000000000000000002D
:1003D000000000000000000000000000000000001D
:1003E000000000000000000000000000000000000D
:1003F00000000000000000000000000000000000FD
:10040000000010348DB80334E5E80034F3E800341C
:10041000FBE8003403E900340BE9003413E900344D
:100420000000000000000000000000001BE9003494
:1004300029E900340000000031E9003439E90034D2
:10044000E9B8033400000000E9B80334E9B8033424
:10045000E9B80334E9B80334E9B80334E9B803343C
:10046000E9B8033400000000E9B80334E9B8033404
:10047000E9B8033431F10034E9B803340000000076
:10048000E9B8033400000000E9B80334E9B80334E4
:10049000E9B80334E9B80334E9B80334E9B80334FC
:1004A000E9B80334E9B80334E9B80334E9B80334EC
:1004B000E9B80334E9B80334E9B80334E9B80334DC
:1004C000E9B80334E9B80334E9B80334E9B80334CC
:1004D000E9B80334E9B80334E9B80334E9B80334BC
:1004E000E9B8033400000000E9B80334E9B8033484
:1004F000E9B80334E9B80334E9B8033445E9003412
:100500005FE900340000000000000000000000006F
:10051000E9B803348D770334E9B80334E9B8033418
:10052000E9B80334E9B80334E9B80334E9B803346B
:10053000E9B80334E9B80334E9B80334E9B803345B
:10054000E9B80334E9B80334E9B80334E9B803344B
:10055000E9B80334E9B80334E9B80334E9B803343B
:1007400000000000E9B80334E9B8033400000000F9
:1007500010B5054C237833B9044B13B10448AFF3FB
:1007600000800123237010BDC03708340000000052
:10077000E8AD043408B5034B1BB103490348AFF39C
:10078000008008BD00000000C4370834E8AD043420
:1007900090EDAD6A30B52DED108B90EDA87BB5EEE8
:1007A000C06A87B08DED027B002390EDA47BF1EE53
:1007B00010FA91ED015A91ED004A91ED02FB91ED95
:1007C00004EB044690ED123B90EDAACB90ED16ABF6
:1007D0008DED047B90EDA6BB80F8603009DCD0F88D
:1007E000C832D14898474FF0FF3007B0BDEC108BAE
:1007F00030BDB8EE455B9FEDBE7BB8EE444B25EEB9
:10080000077BB4EEC47BF1EE10FA0FDD90ED1C7B9C
:100810009FEDB92B37EE022B9FEDB97BB4EEC72BC2
:10082000F1EE10FA37FE027B80ED1C7B9FEDB67B6C
:1008300025EE075BB4EEC45BF1EE10FA10D594ED33
:100840001C7B9FEDAD5B37EE457B9FEDB15BB4EE5E
:10085000C57BF1EE10FA58BFB0EE475B84ED1C5B30
:1008600083EE0C8BBCEEC88BB8EE488B94F85050DE
:1008700028EE0C8B012DB7EEC66A40F0AC809FEDE0
:10088000A67B3FEE4E5B85EE07DB3FEE0E5B85EE13
:10089000079BB0EECD7BB4EEC76BF1EE10FAB0EE75
:1008A000C95B1FDBB4EEC56BF1EE10FA1ADB002357
:1008B00084F8783094ED1A7BB5EEC07BF1EE10FA37
:1008C00040F33481012384F860309DED027BB4EE67
:1008D000C7ABF1EE10FA40F13C819DED047B3AEE9E
:1008E00007BB28E1B4EEC56BF1EE10FA0CD589EE2A
:1008F0000D5B94EDAE6AB0EEC55BB7EEC66AB4EEC2
:10090000C65BF1EE10FAD5DAF7EECA0BB7EEC70BFD
:1009100048F00AFDB2EE047BB7EEC00A20EE070BEA
:10092000FCEEC87BB0EECE6BCDED017AB0EECF7BA6
:10093000B4EEC67BF1EE10FA62DCB5EEC0EBF1EE80
:1009400010FA62D538EE000B94ED3C7BB4EEC07B20
:10095000F1EE10FA03D5B0EE4BABB0EE470B94EDD1
:100960003A7BB4EEC07BF1EE10FA03DDB0EE4BAB98
:10097000B0EE470B80EE0C8BBCEEC88BB8EE488B0C
:10098000012D2CEE088B16D1B4F8E030022B3FD8A5
:10099000DDED017AB8EE677B04EBC30282ED207BCC
:1009A00082ED268B04EB0312013382ED2CDB82ED0A
:1009B0002E9BA4F8E03094F87830012B07D0FCEEA1
:1009C000C87B17EE903A019A93423FF473AF01232C
:1009D00084F860306EE7B0EECF7BB0EECE5BB4EE65
:1009E000475BF1EE10FA35FE077BB4EEC67BF1EE05
:1009F00010FA7FF65FAF9FED4A9BB0EE49DB83E7CD
:100A0000B5EEC0FBF1EE10FA9CD538EE400B9BE73B
:100A100094ED2A7B94EDAF6A38EE477BB7EEC66A59
:100A2000B0EEC77BB4EEC67BF1EE10FA56DB94ED68
:100A3000287B38EE477BB0EEC77BB4EEC76BF1EE98
:100A400010FA4BDD94ED320B94ED307B39EE400B18
:100A50003DEE477B20EE000BA7EE070B47F04CF96D
:100A600094EDB07AB7EEC77AB4EEC70BF1EE10FA98
:100A700034D5DDED017AB8EE678B84F8785094F8C0
:100A80007830002B97D1102204F1880104F1800006
:100A900045F0EAF8102204F1A00104F1980045F0B5
:100AA000E3F8D4E93023DDED017AB8EE677BC4E9E1
:100AB0002C23D4E9322384ED247BC4E92E23D4E90A
:100AC000342384ED2A8BC4E93023D4E9362384ED22
:100AD00034DB84ED369BC4E932236CE794F878303C
:100AE000012B04BF002384F87830C8E7AFF30080FF
:100AF0009A9999999999A93F7B14AE47E17A843FD5
:100B0000343333333333C33F333333333333C33F7C
:100B1000111111111111B13FCD3B7F669EA0F63F1F
:100B200000000000000000002EF8073494F8603048
:100B3000002B7FF4CAAE88EE0C7BBCEEC77BB8EE10
:100B4000477B27EE0C7B84ED16BB84ED127B0120E6
:100B50004BE69DED02BBEEE790ED1A6BB5EEC06B78
:100B600090ED124BF1EE10FA90EDAA5BB0EE467BE1
:100B7000DFBF84EE057BBCEEC77BB8EE477B27EE7C
:100B8000057BB7EEC77B90ED3C5BB7EEC74AB4EE92
:100B9000C54BF1EE10FAC8BFB7EEC57B90ED3A5BDE
:100BA000B7EEC74AB4EEC54BF1EE10FA48BFB7EE48
:100BB000C57BB7EEC75AD0F8743230B580ED125B02
:100BC00093ED005AD0EDAC7AB4EEC75AF1EE675A05
:100BD000F1EE10FA4FF00001B0F8F83075FEA77A88
:100BE000013B8AB2934205D8442202FB030303F57A
:100BF000907311E000EB8204D4ED445A77EEA55ACD
:100C0000F4EEC75AF1EE10FA01F10101E9DB4423D9
:100C100003FB020202F59073B5EEC06BF1EE10FA21
:100C2000C0F8743205DC93ED007AB7EEC77A80ED38
:100C3000127B5A6803F1380142609A6803F1240478
:100C40008260DA68C2601A69026100F138025D6987
:100C50000C334561DD680C30C5601D69A342056138
:100C600051F8045B42F8045BF1D1012030BD10B5AE
:100C7000044690B070B10023084C40212370C4F8A2
:100C8000C802074B6846074A44F0A4FE6846D4F8F9
:100C9000C8329847204610B010BD00BFE037083476
:100CA000F83208346EF80734002814BF01204FF0E2
:100CB000FF30704780ED000A30B50C6844604C6826
:100CC00084608C68C460C96802F12404016100F189
:100CD000380115680C32456152F8085C0C30C5606B
:100CE00052F8045CA242056153F8045B41F8045BCE
:100CF000EFD130BD2DE9F04F2DED068B0E46B0EE55
:100D0000409BB0EE418B1D460446C7B0002800F062
:100D10008F819FEDCBAB80ED12AB0020CE494FF021
:100D20000008C4E91601C4E9A601C4E9AA01CB4937
:100D3000DFF85C93C4F8B0124FF07E51C4F8B412DF
:100D40004FF07C51C4E91A890FF2FC29D9E90089D6
:100D5000C4E91C89C4E9A4894FF00008C4F8B8129A
:100D6000BF49DFF83093C4F8BC124FF07F51002325
:100D7000C4E9A88901274FF00008C4F8C012711E09
:100D8000DFF8149388B20428C4E9A0890FF2C029BF
:100D9000D9E9008984F86030C4E9A289A4F8E03078
:100DA00084F87830A4F8787214D905234FF4807150
:100DB000AC4A06A844F00EFED4F8C83206A89847FC
:100DC00084F85070204647B0BDEC068BBDE8F04F6C
:100DD000FFF7C2BE95ED007AB7EEC77AB4EEC70B47
:100DE000F1EE10FA12DDD4F8C8329F48984795ED1D
:100DF000007AB7EEC77A8DED009B8DED027B9B4AA2
:100E00004FF4807106A844F0E5FDD5E74FF0440C9F
:100E10000CFB065818ED117AB7EEC77AB4EEC71B73
:100E2000F1EE10FA41D5D4F8C8329148984798EDC0
:100E3000007AB7EEC77A8DED008B8DED027B8D4A7F
:100E4000DEE70CFB08F705EB070944372F4499ED63
:100E5000007AD7ED007AB4EEE77AF1EE10FA08F1F5
:100E6000010A00F1010021DBD4F8C832824898471A
:100E700097ED007AB7EEC77A8DED047BCDF808A028
:100E800099ED007AB7EEC77A43468DED007B7B4A39
:100E90004FF4807106A844F09DFDD4F8C83206A82E
:100EA0009847012384F850308CE718461FFA80F8E1
:100EB0004145C6D800234FF0440CB01E9FB2B94242
:100EC00039D884ED3A9B84ED3C8B0020A4F8F8607F
:100ED00083B2994200F1010000F28B800027B846EE
:100EE00004F1FC0A04F5907905EB070B09EB070008
:100EF0004422594645F061F9DBF8003008F1010859
:100F00004AF8043B1FFA88F39E4207F14407EBD8E6
:100F1000731E9BB2002E03F1010314BF1A46012277
:100F2000C4F8749204F5B271013A6AD1012384F8CD
:100F30005030237046E702EB8709B842D9ED007ABA
:100F40004FEA870807F1010A1ED908F10408904406
:100F500098ED007AB4EEE77AF1EE10FA14D8D4F8EE
:100F6000C8324748984798ED007AB7EEC77A8DEDBA
:100F7000047BCDF808A099ED007AB7EEC77A3B461E
:100F80008DED007B3F4A83E70CFB07F805EB080A71
:100F90009AED007AB4EEE77AF1EE10FA08F144081F
:100FA000A84408DA98ED007AB4EEE77AF1EE10FA88
:100FB00003F1010382D8D4F8C8323348984798ED3A
:100FC000007AB7EEC77A8DED047B9AED007AB7EE22
:100FD000C77A8DED027B99ED007AB7EEC77A3B4672
:100FE0008DED007B4FF48071284A06A844F0F2FC96
:100FF00053E702EB83073F6804EB8303C3F81071E8
:1010000066E7D4F8743291ED006A93ED007AB7EE9A
:10101000C66AB7EEC77A36EE4A6B37EE4A7BB4EE55
:10102000C76BF1EE10FA48BFC4F8741244317BE785
:101030004FF0FF3047B0BDEC068BBDE8F08F00BF2E
:10104000000000000088B3409A9999999999B93F96
:101050000000000000A06E400000F03F0000484289
:1010600000002F437EF80734C2F8073449F90734EB
:10107000A7F907342FFA07348CFA0734F0FA07344B
:1010800048FB0734B7FB073421FC073478FC0734EE
:101090000000F0BF000008400000244030B50546C5
:1010A00014468DB052B9D0F8C8321D489847D5F8CB
:1010B000C8321C48984720460DB030BD93ED042B34
:1010C00093ED021B93ED000B0AAA08A906A800F0F5
:1010D0002FF8DDE90823CDE90223DDE90A23CDE974
:1010E0000423012398420446CDE90033DFD1694649
:1010F0002846FFF74DFB0128044603D0D5F8C83237
:101100000948D7E795F86030012BD4D12846FFF77E
:1011100023FD01280446CED0D5F8C8320348C9E7DC
:10112000FEFC07345FFD073488FD0734BCFD07343F
:10113000B5EEC00BF1EE10FA1FB509D4B5EEC01B29
:10114000F1EE10FA04D4B5EEC02BF1EE10FA0DD585
:101150008DED022B8DED001B53EC102B444844F019
:10116000C9FB4FF0FF3005B05DF804FB9FED327B0B
:10117000B4EEC70BF1EE10FA09DCB4EEC71BF1EECA
:1011800010FA04DCB4EEC72BF1EE10FA07DD8DED9A
:10119000022B8DED001B53EC102B3648DFE728B1F6
:1011A00089B1B2B93449354B084607E071B13349CA
:1011B0003148002A304A314B18BF134602463048A6
:1011C00044F098FBCDE72C492C48F2E72B49084620
:1011D000EFE79FED1B7B9FED1C6B21EE077BB3EED2
:1011E000005BA0EE067B9FED1A6BA2EE057BA7EEDF
:1011F000065B9FED197B80ED005B27EE417BBBEE2C
:101200000A5BA0EE057B9FED165BA2EE057B27EE49
:10121000067B81ED007B9FED147B27EE411BB2EE38
:10122000047BA0EE051BA2EE471B21EE061B01204E
:1012300082ED001B97E700BF0000000000E06F4058
:101240000000000000A06340000000000080474054
:10125000000000000000703F0000000000805540CA
:101260000000000000005C400000000000805940C9
:10127000F9FD073437FE0734F3FD0734F1FD073479
:1012800077FE07340000000010B5044690B060B14E
:101290000023074C40212370A065064B6846064A90
:1012A00044F098FB6846A36D9847204610B010BDE7
:1012B000B03A0834FE320834C1FE0734002814BFA7
:1012C00001204FF0FF30704738220A23C0E9042381
:1012D00064232D227821C0E9063240F2DC5230B579
:1012E000C0E9081241F2707442F6E062C0E90A42B5
:1012F0000BA5D5E9004505224FF0000C026548F228
:10130000E802C0E910C20122C0E90C4506A5D5E9F2
:101310000045C0E91223C0E90E4530BDAFF300809F
:1013200000000040E17A943F000000E04D62703F11
:1013300010B5044620B1FFF7C7FF0120207010BD93
:101340004FF0FF30FBE72DE9F0410E460446002840
:1013500000F0E180017801290BD102210170A56C18
:10136000C4E90126B54208D2616C914205D9A56055
:101370004CE00229F3D0002049E0D4F810C0B6EECA
:10138000005B07EE90CAB8EE676A07EE903AB8EED7
:10139000E77BB7EEC66A37EE057B86EE070B216D5D
:1013A000B7EEC00B8B424BD2F0EE007AB4EEE70AF8
:1013B000F1EE10FA44D4616CB7EE007A8A4220D282
:1013C000012A134638BF012307EE903AF8EEE77A78
:1013D00067EE807AFDEEE77A17EE903A8B42C1BF56
:1013E00007EE901AB8EEE76A07EE902AF8EE676A01
:1013F000C3BFC6EE267A0B4680EE270AB0EE470A38
:101400006360B4EEC70AF1EE10FA02DC0120BDE819
:10141000F081B7EEC00A46F03BFCB3EE047B20EE51
:10142000070B9FED3F7B20EE070BBDEEC00B10EED0
:10143000103AE26C33449342D4BFA360A260E5E764
:10144000ACEB0307E16987EAE770A0EBE77088423D
:1014500047D8606AD4F814E0A1690EEB0C089845EF
:1014600007FB01F143D207EE900A9FED2F7AF8EEC9
:10147000E77A67EE877A07EE101AF1EE676AB8EE40
:10148000C77AB4EEE67AF1EE10FA04D5FDEEE77A0B
:1014900017EE903A59420029B8D0B54232D1606C6B
:1014A000904201D800292DDA02FB077707EE902A37
:1014B00006EE907A0029B8EEE77BB8EEE66B1EDA0E
:1014C00094ED0E5BA5EE067BBDEEC77B17EE102AF2
:1014D000236C9A42B8BF1A468242D4BF62606060F1
:1014E00094E7216A88422CBFE06AA06AB2E7ACEBBD
:1014F0000E0C9C458ADD8142A8BF0146CBE794EDE6
:101500000C5BDFE70E44B5423FF731AFE56CB54207
:10151000A8BF35462BE74FF0FF3078E7AFF30080E8
:101520000000000000408F409A99593F034613F88D
:10153000012B002AFBD1181A0138704781F00041B5
:1015400002E000BF83F0004330B54FEA41044FEAA8
:10155000430594EA050F08BF90EA020F1FBF54EA43
:10156000000C55EA020C7FEA645C7FEA655C00F0DF
:10157000E2804FEA5454D4EB5555B8BF6D420CDDB0
:101580002C4480EA020281EA030382EA000083EA33
:10159000010180EA020281EA0303362D88BF30BDD3
:1015A00011F0004F4FEA01314FF4801C4CEA113129
:1015B00002D0404261EB410113F0004F4FEA033388
:1015C0004CEA133302D0524263EB430394EA050F13
:1015D00000F0A780A4F10104D5F1200E0DDB02FA82
:1015E0000EFC22FA05F2801841F1000103FA0EF216
:1015F000801843FA05F359410EE0A5F120050EF1DC
:10160000200E012A03FA0EFC28BF4CF0020C43FA0C
:1016100005F3C01851EBE37101F0004507D54FF019
:10162000000EDCF1000C7EEB00006EEB0101B1F569
:10163000801F1BD3B1F5001F0CD349085FEA3000AF
:101640004FEA3C0C04F101044FEA445212F5800FBA
:1016500080F09A80BCF1004F08BF5FEA500C50F157
:10166000000041EB045141EA050130BD5FEA4C0C3A
:10167000404141EB0101013C28BFB1F5801FE9D297
:1016800091F0000F04BF01460020B1FA81F308BFBA
:101690002033A3F10B03B3F120020CDA0C3208DD86
:1016A00002F1140CC2F10C0201FA0CF021FA02F161
:1016B0000CE002F11402D8BFC2F1200C01FA02F1D1
:1016C00020FA0CFCDCBF41EA0C019040E41AA2BFF6
:1016D00001EB0451294330BD6FEA04041F3C1CDABE
:1016E0000C340EDC04F11404C4F1200220FA04F0DE
:1016F00001FA02F340EA030021FA04F345EA030188
:1017000030BDC4F10C04C4F1200220FA02F001FA49
:1017100004F340EA0300294630BD21FA04F02946CB
:1017200030BD94F0000F83F4801306BF81F4801164
:101730000134013D4EE77FEA645C18BF7FEA655CD7
:1017400029D094EA050F08BF90EA020F05D054EAA9
:10175000000C04BF1946104630BD91EA030F1EBFAE
:101760000021002030BD5FEA545C05D140004941B2
:1017700028BF41F0004130BD14F580043CBF01F5A5
:10178000801130BD01F0004545F0FE4141F470018B
:101790004FF0000030BD7FEA645C1ABF1946104666
:1017A0007FEA655C1CBF0B46024650EA013406BF67
:1017B00052EA033591EA030F41F4002130BD00BF26
:1017C00090F0000F04BF0021704730B54FF48064E3
:1017D00004F132044FF000054FF0000150E700BF64
:1017E00090F0000F04BF0021704730B54FF48064C3
:1017F00004F1320410F0004548BF40424FF00001B0
:101800003EE700BF42004FEAE2014FEA31014FEAF2
:1018100002701FBF12F07F4393F07F4F81F0605141
:10182000704732F07F4208BF704793F07F4F04BF8C
:1018300041F40021704730B54FF4607401F0004569
:1018400021F000411CE700BF50EA010208BF7047C9
:1018500030B54FF000050AE050EA010208BF7047BA
:1018600030B511F0004502D5404261EB41014FF423
:10187000806404F132045FEA915C3FF4D8AE4FF02B
:1018800003025FEADC0C18BF03325FEADC0C18BF0E
:10189000033202EBDC02C2F1200300FA03FC20FA5F
:1018A00002F001FA03FE40EA0E0021FA02F11444AC
:1018B000BDE600BF7BB972B90029BEBF00204FF062
:1018C000004106E008BF00281CBF6FF000414FF048
:1018D000FF3000F031BAADF1080C6DE904CE0029FB
:1018E00009DB002B1ADB00F083F8DDF804E0DDE90A
:1018F000022304B07047404261EB4101002B1BDB27
:1019000000F076F8DDF804E0DDE9022304B040429F
:1019100061EB4101524263EB43037047524263EB78
:10192000430300F065F8DDF804E0DDE9022304B0CC
:10193000404261EB41017047524263EB430300F0C8
:1019400057F8DDF804E0DDE9022304B0524263EB0E
:101950004303704753B94AB9002908BF00281CBF88
:101960004FF0FF314FF0FF3000F0E6B9ADF1080C59
:101970006DE904CE00F03CF8DDF804E0DDE9022377
:1019800004B0704707EE900AF5EEC07AF1EE10FA57
:1019900001D400F00DB8F1EE677A08B517EE900AA1
:1019A00000F006F8404261EB410108BD0000000074
:1019B00007EE100A9FED0A6BB7EEC77A9FED0A5B40
:1019C00027EE066BBCEEC66BB8EE464B16EE101A51
:1019D000A4EE457BFCEEC77B17EE900A704700BF74
:1019E000000000000000F03D000000000000F04199
:1019F0002DE9F04F099D884604468E46002B4AD1BA
:101A00008A4217465FD9B2FA82F64EB1C6F1200378
:101A100001FA06FEB740B44020FA03F343EA0E0E83
:101A20004FEA17481FFA87FC230CBEFBF8F108FBAE
:101A300011EE01FB0CF243EA0E439A4207D9FB1860
:101A400001F1FF3002D29A4200F2548101469B1A02
:101A5000A2B2B3FBF8F008FB103300FB0CFC42EA27
:101A6000034294450BD9BA1800F1FF332CBF01246F
:101A70000024944502D9002C00F03F81184640EA2A
:101A80000140A2EB0C0200211DB1F2400023C5E988
:101A90000023BDE8F08F8B4205D90DB1C5E90001E7
:101AA00000210846F5E7B3FA83F100294ED14345FA
:101AB000C0F01281824240F20F810846002DE8D02A
:101AC000C5E9004EE5E7002A00F0AC80B2FA82F6E4
:101AD000002E40F0BB808B1A4FEA124EBCB201219F
:101AE000020C80B2B3FBFEFC0EFB1C3342EA034344
:101AF00004FB0CF29A420ED9FB180CF1FF382CBFF4
:101B00004FF001094FF000099A4203D9B9F1000FD3
:101B100000F0EC80C4469B1AB3FBFEF80EFB1833B2
:101B200004FB08F440EA034294420BD9BA1808F1C6
:101B3000FF332CBF01200020944202D9002800F07E
:101B4000D1809846121B48EA0C409DE7C1F120065F
:101B50008B4008FA01F400FA01F922FA06F728FA94
:101B600006F88A401F4320FA06F3380C23431FFA75
:101B700087FC1C0CB8FBF0FE00FB1E8844EA0844FE
:101B80000EFB0CF8A0450ED93C190EF1FF3A2CBF04
:101B90004FF0010B4FF0000BA04503D9BBF1000F34
:101BA00000F0B880D646A4EB08041FFA83F8B4FB13
:101BB000F0F300FB134403FB0CFC48EA0444A44587
:101BC0000ED93C1903F1FF302CBF4FF001084FF044
:101BD0000008A44503D9B8F1000F00F09F80034628
:101BE00043EA0E40A4EB0C04A0FB02EC64457346F0
:101BF000E04602D307D1F14505D2BEEB02036CEB00
:101C0000070C0138E0465DB1B9EB030264EB080450
:101C100004FA06F622FA01F3CC401E43C5E900643B
:101C2000002136E7B1FBF2FC010C144680B2964667
:101C300041EA08412026904640EA01431046B1FBA4
:101C4000F2F1A3EB080341EA0C414BE7B740C6F1C0
:101C5000200301FA06F221FA03F84FEA174E20FAA0
:101C600003F3BCB2B0401343020C190C80B2B8FBB2
:101C7000FEF90EFB198841EA084109FB04F8884582
:101C800051D9791809F1FF3C2CBF4FF0010A4FF0F0
:101C9000000A884502D9BAF1000F31D0A1EB080142
:101CA000B1FBFEF909FB04F80EFB19119BB243EAE4
:101CB0000143434535D2FB1809F1FF312CBF4FF0EA
:101CC000010A4FF0000A4345BBD2BAF1000FB8D168
:101CD000A9F102013B44B4E7841A68EB0302012036
:101CE0009646EBE63A44A8F102082BE7ACF1020C69
:101CF0003B4410E702393B44A9E63A440238BEE6C9
:101D0000A7EB0808A9F1020C4144B1FBFEF909FB5D
:101D100004F8C9E7AEF1020E3C4444E7023B3C4400
:101D20005EE749468DE7A1EB0801CC46B1FBFEF921
:101D300009FB04F8B8E700BF704700BF80B594B056
:101D400000AFF860B9607A60002387F84730FB681D
:101D50005B68B3F5F07F03D8FB685B68BB6402E0A7
:101D60004FF4F073BB64FB685B68B3F5F07F03D896
:101D7000FB685B68FB6402E04FF4F073FB64FA6C91
:101D8000BB681A60BA6C7B681A60FB6C7B61BB6CC9
:101D9000BB610123FB6102233B6297F84730FB6282
:101DA00000237B620023BB6207F1100207F11403DA
:101DB000194601202AF05EFF38643B6C002B05D0E9
:101DC000044B054A5A21054842F058FD00BF5037E0
:101DD000BD4680BD20AE043490FA043430AE0434E5
:101DE00080B590B000AF7860002387F83F30802343
:101DF000FB6080233B6100237B610323BB6197F879
:101E00003F307B620123FB6100233B6207F10C033F
:101E10007A68194602202AF02DFFB863BB6B002BAD
:101E200005D0054B054A7C21054842F027FD00BF3F
:101E30004037BD4680BD00BF20AE0434A8FA04344C
:101E400030AE043480B58CB000AFF860B9607A6011
:101E500000237B610023BB611E23FB6100233B62E7
:101E600000237B620023BB6207F1140318462AF0AB
:101E70002DFFF862FB6A002B05D00A4B0A4A8C2121
:101E80000A4842F0FBFC07F11403BA68F9681846E7
:101E9000FFF754FF7868FFF7A3FF00BF3037BD4658
:101EA00080BD00BF68AE0434BCFA043430AE0434E4
:101EB00080B584B000AF786039603A6879680120F5
:101EC0002AF09AFFF860FB68002B05D0044B054A06
:101ED0009C21054842F0D2FC00BF1037BD4680BDB2
:101EE00068AE0434C8FA043430AE043480B584B02B
:101EF00000AF786039603A68796802202AF07CFF88
:101F0000F860FB68002B05D0044B054AA421054866
:101F100042F0B4FC00BF1037BD4680BD68AE04344B
:101F2000E0FA043430AE043480B582B000AF002350
:101F30007B602BF031F878607B68002B05D0054B77
:101F4000054AB221054842F099FC00BF0837BD465A
:101F500080BD00BF68AE0434F4FA043430AE0434FB
:101F600080B483B000AF78607B68022B05D1064B4C
:101F70001B680133044A136000BF002318460C3766
:101F8000BD465DF8047B7047243E083480B586B0BA
:101F900000AF214B7B607C237B6107F10C023B1D72
:101FA0007969184611F016F80346002B2ED14FF42C
:101FB000C0333B61FA683B6913403A699A4227D0C3
:101FC000FA683B691343FB60FA68381D002379699E
:101FD00011F038F80346002B15D107F10C023B1D18
:101FE0007969184610F0F6FF0346002B08D1FA680D
:101FF0003B6913403A699A420AD000F00FF807E0B3
:1020000000F00CF804E000F009F801E000F006F838
:1020100000BF1837BD4680BD0090005680B400AFA9
:1020200000BFFDE780B584B000AF78607B68BB601F
:10203000BB6880221A60BB6880225A60BB68062297
:102040009A60BB68184ADA60BB68184A1A61BB68B4
:102050004FF460725A61BB680A229A61BB68144AE5
:10206000DA610CF0D5FB0023FB6012E0FA6813463E
:102070005B0013441B010F4A99180F48FA68134676
:102080005B001344DB00034414331960FB68013325
:10209000FB60FB68092BE9DDB86830F05FFD0346A3
:1020A00018461037BD4680BD3333333F9A99993E69
:1020B00090480C34003C0834103B083480B588B09C
:1020C00000AFF860B9607A603B60BB68022B05D056
:1020D0000E4B0F4A20210F4842F0D0FB7B68FB617A
:1020E000FB681B687B61FB685B68BB61FB690A4A34
:1020F0001A6007F114033A68F969184630F039FD9F
:10210000034618462037BD4680BD00BF80AE04346C
:1021100004FB043490AE0434103B083480B588B01E
:1021200000AFF860B9607A607B80FB687B61BB6858
:10213000FB617B88BA8D02FB03F33B610023BB612B
:1021400011E0BB697A6802FB03F37A6913443A69C8
:102150001946F86944F031F8FA693B691344FB61A8
:10216000BB690133BB613B8DBA699A42E9D300BFB9
:1021700000BF2037BD4680BD80B487B000AFF86097
:10218000B9607A607B804FF070533B6100237B61C4
:1021900018E07B69FA6813441B7807EE903AB8EEB2
:1021A000677AD7ED047A67EE277A7B699B00BA6875
:1021B0001344B7EE007A77EEC77AC3ED007A7B69F5
:1021C00001337B617B887A8803FB02F213465B0054
:1021D00013447A699A42DCDB00BF00BF1C37BD465E
:1021E0005DF8047B704780B48BB000AFF860B960D5
:1021F0007A607B804FF07053BB610023FB8468E002
:10220000FB8C7A6802FB03F3FA6813443B620023F9
:10221000FB8357E0FB8C7A8803FB02F2FB8B1344B1
:102220007B613B6A1B7807EE903AB8EE677AD7ED90
:10223000067A67EE277A7B699B00BA681344B7EE8B
:10224000007A77EEC77AC3ED007A3B6A01331B78D8
:1022500007EE903AB8EE677AD7ED067A67EE277AFE
:102260007B883A8E02FB03F31A467B6913449B007A
:10227000BA681344B7EE007A77EEC77AC3ED007AF6
:102280003B6A02331B7807EE903AB8EE677AD7EDD7
:10229000067A67EE277A7B883A8E02FB03F35B00AF
:1022A0001A467B6913449B00BA681344B7EE007A60
:1022B00077EEC77AC3ED007A3B6A03333B62FB8B50
:1022C0000133FB83FA8B7B889A42A3D3FB8C0133C7
:1022D000FB84FA8C3B8E9A4292D300BF00BF2C370E
:1022E000BD465DF8047B704780B48DB000AFF860E8
:1022F000B96011461A460B46FB801346BB8000238B
:10230000FB6267E0FB6A3A6D03FB02F2BB8F92FB54
:10231000F3F3BA6C1344BB62BB6A002B01DA0023EF
:10232000BB62BB88BA6A9A4202DBBB88013BBB62D4
:1023300000237B6247E07B6AFA6C03FB02F23B8F6F
:1023400092FBF3F37A6C13443B623B6A002B01DA95
:1023500000233B62FB883A6A9A4202DBFB88013B1E
:102360003B62FB88BA6A03FB02F23B6A1344B7F88C
:10237000402002FB03F31A46FB681344BB613B8F0A
:10238000FA6A03FB02F27B6A1344B7F8402002FBAF
:1023900003F31A46BB6813447B610023FB610AE028
:1023A000FB69BA691A44FB6979690B4412781A709F
:1023B000FB690133FB61B7F84030FA699A42EFDB01
:1023C0007B6A01337B623B8F7A6A9A42B3DBFB6A9A
:1023D0000133FB62BB8FFA6A9A4293DB00BF00BFF6
:1023E0003437BD465DF8047B7047000090B58BB074
:1023F00002AF78603960854B1868844B5968834B0D
:102400009A68824BDB68002400942FF00DFD0023B6
:10241000FB61F1E0FA6913465B001344DB001A46E6
:102420007B68134493ED017AFA6913465B00134409
:10243000DB001A467B681344D3ED036AB0EE006AF2
:10244000C6EE867A37EE677A714B9B6807EE903A54
:10245000F8EE677A67EE277AFCEEE77A17EE902AB5
:102460006B4B1B681344BB61FA6913465B00134452
:10247000DB001A467B68134493ED027AFA6913462F
:102480005B001344DB001A467B681344D3ED046AF7
:10249000B0EE006AC6EE867A37EE677A5C4BDB6890
:1024A00007EE903AF8EE677A67EE277AFCEEE77A65
:1024B00017EE903A7B61FA6913465B001344DB0028
:1024C0001A467B68134493ED037A514B9B6807EEE1
:1024D000903AF8EE677A67EE277AFCEEE77A17EE25
:1024E000903A3B61FA6913465B001344DB001A46DD
:1024F0007B68134493ED047A454BDB6807EE903A12
:10250000F8EE677A67EE277AFCEEE77A17EE903AF4
:10251000FB603F4B1A683E4B9B681344BA699A4272
:1025200006D33B4B1A683A4B9B681344013B00E0CF
:10253000BB69BB61364B5A68354BDB6813447A691B
:102540009A4206D3324B5A68314BDB681344013B45
:1025500000E07B697B61BA693B691A442C4B1968BE
:102560002B4B9B680B449A4208D3294B1A68284B83
:102570009B681A44BB69D31A013B00E03B693B618D
:102580007A69FB681A44224B5968214BDB680B447B
:102590009A4208D31E4B5A681D4BDB681A447B696C
:1025A000D31A013B00E0FB68FB604FF0FF23009370
:1025B000FB683A697969B8692FF00CFCBB695A422B
:1025C0003B69D01AFA6913465B001344DB001A46D4
:1025D0007B681344D3ED007A9FED0E7A67EE877A1D
:1025E000B7EEE77A8DED007B0B4B022279690CF098
:1025F00059F9FB690133FB61FA693B689A42FFF4C0
:1026000009AF00BF00BF2437BD4690BD2433083456
:10261000143308340000C842D0AE043480B588B00A
:1026200000AFF860B9607A600023FB616FE00023BF
:10263000BB6165E0FA6913465B001344DB001A4690
:10264000FB6813445A69BB69DB00134493ED007ABD
:10265000334B9B6807EE903AF8EE677A67EE277A7D
:10266000FCEEE77A17EE902A2D4B1B6813447B6132
:10267000FA6913465B001344DB001A46FB681344F7
:102680005A69BB69DB00134493ED017A244BDB6884
:1026900007EE903AF8EE677A67EE277AFCEEE77A73
:1026A00017EE903A3B611E4B1A681D4B9B68134412
:1026B0007A699A4206D31A4B1A68194B9B681344DD
:1026C000013B00E07B697B61154B5A68144BDB686A
:1026D00013443A699A4206D3114B5A68104BDB688F
:1026E0001344013B00E03B693B617B699BB23A6963
:1026F00091B20C4A18462FF0F1F9BB690133BB6166
:10270000BA697B689A4295D3FB690133FB61FA6928
:10271000BB689A428BD300BF00BF2037BD4680BD47
:10272000143308340000FFFF80B586B000AF786036
:102730001D4B7B611D4B3B613B69002B1DDD7B69A4
:1027400003F01F023B691344FB607B69BB60BFF36E
:102750004F8F00BF164ABB68C2F85C32BB6820339B
:10276000BB60FB68203BFB60FB68002BF2DCBFF327
:102770004F8F00BFBFF36F8F00BF00BF0D4B996835
:102780000C4BDA68022308480BF07EFE0A4B1B68EC
:102790005A1C09490A60194678680BF059FF00BFB6
:1027A0001837BD4680BD00BF0070179100B80B0000
:1027B00000ED00E014330834FC3D083480B586B0E9
:1027C00002AFF860B9607A604FF080402FF04EF8A9
:1027D0002FF074F80346DB885B001946FB68009312
:1027E000184B012200200CF05DF82FF067F803462B
:1027F000DB881A4613469B0013449B001946BB68AE
:102800000093114B012200200CF04CF82FF056F8E9
:102810000346DB881A4613465B001344DA00D31ADA
:1028200019467B680093094B012200200CF03AF80E
:1028300000202FF01BF800F0D3F800BF1037BD4682
:1028400080BD00BFD8AE0434E4AE0434F4AE04342A
:1028500080B586B000AFF860B9607A60254B1B6820
:10286000254A02FB03F3254A134401221946244852
:1028700017F004FD03467B617B69002B05D0214BDB
:10288000214A7821214841F0F9FFFB681A68FB686A
:102890005B6819461046FFF7A9FDFB681868FB68DE
:1028A0005B6806221946FFF7B9FEF868FFF73CFFA0
:1028B000FB685B687A68B9681846FFF77FFF0122FA
:1028C00002210F4817F096FC03467B617B69002BC1
:1028D00005D00C4B0C4A82210C4841F0CFFF054B30
:1028E0001B68C3F10103034A136000BF1837BD46DC
:1028F00080BD00BFE03D083400B80B00000000912F
:10290000AC8C0C3404AF043418FB043414AF04341E
:1029100080B500AF012100200EF042F8294B1B6862
:10292000294A1360274B5B68274A9360254B1A6836
:10293000244B9B681344244A5360224B5A68214B12
:10294000DB681344204AD3601F4B02221A611F4ADE
:102950001D4B5A611C4A002100200EF0D5F91C4B7A
:102960001B68194A13601A4B5B68174A9360184B2F
:102970001A68174B9B681344134A5360144B5A68E8
:10298000134BDB681344104AD3600F4B04221A61C7
:10299000104A0D4B5A610C4A012100200EF0B4F987
:1029A0000D482EF0B5FE01202EF008FF00202FF07C
:1029B00003F90A482EF06EFF4FF0FF302EF042FF71
:1029C00000BF80BD14330834E43D08340070179113
:1029D0002433083400000091E0DD07341435083456
:1029E00080B500AF214B1B68002B04D110F0C2FA58
:1029F00003461E4A136010F0BDFA02461B4B1B68CB
:102A0000D31AB3F57A6F2ED24FF080402EF02EFFFE
:102A10002EF054FF0346DB881B011946144B01229C
:102A200000200BF03FFF2EF049FF0346DB881A46DB
:102A300013461B01134419460E4B012200200BF0D4
:102A400031FF2EF03BFF0346DB881A461346DB00BE
:102A500013445B001946084B012200200BF022FFB3
:102A600000202EF003FF00BF80BD00BF003E0834F1
:102A700054AF043468AF043484AF043480B582B0FA
:102A800000AF786039607A683B681344194678680B
:102A900009F04EFC00BF0837BD4680BD80B582B04E
:102AA00000AF786039607A683B68134419467868EB
:102AB00009F0FCFB00BF0837BD4680BD80B485B07F
:102AC00000AFF860B9607A60032318461437BD463A
:102AD0005DF8047B704780B483B000AF786000235A
:102AE00018460C37BD465DF8047B704780B485B04E
:102AF00000AFF860B9607A60032318461437BD460A
:102B00005DF8047B704780B483B000AF7860002329
:102B100018460C37BD465DF8047B704780B400AFA3
:102B200001231846BD465DF8047B704780B400AFB2
:102B300001231846BD465DF8047B704780B5B0B0F0
:102B400000AF786007F10C03B4220021184643F06F
:102B5000A5F828233B7380233B6180237B610323FB
:102B6000BB610123FB614FF440433B624FF4C06300
:102B70007B620C23BB620423FB624FF440333B6354
:102B80001D4B7B638023FB6380233B6403237B64B7
:102B90000123BB644FF44043FB644FF4C0733B65B7
:102BA00003237B650123BB654FF44043FB65134B57
:102BB0003B66012387F864300123BB67104BC7F8DD
:102BC0008C30012387F890300123C7F8A4300D4BD7
:102BD000C7F8B830012387F8BC3007F10C0318465A
:102BE00037F018FB4FF440410448FFF747FF00BFA0
:102BF000C037BD4680BD00BF00002E340000313418
:102C0000705B0272A05B027280B582B000AF786028
:102C10004FF4C0310348FFF741FF00BF0837BD46FE
:102C200080BD00BF0000313480B586B004AF78604D
:102C30004FF4C0310F48FFF731FF0021002031F081
:102C40009DFC0D4B19680D4B1B6807220392062251
:102C500002920B4A01920B4A00920B4A0B4832F047
:102C6000B1FC4FF4C0310348FFF708FF00BF08373D
:102C7000BD4680BD00002E34343308343833083468
:102C80006C6D0634686D0634306D0634F86C0634AD
:102C900080B582B000AF78604FF4E0310348FFF7B1
:102CA000FDFE00BF0837BD4680BD00BF00C02F3409
:102CB00080B586B004AF78604FF4E0310F48FFF77D
:102CC000EDFE0021002031F059FC0D4B19680D4B31
:102CD0001B6802220392012202920B4A01920B4AC4
:102CE00000920B4A0B4832F06DFC4FF4E031034880
:102CF000FFF7C4FE00BF0837BD4680BD00803134F9
:102D00003C33083440330834246E0634206E0634D5
:102D1000E86D0634B06D063480B582B000AF7860DF
:102D20004FF400410348FFF7B9FE00BF0837BD4626
:102D300080BD00BF00802E3480B586B004AF7860BF
:102D40004FF400410F48FFF7A9FE0021002031F0A9
:102D500015FC0D4B19680D4B1B68082203920422C9
:102D600002920B4A01920B4A00920B4A0B4832F036
:102D700029FC4FF400410348FFF780FE00BF0837ED
:102D8000BD4680BD00002F34443308344833083436
:102D9000DC6E0634D86E0634A06E0634686E0634D7
:102DA00080B582B000AF78604FF400410348FFF770
:102DB00075FE00BF0837BD4680BD00BF00802E34C1
:102DC00080B586B004AF78604FF400410F48FFF73C
:102DD00065FE0021002031F0D1FB0D4B19680D4B31
:102DE0001B6805220392032202920B4A01920B4AAE
:102DF00000920B4A0B4832F0E5FB4FF400410348C8
:102E0000FFF73CFE00BF0837BD4680BD00002F34F1
:102E10004C33083450330834946F0634906F0634C2
:102E2000586F0634206F063480B582B000AF7860EA
:102E30004FF410410348FFF731FE00BF0837BD468D
:102E400080BD00BF00002E3480B586B004AF78602E
:102E50004FF410410F48FFF721FE0021002031F010
:102E60008DFB0D4B19680D4B1B6809220392022242
:102E700002920B4A01920B4A00920B4A0B4832F025
:102E8000A1FB4FF410410348FFF7F8FD00BF0837DE
:102E9000BD4680BD00902E34543308345833083476
:102EA0004C7006344870063410700634D86F0634FF
:102EB00080B582B000AF78604FF410410348FFF74F
:102EC000EDFD00BF0837BD4680BD00BF00202F3498
:102ED00080B586B004AF78604FF410410F48FFF71B
:102EE000DDFD0021002031F049FB0D4B19680D4B31
:102EF0001B6800220392092202920B4A01920B4A9C
:102F000000920B4A0B4832F05DFB4FF4104103482E
:102F1000FFF7B4FD00BF0837BD4680BD0040303428
:102F20005C330834603308340471063400710634AD
:102F3000C87006349070063480B582B000AF7860F7
:102F40004FF428410348FFF7A9FD00BF0837BD46ED
:102F500080BD00BF00A82E3480B586B004AF786075
:102F60004FF428410F48FFF799FD0021002031F070
:102F700005FB0D4B19680D4B1B68002203920822BC
:102F800002920B4A01920B4A00920B4A0B4832F014
:102F900019FB4FF428410348FFF770FD00BF0837C5
:102FA000BD4680BD00502F34643308346833083484
:102FB000BC710634B8710634807106344871063429
:102FC00080B582B000AF78604FF440510348FFF7FE
:102FD00065FD00BF0837BD4680BD00BF00302E3400
:102FE00080B586B004AF78604FF440510F48FFF7CA
:102FF00055FD0021002031F0C1FA0D4B19680D4B31
:103000001B6804220392032202920B4A01920B4A8C
:1030100000920B4A0B4832F0D5FA4FF44051034866
:10302000FFF72CFD00BF0837BD4680BD00602E3481
:103030006C3308347033083474720634707206349A
:10304000387206340072063480B582B000AF786002
:103050004FF440510348FFF721FD00BF0837BD463C
:1030600080BD00BF00302E3480B586B004AF7860DC
:103070004FF440510F48FFF711FD0021002031F0BF
:103080007DFA0D4B19680D4B1B6806220392052231
:1030900002920B4A01920B4A00920B4A0B4832F003
:1030A00091FA4FF440510348FFF7E8FC00BF08379E
:1030B000BD4680BD00602E34743308347833083444
:1030C0002C73063428730634F0720634B872063452
:1030D00080B582B000AF78604FF460510348FFF7CD
:1030E000DDFC00BF0837BD4680BD00BF00002E34A8
:1030F00080B586B004AF78604FF460510F48FFF799
:10310000CDFC0021002031F039FA0D4B19680D4B30
:103110001B6809220392022202920B4A01920B4A77
:1031200000920B4A0B4832F04DFA4FF460510348BD
:10313000FFF7A4FC00BF0837BD4680BD00382E3421
:103140007C33083480330834E4730634E073063487
:10315000A87306347073063480B582B000AF78600F
:103160004FF460510348FFF799FC00BF0837BD4694
:1031700080BD00BF00702E3480B586B004AF78608B
:103180004FF460510F48FFF789FC0021002031F017
:10319000F5F90D4B19680D4B1B68092203920222A9
:1031A00002920B4A01920B4A00920B4A0B4832F0F2
:1031B00009FA4FF460510348FFF760FC00BF08377D
:1031C000BD4680BD00E02E34843308348833083493
:1031D0009C7406349874063460740634287406347B
:1031E00080B582B000AF78604FF480410348FFF7AC
:1031F00055FC00BF0837BD4680BD00BF00002E341F
:1032000080B586B004AF78604FF480410F48FFF777
:1032100045FC0021002031F0B1F90D4B19680D4B30
:103220001B6808220392072202920B4A01920B4A62
:1032300000920B4A0B4832F0C5F94FF48041034825
:10324000FFF71CFC00BF0837BD4680BD00402E3490
:103250008C33083490330834547506345075063472
:1032600018750634E074063480B582B000AF78601B
:103270004FF480410348FFF711FC00BF0837BD46FB
:1032800080BD00BF00802E3480B586B004AF78606A
:103290004FF480410F48FFF701FC0021002031F07E
:1032A0006DF90D4B19680D4B1B680122039200222A
:1032B00002920B4A01920B4A00920B4A0B4832F0E1
:1032C00081F94FF480410348FFF7D8FB00BF08376E
:1032D000BD4680BD00102F34943308349833083431
:1032E0000C76063408760634D075063498750634A4
:1032F00080B582B000AF78604FF490410348FFF78B
:10330000CDFB00BF0837BD4680BD00BF00002E3496
:1033100080B586B004AF78604FF490410F48FFF756
:10332000BDFB0021002031F029F90D4B19680D4B30
:103330001B6808220392072202920B4A01920B4A51
:1033400000920B4A0B4832F03DF94FF4904103488C
:10335000FFF794FB00BF0837BD4680BD00482E3400
:103360009C330834A0330834C4760634C07606345F
:10337000887606345076063480B582B000AF786027
:103380004FF490410348FFF789FB00BF0837BD4663
:1033900080BD00BF00902E3480B586B004AF786049
:1033A0004FF490410F48FFF779FB0021002031F0E6
:1033B000E5F80D4B19680D4B1B68012203920022A2
:1033C00002920B4A01920B4A00920B4A0B4832F0D0
:1033D000F9F84FF490410348FFF750FB00BF08375E
:1033E000BD4680BD00202F34A4330834A8330834F0
:1033F0007C770634787706344077063408770634CD
:1034000080B582B000AF78604FF4A0410348FFF769
:1034100045FB00BF0837BD4680BD00BF00002E340D
:1034200080B586B004AF78604FF4A0410F48FFF735
:1034300035FB0021002031F0A1F80D4B19680D4B30
:103440001B6809220392082202920B4A01920B4A3E
:1034500000920B4A0B4832F0B5F84FF4A0410348F4
:10346000FFF70CFB00BF0837BD4680BD00502E346F
:10347000AC330834B033083434780634307806344A
:10348000F8770634C077063480B582B000AF786034
:103490004FF4A0410348FFF701FB00BF0837BD46CA
:1034A00080BD00BF00A02E3480B586B004AF786028
:1034B0004FF4A0410F48FFF7F1FA0021002031F04E
:1034C0005DF80D4B19680D4B1B6800220392092211
:1034D00002920B4A01920B4A00920B4A0B4832F0BF
:1034E00071F84FF4A0410348FFF7C8FA00BF08374E
:1034F000BD4680BD00402F34B4330834B83308349F
:10350000EC780634E8780634B078063478780634F7
:1035100080B582B000AF78604FF4B0410348FFF748
:10352000BDFA00BF0837BD4680BD00BF00002E3485
:1035300080B586B004AF78604FF4B0410F48FFF714
:10354000ADFA0021002031F019F80D4B19680D4B30
:103550001B6808220392072202920B4A01920B4A2F
:1035600000920B4A0B4832F02DF84FF4B04103485B
:10357000FFF784FA00BF0837BD4680BD00582E34DF
:10358000BC330834C0330834A4790634A079063437
:10359000687906343079063480B582B000AF78603F
:1035A0004FF4C0510348FFF779FA00BF0837BD4612
:1035B00080BD00BF00982E3480B586B004AF78601F
:1035C0004FF4C0510F48FFF769FA0021002030F096
:1035D000D5FF0D4B19680D4B1B680922039207227A
:1035E00002920B4A01920B4A00920B4A0B4831F0AF
:1035F000E9FF4FF4C0510348FFF740FA00BF083716
:10360000BD4680BD00182E34C4330834C833083496
:103610005C7A0634587A0634207A0634E87906341F
:1036200080B582B000AF78604FF460710548FFF755
:1036300035FA4FF460510448FFF730FA00BF0837FD
:10364000BD4680BD00182E3400982E3480B5B0B031
:1036500000AF786007F10C03B4220021184642F055
:103660001DFB2A233B7301233B614FF460737B6195
:103670000123BB610123FB614FF460733B624FF494
:1036800060737B620123BB620123FB624FF46073B2
:103690003B631F4B7B63012387F838300123FB63B7
:1036A0004FF460733B6401237B640123BB644FF4DC
:1036B0006073FB644FF460633B6504237B65042304
:1036C000BB654FF46063FB65124B3B66012387F8D3
:1036D00064300123BB67104BC7F88C30012387F897
:1036E00090300123C7F8A4300C4BC7F8B830012341
:1036F00087F8BC3007F10C03184636F011FF4FF481
:1037000060610448FFF7BAF900BFC037BD4680BD0D
:1037100000182E3400C02F34805B0272B05B02723E
:1037200080B584B002AF78604FF460510C48FFF769
:10373000B5F90021002030F021FF0323019302237B
:1037400000930323074A0221074832F0FFF84FF4A1
:1037500060510348FFF792F900BF0837BD4680BDAE
:1037600000E02E34487B0634A07A063480B5B0B031
:1037700000AF786007F10C03B4220021184642F034
:103780008DFA2A233B7310233B614FF460737B61F6
:103790000123BB610123FB614FF460533B624FF493
:1037A00060737B620123BB620123FB624FF46053B1
:1037B0003B631F4B7B63012387F838301023FB6387
:1037C0004FF460733B6401237B640123BB644FF4BB
:1037D0006053FB644FF460633B6504237B65042303
:1037E000BB654FF46043FB65124B3B66012387F8D2
:1037F00064300123BB67104BC7F88C30012387F876
:1038000090300123C7F8A4300C4BC7F8B83001231F
:1038100087F8BC3007F10C03184636F081FE4FF4F0
:1038200060410448FFF72AF900BFC037BD4680BD9C
:1038300000E02E3400002E34605B0272905B027256
:1038400080B582B000AF78604FF460410348FFF765
:1038500025F900BF0837BD4680BD00BF00E02E340B
:1038600080B400AF024B1846BD465DF8047B70473C
:10387000247C063480B400AF024B1846BD465DF888
:10388000047B7047BC7F063480B400AF024B1846FF
:10389000BD465DF8047B70474C80063480B400AFB1
:1038A000024B1846BD465DF8047B70472C810634F8
:1038B00080B582B000AF786039607A683B681344A5
:1038C0001946786808F034FD00BF0837BD4680BD52
:1038D00080B582B000AF786039607A683B68134485
:1038E0001946786808F0E2FC00BF0837BD4680BD85
:1038F00080B485B000AFF860B9607A6003231846E1
:103900001437BD465DF8047B704780B483B000AFC8
:103910007860002318460C37BD465DF8047B70477D
:1039200080B485B000AFF860B9607A6003231846B0
:103930001437BD465DF8047B704780B483B000AF98
:103940007860002318460C37BD465DF8047B70474D
:1039500080B400AF01231846BD465DF8047B704774
:1039600080B400AF01231846BD465DF8047B704764
:1039700080B582B000AF78604FF413310348FFF791
:10398000A7FF00BF0837BD4680BD00BF004C3034E4
:1039900080B5BCB000AF786007F10C03E4220021D1
:1039A000184642F07BF90E233B7370233B61702372
:1039B0007B610323BB610123FB614FF413433B6233
:1039C0004FF4A8637B620C23BB620423FB624FF4B9
:1039D00013333B631F4B7B637023FB6370233B6498
:1039E00003237B640123BB644FF41343FB644FF454
:1039F000A8633B650C237B650423BB654FF413333D
:103A0000FB65154B3B660123BB660123FB66012367
:103A10003B6701237B670123BB670423FB67042308
:103A2000C7F880300423C7F884300423C7F88830EF
:103A30000A4BC7F88C3007F10C03184635F06EFCC2
:103A40004FF413310448FFF733FF00BFF037BD4692
:103A500080BD00BF004C303400002E348089997244
:103A600080B5B0B000AF786007F10C03B42200213C
:103A7000184642F013F928233B7370233B617023EF
:103A80007B610323BB610123FB614FF413433B6262
:103A90004FF4A8637B620C23BB620423FB624FF4E8
:103AA00013333B631D4B7B637023FB6370233B64C9
:103AB00003237B640123BB644FF41343FB644FF483
:103AC000A8733B6503237B650123BB654FF4134358
:103AD000FB65134B3B66012387F864300123BB670A
:103AE000104BC7F88C30012387F890300123C7F8BA
:103AF000A4300D4BC7F8B830012387F8BC3007F16C
:103B00000C03184636F086FB4FF413410448FFF7C8
:103B1000CFFE00BFC037BD4680BD00BF00002E34C1
:103B200000723134A08A9972508E997280B582B039
:103B300000AF78604FF4C4210348FFF7C9FE00BF0F
:103B40000837BD4680BD00BF00002E3480B5B0B040
:103B500000AF786007F10C03B4220021184642F050
:103B60009DF82A233B7370233B6170237B612023E4
:103B7000BB610123FB614FF4C4233B624FF46063DC
:103B80007B622023BB620123FB624FF4C4233B63AF
:103B90001D4B7B63012387F838307023FB63702350
:103BA0003B6420237B640123BB644FF4C423FB6488
:103BB0004FF460533B6580237B650423BB654FF462
:103BC000C413FB65114B3B660123BB67104BC7F861
:103BD0008C30012387F890300123C7F8A4300D4BB7
:103BE000C7F8B830012387F8BC3007F10C0318463A
:103BF00036F096FC4FF4C4110448FFF759FE00BF9D
:103C0000C037BD4680BD00BF00002E340000103418
:103C100050879972108B997280B5BCB000AF7860F4
:103C200007F10C03E4220021184642F037F80F2375
:103C30003B7370233B6170237B612023BB610123B5
:103C4000FB614FF4C4233B624FF460537B628023DB
:103C5000BB620423FB624FF4C4133B63204B7B63C2
:103C60007023FB6370233B6420237B640123BB64CC
:103C70004FF4C423FB644FF460533B6580237B65A2
:103C80000423BB654FF4C413FB654FF010433B6640
:103C90000123BB660123FB6620233B6701237B676F
:103CA0002023BB678023FB678023C7F88030042371
:103CB000C7F884308023C7F888300A4BC7F88C30A7
:103CC00007F10C03184635F029FB4FF4C4114FF0EF
:103CD0001040FFF7EDFD00BFF037BD4680BD00BFCF
:103CE000000010341085997280B5BCB000AF7860C8
:103CF00007F10C03E4220021184641F0CFFF0C230A
:103D00003B7370233B6170237B612023BB610123E4
:103D1000FB614FF4C4233B624FF460537B6280230A
:103D2000BB620423FB624FF4C4133B634FF01043A8
:103D30007B637023FB6370233B6420237B6401233C
:103D4000BB644FF4C423FB644FF460533B65802392
:103D50007B650423BB654FF4C413FB65134B3B66C3
:103D60000123BB660123FB6620233B6701237B679E
:103D70002023BB678023FB678023C7F880300423A0
:103D8000C7F884308023C7F88830094BC7F88C30D7
:103D900007F10C03184635F0C1FA4FF4C41103487B
:103DA000FFF786FD00BFF037BD4680BD0000103430
:103DB0009085997280B5AAB000AF786007F10C03C6
:103DC0009C220021184641F069FF02233B737023B7
:103DD0003B6170237B612023BB610123FB614FF4B6
:103DE000C4233B624FF460537B628023BB62042395
:103DF000FB624FF4C4133B63204B7B637023FB6374
:103E000070233B6420237B640123BB644FF4C423F1
:103E1000FB644FF460533B6580237B650423BB65E3
:103E20004FF4C413FB654FF010433B660123BB66A0
:103E30000123FB6621233B6701237B672123BB67AB
:103E40008423FB678423C7F880300423C7F88430B9
:103E50008423C7F888300A4BC7F88C3007F10C036D
:103E6000184633F021FD4FF4C4114FF01040FFF716
:103E70001FFD00BFA837BD4680BD00BF0000103445
:103E8000F083997280B5B0B000AF786007F10C0391
:103E9000B4220021184641F001FF28233B73702310
:103EA0003B6170237B612023BB610123FB614FF4E5
:103EB000C4233B624FF460537B628023BB620423C4
:103EC000FB624FF4C4133B634FF010437B637023DA
:103ED000FB6370233B6420237B640123BB644FF4AA
:103EE000C423FB644FF460633B6520237B6501239F
:103EF000BB654FF4C423FB65114B3B66012387F878
:103F000064300123BB670F4BC7F88C30012387F85F
:103F100090300123C7F8A4300B4BC7F8B830012309
:103F200087F8BC3007F10C03184636F073F94FF4EC
:103F3000C4210348FFF7BCFC00BFC037BD4680BDAD
:103F400000002734F0879972B08B997280B582B0E7
:103F500000AF78604FF4C4210348FFF7B9FC00BFFD
:103F60000837BD4680BD00BF00002E3480B5B0B01C
:103F700000AF786007F10C03B4220021184641F02D
:103F80008DFE2A233B7370233B6170237B612023CA
:103F9000BB610123FB614FF4C4233B624FF46063B8
:103FA0007B622023BB620123FB624FF4C4233B638B
:103FB0001D4B7B63012387F838307023FB6370232C
:103FC0003B6420237B640123BB644FF4C423FB6464
:103FD0004FF460533B6580237B650423BB654FF43E
:103FE000C413FB65114B3B660123BB67104BC7F83D
:103FF0008C30012387F890300123C7F8A4300D4B93
:10400000C7F8B830012387F8BC3007F10C03184615
:1040100036F086FA4FF4C4110448FFF749FC00BF9C
:10402000C037BD4680BD00BF00002E3400001034F4
:1040300060879972208B997280B5BCB000AF7860B0
:1040400007F10C03E4220021184641F027FE0F235C
:104050003B7370233B6170237B612023BB61012391
:10406000FB614FF4C4233B624FF460537B628023B7
:10407000BB620423FB624FF4C4133B63204B7B639E
:104080007023FB6370233B6420237B640123BB64A8
:104090004FF4C423FB644FF460533B6580237B657E
:1040A0000423BB654FF4C413FB654FF010433B661C
:1040B0000123BB660123FB6620233B6701237B674B
:1040C0002023BB678023FB678023C7F8803004234D
:1040D000C7F884308023C7F888300A4BC7F88C3083
:1040E00007F10C03184635F019F94FF4C4114FF0DD
:1040F0001040FFF7DDFB00BFF037BD4680BD00BFBD
:10410000000010341086997280B5BCB000AF7860A2
:1041100007F10C03E4220021184641F0BFFD0C23F7
:104120003B7370233B6170237B612023BB610123C0
:10413000FB614FF4C4233B624FF460537B628023E6
:10414000BB620423FB624FF4C4133B634FF0104384
:104150007B637023FB6370233B6420237B64012318
:10416000BB644FF4C423FB644FF460533B6580236E
:104170007B650423BB654FF4C413FB65134B3B669F
:104180000123BB660123FB6620233B6701237B677A
:104190002023BB678023FB678023C7F8803004237C
:1041A000C7F884308023C7F88830094BC7F88C30B3
:1041B00007F10C03184635F0B1F84FF4C411034869
:1041C000FFF776FB00BFF037BD4680BD000010341E
:1041D0009086997280B5AAB000AF786007F10C03A1
:1041E0009C220021184641F059FD02233B737023A5
:1041F0003B6170237B612023BB610123FB614FF492
:10420000C4233B624FF460537B628023BB62042370
:10421000FB624FF4C4133B63204B7B637023FB634F
:1042200070233B6420237B640123BB644FF4C423CD
:10423000FB644FF460533B6580237B650423BB65BF
:104240004FF4C413FB654FF010433B660123BB667C
:104250000123FB6621233B6701237B672123BB6787
:104260008423FB678423C7F880300423C7F8843095
:104270008423C7F888300A4BC7F88C3007F10C0349
:10428000184633F011FB4FF4C4114FF01040FFF704
:104290000FFB00BFA837BD4680BD00BF0000103433
:1042A0008084997280B5B0B000AF786007F10C03DC
:1042B000B4220021184641F0F1FC28233B737023FF
:1042C0003B6170237B612023BB610123FB614FF4C1
:1042D000C4233B624FF460537B628023BB620423A0
:1042E000FB624FF4C4133B634FF010437B637023B6
:1042F000FB6370233B6420237B640123BB644FF486
:10430000C423FB644FF460633B6520237B6501237A
:10431000BB654FF4C423FB65114B3B66012387F853
:1043200064300123BB670F4BC7F88C30012387F83B
:1043300090300123C7F8A4300B4BC7F8B8300123E5
:1043400087F8BC3007F10C03184635F063FF4FF4D3
:10435000C4210348FFF7ACFA00BFC037BD4680BD9B
:1043600000002E3400889972C08B997280B582B09B
:1043700000AF78604FF444210348FFF7A9FA00BF6B
:104380000837BD4680BD00BF0000103480B5B0B016
:1043900000AF786007F10C03B4220021184641F009
:1043A0007DFC2A233B7370233B6170237B61402398
:1043B000BB610123FB614FF444233B624FF4E053A4
:1043C0007B624023BB620123FB624FF444233B63C7
:1043D0001E4B7B63012387F838307023FB63702307
:1043E0003B6440237B640123BB644FF44423FB64A0
:1043F0004FF4E0433B654FF480737B650423BB655A
:104400004FF44413FB654FF010433B660123BB6739
:104410000F4BC7F88C30012387F890300123C7F881
:10442000A4300C4BC7F8B830012387F8BC3007F133
:104430000C03184636F074F84FF444114FF0104056
:10444000FFF736FA00BFC037BD4680BD000010340C
:1044500040879972008B997280B5BCB000AF7860CC
:1044600007F10C03E4220021184641F017FC0F234A
:104470003B7370233B6170237B614023BB6101234D
:10448000FB614FF444233B624FF4E0437B624FF403
:104490008073BB620423FB624FF444133B634FF011
:1044A00010437B637023FB6370233B6440237B6476
:1044B0000123BB644FF44423FB644FF4E0433B65AA
:1044C0004FF480737B650423BB654FF44413FB6595
:1044D000154B3B660123BB660123FB6640233B670C
:1044E00001237B674023BB674FF48073FB674FF466
:1044F0008073C7F880300423C7F884304FF480738A
:10450000C7F88830094BC7F88C3007F10C03184600
:1045100034F004FF4FF444110348FFF7C9F900BF1A
:10452000F037BD4680BD00BF00003190F07F99722A
:1045300080B5BCB000AF786007F10C03E422002125
:10454000184641F0ABFB0C233B7370233B61702397
:104550007B614023BB610123FB614FF444233B6239
:104560004FF4E0437B624FF48073BB620423FB6231
:104570004FF444133B63224B7B637023FB63702334
:104580003B6440237B640123BB644FF44423FB64FE
:104590004FF4E0433B654FF480737B650423BB65B8
:1045A0004FF44413FB654FF010433B660123BB6699
:1045B0000123FB6640233B6701237B674023BB67E6
:1045C0004FF48073FB674FF48073C7F88030042387
:1045D000C7F884304FF48073C7F88830094BC7F8A8
:1045E0008C3007F10C03184634F098FE4FF4441158
:1045F0004FF01040FFF75CF900BFF037BD4680BDBB
:1046000000003190F080997280B5AAB000AF786058
:1046100007F10C039C220021184641F03FFB0223C6
:104620003B7370233B6170237B614023BB6101239B
:10463000FB614FF444233B624FF4E0437B624FF451
:104640008073BB620423FB624FF444133B634FF05F
:1046500010437B637023FB6370233B6440237B64C4
:104660000123BB644FF44423FB644FF4E0433B65F8
:104670004FF480737B650423BB654FF44413FB65E3
:10468000154B3B660123BB660123FB6641233B6759
:1046900001237B674123BB674FF48273FB674FF4B1
:1046A0008273C7F880300423C7F884304FF48273D4
:1046B000C7F88830094BC7F88C3007F10C0318464F
:1046C00033F0F2F84FF444110348FFF7F1F800BF5C
:1046D000A837BD4680BD00BF00003190D07D9972E3
:1046E00080B5B0B000AF786007F10C03B4220021B0
:1046F000184641F0D3FA28233B7370233B617023A3
:104700007B614023BB610123FB614FF444233B6287
:104710004FF4E0437B624FF48073BB620423FB627F
:104720004FF444133B631D4B7B637023FB63702387
:104730003B6440237B640123BB644FF44423FB644C
:104740004FF4E0533B6540237B650123BB654FF489
:104750004423FB65124B3B66012387F86430012339
:10476000BB67104BC7F88C30012387F890300123CA
:10477000C7F8A4300C4BC7F8B830012387F8BC3019
:1047800007F10C03184635F045FD4FF44421044869
:10479000FFF78EF800BFC037BD4680BD00003190E6
:1047A00000001034A0879972608B997280B582B036
:1047B00000AF78604FF444310348FFF789F800BF39
:1047C0000837BD4680BD00BF00002E3480B5B0B0B4
:1047D00000AF786007F10C03B4220021184641F0C5
:1047E0005DFA2A233B7338233B6138237B614023E6
:1047F000BB610123FB614FF444333B624FF46063C0
:104800007B624023BB620123FB624FF444333B6372
:104810001D4B7B63012387F838303823FB63382333
:104820003B6440237B640123BB644FF44433FB644B
:104830004FF460533B654FF480737B650423BB6585
:104840004FF44423FB65114B3B660123BB67104BC0
:10485000C7F88C30012387F890300123C7F8A430C3
:104860000C4BC7F8B830012387F8BC3007F10C03B4
:10487000184635F055FE4FF444210448FFF718F868
:1048800000BFC037BD4680BD00002E34000010348C
:10489000B0879972708B997280B5BCB000AF7860A8
:1048A00007F10C03E4220021184641F0F7F90F2329
:1048B0003B7338233B6138237B614023BB61012379
:1048C000FB614FF444333B624FF460537B624FF41F
:1048D0008073BB620423FB624FF444233B63214B90
:1048E0007B633823FB6338233B6440237B640123D1
:1048F000BB644FF44433FB644FF460533B654FF4A7
:1049000080737B650423BB654FF44423FB65164B22
:104910003B660123BB660123FB6640233B67012303
:104920007B674023BB674FF48073FB674FF4807352
:10493000C7F880300423C7F884304FF48073C7F879
:1049400088300A4BC7F88C3007F10C03184634F056
:10495000E5FC4FF444210448FEF7AAFF00BFF037FE
:10496000BD4680BD0000103400401C34F0819972B7
:1049700080B5BCB000AF786007F10C03E4220021E1
:10498000184641F08BF90C233B7338233B613823E5
:104990007B614023BB610123FB614FF444333B62E5
:1049A0004FF460537B624FF48073BB620423FB625D
:1049B0004FF444233B63214B7B633823FB63382351
:1049C0003B6440237B640123BB644FF44433FB64AA
:1049D0004FF460533B654FF480737B650423BB65E4
:1049E0004FF44423FB65164B3B660123BB66012352
:1049F000FB6640233B6701237B674023BB674FF483
:104A00008073FB674FF48073C7F880300423C7F8C6
:104A100084304FF48073C7F888300A4BC7F88C3065
:104A200007F10C03184634F079FC4FF44421044894
:104A3000FEF73EFF00BFF037BD4680BD00401C348E
:104A400000001034F082997280B5AAB000AF78608F
:104A500007F10C039C220021184641F01FF90223A4
:104A60003B7338233B6138237B614023BB610123C7
:104A7000FB614FF444333B624FF460537B624FF46D
:104A80008073BB620423FB624FF444233B63214BDE
:104A90007B633823FB6338233B6440237B6401231F
:104AA000BB644FF44433FB644FF460533B654FF4F5
:104AB00080737B650423BB654FF44423FB65164B71
:104AC0003B660123BB660123FB6641233B67012351
:104AD0007B674123BB674FF48273FB674FF482739C
:104AE000C7F880300423C7F884304FF48273C7F8C6
:104AF00088300A4BC7F88C3007F10C03184632F0A7
:104B0000D3FE4FF444210448FEF7D2FE00BFA8377D
:104B1000BD4680BD0000103400102A34E07E99723A
:104B200080B5B0B000AF786007F10C03B42200216B
:104B3000184641F0B3F828233B7338233B613823F0
:104B40007B614023BB610123FB614FF444333B6233
:104B50004FF460537B624FF48073BB620423FB62AB
:104B60004FF444233B631D4B7B633823FB633823A3
:104B70003B6440237B640123BB644FF44433FB64F8
:104B80004FF460633B6540237B650123BB654FF4B5
:104B90004433FB65124B3B66012387F864300123E5
:104BA000BB67104BC7F88C30012387F89030012386
:104BB000C7F8A4300C4BC7F8B830012387F8BC30D5
:104BC00007F10C03184635F025FB4FF44431044837
:104BD000FEF76EFE00BFC037BD4680BD00102A3410
:104BE0000000273400899972C08C997280B582B018
:104BF00000AF78604FF4C4210348FEF769FE00BFA0
:104C00000837BD4680BD00BF00002E3480B5B0B06F
:104C100000AF786007F10C03B4220021184641F080
:104C20003DF82A233B7338233B6138237B61802383
:104C3000BB610123FB614FF4C4233B624FF4E0539B
:104C40007B628023BB620123FB624FF4C4233B637E
:104C50001D4B7B63012387F838303823FB633823EF
:104C60003B6480237B640123BB644FF4C423FB6457
:104C70004FF4E0433B654FF400737B650423BB6551
:104C80004FF4C413FB65114B3B660123BB67104B0C
:104C9000C7F88C30012387F890300123C7F8A4307F
:104CA0000C4BC7F8B830012387F8BC3007F10C0370
:104CB000184635F035FC4FF4C4110448FEF7F8FDF2
:104CC00000BFC037BD4680BD00002E340000103448
:104CD00070879972308B997280B5BCB000AF7860E4
:104CE00007F10C03E4220021184640F0D7FF0F2300
:104CF0003B7338233B6138237B618023BB610123F5
:104D0000FB614FF4C4233B624FF4E0437B624FF4FA
:104D10000073BB620423FB624FF4C4133B63224B5A
:104D20007B633823FB6338233B6480237B6401234C
:104D3000BB644FF4C423FB644FF4E0433B654FF482
:104D400000737B650423BB654FF4C413FB654FF010
:104D500010433B660123BB660123FB6680233B6750
:104D600001237B678023BB674FF40073FB674FF41D
:104D70000073C7F880300423C7F884304FF4007301
:104D8000C7F88830094BC7F88C3007F10C03184678
:104D900034F0C4FA4FF4C4114FF01040FEF788FD10
:104DA00000BFF037BD4680BD00001034D069997255
:104DB00080B5BCB000AF786007F10C03E42200219D
:104DC000184640F06BFF0C233B7338233B613823BC
:104DD0007B618023BB610123FB614FF4C4233B62F1
:104DE0004FF4E0437B624FF40073BB620423FB6229
:104DF0004FF4C4133B634FF010437B633823FB63D2
:104E000038233B6480237B640123BB644FF4C423B9
:104E1000FB644FF4E0433B654FF400737B65042370
:104E2000BB654FF4C413FB65154B3B660123BB66A2
:104E30000123FB6680233B6701237B678023BB67DD
:104E40004FF40073FB674FF40073C7F880300423FE
:104E5000C7F884304FF40073C7F88830094BC7F89F
:104E60008C3007F10C03184634F058FA4FF4C41193
:104E70000348FEF71DFD00BFF037BD4680BD00BFF3
:104E800000001034D06B997280B5AAB000AF786082
:104E900007F10C039C220021184640F0FFFE02237C
:104EA0003B7338233B6138237B618023BB61012343
:104EB000FB614FF4C4233B624FF4E0437B624FF449
:104EC0000073BB620423FB624FF4C4133B63224BA9
:104ED0007B633823FB6338233B6480237B6401239B
:104EE000BB644FF4C423FB644FF4E0433B654FF4D1
:104EF00000737B650423BB654FF4C413FB654FF05F
:104F000010433B660123BB660123FB6681233B679D
:104F100001237B678123BB674FF40173FB674FF469
:104F20000173C7F880300423C7F884304FF401734D
:104F3000C7F88830094BC7F88C3007F10C031846C6
:104F400032F0B2FC4FF4C4114FF01040FEF7B0FC49
:104F500000BFA837BD4680BD00001034905F997235
:104F600080B5B0B000AF786007F10C03B422002127
:104F7000184640F093FE28233B7338233B613823C7
:104F80007B618023BB610123FB614FF4C4233B623F
:104F90004FF4E0437B624FF40073BB620423FB6277
:104FA0004FF4C4133B634FF010437B633823FB6320
:104FB00038233B6480237B640123BB644FF4C42308
:104FC000FB644FF4E0533B6580237B650123BB65A5
:104FD0004FF4C423FB65124B3B66012387F8643012
:104FE0000123BB670F4BC7F88C30012387F8903043
:104FF0000123C7F8A4300C4BC7F8B830012387F859
:10500000BC3007F10C03184635F004F94FF4C42105
:105010000348FEF74DFC00BFC037BD4680BD00BF52
:105020000000273410889972D08B997280B582B0B5
:1050300000AF78604FF4C4210348FEF749FC00BF7D
:105040000837BD4680BD00BF00002E3480B5B0B02B
:1050500000AF786007F10C03B4220021184640F03D
:105060001DFE2A233B7338233B6138237B61802359
:10507000BB610123FB614FF4C4233B624FF4E05357
:105080007B628023BB620123FB624FF4C4233B633A
:105090001D4B7B63012387F838303823FB633823AB
:1050A0003B6480237B640123BB644FF4C423FB6413
:1050B0004FF4E0433B654FF400737B650423BB650D
:1050C0004FF4C413FB65114B3B660123BB67104BC8
:1050D000C7F88C30012387F890300123C7F8A4303B
:1050E0000C4BC7F8B830012387F8BC3007F10C032C
:1050F000184635F015FA4FF4C4110448FEF7D8FBF2
:1051000000BFC037BD4680BD00002E340000103403
:1051100080879972408B997280B5BCB000AF78607F
:1051200007F10C03E4220021184640F0B7FD0F23DD
:105130003B7338233B6138237B618023BB610123B0
:10514000FB614FF4C4233B624FF4E0437B624FF4B6
:105150000073BB620423FB624FF4C4133B63224B16
:105160007B633823FB6338233B6480237B64012308
:10517000BB644FF4C423FB644FF4E0433B654FF43E
:1051800000737B650423BB654FF4C413FB654FF0CC
:1051900010433B660123BB660123FB6680233B670C
:1051A00001237B678023BB674FF40073FB674FF4D9
:1051B0000073C7F880300423C7F884304FF40073BD
:1051C000C7F88830094BC7F88C3007F10C03184634
:1051D00034F0A4F84FF4C4114FF01040FEF768FB10
:1051E00000BFF037BD4680BD00001034D06D99720D
:1051F00080B5BCB000AF786007F10C03E422002159
:10520000184640F04BFD0C233B7338233B61382399
:105210007B618023BB610123FB614FF4C4233B62AC
:105220004FF4E0437B624FF40073BB620423FB62E4
:105230004FF4C4133B634FF010437B633823FB638D
:1052400038233B6480237B640123BB644FF4C42375
:10525000FB644FF4E0433B654FF400737B6504232C
:10526000BB654FF4C413FB65154B3B660123BB665E
:105270000123FB6680233B6701237B678023BB6799
:105280004FF40073FB674FF40073C7F880300423BA
:10529000C7F884304FF40073C7F88830094BC7F85B
:1052A0008C3007F10C03184634F038F84FF4C41171
:1052B0000348FEF7FDFA00BFF037BD4680BD00BFD2
:1052C00000001034D06F997280B5AAB000AF78603A
:1052D00007F10C039C220021184640F0DFFC02235A
:1052E0003B7338233B6138237B618023BB610123FF
:1052F000FB614FF4C4233B624FF4E0437B624FF405
:105300000073BB620423FB624FF4C4133B63224B64
:105310007B633823FB6338233B6480237B64012356
:10532000BB644FF4C423FB644FF4E0433B654FF48C
:1053300000737B650423BB654FF4C413FB654FF01A
:1053400010433B660123BB660123FB6681233B6759
:1053500001237B678123BB674FF40173FB674FF425
:105360000173C7F880300423C7F884304FF4017309
:10537000C7F88830094BC7F88C3007F10C03184682
:1053800032F092FA4FF4C4114FF01040FEF790FA49
:1053900000BFA837BD4680BD00001034A0619972DF
:1053A00080B5B0B000AF786007F10C03B4220021E3
:1053B000184640F073FC28233B7338233B613823A5
:1053C0007B618023BB610123FB614FF4C4233B62FB
:1053D0004FF4E0437B624FF40073BB620423FB6233
:1053E0004FF4C4133B634FF010437B633823FB63DC
:1053F00038233B6480237B640123BB644FF4C423C4
:10540000FB644FF4E0533B6580237B650123BB6560
:105410004FF4C423FB65124B3B66012387F86430CD
:105420000123BB670F4BC7F88C30012387F89030FE
:105430000123C7F8A4300C4BC7F8B830012387F814
:10544000BC3007F10C03184634F0E4FE4FF4C421DD
:105450000348FEF72DFA00BFC037BD4680BD00BF30
:105460000000273420889972E08B997280B582B051
:1054700000AF78604FF4C4210348FEF729FA00BF5B
:105480000837BD4680BD00BF00002E3480B5B0B0E7
:1054900000AF786007F10C03B4220021184640F0F9
:1054A000FDFB2A233B7338233B6138237B61802338
:1054B000BB610123FB614FF4C4233B624FF4E05313
:1054C0007B628023BB620123FB624FF4C4233B63F6
:1054D0001E4B7B63012387F838303823FB63382366
:1054E0003B6480237B640123BB644FF4C423FB64CF
:1054F0004FF4E0433B654FF400737B650423BB65C9
:105500004FF4C413FB654FF010433B660123BB67A8
:105510000F4BC7F88C30012387F890300123C7F870
:10552000A4300C4BC7F8B830012387F8BC3007F122
:105530000C03184634F0F4FF4FF4C4114FF0104040
:10554000FEF7B6F900BFC037BD4680BD00002E345F
:1055500090879972508B997280B5BCB000AF78601B
:1055600007F10C03E4220021184640F097FB0F23BB
:105570003B7338233B6138237B618023BB6101236C
:10558000FB614FF4C4233B624FF4E0437B624FF472
:105590000073BB620423FB624FF4C4133B634FF000
:1055A00010437B633823FB6338233B6480237B6495
:1055B0000123BB644FF4C423FB644FF4E0433B6519
:1055C0004FF400737B650423BB654FF4C413FB6584
:1055D000154B3B660123BB660123FB6680233B67BB
:1055E00001237B678023BB674FF40073FB674FF495
:1055F0000073C7F880300423C7F884304FF4007379
:10560000C7F88830094BC7F88C3007F10C031846EF
:1056100033F084FE4FF4C4110348FEF749F900BF8C
:10562000F037BD4680BD00BF00001034D0719972C4
:1056300080B5BCB000AF786007F10C03E422002114
:10564000184640F02BFB0C233B7338233B61382377
:105650007B618023BB610123FB614FF4C4233B6268
:105660004FF4E0437B624FF40073BB620423FB62A0
:105670004FF4C4133B63224B7B633823FB63382313
:105680003B6480237B640123BB644FF4C423FB642D
:105690004FF4E0433B654FF400737B650423BB6527
:1056A0004FF4C413FB654FF010433B660123BB6608
:1056B0000123FB6680233B6701237B678023BB6755
:1056C0004FF40073FB674FF40073C7F88030042376
:1056D000C7F884304FF40073C7F88830094BC7F817
:1056E0008C3007F10C03184633F018FE4FF4C41148
:1056F0004FF01040FEF7DCF800BFF037BD4680BD2C
:1057000000001034D073997280B5AAB000AF7860F1
:1057100007F10C039C220021184640F0BFFA022337
:105720003B7338233B6138237B618023BB610123BA
:10573000FB614FF4C4233B624FF4E0437B624FF4C0
:105740000073BB620423FB624FF4C4133B634FF04E
:1057500010437B633823FB6338233B6480237B64E3
:105760000123BB644FF4C423FB644FF4E0433B6567
:105770004FF400737B650423BB654FF4C413FB65D2
:10578000154B3B660123BB660123FB6681233B6708
:1057900001237B678123BB674FF40173FB674FF4E1
:1057A0000173C7F880300423C7F884304FF40173C5
:1057B000C7F88830094BC7F88C3007F10C0318463E
:1057C00032F072F84FF4C4110348FEF771F800BFCD
:1057D000A837BD4680BD00BF00001034B063997289
:1057E00080B5B0B000AF786007F10C03B42200219F
:1057F000184640F053FA28233B7338233B61382383
:105800007B618023BB610123FB614FF4C4233B62B6
:105810004FF4E0437B624FF40073BB620423FB62EE
:105820004FF4C4133B631D4B7B633823FB63382366
:105830003B6480237B640123BB644FF4C423FB647B
:105840004FF4E0533B6580237B650123BB654FF438
:10585000C423FB65124B3B66012387F864300123A8
:10586000BB67104BC7F88C30012387F890300123B9
:10587000C7F8A4300C4BC7F8B830012387F8BC3008
:1058800007F10C03184634F0C5FC4FF4C42104485A
:10589000FEF70EF800BFC037BD4680BD00001034D3
:1058A00000002E3430889972F08B997280B582B0E6
:1058B00000AF78604FF4C4310348FEF709F800BF29
:1058C0000837BD4680BD00BF0000273480B5B0B0AA
:1058D00000AF786007F10C03B4220021184640F0B5
:1058E000DDF92A233B731C233B611C237B6180234E
:1058F000BB610123FB614FF4C4333B624FF460632F
:105900007B628023BB620123FB624FF4C4333B63A1
:105910001D4B7B63012387F838301C23FB631C235A
:105920003B6480237B640123BB644FF4C433FB647A
:105930004FF460533B654FF400737B650423BB65F4
:105940004FF4C423FB65114B3B660123BB67104B2F
:10595000C7F88C30012387F890300123C7F8A430B2
:105960000C4BC7F8B830012387F8BC3007F10C03A3
:10597000184634F0D5FD4FF4C4210448FDF798FFD4
:1059800000BFC037BD4680BD0000273400002E3464
:1059900040889972008C997280B5BCB000AF786075
:1059A00007F10C03E4220021184640F077F90F2399
:1059B0003B731C233B611C237B618023BB61012360
:1059C000FB614FF4C4333B624FF460537B624FF48E
:1059D0000073BB620423FB624FF4C4233B63214B7F
:1059E0007B631C23FB631C233B6480237B640123B8
:1059F000BB644FF4C433FB644FF460533B654FF416
:105A000000737B650423BB654FF4C423FB65164B11
:105A10003B660123BB660123FB6680233B670123B2
:105A20007B678023BB674FF40073FB674FF4007301
:105A3000C7F880300423C7F884304FF40073C7F8E8
:105A400088300A4BC7F88C3007F10C03184633F046
:105A500065FC4FF4C4210448FDF72AFF00BFF0376E
:105A6000BD4680BD00002E3400002734D0759972E9
:105A700080B5BCB000AF786007F10C03E4220021D0
:105A8000184640F00BF90C233B731C233B611C238D
:105A90007B618023BB610123FB614FF4C4333B6214
:105AA0004FF460537B624FF40073BB620423FB62CC
:105AB0004FF4C4233B63214B7B631C23FB631C23F8
:105AC0003B6480237B640123BB644FF4C433FB64D9
:105AD0004FF460533B654FF400737B650423BB6553
:105AE0004FF4C423FB65164B3B660123BB660123C1
:105AF000FB6680233B6701237B678023BB674FF4F2
:105B00000073FB674FF40073C7F880300423C7F8B5
:105B100084304FF40073C7F888300A4BC7F88C30D4
:105B200007F10C03184633F0F9FB4FF4C421044885
:105B3000FDF7BEFE00BFF037BD4680BD0000273434
:105B400000002E34D077997280B5AAB000AF78608B
:105B500007F10C039C220021184640F09FF8022315
:105B60003B731C233B611C237B618023BB610123AE
:105B7000FB614FF4C4333B624FF460537B624FF4DC
:105B80000073BB620423FB624FF4C4233B63214BCD
:105B90007B631C23FB631C233B6480237B64012306
:105BA000BB644FF4C433FB644FF460533B654FF464
:105BB00000737B650423BB654FF4C423FB65164B60
:105BC0003B660123BB660123FB6681233B67012300
:105BD0007B678123BB674FF40173FB674FF401734D
:105BE000C7F880300423C7F884304FF40173C7F836
:105BF00088300A4BC7F88C3007F10C03184631F097
:105C000053FE4FF4C4210448FDF752FE00BFA837ED
:105C1000BD4680BD00002E3400002734C065997257
:105C200080B5B0B000AF786007F10C03B42200215A
:105C3000184640F033F828233B731C233B611C2398
:105C40007B618023BB610123FB614FF4C4333B6262
:105C50004FF460537B624FF40073BB620423FB621A
:105C60004FF4C4233B631D4B7B631C23FB631C234A
:105C70003B6480237B640123BB644FF4C433FB6427
:105C80004FF460633B6580237B650123BB654FF464
:105C9000C433FB65124B3B66012387F86430012354
:105CA000BB67104BC7F88C30012387F89030012375
:105CB000C7F8A4300C4BC7F8B830012387F8BC30C4
