:0200000470107A
:1000000053544D32000000000000000000000000CA
:1000100000000000000000000000000000000000E0
:1000200000000000000000000000000000000000D0
:1000300000000000000000000000000000000000C0
:1000400000000000000000000000000000000000B0
:1000500000000000000000000000000000000000A0
:1000600000000000ADAABC0100030200C08D050025
:100070000DD2023400000000FFFFFFFF000000006F
:100080000000000000000080A0010000000000004F
:100090000000000000000000000000000000000060
:1000A0005354FFFFA00100007CEACEEDBB8350411A
:1000B000731275020153119F6C4391E7895F02C56A
:1000C000C2F1D7ADB18937E0384EC2A03DAA796DF3
:1000D0007444D27E608ABDC0A492AB474D760F0CAB
:1000E0007A63E74A05117AB0AFAEB1886055F0EC9B
:1000F000140A81CC9D4300C3954AB82FB7D10EC3D3
:100100005882D7283F4147D58DAFC7FAB7E6B661C9
:100110003519EEF6CD1FD07F60BE20A751AF732CEE
:10012000FB95AE0E26FF46D45267959C211A488B4C
:10013000C7A932FCD3F7C56DA413F76A8ECC0D4A5C
:10014000C6ECD8A5C1A109EB5E8DBC5FA85B02031C
:1001500021A9373B4903AAE9ABAEE34D291C19ACF1
:100160007EEBF41C1705FBBC858DEC33A92214979C
:100170009707DA996FFF72BA46B85C7EE8C3122B14
:100180005F2298ECA1677E3A63C4DEBDCE3F952E18
:1001900049ECE4E9D83A01D8374DAEB399A84E1FDF
:1001A00059A2F012FDA3EF52C01F5F2423A6E60060
:1001B000228BD2212965AF523B009B78D538763C03
:1001C000D2DE3611D4FA4D1DB5D0E7494E354DEE8D
:1001D0007D2D9184941FE5C29A6E26F2C0C189DA02
:1001E000F26929CF2EE62FF483E193810B836E967B
:1001F0002BCD6811D1B91D6C784DA106B0353E0FDD
:100200002DF9AD3610546B12B31CC1A3DBBCB1AADF
:10021000DC5E83A56E08971C4142665E0DFFBAE066
:10022000FD847756D6E3332EEA79D5E8B6E3F4DDDC
:10023000D33019166E39911D10668E325FB326FBCE
:1002400000000000000000000000000000000000AE
:10025000000000000000000000000000000000009E
:10026000000000000000000000000000000000008E
:10027000000000000000000000000000000000007E
:10028000000000000000000000000000000000006E
:10029000000000000000000000000000000000005E
:1002A000000000000000000000000000000000004E
:1002B000000000000000000000000000000000003E
:1002C000000000000000000000000000000000002E
:1002D000000000000000000000000000000000001E
:1002E000000000000000000000000000000000000E
:1002F00000000000000000000000000000000000FE
:1003000000000000000000000000000000000000ED
:1003100000000000000000000000000000000000DD
:1003200000000000000000000000000000000000CD
:1003300000000000000000000000000000000000BD
:1003400000000000000000000000000000000000AD
:10035000000000000000000000000000000000009D
:10036000000000000000000000000000000000008D
:10037000000000000000000000000000000000007D
:10038000000000000000000000000000000000006D
:10039000000000000000000000000000000000005D
:1003A000000000000000000000000000000000004D
:1003B000000000000000000000000000000000003D
:1003C000000000000000000000000000000000002D
:1003D000000000000000000000000000000000001D
:1003E000000000000000000000000000000000000D
:1003F00000000000000000000000000000000000FD
:10040000000010340DD202343D3C00344B3C00342B
:10041000533C00345B3C0034633C00346B3C0034A0
:10042000000000000000000000000000733C0034E9
:10043000813C003400000000893C0034913C0034D1
:1004400069D202340000000069D2023469D2023459
:1004500069D2023469D2023469D2023469D20234D8
:1004600069D202340000000069D2023469D2023439
:1004700069D202348944003469D202340000000099
:1004800069D202340000000069D2023469D2023419
:1004900069D2023469D2023469D2023469D2023498
:1004A00069D2023469D2023469D2023469D2023488
:1004B00069D2023469D2023469D2023469D2023478
:1004C00069D2023469D2023469D2023469D2023468
:1004D00069D2023469D2023469D2023469D2023458
:1004E00069D202340000000069D2023469D20234B9
:1004F00069D2023469D2023469D202349D3C00349C
:10050000B73C0034000000000000000000000000C4
:1005100069D20234D9CA023469D2023469D20234AF
:1005200069D2023469D2023469D2023469D2023407
:1005300069D2023469D2023469D2023469D20234F7
:1005400069D2023469D2023469D2023469D20234E7
:1005500069D2023469D2023469D2023469D20234D7
:100740000000000069D2023469D2023400000000C7
:1007500010B5054C237833B9044B13B10448AFF3FB
:1007600000800123237010BD0090053400000000BC
:100770005421033408B5034B1BB103490348AFF3BD
:10078000008008BD000000000490053454210334AB
:1007900090EDAD6A30B52DED108B90EDA87BB5EEE8
:1007A000C06A87B08DED027B002390EDA47BF1EE53
:1007B00010FA91ED015A91ED004A91ED02FB91ED95
:1007C00004EB044690ED123B90EDAACB90ED16ABF6
:1007D0008DED047B90EDA6BB80F8603009DCD0F88D
:1007E000C832D14898474FF0FF3007B0BDEC108BAE
:1007F00030BDB8EE455B9FEDBE7BB8EE444B25EEB9
:10080000077BB4EEC47BF1EE10FA0FDD90ED1C7B9C
:100810009FEDB92B37EE022B9FEDB97BB4EEC72BC2
:10082000F1EE10FA37FE027B80ED1C7B9FEDB67B6C
:1008300025EE075BB4EEC45BF1EE10FA10D594ED33
:100840001C7B9FEDAD5B37EE457B9FEDB15BB4EE5E
:10085000C57BF1EE10FA58BFB0EE475B84ED1C5B30
:1008600083EE0C8BBCEEC88BB8EE488B94F85050DE
:1008700028EE0C8B012DB7EEC66A40F0AC809FEDE0
:10088000A67B3FEE4E5B85EE07DB3FEE0E5B85EE13
:10089000079BB0EECD7BB4EEC76BF1EE10FAB0EE75
:1008A000C95B1FDBB4EEC56BF1EE10FA1ADB002357
:1008B00084F8783094ED1A7BB5EEC07BF1EE10FA37
:1008C00040F33481012384F860309DED027BB4EE67
:1008D000C7ABF1EE10FA40F13C819DED047B3AEE9E
:1008E00007BB28E1B4EEC56BF1EE10FA0CD589EE2A
:1008F0000D5B94EDAE6AB0EEC55BB7EEC66AB4EEC2
:10090000C65BF1EE10FAD5DAF7EECA0BB7EEC70BFD
:1009100031F0FAF8B2EE047BB7EEC00A20EE070B16
:10092000FCEEC87BB0EECE6BCDED017AB0EECF7BA6
:10093000B4EEC67BF1EE10FA62DCB5EEC0EBF1EE80
:1009400010FA62D538EE000B94ED3C7BB4EEC07B20
:10095000F1EE10FA03D5B0EE4BABB0EE470B94EDD1
:100960003A7BB4EEC07BF1EE10FA03DDB0EE4BAB98
:10097000B0EE470B80EE0C8BBCEEC88BB8EE488B0C
:10098000012D2CEE088B16D1B4F8E030022B3FD8A5
:10099000DDED017AB8EE677B04EBC30282ED207BCC
:1009A00082ED268B04EB0312013382ED2CDB82ED0A
:1009B0002E9BA4F8E03094F87830012B07D0FCEEA1
:1009C000C87B17EE903A019A93423FF473AF01232C
:1009D00084F860306EE7B0EECF7BB0EECE5BB4EE65
:1009E000475BF1EE10FA35FE077BB4EEC67BF1EE05
:1009F00010FA7FF65FAF9FED4A9BB0EE49DB83E7CD
:100A0000B5EEC0FBF1EE10FA9CD538EE400B9BE73B
:100A100094ED2A7B94EDAF6A38EE477BB7EEC66A59
:100A2000B0EEC77BB4EEC67BF1EE10FA56DB94ED68
:100A3000287B38EE477BB0EEC77BB4EEC76BF1EE98
:100A400010FA4BDD94ED320B94ED307B39EE400B18
:100A50003DEE477B20EE000BA7EE070B30F0A4FC29
:100A600094EDB07AB7EEC77AB4EEC70BF1EE10FA98
:100A700034D5DDED017AB8EE678B84F8785094F8C0
:100A80007830002B97D1102204F1880104F1800006
:100A90002EF042FC102204F1A00104F198002EF087
:100AA0003BFCD4E93023DDED017AB8EE677BC4E985
:100AB0002C23D4E9322384ED247BC4E92E23D4E90A
:100AC000342384ED2A8BC4E93023D4E9362384ED22
:100AD00034DB84ED369BC4E932236CE794F878303C
:100AE000012B04BF002384F87830C8E7AFF30080FF
:100AF0009A9999999999A93F7B14AE47E17A843FD5
:100B0000343333333333C33F333333333333C33F7C
:100B1000111111111111B13FCD3B7F669EA0F63F1F
:100B200000000000000000000A57053494F860300F
:100B3000002B7FF4CAAE88EE0C7BBCEEC77BB8EE10
:100B4000477B27EE0C7B84ED16BB84ED127B0120E6
:100B50004BE69DED02BBEEE790ED1A6BB5EEC06B78
:100B600090ED124BF1EE10FA90EDAA5BB0EE467BE1
:100B7000DFBF84EE057BBCEEC77BB8EE477B27EE7C
:100B8000057BB7EEC77B90ED3C5BB7EEC74AB4EE92
:100B9000C54BF1EE10FAC8BFB7EEC57B90ED3A5BDE
:100BA000B7EEC74AB4EEC54BF1EE10FA48BFB7EE48
:100BB000C57BB7EEC75AD0F8743230B580ED125B02
:100BC00093ED005AD0EDAC7AB4EEC75AF1EE675A05
:100BD000F1EE10FA4FF00001B0F8F83075FEA77A88
:100BE000013B8AB2934205D8442202FB030303F57A
:100BF000907311E000EB8204D4ED445A77EEA55ACD
:100C0000F4EEC75AF1EE10FA01F10101E9DB4423D9
:100C100003FB020202F59073B5EEC06BF1EE10FA21
:100C2000C0F8743205DC93ED007AB7EEC77A80ED38
:100C3000127B5A6803F1380142609A6803F1240478
:100C40008260DA68C2601A69026100F138025D6987
:100C50000C334561DD680C30C5601D69A342056138
:100C600051F8045B42F8045BF1D1012030BD10B5AE
:100C7000044690B070B10023084C40212370C4F8A2
:100C8000C802074B6846074A2EF0FCF96846D4F8BC
:100C9000C8329847204610B010BD00BF20900534E0
:100CA000788B05344A570534002814BF01204FF0D3
:100CB000FF30704780ED000A30B50C6844604C6826
:100CC00084608C68C460C96802F12404016100F189
:100CD000380115680C32456152F8085C0C30C5606B
:100CE00052F8045CA242056153F8045B41F8045BCE
:100CF000EFD130BD2DE9F04F2DED068B0E46B0EE55
:100D0000409BB0EE418B1D460446C7B0002800F062
:100D10008F819FEDCBAB80ED12AB0020CE494FF021
:100D20000008C4E91601C4E9A601C4E9AA01CB4937
:100D3000DFF85C93C4F8B0124FF07E51C4F8B412DF
:100D40004FF07C51C4E91A890FF2FC29D9E90089D6
:100D5000C4E91C89C4E9A4894FF00008C4F8B8129A
:100D6000BF49DFF83093C4F8BC124FF07F51002325
:100D7000C4E9A88901274FF00008C4F8C012711E09
:100D8000DFF8149388B20428C4E9A0890FF2C029BF
:100D9000D9E9008984F86030C4E9A289A4F8E03078
:100DA00084F87830A4F8787214D905234FF4807150
:100DB000AC4A06A82EF066F9D4F8C83206A89847BF
:100DC00084F85070204647B0BDEC068BBDE8F04F6C
:100DD000FFF7C2BE95ED007AB7EEC77AB4EEC70B47
:100DE000F1EE10FA12DDD4F8C8329F48984795ED1D
:100DF000007AB7EEC77A8DED009B8DED027B9B4AA2
:100E00004FF4807106A82EF03DF9D5E74FF0440C61
:100E10000CFB065818ED117AB7EEC77AB4EEC71B73
:100E2000F1EE10FA41D5D4F8C8329148984798EDC0
:100E3000007AB7EEC77A8DED008B8DED027B8D4A7F
:100E4000DEE70CFB08F705EB070944372F4499ED63
:100E5000007AD7ED007AB4EEE77AF1EE10FA08F1F5
:100E6000010A00F1010021DBD4F8C832824898471A
:100E700097ED007AB7EEC77A8DED047BCDF808A028
:100E800099ED007AB7EEC77A43468DED007B7B4A39
:100E90004FF4807106A82EF0F5F8D4F8C83206A8F1
:100EA0009847012384F850308CE718461FFA80F8E1
:100EB0004145C6D800234FF0440CB01E9FB2B94242
:100EC00039D884ED3A9B84ED3C8B0020A4F8F8607F
:100ED00083B2994200F1010000F28B800027B846EE
:100EE00004F1FC0A04F5907905EB070B09EB070008
:100EF000442259462EF0B9FCDBF8003008F1010815
:100F00004AF8043B1FFA88F39E4207F14407EBD8E6
:100F1000731E9BB2002E03F1010314BF1A46012277
:100F2000C4F8749204F5B271013A6AD1012384F8CD
:100F30005030237046E702EB8709B842D9ED007ABA
:100F40004FEA870807F1010A1ED908F10408904406
:100F500098ED007AB4EEE77AF1EE10FA14D8D4F8EE
:100F6000C8324748984798ED007AB7EEC77A8DEDBA
:100F7000047BCDF808A099ED007AB7EEC77A3B461E
:100F80008DED007B3F4A83E70CFB07F805EB080A71
:100F90009AED007AB4EEE77AF1EE10FA08F144081F
:100FA000A84408DA98ED007AB4EEE77AF1EE10FA88
:100FB00003F1010382D8D4F8C8323348984798ED3A
:100FC000007AB7EEC77A8DED047B9AED007AB7EE22
:100FD000C77A8DED027B99ED007AB7EEC77A3B4672
:100FE0008DED007B4FF48071284A06A82EF04AF858
:100FF00053E702EB83073F6804EB8303C3F81071E8
:1010000066E7D4F8743291ED006A93ED007AB7EE9A
:10101000C66AB7EEC77A36EE4A6B37EE4A7BB4EE55
:10102000C76BF1EE10FA48BFC4F8741244317BE785
:101030004FF0FF3047B0BDEC068BBDE8F08F00BF2E
:10104000000000000088B3409A9999999999B93F96
:101050000000000000A06E400000F03F0000484289
:1010600000002F435A5705349E5705342558053440
:10107000835805340B59053468590534CC59053467
:10108000245A0534935A0534FD5A0534545B05340B
:101090000000F0BF000008400000244030B50546C5
:1010A00014468DB052B9D0F8C8321D489847D5F8CB
:1010B000C8321C48984720460DB030BD93ED042B34
:1010C00093ED021B93ED000B0AAA08A906A800F0F5
:1010D0002FF8DDE90823CDE90223DDE90A23CDE974
:1010E0000423012398420446CDE90033DFD1694649
:1010F0002846FFF74DFB0128044603D0D5F8C83237
:101100000948D7E795F86030012BD4D12846FFF77E
:1011100023FD01280446CED0D5F8C8320348C9E7DC
:10112000DA5B05343B5C0534645C0534985C05345B
:10113000B5EEC00BF1EE10FA1FB509D4B5EEC01B29
:10114000F1EE10FA04D4B5EEC02BF1EE10FA0DD585
:101150008DED022B8DED001B53EC102B44482DF030
:1011600021FF4FF0FF3005B05DF804FB9FED327BAF
:10117000B4EEC70BF1EE10FA09DCB4EEC71BF1EECA
:1011800010FA04DCB4EEC72BF1EE10FA07DD8DED9A
:10119000022B8DED001B53EC102B3648DFE728B1F6
:1011A00089B1B2B93449354B084607E071B13349CA
:1011B0003148002A304A314B18BF134602463048A6
:1011C0002DF0F0FECDE72C492C48F2E72B490846DC
:1011D000EFE79FED1B7B9FED1C6B21EE077BB3EED2
:1011E000005BA0EE067B9FED1A6BA2EE057BA7EEDF
:1011F000065B9FED197B80ED005B27EE417BBBEE2C
:101200000A5BA0EE057B9FED165BA2EE057B27EE49
:10121000067B81ED007B9FED147B27EE411BB2EE38
:10122000047BA0EE051BA2EE471B21EE061B01204E
:1012300082ED001B97E700BF0000000000E06F4058
:101240000000000000A06340000000000080474054
:10125000000000000000703F0000000000805540CA
:101260000000000000005C400000000000805940C9
:10127000D55C0534135D0534CF5C0534CD5C053495
:10128000535D05340000000010B5044690B060B115
:101290000023074C40212370A065064B6846064A90
:1012A0002DF0F0FE6846A36D9847204610B010BDA3
:1012B000F09205347E8B05349D5D0534002814BF03
:1012C00001204FF0FF30704738220A23C0E9042381
:1012D00064232D227821C0E9063240F2DC5230B579
:1012E000C0E9081241F2707442F6E062C0E90A42B5
:1012F0000BA5D5E9004505224FF0000C026548F228
:10130000E802C0E910C20122C0E90C4506A5D5E9F2
:101310000045C0E91223C0E90E4530BDAFF300809F
:1013200000000040E17A943F000000E04D62703F11
:1013300010B5044620B1FFF7C7FF0120207010BD93
:101340004FF0FF30FBE72DE9F0410E460446002840
:1013500000F0E180017801290BD102210170A56C18
:10136000C4E90126B54208D2616C914205D9A56055
:101370004CE00229F3D0002049E0D4F810C0B6EECA
:10138000005B07EE90CAB8EE676A07EE903AB8EED7
:10139000E77BB7EEC66A37EE057B86EE070B216D5D
:1013A000B7EEC00B8B424BD2F0EE007AB4EEE70AF8
:1013B000F1EE10FA44D4616CB7EE007A8A4220D282
:1013C000012A134638BF012307EE903AF8EEE77A78
:1013D00067EE807AFDEEE77A17EE903A8B42C1BF56
:1013E00007EE901AB8EEE76A07EE902AF8EE676A01
:1013F000C3BFC6EE267A0B4680EE270AB0EE470A38
:101400006360B4EEC70AF1EE10FA02DC0120BDE819
:10141000F081B7EEC00A2FF093FFB3EE047B20EE0D
:10142000070B9FED3F7B20EE070BBDEEC00B10EED0
:10143000103AE26C33449342D4BFA360A260E5E764
:10144000ACEB0307E16987EAE770A0EBE77088423D
:1014500047D8606AD4F814E0A1690EEB0C089845EF
:1014600007FB01F143D207EE900A9FED2F7AF8EEC9
:10147000E77A67EE877A07EE101AF1EE676AB8EE40
:10148000C77AB4EEE67AF1EE10FA04D5FDEEE77A0B
:1014900017EE903A59420029B8D0B54232D1606C6B
:1014A000904201D800292DDA02FB077707EE902A37
:1014B00006EE907A0029B8EEE77BB8EEE66B1EDA0E
:1014C00094ED0E5BA5EE067BBDEEC77B17EE102AF2
:1014D000236C9A42B8BF1A468242D4BF62606060F1
:1014E00094E7216A88422CBFE06AA06AB2E7ACEBBD
:1014F0000E0C9C458ADD8142A8BF0146CBE794EDE6
:101500000C5BDFE70E44B5423FF731AFE56CB54207
:10151000A8BF35462BE74FF0FF3078E7AFF30080E8
:101520000000000000408F409A99593F034613F88D
:10153000012B002AFBD1181A013870477BB972B908
:101540000029BEBF00204FF0004106E008BF002880
:101550001CBF6FF000414FF0FF3000F0FBB9ADF160
:10156000080C6DE904CE002909DB002B1ADB00F022
:101570004DF8DDF804E0DDE9022304B07047404295
:1015800061EB4101002B1BDB00F040F8DDF804E0CB
:10159000DDE9022304B0404261EB4101524263EBBA
:1015A00043037047524263EB430300F02FF8DDF82A
:1015B00004E0DDE9022304B0404261EB41017047E1
:1015C000524263EB430300F021F8DDF804E0DDE96B
:1015D000022304B0524263EB4303704753B94AB944
:1015E000002908BF00281CBF4FF0FF314FF0FF302B
:1015F00000F0B0B9ADF1080C6DE904CE00F006F8CA
:10160000DDF804E0DDE9022304B070472DE9F04F76
:10161000099D884604468E46002B4AD18A421746C9
:101620005FD9B2FA82F64EB1C6F1200301FA06FE86
:10163000B740B44020FA03F343EA0E0E4FEA1748CE
:101640001FFA87FC230CBEFBF8F108FB11EE01FB2F
:101650000CF243EA0E439A4207D9FB1801F1FF301E
:1016600002D29A4200F2548101469B1AA2B2B3FB05
:10167000F8F008FB103300FB0CFC42EA03429445EF
:101680000BD9BA1800F1FF332CBF01240024944574
:1016900002D9002C00F03F81184640EA0140A2EB3D
:1016A0000C0200211DB1F2400023C5E90023BDE872
:1016B000F08F8B4205D90DB1C5E900010021084624
:1016C000F5E7B3FA83F100294ED14345C0F012810A
:1016D000824240F20F810846002DE8D0C5E9004E55
:1016E000E5E7002A00F0AC80B2FA82F6002E40F066
:1016F000BB808B1A4FEA124EBCB20121020C80B2A1
:10170000B3FBFEFC0EFB1C3342EA034304FB0CF26A
:101710009A420ED9FB180CF1FF382CBF4FF001098B
:101720004FF000099A4203D9B9F1000F00F0EC80A4
:10173000C4469B1AB3FBFEF80EFB183304FB08F4F7
:1017400040EA034294420BD9BA1808F1FF332CBF88
:1017500001200020944202D9002800F0D180984650
:10176000121B48EA0C409DE7C1F120068B4008FAA5
:1017700001F400FA01F922FA06F728FA06F88A407D
:101780001F4320FA06F3380C23431FFA87FC1C0C76
:10179000B8FBF0FE00FB1E8844EA08440EFB0CF880
:1017A000A0450ED93C190EF1FF3A2CBF4FF0010BAA
:1017B0004FF0000BA04503D9BBF1000F00F0B8803B
:1017C000D646A4EB08041FFA83F8B4FBF0F300FB41
:1017D000134403FB0CFC48EA0444A4450ED93C190D
:1017E00003F1FF302CBF4FF001084FF00008A44573
:1017F00003D9B8F1000F00F09F80034643EA0E4082
:10180000A4EB0C04A0FB02EC64457346E04602D353
:1018100007D1F14505D2BEEB02036CEB070C013892
:10182000E0465DB1B9EB030264EB080404FA06F686
:1018300022FA01F3CC401E43C5E90064002136E7DB
:10184000B1FBF2FC010C144680B2964641EA084115
:101850002026904640EA01431046B1FBF2F1A3EB8B
:10186000080341EA0C414BE7B740C6F1200301FAF7
:1018700006F221FA03F84FEA174E20FA03F3BCB23E
:10188000B0401343020C190C80B2B8FBFEF90EFBFA
:10189000198841EA084109FB04F8884551D97918AB
:1018A00009F1FF3C2CBF4FF0010A4FF0000A8845B8
:1018B00002D9BAF1000F31D0A1EB0801B1FBFEF95A
:1018C00009FB04F80EFB19119BB243EA014343459F
:1018D00035D2FB1809F1FF312CBF4FF0010A4FF050
:1018E000000A4345BBD2BAF1000FB8D1A9F10201F9
:1018F0003B44B4E7841A68EB030201209646EBE60A
:101900003A44A8F102082BE7ACF1020C3B4410E783
:1019100002393B44A9E63A440238BEE6A7EB080880
:10192000A9F1020C4144B1FBFEF909FB04F8C9E737
:10193000AEF1020E3C4444E7023B3C445EE74946BC
:101940008DE7A1EB0801CC46B1FBFEF909FB04F8D9
:10195000B8E700BF704700BF80B594B000AFF86033
:10196000B9607A60002387F84730FB685B68B3F59D
:10197000F07F03D8FB685B68BB6402E04FF4F07350
:10198000BB64FB685B68B3F5F07F03D8FB685B68FA
:10199000FB6402E04FF4F073FB64FA6CBB681A60FE
:1019A000BA6C7B681A60FB6C7B61BB6CBB6101230A
:1019B000FB6102233B6297F84730FB6200237B62A6
:1019C0000023BB6207F1100207F11403194601203E
:1019D00020F06EFA38643B6C002B05D0044B054AAE
:1019E0005A2105482CF0A4FA00BF5037BD4680BDEF
:1019F000A021033474570334B021033480B590B070
:101A000000AF7860002387F83F308023FB6080239D
:101A10003B6100237B610323BB6197F83F307B620E
:101A20000123FB6100233B6207F10C037A6819462E
:101A3000022020F03DFAB863BB6B002B05D0054BAC
:101A4000054A7C2105482CF073FA00BF4037BD469B
:101A500080BD00BFA02103348C570334B021033470
:101A600080B58CB000AFF860B9607A6000237B610C
:101A70000023BB611E23FB6100233B6200237B62CA
:101A80000023BB6207F11403184620F03DFAF86208
:101A9000FB6A002B05D00A4B0A4A8C210A482CF01D
:101AA00047FA07F11403BA68F9681846FFF754FFBC
:101AB0007868FFF7A3FF00BF3037BD4680BD00BF89
:101AC000E8210334A0570334B021033480B584B037
:101AD00000AF786039603A687968012020F0AAFA8E
:101AE000F860FB68002B05D0044B054A9C21054893
:101AF0002CF01EFA00BF1037BD4680BDE82103342C
:101B0000AC570334B021033480B584B000AF7860A3
:101B100039603A687968022020F08CFAF860FB6836
:101B2000002B05D0044B054AA42105482CF000FAEF
:101B300000BF1037BD4680BDE8210334C4570334CD
:101B4000B021033480B582B000AF00237B6020F069
:101B500041FB78607B68002B05D0054B054AB2211C
:101B600005482CF0E5F900BF0837BD4680BD00BF31
:101B7000E8210334D8570334B021033480B483B050
:101B800000AF78607B68022B05D1064B1B680133E0
:101B9000044A136000BF002318460C37BD465DF8A9
:101BA000047B70476096053480B586B000AF214B4A
:101BB0007B607C237B6107F10C023B1D7969184631
:101BC00006F0B4FB0346002B2ED14FF4C0333B612B
:101BD000FA683B6913403A699A4227D0FA683B6930
:101BE0001343FB60FA68381D0023796906F0D6FBC1
:101BF0000346002B15D107F10C023B1D79691846ED
:101C000006F094FB0346002B08D1FA683B691340A9
:101C10003A699A420AD000F00FF807E000F00CF899
:101C200004E000F009F801E000F006F800BF183702
:101C3000BD4680BD0090005680B400AF00BFFDE7F8
:101C400080B586B000AF78607B683B613B698022DD
:101C50001A603B6980225A603B6906229A603B69A0
:101C6000194ADA603B69194A1A613B694FF460729C
:101C70005A613B690A229A613B69154ADA6101F0AF
:101C800073FF00237B6112E07A6913465B00134403
:101C90001B01104A991810487A6913465B001344D7
:101CA000DB000344143319607B6901337B617B697A
:101CB000092BE9DD386926F06DF8F860FB681846F5
:101CC0001837BD4680BD00BF3333333F9A99993EE4
:101CD000CC160734409405345093053480B588B051
:101CE00000AFF860B9607A603B60BB68022B06D039
:101CF0000F4B104A40F219110F482CF019F97B686C
:101D0000FB61FB685B683B61FB681B687B61FB698F
:101D10000A4A1A6007F110033A68F969184626F072
:101D200044F8B861BB6918462037BD4680BD00BF86
:101D300000220334E857033410220334509305344F
:101D400080B588B000AFF860B9607A607B80FB68CE
:101D50007B61BB68FB617B88BA8D02FB03F33B614F
:101D60000023BB6111E0BB697A6802FB03F37A6967
:101D700013443A691946F8692DF077FDFA693B6911
:101D80001344FB61BB690133BB613B8DBA699A4265
:101D9000E9D300BF00BF2037BD4680BD80B48DB001
:101DA00000AFF860B9607A607B804FF070537B625F
:101DB000BB683B627B883A8F02FB03F39B003A6A65
:101DC0001344FB617B883A8F02FB03F39B00FA69A3
:101DD0001344BB613B8F013BFB6276E0FB6A7A6890
:101DE00002FB03F3FA6813447B617B88013BBB620F
:101DF00065E0BA6A13465B0013441A467B691344D4
:101E00001B78FB74BA6A13465B00134401337A698A
:101E100013441B78BB74BA6A13465B001344023345
:101E20007A6913441B787B74FB7C07EE903AB8EE1A
:101E3000677AD7ED097A67EE277A7B88FA6A03FB1F
:101E400002F2BB6A13449B003A6A1344B7EE007A6D
:101E500077EEC77AC3ED007ABB7C07EE903AB8EE16
:101E6000677AD7ED097A67EE277A7B88FA6A03FBEF
:101E700002F2BB6A13449B00FA691344B7EE007A7E
:101E800077EEC77AC3ED007A7B7C07EE903AB8EE26
:101E9000677AD7ED097A67EE277A7B88FA6A03FBBF
:101EA00002F2BB6A13449B00BA691344B7EE007A8E
:101EB00077EEC77AC3ED007ABB6A013BBB62BB6AAF
:101EC000002B96DAFB6A013BFB62FB6A002B85DA8A
:101ED00000BF00BF3437BD465DF8047B704700008B
:101EE00090B58BB002AF78603960854B1868844B31
:101EF0005968834B9A68824BDB680024009425F074
:101F0000AFF80023FB61F1E0FA6913465B0013446C
:101F1000DB001A467B68134493ED017AFA69134695
:101F20005B001344DB001A467B681344D3ED036A5D
:101F3000B0EE006AC6EE867A37EE677A714B9B6820
:101F400007EE903AF8EE677A67EE277AFCEEE77ACA
:101F500017EE902A6B4B1B681344BB61FA6913465A
:101F60005B001344DB001A467B68134493ED027A4E
:101F7000FA6913465B001344DB001A467B6813447E
:101F8000D3ED046AB0EE006AC6EE867A37EE677A61
:101F90005C4BDB6807EE903AF8EE677A67EE277ADB
:101FA000FCEEE77A17EE903A7B61FA6913465B0024
:101FB0001344DB001A467B68134493ED037A514BBC
:101FC0009B6807EE903AF8EE677A67EE277AFCEEA8
:101FD000E77A17EE903A3B61FA6913465B001344C7
:101FE000DB001A467B68134493ED047A454BDB68AB
:101FF00007EE903AF8EE677A67EE277AFCEEE77A1A
:1020000017EE903AFB603F4B1A683E4B9B681344B7
:10201000BA699A4206D33B4B1A683A4B9B68134401
:10202000013B00E0BB69BB61364B5A68354BDB684E
:1020300013447A699A4206D3324B5A68314BDB68B3
:102040001344013B00E07B697B61BA693B691A4438
:102050002C4B19682B4B9B680B449A4208D3294B95
:102060001A68284B9B681A44BB69D31A013B00E0ED
:102070003B693B617A69FB681A44224B5968214BE2
:10208000DB680B449A4208D31E4B5A681D4BDB6831
:102090001A447B69D31A013B00E0FB68FB604FF0F8
:1020A000FF230093FB683A697969B86924F0AEFFB1
:1020B000BB695A423B69D01AFA6913465B00134464
:1020C000DB001A467B681344D3ED007A9FED0E7A4D
:1020D00067EE877AB7EEE77A8DED007B0B4B022235
:1020E000796901F08BFDFB690133FB61FA693B689B
:1020F0009A42FFF409AF00BF00BF2437BD4690BD30
:10210000A48B0534948B05340000C8425822033454
:1021100080B588B000AFF860B9607A600023FB61D9
:102120006FE00023BB6165E0FA6913465B0013446E
:10213000DB001A46FB6813445A69BB69DB00134491
:1021400093ED007A334B9B6807EE903AF8EE677A8E
:1021500067EE277AFCEEE77A17EE902A2D4B1B6884
:1021600013447B61FA6913465B001344DB001A4693
:10217000FB6813445A69BB69DB00134493ED017A91
:10218000244BDB6807EE903AF8EE677A67EE277A21
:10219000FCEEE77A17EE903A3B611E4B1A681D4B36
:1021A0009B6813447A699A4206D31A4B1A68194BF2
:1021B0009B681344013B00E07B697B61154B5A68C7
:1021C000144BDB6813443A699A4206D3114B5A68A0
:1021D000104BDB681344013B00E03B693B617B69CA
:1021E0009BB23A6991B20C4A184624F093FDBB6940
:1021F0000133BB61BA697B689A4295D3FB690133AD
:10220000FB61FA69BB689A428BD300BF00BF2037DD
:10221000BD4680BD948B05340000FFFF80B586B0BD
:1022200002AFF860B9607A604FF0804024F03AFC69
:1022300024F060FC0346DB885B001946FB680093D2
:10224000184B0122002001F0D9FC24F053FC034676
:10225000DB881A4613469B0013449B001946BB6853
:102260000093114B0122002001F0C8FC24F042FC35
:102270000346DB881A4613465B001344DA00D31A80
:1022800019467B680093094B0122002001F0B6FC3F
:10229000002024F007FC00F0CFF800BF1037BD4647
:1022A00080BD00BF602203346C2203347C220334DF
:1022B00080B586B000AFF860B9607A60234B1B68C8
:1022C000234A02FB03F3234A1344012219462248FE
:1022D0000DF080F903467B617B69002B05D01F4B15
:1022E0001F4AA6211F482BF023FEFB681A68FB68D3
:1022F0005B6819461046FFF7F3FDFB681868FB683A
:102300005B6806221946FFF703FFFB685B687A6883
:10231000B9681846FFF782FF012202210E480DF02E
:1023200015F903467B617B69002B05D00B4B0C4AEA
:10233000BF210C482BF0FCFD044B1B68C3F10103CB
:10234000024A136000BF1837BD4680BD2096053491
:1023500000B80B0000000091E85A07348C220334C7
:10236000FC5703349C22033480B500AF01210020C8
:1023700003F0C2FC294B1B68294A1360274B5B689A
:10238000274A9360254B1A68244B9B681344244AC0
:102390005360224B5A68214BDB681344204AD360B8
:1023A0001F4B02221A611F4A1D4B5A611C4A002111
:1023B000002003F055FE1C4B1B68194A13601A4B92
:1023C0005B68174A9360184B1A68174B9B68134455
:1023D000134A5360144B5A68134BDB681344104A7A
:1023E000D3600F4B04221A61104A0D4B5A610C4AFC
:1023F0000121002003F034FE0D4824F0A5FA01204D
:1024000024F0F8FA002024F0F3FC0A4824F05EFBE4
:102410004FF0FF3024F032FB00BF80BD948B0534B9
:102420002496053400701791A48B053400000091A8
:10243000AC3C0534648D053480B500AF214B1B687E
:10244000002B04D105F042FF03461E4A136005F03D
:102450003DFF02461B4B1B68D31AB3F57A6F2ED291
:102460004FF0804024F01EFB24F044FB0346DB8841
:102470001B011946144B0122002001F0BFFB24F080
:1024800039FB0346DB881A4613461B0113441946E1
:102490000E4B0122002001F0B1FB24F02BFB034680
:1024A000DB881A461346DB0013445B001946084BD1
:1024B0000122002001F0A2FB002024F0F3FA00BF6B
:1024C00080BD00BF3C960534DC220334F022033487
:1024D0000C23033480B485B000AF7860074A7B6872
:1024E000C2F84C3A054BD3F84C32FB60FB6800BF96
:1024F0001437BD465DF8047B704700BF008002566C
:1025000080B485B000AF7860074A7B68C2F8603A53
:10251000054BD3F86032FB60FB6800BF1437BD4643
:102520005DF8047B704700BF0080025680B483B022
:1025300000AF7860044A7B68C2F8203A00BF0C37CD
:10254000BD465DF8047B70470080025680B483B0BE
:1025500000AF7860064B03F580531A467B68C2F8DB
:10256000203200BF0C37BD465DF8047B704700BFCA
:102570000080025680B483B000AF7860064B1B6ABF
:1025800023F4403204497B6813430B6200BF0C37CD
:10259000BD465DF8047B70470080025680B483B06E
:1025A00000AF7860064B1B6A23F0407204497B68D9
:1025B00013430B6200BF0C37BD465DF8047B7047C8
:1025C0000080025680B485B000AF78607B681B7DC8
:1025D000002B05D07B685B68FB60FB681B6801E033
:1025E0007B685B6818461437BD465DF8047B70470E
:1025F00080B582B000AF78607868FFF7E3FF0246ED
:102600007B689B68134418460837BD4680BD80B47C
:1026100083B000AF78607B68DA687B689B68D31A08
:1026200018460C37BD465DF8047B704780B5ACB0EA
:1026300002AFBB4B1B68BA4A43F40053136000203F
:10264000FFF798FF0020FFF7A9FF05F0D9FDB54B74
:102650005B6903F40033002B1BD1BFF34F8F00BF26
:10266000BFF36F8F00BFAF4B0022C3F85022BFF300
:102670004F8F00BFBFF36F8F00BFAA4B5B69A94AA2
:1026800043F400335361BFF34F8F00BFBFF36F8F2D
:1026900000E000BFA24B1B68A14A43F480531360C3
:1026A000A04B5B6903F48033002B3FD19D4B00228C
:1026B000C3F88420BFF34F8F00BF9A4BD3F880300C
:1026C000C7F88430D7F884305B0BC3F30E03C7F828
:1026D0008030D7F88430DB08C3F30903FB67D7F8F1
:1026E00080305A0143F6E0731340FA6F92078D4928
:1026F0001343C1F86032FB6F5A1EFA67002BEED10C
:10270000D7F880305A1EC7F88020002BE1D1BFF3E4
:102710004F8F00BF834B5B69824A43F48033536120
:10272000BFF34F8F00BFBFF36F8F00E000BF01F01A
:102730002DFD01F03FFCFFF737FA01F0B9FC01F085
:1027400009FA002004F0CAFC002004F095FD0123E2
:1027500087F83830012387F8393007F138031946F4
:10276000002004F0D9FA002004F0C0FB01F0A8FC1E
:1027700001F0FCFC01F066FC01F0AEF9C7F898002E
:1027800001F0B4F9C7F89400D7F89800FFF730FFCC
:102790000346654A13600023C7F8A43004E0D7F865
:1027A000A4300133C7F8A430D7F8A4201346DB00C7
:1027B0009B1ADB001A46D7F8943013441B68002B91
:1027C000EDD1D7F8A430052B05DD584B584A992197
:1027D00058482BF0ADFB0023C7F8A0302FE0D7F806
:1027E000A0201346DB009B1ADB001A46D7F8943072
:1027F00013441846FFF7FCFE0246D7F8A0309B00B2
:10280000A8333B4443F8842CD7F8A0201346DB00C0
:102810009B1ADB001A46D7F8943013441846FFF78A
:10282000F6FE03461A46D7F8A0309B00A8333B4477
:1028300043F8982CD7F8A0300133C7F8A030D7F868
:10284000A020D7F8A4309A42C9DBD7F89800FFF748
:10285000DEFEC7F890000023FB603748FFF7F0F971
:1028600007F10C031A4635493548FFF7F9F8FFF729
:102870007BFD00213348FFF729F93B4600221A600F
:102880005A609A60FFF75EF9FB68B3F5C07F04D029
:1028900004212D48FFF738F903E004212B48FFF706
:1028A00033F900BF2A4B1B68002BFBD0284B0022BA
:1028B0001A60FB68B3F5C07F4CD0234BBB674CF26A
:1028C00020037B677B6F002B1DDDBB6F03F01F02B6
:1028D0007B6F13443B67BB6FFB66BFF34F8F00BF3B
:1028E000104AFB6EC2F85C32FB6E2033FB663B6F16
:1028F000203B3B673B6F002BF2DCBFF34F8F00BFE9
:10290000BFF36F8F00BF00BFFA68032301938023DA
:10291000009380230D490C48FFF712FA41E000BFF5
:1029200000E001E000ED00E0649605343823033454
:10293000145803345C23033440960534A08B0534CB
:102940009C8B053400701791A05606348096053490
:1029500060960534664BBB664FF440437B667B6EE6
:10296000002B1DDDBB6E03F01F027B6E13443B6624
:10297000BB6EFB65BFF34F8F00BF5E4AFB6DC2F8B5
:102980005C32FB6D2033FB653B6E203B3B663B6E50
:10299000002BF2DCBFF34F8F00BFBFF36F8F00BF80
:1029A00000BF554B19688023009380234FF4C072F9
:1029B0004F48FFF7F3F9504B1A68D7F89030BA65D3
:1029C0007B657B6D002B1DDDBB6D03F01F027B6DF6
:1029D00013443B65BB6DFB64BFF34F8F00BF454A9B
:1029E000FB6CC2F87032FB6C2033FB643B6D203B08
:1029F0003B653B6D002BF2DCBFF34F8F00BFBFF395
:102A00006F8F00BF00BF05F061FC03463B603B4891
:102A100029F08AF807F12400394B3A4AD7F8A41074
:102A2000FFF75CF9C7F88C0005F050FC03467B60AB
:102A3000BB68002B03D105F049FC0346BB60D7F807
:102A40008C30002B05D0304B304AED2130482BF034
:102A50006FFA7A683B68D31ABA6819462948FFF7B3
:102A600027FC0023C7F89C303AE0D7F89C309B0045
:102A7000A8333B4453F8843CC7F88830D7F89C30DF
:102A80009B00A8333B4453F8983CD7F88820BA649D
:102A90007B647B6C002B1DDDBB6C03F01F027B6C29
:102AA00013443B64BB6CFB63BFF34F8F00BF114A01
:102AB000FB6BC2F85C32FB6B2033FB633B6C203B4F
:102AC0003B643B6C002BF2DCBFF34F8F00BFBFF3C6
:102AD0006F8F00BF00BFD7F89C300133C7F89C3020
:102AE000D7F89C20D7F8A4309A42BEDBCAE600BFD4
:102AF0008096053400ED00E064960534B48B05340F
:102B00004096053480560634902303341458033419
:102B10005C23033480B582B000AF78604FF48060EE
:102B2000FFF7D8FC4FF08040FFF7EAFC4FF0804001
:102B3000FFF7FCFC4FF08040FFF708FD00BF0837AF
:102B4000BD4680BD80B483B000AF7860396000BE00
:102B500000BFFDE780B487B000AF786039601D4BDF
:102B60005B6903F48033002B01D0012300E00023D4
:102B7000002B27D07B6839687A688A1A7B613A61B2
:102B80003B69002B1DDD7B6903F01F023B69134489
:102B9000FB607B69BB60BFF34F8F00BF0D4ABB6812
:102BA000C2F85C32BB682033BB60FB68203BFB6033
:102BB000FB68002BF2DCBFF34F8F00BFBFF36F8FBA
:102BC00000BF00BF002318461C37BD465DF8047BDC
:102BD000704700BF00ED00E080B487B000AF7860C0
:102BE00039601D4B5B6903F48033002B01D0012356
:102BF00000E00023002B27D07B6839687A688A1AA6
:102C00007B613A613B69002B1DDD7B6903F01F028C
:102C10003B691344FB607B69BB60BFF34F8F00BF10
:102C20000D4ABB68C2F86832BB682033BB60FB68E2
:102C3000203BFB60FB68002BF2DCBFF34F8F00BF33
:102C4000BFF36F8F00BF00BF002318461C37BD467F
:102C50005DF8047B704700BF00ED00E080B487B0F2
:102C600000AF786039601D4B5B6903F48033002B43
:102C700001D0012300E00023002B27D07B683968B6
:102C80007A688A1A7B613A613B69002B1DDD7B699A
:102C900003F01F023B691344FB607B69BB60BFF319
:102CA0004F8F00BF0D4ABB68C2F87032BB6820333B
:102CB000BB60FB68203BFB60FB68002BF2DCBFF3D2
:102CC0004F8F00BFBFF36F8F00BF00BF00231846B8
:102CD0001C37BD465DF8047B704700BF00ED00E087
:102CE00080B582B000AF786039607A683B68134481
:102CF00019467868FFF770FF00BF0837BD4680BDF2
:102D000080B582B000AF786039607A683B68134460
:102D100019467868FFF71EFF00BF0837BD4680BD23
:102D200080B485B000AFF860B9607A6003231846BC
:102D30001437BD465DF8047B704780B483B000AFA4
:102D40007860002318460C37BD465DF8047B704759
:102D500080B485B000AFF860B9607A60032318468C
:102D60001437BD465DF8047B704780B483B000AF74
:102D70007860002318460C37BD465DF8047B704729
:102D800080B400AF01231846BD465DF8047B704750
:102D900080B400AF01231846BD465DF8047B704740
:102DA00080B5B0B000AF786007F10C03B422002109
:102DB00018462CF0CBFA28233B7380233B618023F9
:102DC0007B610323BB610123FB614FF440433B6202
:102DD0004FF4C0637B620C23BB620423FB624FF49D
:102DE00040333B631D4B7B638023FB6380233B6449
:102DF00003237B640123BB644FF44043FB644FF423
:102E0000C0733B6503237B650123BB654FF44043DF
:102E1000FB65134B3B66012387F864300123BB67D6
:102E2000104BC7F88C30012387F890300123C7F886
:102E3000A4300D4BC7F8B830012387F8BC3007F138
:102E40000C03184629F0D6FE4FF440410448FFF722
:102E500047FF00BFC037BD4680BD00BF00002E3415
:102E600000003134705B0271A05B027180B582B0EA
:102E700000AF78604FF4C0310348FFF741FF00BF57
:102E80000837BD4680BD00BF0000313480B586B034
:102E900004AF78604FF4C0310F48FFF731FF0021D5
:102EA000002026F0BBFC0D4B19680D4B1B68072258
:102EB0000392062202920B4A01920B4A00920B4A9D
:102EC0000B4827F0CFFC4FF4C0310348FFF708FF51
:102ED00000BF0837BD4680BD00002E34E48B0534AA
:102EE000E88B053484CA043480CA043448CA0434E4
:102EF00010CA043480B582B000AF78604FF4E0317E
:102F00000348FFF7FDFE00BF0837BD4680BD00BF88
:102F100000C02F3480B586B004AF78604FF4E03144
:102F20000F48FFF7EDFE0021002026F077FC0D4B47
:102F300019680D4B1B6802220392012202920B4A70
:102F400001920B4A00920B4A0B4827F08BFC4FF47E
:102F5000E0310348FFF7C4FE00BF0837BD4680BD1F
:102F600000803134EC8B0534F08B05343CCB0434D9
:102F700038CB043400CB0434C8CA043480B582B0E2
:102F800000AF78604FF400410348FFF7B9FE00BF7F
:102F90000837BD4680BD00BF00802E3480B586B0A6
:102FA00004AF78604FF400410F48FFF7A9FE0021FD
:102FB000002026F033FC0D4B19680D4B1B680822CE
:102FC0000392042202920B4A01920B4A00920B4A8E
:102FD0000B4827F047FC4FF400410348FFF780FE01
:102FE00000BF0837BD4680BD00002F34F48B053488
:102FF000F88B0534F4CB0434F0CB0434B8CB043470
:1030000080CB043480B582B000AF78604FF40041CB
:103010000348FFF775FE00BF0837BD4680BD00BFFF
:1030200000802E3480B586B004AF78604FF4004144
:103030000F48FFF765FE0021002026F0EFFB0D4B47
:1030400019680D4B1B6805220392032202920B4A5A
:1030500001920B4A00920B4A0B4827F003FC4FF4F5
:1030600000410348FFF73CFE00BF0837BD4680BD66
:1030700000002F34FC8B0534008C0534ACCC0434B8
:10308000A8CC043470CC043438CC043480B582B07D
:1030900000AF78604FF410410348FFF731FE00BFE6
:1030A0000837BD4680BD00BF00002E3480B586B015
:1030B00004AF78604FF410410F48FFF721FE002164
:1030C000002026F0ABFB0D4B19680D4B1B68092245
:1030D0000392022202920B4A01920B4A00920B4A7F
:1030E0000B4827F0BFFB4FF410410348FFF7F8FDF2
:1030F00000BF0837BD4680BD00902E34048C0534D7
:10310000088C053464CD043460CD043428CD0434F7
:10311000F0CC043480B582B000AF78604FF4104139
:103120000348FFF7EDFD00BF0837BD4680BD00BF77
:1031300000202F3480B586B004AF78604FF4104182
:103140000F48FFF7DDFD0021002026F067FB0D4B47
:1031500019680D4B1B6800220392092202920B4A48
:1031600001920B4A00920B4A0B4827F07BFB4FF46D
:1031700010410348FFF7B4FD00BF0837BD4680BDCE
:10318000004030340C8C0534108C05341CCE0434D3
:1031900018CE0434E0CD0434A8CD043480B582B018
:1031A00000AF78604FF428410348FFF7A9FD00BF46
:1031B0000837BD4680BD00BF00A82E3480B586B05C
:1031C00004AF78604FF428410F48FFF799FD0021C4
:1031D000002026F023FB0D4B19680D4B1B680022C5
:1031E0000392082202920B4A01920B4A00920B4A68
:1031F0000B4827F037FB4FF428410348FFF770FDD9
:1032000000BF0837BD4680BD00502F34148C0534F4
:10321000188C0534D4CE0434D0CE043498CE043483
:1032200060CE043480B582B000AF78604FF4405176
:103230000348FFF765FD00BF0837BD4680BD00BFEE
:1032400000302E3480B586B004AF78604FF4405122
:103250000F48FFF755FD0021002026F0DFFA0D4B47
:1032600019680D4B1B6804220392032202920B4A39
:1032700001920B4A00920B4A0B4827F0F3FA4FF4E5
:1032800040510348FFF72CFD00BF0837BD4680BD05
:1032900000602E341C8C0534208C05348CCF043413
:1032A00088CF043450CF043418CF043480B582B0B2
:1032B00000AF78604FF440510348FFF721FD00BF95
:1032C0000837BD4680BD00BF00302E3480B586B0C3
:1032D00004AF78604FF440510F48FFF711FD002113
:1032E000002026F09BFA0D4B19680D4B1B68062237
:1032F0000392052202920B4A01920B4A00920B4A5A
:103300000B4827F0AFFA4FF440510348FFF7E8FCB1
:1033100000BF0837BD4680BD00602E34248C0534C4
:10332000288C053444D0043440D0043408D004340C
:10333000D0CF043480B582B000AF78604FF46051D4
:103340000348FFF7DDFC00BF0837BD4680BD00BF66
:1033500000002E3480B586B004AF78604FF4605121
:103360000F48FFF7CDFC0021002026F057FA0D4B47
:1033700019680D4B1B6809220392022202920B4A24
:1033800001920B4A00920B4A0B4827F06BFA4FF45C
:1033900060510348FFF7A4FC00BF0837BD4680BD5D
:1033A00000382E342C8C0534308C0534FCD0043499
:1033B000F8D00434C0D0043488D0043480B582B04E
:1033C00000AF78604FF460510348FFF799FC00BFED
:1033D0000837BD4680BD00BF00702E3480B586B072
:1033E00004AF78604FF460510F48FFF789FC00216B
:1033F000002026F013FA0D4B19680D4B1B680922AB
:103400000392022202920B4A01920B4A00920B4A4B
:103410000B4827F027FA4FF460510348FFF760FC90
:1034200000BF0837BD4680BD00E02E34348C053423
:10343000388C0534B4D10434B0D1043478D1043498
:1034400040D1043480B582B000AF78604FF4804141
:103450000348FFF755FC00BF0837BD4680BD00BFDD
:1034600000002E3480B586B004AF78604FF4804100
:103470000F48FFF745FC0021002026F0CFF90D4B47
:1034800019680D4B1B6808220392072202920B4A0F
:1034900001920B4A00920B4A0B4827F0E3F94FF4D4
:1034A00080410348FFF71CFC00BF0837BD4680BDC4
:1034B00000402E343C8C0534408C05346CD20434EE
:1034C00068D2043430D20434F8D1043480B582B0E8
:1034D00000AF78604FF480410348FFF711FC00BF54
:1034E0000837BD4680BD00BF00802E3480B586B051
:1034F00004AF78604FF480410F48FFF701FC0021D2
:10350000002026F08BF90D4B19680D4B1B6801222A
:103510000392002202920B4A01920B4A00920B4A3C
:103520000B4827F09FF94FF480410348FFF7D8FB81
:1035300000BF0837BD4680BD00102F34448C0534D1
:10354000488C053424D3043420D30434E8D2043422
:10355000B0D2043480B582B000AF78604FF49041AF
:103560000348FFF7CDFB00BF0837BD4680BD00BF55
:1035700000002E3480B586B004AF78604FF49041DF
:103580000F48FFF7BDFB0021002026F047F90D4B47
:1035900019680D4B1B6808220392072202920B4AFE
:1035A00001920B4A00920B4A0B4827F05BF94FF44B
:1035B00090410348FFF794FB00BF0837BD4680BD2C
:1035C00000482E344C8C0534508C0534DCD3043444
:1035D000D8D30434A0D3043468D3043480B582B083
:1035E00000AF78604FF490410348FFF789FB00BFBC
:1035F0000837BD4680BD00BF00902E3480B586B030
:1036000004AF78604FF490410F48FFF779FB002139
:10361000002026F003F90D4B19680D4B1B680122A1
:103620000392002202920B4A01920B4A00920B4A2B
:103630000B4827F017F94FF490410348FFF750FB70
:1036400000BF0837BD4680BD00202F34548C0534A0
:10365000588C053494D4043490D4043458D40434AD
:1036600020D4043480B582B000AF78604FF4A0411C
:103670000348FFF745FB00BF0837BD4680BD00BFCC
:1036800000002E3480B586B004AF78604FF4A041BE
:103690000F48FFF735FB0021002026F0BFF80D4B47
:1036A00019680D4B1B6809220392082202920B4AEB
:1036B00001920B4A00920B4A0B4827F0D3F84FF4C3
:1036C000A0410348FFF70CFB00BF0837BD4680BD93
:1036D00000502E345C8C0534608C05344CD5043499
:1036E00048D5043410D50434D8D4043480B582B01D
:1036F00000AF78604FF4A0410348FFF701FB00BF23
:103700000837BD4680BD00BF00A02E3480B586B00E
:1037100004AF78604FF4A0410F48FFF7F1FA0021A1
:10372000002026F07BF80D4B19680D4B1B6800221A
:103730000392092202920B4A01920B4A00920B4A11
:103740000B4827F08FF84FF4A0410348FFF7C8FA61
:1037500000BF0837BD4680BD00402F34648C05345F
:10376000688C053404D6043400D60434C8D5043437
:1037700090D5043480B582B000AF78604FF4B0418A
:103780000348FFF7BDFA00BF0837BD4680BD00BF44
:1037900000002E3480B586B004AF78604FF4B0419D
:1037A0000F48FFF7ADFA0021002026F037F80D4B47
:1037B00019680D4B1B6808220392072202920B4ADC
:1037C00001920B4A00920B4A0B4827F04BF84FF43A
:1037D000B0410348FFF784FA00BF0837BD4680BDFB
:1037E00000582E346C8C0534708C0534BCD60434EF
:1037F000B8D6043480D6043448D6043480B582B0B8
:1038000000AF78604FF4C0510348FFF779FA00BF6A
:103810000837BD4680BD00BF00982E3480B586B005
:1038200004AF78604FF4C0510F48FFF769FA0021E8
:10383000002025F0F3FF0D4B19680D4B1B68092282
:103840000392072202920B4A01920B4A00920B4A02
:103850000B4827F007F84FF4C0510348FFF740FA30
:1038600000BF0837BD4680BD00182E34748C053467
:10387000788C053474D7043470D7043438D70434C2
:1038800000D7043480B582B000AF78604FF4607127
:103890000548FFF735FA4FF460510448FFF730FA56
:1038A00000BF0837BD4680BD00182E3400982E3466
:1038B00080B5B0B000AF786007F10C03B4220021EE
:1038C00018462BF043FD2A233B7301233B614FF441
:1038D00060737B610123BB610123FB614FF4607363
:1038E0003B624FF460737B620123BB620123FB6286
:1038F0004FF460733B631F4B7B63012387F83830C1
:103900000123FB634FF460733B6401237B64012359
:10391000BB644FF46073FB644FF460633B65042346
:103920007B650423BB654FF46063FB65124B3B660C
:10393000012387F864300123BB67104BC7F88C3034
:10394000012387F890300123C7F8A4300C4BC7F847
:10395000B830012387F8BC3007F10C03184629F072
:10396000CFFA4FF460610448FFF7BAF900BFC037DF
:10397000BD4680BD00182E3400C02F34805B02711C
:10398000B05B027180B584B002AF78604FF46051D3
:103990000C48FFF7B5F90021002025F03FFF032375
:1039A0000193022300930323074A0221074827F0CB
:1039B0001DF94FF460510348FFF792F900BF083733
:1039C000BD4680BD00E02E3460D80434B8D704343E
:1039D00080B5B0B000AF786007F10C03B4220021CD
:1039E00018462BF0B3FC2A233B7310233B614FF4A2
:1039F00060737B610123BB610123FB614FF4605362
:103A00003B624FF460737B620123BB620123FB6264
:103A10004FF460533B631F4B7B63012387F83830BF
:103A20001023FB634FF460733B6401237B64012329
:103A3000BB644FF46053FB644FF460633B65042345
:103A40007B650423BB654FF46043FB65124B3B660B
:103A5000012387F864300123BB67104BC7F88C3013
:103A6000012387F890300123C7F8A4300C4BC7F826
:103A7000B830012387F8BC3007F10C03184629F051
:103A80003FFA4FF460410448FFF72AF900BFC037FE
:103A9000BD4680BD00E02E3400002E34605B027114
:103AA000905B027180B582B000AF78604FF46041E6
:103AB0000348FFF725F900BF0837BD4680BD00BFAA
:103AC00000E02E3480B400AF024B1846BD465DF8CE
:103AD000047B70473CD9043480B400AF024B1846D5
:103AE000BD465DF8047B7047D4DC043480B400AF7D
:103AF000024B1846BD465DF8047B704764DD043414
:103B000080B400AF024B1846BD465DF8047B704799
:103B100044DE043480B500AF034B044A1A60024807
:103B200004F056FD00BF80BDC016073400FC0D58E0
:103B300080B582B000AF064804F080FD0346FB71FB
:103B4000FB79022BF7D000BF00BF0837BD4680BD10
:103B5000C016073480B500AF0249002001F066FAB4
:103B600000BF80BD7C8C053480B483B000AF0023DF
:103B70007B6034E07B689B001E4A9B0013441A68FC
:103B80001D497B681B010B441A607B689B00013355
:103B9000184A9B0013441A6817497B681B010B44A1
:103BA00004331A607B689B000233124A9B00134463
:103BB0001A6811497B681B010B4408331A607B6843
:103BC0009B0003330B4A9B0013441A680A497B6825
:103BD0001B010B440C331A607B6801337B607B68EC
:103BE000B3F5607FC6DB00BF00BF0C37BD465DF894
:103BF000047B704728040534CC16073408B480B51C
:103C000087B000AFF860B9601346FB7107F1280375
:103C10007B617B697A6A302107482BF0DBFAFB79FC
:103C2000054AB968F86823F039F900BF1C37BD466A
:103C3000BDE8804001B07047CC4E073480B400AF7F
:103C400000BFBD465DF8047B704780B400AF00BF85
:103C5000FDE780B400AF00BFFDE780B400AF00BF58
:103C6000FDE780B400AF00BFFDE780B400AF00BF48
:103C7000FDE780B400AF00BFBD465DF8047B704730
:103C800080B400AF00BFFDE780B400AF00BFFDE728
:103C900080B500AF04F006FB00BF80BD80B582B0E8
:103CA00000AF1EF0FBF87860786805F073FD00BF88
:103CB0000837BD4680BD80B582B000AF1EF0EEF87B
:103CC0007860786805F082FB00BF0837BD4680BD8C
:103CD00080B400AF01231846BD465DF8047B7047F1
:103CE00080B582B000AF786039602BF083FD034669
:103CF00016221A604FF0FF3318460837BD4680BDC4
:103D000080B582B000AF78604FF0FF317868FFF780
:103D1000E7FF00BFFDE780B586B000AFF860B9608F
:103D20007A6000237B610AE0AFF300800146BB6844
:103D30005A1CBA60CAB21A707B6901337B617A6916
:103D40007B689A42F0DB7B6818461837BD4680BD19
:103D500080B586B000AFF860B9607A6000237B61FF
:103D600009E0BB685A1CBA601B781846AFF30080A4
:103D70007B6901337B617A697B689A42F1DB7B68FE
:103D800018461837BD4680BD80B483B000AF786058
:103D90004FF0FF3318460C37BD465DF8047B704783
:103DA00080B483B000AF786039603B684FF4005254
:103DB0005A60002318460C37BD465DF8047B7047F7
:103DC00080B483B000AF7860012318460C37BD463D
:103DD0005DF8047B704780B485B000AFF860B960CF
:103DE0007A60002318461437BD465DF8047B70479F
:103DF00080B485B000AF7860074A7B68C2F84C3A5F
:103E0000054BD3F84C32FB60FB6800BF1437BD464E
:103E10005DF8047B704700BF0080025680B485B017
:103E200000AF7860074A7B68C2F88C3A054BD3F83C
:103E30008C32FB60FB6800BF1437BD465DF8047B25
:103E4000704700BF0080025680B485B000AF786034
:103E5000074A7B68C2F8543A054BD3F85432FB60EA
:103E6000FB6800BF1437BD465DF8047B704700BF98
:103E70000080025680B485B000AF7860074A7B6846
:103E8000C2F8583A054BD3F85832FB60FB6800BFC4
:103E90001437BD465DF8047B704700BF00800256B2
:103EA00080B483B000AF7860044A7B68C2F8183AE7
:103EB00000BF0C37BD465DF8047B7047008002569A
:103EC00080B483B000AF7860064B03F580531A4688
:103ED0007B68C2F8183200BF0C37BD465DF8047B22
:103EE000704700BF0080025680B485B000AF786094
:103EF000074A7B68C2F8603A054BD3F86032FB6032
:103F0000FB6800BF1437BD465DF8047B704700BFF7
:103F10000080025680B483B000AF7860044A7B68AA
:103F2000C2F8203A00BF0C37BD465DF8047B7047ED
:103F30000080025680B483B000AF7860064B03F572
:103F400080531A467B68C2F8203200BF0C37BD464A
:103F50005DF8047B704700BF0080025680B485B0D6
:103F600000AF7860074A7B68C2F8A03A054BD3F8E7
:103F7000A032FB60FB6800BF1437BD465DF8047BD0
:103F8000704700BF0080025680B485B000AF7860F3
:103F9000074A7B68C2F8BC3A054BD3F8BC32FB60D9
:103FA000FB6800BF1437BD465DF8047B704700BF57
:103FB0000080025680B584B000AF4FF00040FFF79C
:103FC00093FF4FF00040FFF7A5FF4FF00040FFF7D1
:103FD000B1FF0120FFF70CFF0220FFF709FF0420CB
:103FE000FFF706FF0820FFF703FF4FF48050FFF7AD
:103FF0002BFF3B1D00221A605A609A600D4B7B60BC
:104000003B1D18460CF048FF0B4B7B603B1D1846D0
:104010000CF042FF094B7B603B1D18460CF03CFF47
:10402000074B7B603B1D18460CF036FF00BF103776
:10403000BD4680BD00310252803102520032025230
:104040008032025280B500AF2020FFF787FF4FF487
:104050008050FFF783FF4FF00040FFF77FFF4FF0E6
:104060008040FFF77BFF0220FFF78EFF0220FFF763
:1040700075FF0420FFF788FF4020FFF785FF4FF40E
:104080000070FFF7CBFE8020FFF7C8FE4FF4807072
:10409000FFF7C4FE0120FFF7C1FE0220FFF7BEFEBE
:1040A0000420FFF7BBFE0820FFF7B8FE00BF80BD6D
:1040B00080B500AFFFF72EFDFFF73AFD00BF80BDD2
:1040C00080B582B000AF4FF40070FFF7D3FE3B46DF
:1040D00000221A605A6002233B6003237B603B4648
:1040E000194601201BF00EF93B46194608201BF02B
:1040F00009F93B46194609201BF004F93B461946CD
:104100000A201BF0FFF83B4619460B201BF0FAF87B
:1041100003210F481BF0A0F903210E481BF09CF966
:1041200003210D481BF098F903210C481BF094F96A
:1041300003210B481BF090F903210A481BF08CF96E
:10414000032109481BF088F900BF0837BD4680BD30
:104150000A000030050000301C0000201D00002077
:1041600006000030070000300800003080B500AFC6
:104170004FF48060FFF77EFE4FF48060FFF790FE03
:104180004FF48060FFF79CFE00BF80BD2DE9B04377
:10419000ADF51A7D00AF012000F01EFF07F5E873B2
:1041A0009822002118462BF0D1F807F5C873402259
:1041B000002118462BF0CAF807F51A73A3F51A73F5
:1041C00018464FF4C8731A4600212BF0BFF800239D
:1041D000C7F8D0310223C7F8F8310023C7F8FC3103
:1041E0000223C7F800321923C7F808320023C7F8A2
:1041F00004320123C7F80C320123C7F8103202231E
:10420000C7F814320023C7F818320823C7F81C3245
:104210000023C7F820327D23C7F824320123C7F8D2
:1042200028320123C7F82C320223C7F8303200238A
:10423000C7F834320823C7F83832E123C7F84032D0
:104240000023C7F83C320123C7F844320223C7F8E1
:1042500048320223C7F84C320023C7F850320823F3
:10426000C7F854320023C7F85832E123C7F85C324C
:104270000623C7F860320623C7F8643207F5E873EF
:1042800018460DF0FDF80346002B01D000BFFDE7F6
:104290007F23C7F890314FF44033C7F894314FF083
:1042A0004073C7F898310023C7F8B0310123C7F82D
:1042B000B4310023C7F8B8310223C7F8BC314FF03E
:1042C0008053C7F8C0310123C7F8C4314FF0005301
:1042D000C7F8C8310123C7F8CC314FF48013C7F8B1
:1042E0009C310023C7F8A0310023C7F8A431002374
:1042F000C7F8A8310023C7F8AC3107F5C8731846D2
:104300000DF0DEFD0346002B01D000BFFDE707F5F1
:104310001A73A3F51A714FF000024FF00003C1E9C0
:10432000002307F51A73A3F51A73D3E90023904607
:1043300043F4800907F51A73A3F51A73C3E90089DA
:1043400007F51A73A3F51A73134AC3F8AC2007F5DF
:104350001A73A3F51A73D3E90023144643F4000536
:1043600007F51A73A3F51A73C3E9004507F51A7325
:10437000A3F51A73094AC3F8B0203B46184610F05B
:10438000ABF90346002B01D000BFFDE700BF07F5E6
:104390001A77BD46BDE8B08314000003140400037F
:1043A00080B5E8B000AF07F5D073A3F5CE73186001
:1043B00007F5D073A3F5CC7318464FF4C8731A46AB
:1043C00000212AF0C3FF002387F89F3107F5D0733F
:1043D000A3F5CC714FF010024FF00003C1E90023A8
:1043E00007F5D073A3F5CC734FF40012C3F8C820BF
:1043F00007F5D073A3F5CC734FF08052C3F8882033
:1044000007F5D073A3F5CC730322C3F88C2007F112
:104410000803184610F060F9034687F89F3197F8B3
:104420009F31002B02D097F89F3128E007F5D07319
:10443000A3F5CC714FF008024FF00003C1E900234F
:1044400007F5D073A3F5CC730022C3F8902007F5CD
:10445000D073A3F5CC732822C3F8942007F1080386
:10446000184610F039F9034687F89F3197F89F31C5
:10447000002B02D097F89F3101E097F89F31184642
:1044800007F5D077BD4680BD80B400AF00BFFDE723
:1044900080B59CB000AFF860B9607A603B6007F10E
:1044A00024034C22002118462AF050FF07F1140380
:1044B00000221A605A609A60DA6002237B62042349
:1044C0003B6300237B630023BB63BB6F002B01D1E5
:1044D000A02300E08023FB624FF480633B644FF431
:1044E00040537B644FF40063BB6400233B653B682F
:1044F000002B02D14FF0806301E04FF0A063FB6519
:104500004FF000637B667B68013BBB664FF0005356
:10451000FB6607F1240341F288321946F8681CF063
:1045200091FD0346002B02D04FF0FF3328E001231A
:104530007B62BB6F002B01D1202300E00023FB62D4
:10454000BB68013BBB6607F1240341F28832194680
:10455000F8681CF077FD0346002B02D04FF0FF33C4
:104560000EE000237B6107F114031946F8681DF083
:104570005BF90346002B02D04FF0FF3300E000232D
:1045800018467037BD4680BD80B598B000AFF86062
:10459000B9601346FB7107F114034C220021184641
:1045A0002AF0D4FE00237B6104233B6200237B625C
:1045B0000023BB62C023FB614FF480633B634FF475
:1045C00040537B634FF40063BB63BB68FB62002313
:1045D0003B644FF08063FB644FF000637B65022314
:1045E0003B650023BB650023FB6507F1140341F223
:1045F00088321946F8681CF025FD0346002B02D0CE
:104600004FF0FF330DE0FB1D41F288321946F86888
:104610001CF02AFF0346002B02D04FF0FF3300E0CE
:10462000002318466037BD4680BD80B483B000AF1C
:1046300078607B684FF000621A607B684FF48032CC
:104640005A607B684FF400629A607B684FF4805236
:10465000DA607B684FF400421A617B684FF4805245
:104660005A617B684FF400429A617B684FF4807214
:10467000DA617B684FF400221A62002318460C3777
:10468000BD465DF8047B704780B59AB000AF786096
:104690000B46FB701346BB7007F11C034C22002134
:1046A00018462AF053FE07F1080300221A605A60E8
:1046B0009A60DA601A61FB78002B05D1BB78012B78
:1046C00002D14FF0FF3389E00023FB61FB78002B20
:1046D00001D1012300E00423BB62BB78012B01D18F
:1046E000082300E000233B63FB78002B01D100236B
:1046F00000E01023FB62FB78002B01D1052301E0D1
:1047000040F2FA537B62FB78002B01D1002301E0D9
:104710004FF48063BB63BB78012B02D14FF400637D
:1047200000E000233B644FF44053FB6300237B63B2
:104730000023BB64FB78002B02D14FF0807301E0B3
:104740004FF080637B65BB78012B02D14FF0006393
:1047500000E00023FB65FB78002B06D0BB78012B23
:1047600001D1052302E0042300E000233B66BB786F
:10477000012B01D1022300E00123BB65BB78012B93
:1047800002D14FF0005300E000237B660023BB60A2
:104790000123FB6000233B611023BB614FF48003C6
:1047A0007B6107F11C0341F28832194678681CF0DE
:1047B00049FC0346002B02D04FF0FF330EE007F117
:1047C000080341F28832194678681CF063FF0346FB
:1047D000002B02D04FF0FF3300E00023184668376B
:1047E000BD4680BD80B59AB000AF78600B46FB70C7
:1047F0001346BB7007F11C034C22002118462AF017
:10480000A5FD07F10C0300221A605A609A60DA6075
:10481000FB78012B05D1BB78002B02D14FF0FF3381
:1048200084E00123FB61FB78002B01D1012300E030
:104830000423BB6200233B63FB78002B01D10023E0
:1048400000E01023FB62FB78002B06D1BB78002B25
:1048500001D10B2303E00C2301E04EF613437B62EE
:10486000FB78002B02D14FF4807301E04FF480639A
:10487000BB6300233B64BB78002B02D14FF4005391
:1048800001E04FF44053FB630023BB64FB78002B33
:1048900002D14FF0807301E04FF080637B6500230D
:1048A000FB65FB78002B01D1082300E00A233B665F
:1048B00000237B6607F11C0341F2883219467868B1
:1048C0001CF0C0FB0346002B02D04FF0FF332DE05D
:1048D0000223FB61FB78002B06D1BB78002B01D1B2
:1048E000022303E0122301E041F2ED237B62002367
:1048F0003B6607F11C0341F28832194678681CF0C8
:10490000A1FB0346002B02D04FF0FF330EE0002343
:10491000FB6007F10C03194678681CF085FF03461D
:10492000002B02D04FF0FF3300E000231846683719
:10493000BD4680BD80B59AB000AF78600B46FB7075
:1049400007F11C034C22002118462AF0FFFC07F156
:104950000C0300221A605A609A60DA600123FB613E
:104960000423BB6208233B631023FB624EF61163F2
:104970007B624FF48063BB634FF400633B644FF48E
:104980004053FB630023BB644FF080637B654FF0B3
:104990000063FB650A233B664FF000537B6607F11B
:1049A0001C0341F28832194678681CF04BFB034621
:1049B000002B02D04FF0FF3325E00223FB6141F2D0
:1049C000ED237B6200233B6600237B6607F11C031B
:1049D00041F28832194678681CF034FB0346002BFC
:1049E00002D04FF0FF330EE00023FB6007F10C0311
:1049F000194678681CF018FF0346002B02D04FF0D0
:104A0000FF3300E0002318466837BD4680BD80B5FF
:104A10009AB000AF78600B46FB701346BB7007F18D
:104A20001C034C22002118462AF090FC07F10803D1
:104A300000221A605A609A60DA601A61FB78002BD3
:104A400005D1BB78012B02D14FF0FF33A7E0002343
:104A5000FB61FB78002B01D1012300E00423BB6242
:104A6000BB78012B01D1082300E000233B63FB78D6
:104A7000002B01D1002300E01023FB62FB78002B08
:104A800001D1062301E040F2F9637B620023BB639E
:104A90000023BB6400237B6500233B6600237B6609
:104AA00007F11C0341F28832194678681CF0CAFAF3
:104AB0000346002B02D04FF0FF3370E0FB78002B51
:104AC00001D1052301E040F2FA537B62FB78002B11
:104AD00001D1002301E04FF48063BB63BB78012B5D
:104AE00002D14FF4006300E000233B644FF44053D5
:104AF000FB6300237B63FB78002B02D14FF08073B4
:104B000001E04FF080637B65BB78012B02D14FF051
:104B1000006300E00023FB65FB78002B06D0BB7828
:104B2000012B01D1052302E0042300E000233B66B2
:104B3000BB78012B01D1022300E00123BB65BB78C8
:104B4000012B02D14FF0005300E000237B6607F1F8
:104B50001C0341F28832194678681CF073FA034648
:104B6000002B02D04FF0FF3319E00223BB60022379
:104B7000FB6000233B611023BB614FF480037B612A
:104B800007F1080341F28832194678681CF082FD6B
:104B90000346002B02D04FF0FF3300E000231846FD
:104BA0006837BD4680BD80B598B000AFF8607B60C7
:104BB0000B46FB721346BB7207F114034C22002113
:104BC00018462AF0C3FBFB7A002B05D1BB7A012BD8
:104BD00002D14FF0FF3373E000237B61FB7A002B9F
:104BE00001D1012300E004233B62BB7A012B01D1F8
:104BF000082300E00023BB62FB7A002B01D10023D5
:104C000000E010237B62FB7A002B01D1722301E0CC
:104C100047F28D23FB61FB7A002B02D14FF48073A6
:104C200001E04FF480633B63BB7A012B02D14FF468
:104C3000006300E00023BB634FF440537B637B6859
:104C4000FB6200233B64FB7A002B02D14FF08073A0
:104C500001E04FF08063FB64BB7A012B02D14FF07F
:104C6000006300E000237B650023BB65FB7A002B1B
:104C700006D0BB7A012B01D1022302E0012300E020
:104C800001233B650023FB6507F1140341F28832E1
:104C90001946F8681CF0D6F90346002B02D04FF0F5
:104CA000FF330DE041F2883207F16801F8681CF02B
:104CB000DBFB0346002B02D04FF0FF3300E0002364
:104CC00018466037BD4680BD80B598B000AFF8602B
:104CD0007B600B46FB721346BB7207F114034C2238
:104CE000002118462AF032FBFB7A002B05D1BB7A53
:104CF000012B02D14FF0FF337DE000237B61FB7A73
:104D0000002B01D1012300E004233B62BB7A012B7D
:104D100001D1082300E00023BB62FB7A002B01D104
:104D2000002300E010237B62FB7A002B01D171236A
:104D300001E047F28E13FB61FB7A002B02D14FF4A6
:104D4000807301E04FF480633B63BB7A012B02D197
:104D50004FF4006300E00023BB634FF440537B63D8
:104D60007B68FB6200233B64FB7A002B02D14FF08F
:104D7000807301E04FF08063FB64BB7A012B02D1AA
:104D80004FF0006300E000237B65FB7A002B06D028
:104D9000BB7A012B01D1052302E0042300E00023AC
:104DA000BB65BB7A012B01D1022300E001233B65E7
:104DB000BB7A012B02D14FF0005300E00023FB65CA
:104DC00007F1140341F288321946F8681CF03AF9E9
:104DD0000346002B02D04FF0FF330CE041F2883243
:104DE000B96EF8681CF0B3FB0346002B02D04FF0FD
:104DF000FF3300E0002318466037BD4680BD80B514
:104E000096B000AF78600B46FB701346BB7007F19D
:104E10000C034C22002118462AF098FAFB78002B4C
:104E200005D1BB78012B02D14FF0FF3339E00023CD
:104E3000FB6000233B61FB78002B01D1012300E0E4
:104E40000423BB61BB78012B01D1082300E00023C0
:104E50003B62FB78002B01D1002300E01023FB61B3
:104E6000FB78002B01D1662301E046F299637B6158
:104E70000023BB620023BB6300237B6400233B65EC
:104E800000237B6507F10C0341F2883219467868EC
:104E90001CF0D8F80346002B02D04FF0FF3300E09F
:104EA000002318465837BD4680BD80B596B000AF88
:104EB00078600B46FB701346BB7007F10C034C2265
:104EC000002118462AF042FAFB78002B05D1BB7866
:104ED000012B02D14FF0FF3337E00023FB60FB785A
:104EE000002B01D1012300E00423BB61BB78012B1F
:104EF00001D1082300E000233B62FB78002B01D1A5
:104F0000002300E01023FB61FB78002B01D19923E3
:104F100001E049F666137B610023BB620023BB639B
:104F200000237B6400233B6500237B6507F10C03B2
:104F300041F28832194678681CF084F80346002B49
:104F400002D04FF0FF3300E0002318465837BD462B
:104F500080BD000080B485B000AF7860074A7B68F0
:104F6000C2F85C3A054BD3F85C32FB60FB6800BFCB
:104F70001437BD465DF8047B704700BF00800256C1
:104F800080B485B000AF7860074A7B68C2F8643AA5
:104F9000054BD3F86432FB60FB6800BF1437BD4695
:104FA0005DF8047B704700BF0080025680B485B076
:104FB00000AF7860074A7B68C2F86C3A054BD3F8BB
:104FC0006C32FB60FB6800BF1437BD465DF8047BA4
:104FD000704700BF0080025680B588B000AF03461E
:104FE000FB712020FFF7B6FF07F10C0300221A60C7
:104FF0005A609A60DA601A611023FB6001233B61FA
:1050000000237B610323BB6107F10C0319460648AB
:1050100008F070FAFB791A461021034808F098FF4F
:1050200000BF2037BD4680BD0014025680B584B055
:1050300000AF03463960FB710023FB60FB79012B55
:1050400003D96FF00103FB6041E0FA79FB79224953
:1050500051F822202149942000FB03F30B441A60ED
:10506000FB79942202FB03F31C4A1344184600F018
:105070009BF8FB68002B2AD1FB79002B10D1FB7920
:10508000942202FB03F3154A13443968184600F0D2
:1050900027F80346002B1AD06FF00303FB6016E0DD
:1050A000FB79012B10D1FB79942202FB03F30B4A0D
:1050B00013443968184600F045F80346002B06D023
:1050C0006FF00303FB6002E06FF00103FB60FB681D
:1050D00018461037BD4680BD8C8C0534FC4E073415
:1050E00080B582B000AF78603960154B1A687B6874
:1050F0001A603B681A687B685A607B680C225A61A8
:105100003B685B891A467B681A613B685A687B6812
:105110009A603B681B891A467B68DA603B689B890A
:105120001A467B689A617B684FF40042DA617868BE
:105130001AF0F6FC034618460837BD4680BD00BF8E
:105140008C8C053480B582B000AF78603960154B27
:105150005A687B681A603B681A687B685A607B688B
:105160000C225A613B685B891A467B681A613B686E
:105170005A687B689A603B681B891A467B68DA60CC
:105180003B689B891A467B689A617B684FF40042B2
:10519000DA6178681AF0C4FC034618460837BD4641
:1051A00080BD00BF8C8C053480B590B000AF7860B6
:1051B000404A07F1200392E8030083E803003E4AD7
:1051C00007F1180392E8030083E803003B4B1B68D8
:1051D0007B613B4B1B683B6140F20773BB8140F234
:1051E00007733B817B681B68364A93420CD10023CE
:1051F00087F83F301020FFF7ADFE1020FFF7AAFE22
:105200001020FFF7D3FE11E07B681B682E4A934203
:105210004BD1012387F83F300820FFF79BFE202069
:10522000FFF798FE4FF40030FFF7AAFE97F83F30E3
:105230005B0040333B4433F82C3CBB620223FB62EF
:1052400002237B6301233B6397F83F3040333B44A9
:1052500013F8343CBB6397F83F309B0040333B442A
:1052600053F8203C07F128021146184608F042F98D
:1052700097F83F305B0040333B4433F8303CBB622F
:1052800097F83F3040333B4413F8383CBB6397F802
:105290003F309B0040333B4453F8283C07F1280241
:1052A0001146184608F026F900E000BF4037BD4619
:1052B00080BD00BFE02F0334E82F0334F02F033408
:1052C000F42F0334001000520044005080B485B025
:1052D00000AF7860074A7B68C2F85C3A054BD3F8A8
:1052E0005C32FB60FB6800BF1437BD465DF8047B91
:1052F000704700BF0080025680B485B000AF786070
:10530000074A7B68C2F8643A054BD3F86432FB6005
:10531000FB6800BF1437BD465DF8047B704700BFD3
:105320000080025680B483B000AF7860064B03F56E
:1053300080531A467B68C2F8643200BF0C37BD4602
:105340005DF8047B704700BF0080025680B483B0D4
:1053500000AF7860044A7B68C2F8243A00BF0C377B
:10536000BD465DF8047B70470080025680B483B070
:1053700000AF7860064B03F580531A467B68C2F88D
:10538000243200BF0C37BD465DF8047B704700BF78
:105390000080025680B582B000AF00237B60164BC0
:1053A000164A1A60164B1B68002B1FD1144B1B6842
:1053B0000133134A1360104809F00CFA0346002B1E
:1053C00014D10D4800F0E2F80DF0F8FA03460D494B
:1053D000184600F091F903461946074800F038F8DE
:1053E0000346002B02D06FF007037B607B681846F2
:1053F0000837BD4680BD00BF2C5A0734005400500A
:1054000024500734A086010080B582B000AF00238D
:105410007B600D4B1B68013B0B4A13600A4B1B68FA
:10542000002B0BD1094800F0F3F8084808F006FFFC
:105430000346002B02D06FF007037B607B681846A1
:105440000837BD4680BD00BF245007342C5A0734AE
:1054500080B584B000AF786039600023FB737B684F
:105460003A685A607B6800229A607B680122DA60A1
:105470007B6800221A617B6800225A617B680022E7
:105480009A617B680022DA617B6800221A62786880
:1054900008F08AFD0346002B02D00123FB7314E0C1
:1054A0000023BB60B968786809F0D6FC0346002B7E
:1054B00002D00123FB7308E00021786809F05EFD4B
:1054C0000346002B01D00123FB73FB7B18461037EA
:1054D000BD4680BD80B588B002AFBA601A460346AB
:1054E000FB810B46BB811346FB80B989F889FB8899
:1054F0000093BB68022200F0ABF80346002B02D1F8
:1055000000237B610CE0094809F072F90346042B83
:1055100003D16FF065037B6102E06FF003037B61F1
:105520007B6918461837BD4680BD00BF2C5A07342A
:1055300080B588B002AFBA601A460346FB810B46BD
:10554000BB811346FB80B989F889FB880093BB684F
:10555000022200F0A3F80346002B02D100237B6156
:105560000CE0094809F044F90346042B03D16FF01D
:1055700065037B6102E06FF003037B617B69184682
:105580001837BD4680BD00BF2C5A073480B588B09F
:1055900000AF78600BF070FC8020FFF797FE0420CE
:1055A000FFF794FE4FF40073FB6012233B6100236E
:1055B0007B610223BB610423FB6107F10C031946E5
:1055C000114807F097FF0223FB6012233B61002381
:1055D0007B610223BB610423FB6107F10C031946C5
:1055E0000A4807F087FF4FF40010FFF785FE4FF4DD
:1055F0000010FFF7ABFE4FF40010FFF7B7FE00BF3F
:105600002037BD4680BD00BF001C02560008025670
:1056100080B588B000AF78604FF40073FB60FB6822
:105620001946094808F0C6FA0223FB60FB681946D0
:10563000064808F0BFFA4FF40010FFF773FE00BFF2
:105640002037BD4680BD00BF001C02560008025630
:1056500080B588B004AF7B600346FB810B46BB81FD
:1056600013467B817889BA89F9894FF47A7302935A
:105670003B8B01937B6800930346074808F060FE6C
:105680000346002B01D1002301E06FF00703184609
:105690001037BD4680BD00BF2C5A073480B588B096
:1056A00004AF7B600346FB810B46BB8113467B81C5
:1056B0007889BA89F9894FF47A7302933B8B019305
:1056C0007B6800930346074808F05CFF0346002B05
:1056D00001D1002301E06FF0070318461037BD46E3
:1056E00080BD00BF2C5A073480B500AF02F0EEFD3C
:1056F0000346184680BD000080B586B000AF7860D4
:10570000396000237B617B68002B6BD03B68002BEA
:1057100068D000233B6160E0354A3B692C2101FBE6
:1057200003F3134404331B683A689A4252D3304A55
:105730003B692C2101FB03F3134408331B683A68CF
:105740009A4247D83969786800F056F8396978681C
:1057500000F040F9F860FB687F2B42D82549FA68D1
:1057600013469B0013449B000B441B6819072148F8
:10577000FA6813469B0013449B00034404331B68E0
:105780001B0503F4700319431A48FA6813469B007B
:1057900013449B00034408331B681B0403F4702369
:1057A00019431448FA6813469B0013449B000344B2
:1057B0000C331B681B029BB219430E48FA68134650
:1057C0009B0013449B00034410331B68DBB20B4364
:1057D0007B6106E03B6901333B613B69022B9BD94E
:1057E00000E000BF7B6918461837BD4680BD00BF8A
:1057F000283C05342850073480B48FB000AF78605F
:10580000396010237B637B685A086E4B13447A68B7
:10581000B3FBF2F3FB613223BB614FF482737B6114
:10582000694A3B682C2101FB03F3134424331B68B2
:105830001846654A3B682C2101FB03F313440C33E3
:105840001B68C218BB69D21A5F493B682C2000FB59
:1058500003F30B4428331B680333F96901FB03F39B
:10586000D31A3B63584A3B682C2101FB03F31344D2
:1058700010331B681846544A3B682C2101FB03F384
:10588000134420331B68C21A7B69D21A4E493B6805
:105890002C2000FB03F30B4428331B680433F96905
:1058A00001FB03F3D31AFB62474A3B682C2101FB3F
:1058B00003F3134420331B681846434A3B682C21EA
:1058C00001FB03F3134414331B6803443B613B6B3C
:1058D000002B01DC00233B63FB6A002B01DC00236F
:1058E000FB620023BB6262E000237B6259E07B6ABB
:1058F0000133BA6A013203FB02F2FB6902FB03F3D4
:10590000FB603B69FA689A4248D300233B6242E05D
:10591000BB6A01333A6A03FB02F2FB6902FB03F341
:10592000BB603B6BBA689A4232D3FB6ABA689A4250
:105930002ED8BA6A7B6B9A422AD0244B1A68244923
:1059400013469B0013449B000B44BA6A1A601F4B1A
:105950001A681F4913469B0013449B000B440433F1
:105960007A6A1A60194B1A68194913469B00134446
:105970009B000B4408333A6A1A60BB6A7B63134B83
:105980001B680133114A1360104B1B687F2B12D820
:105990003B6A01333B623B6A0F2BB9D97B6A013307
:1059A0007B627B6A0F2BA2D9BB6A0133BB62BB6AE5
:1059B0000F2B99D900E000BF3C37BD465DF8047B52
:1059C000704700BF00CA9A3B283C0534285A073468
:1059D0002850073480B493B000AF786039604FF03E
:1059E000FF337B647B685A087A4B13447A68B3FBB5
:1059F000F2F3FB62784A3B682C2101FB03F313446A
:105A00001B685A08734B134473493A682C2000FBF7
:105A100002F20A441268B3FBF2F3BB6232237B62E8
:105A20006D4A3B682C2101FB03F3134428331A68A9
:105A3000FB6A02FB03F33B62674A3B682C2101FBD4
:105A400003F3134404331B68624AB2FBF3F3FB61B4
:105A5000614A3B682C2101FB03F3134408331B68A4
:105A60005C4AB2FBF3F3BB61BB6A3B6400237B631C
:105A7000A3E05A497A6B13469B0013449B000B44E6
:105A80001B685A1CFB6A02FB03F37B610023FB6368
:105A90008CE07A6A3B6A1A44FB6B0133796903FB39
:105AA00001F1FB6A5B000B4413443B614A4A3B68CB
:105AB0002C2101FB03F3134418331B683A699A4203
:105AC00071D93A697B6AD21A3B6AD31A9B08FA6A7F
:105AD0009A4268D20023BB6362E07A6A3B6A1A4446
:105AE000BB6B0133796903FB01F1FB6A5B000B447B
:105AF0001344FB603A69FB681A4437493B682C2021
:105B000000FB03F30B4420331B681A4432493B6803
:105B10002C2000FB03F30B4424331B681344BB60AD
:105B2000BA68BB699A4238D3BA68FB699A4234D8DA
:105B3000294A3B682C2101FB03F313441C331B68E7
:105B4000FA689A4229D3FA6AFB689A4225D2BA685F
:105B5000BB6AD31A3B633B6B002B02DA3B6B5B42A5
:105B60003B633B6B3A6C9A4217D93B6B3B641B49D6
:105B70007A6B13469B0013449B000B441033FA6B63
:105B80001A6016497A6B13469B0013449B000B4422
:105B90000C33BA6B1A607B6B7B64BB6B0133BB63EA
:105BA000BB6BFF2B99D9FB6B0133FB63FB6BFF2BAB
:105BB0007FF66FAF7B6B01337B63094B1B687A6B9E
:105BC0009A42FFF456AF7B6C18464C37BD465DF8E1
:105BD000047B704700CA9A3B283C053428500734A0
:105BE000285A073480B485B000AF7860074A7B68D4
:105BF000C2F85C3A054BD3F85C32FB60FB6800BF2F
:105C00001437BD465DF8047B704700BF0080025624
:105C100080B485B000AF7860074A7B68C2F8603A0C
:105C2000054BD3F86032FB60FB6800BF1437BD46FC
:105C30005DF8047B704700BF0080025680B483B0DB
:105C400000AF7860044A7B68C2F8203A00BF0C3786
:105C5000BD465DF8047B70470080025680B483B077
:105C600000AF7860064B03F580531A467B68C2F894
:105C7000203200BF0C37BD465DF8047B704700BF83
:105C80000080025680B485B000AF7860074A7B6818
:105C9000C2F87C3A054BD3F87C32FB60FB6800BF4E
:105CA0001437BD465DF8047B704700BF0080025684
:105CB00080B483B000AF7860044A7B68C2F83C3A95
