:0200000470107A
:1000000053544D32000000000000000000000000CA
:1000100000000000000000000000000000000000E0
:1000200000000000000000000000000000000000D0
:1000300000000000000000000000000000000000C0
:1000400000000000000000000000000000000000B0
:1000500000000000000000000000000000000000A0
:1000600000000000B1151B0300030200A0A90B0053
:100070009D18033400000000FFFFFFFF0000000098
:100080000000000000000080A0010000000000004F
:100090000000000000000000000000000000000060
:1000A0005354FFFFA00100001C871A9214CE764320
:1000B00096025ED7FC42431AEB2AB5222994845853
:1000C000CFA34F503D5E9E2E179CF04A3848DC056A
:1000D0007939624D034DB21E3473FA682E3FCF8BCF
:1000E000E0F0E386C735E15209E0B0A00350D19DAE
:1000F0005448691DACE4E998603FC0086165184741
:100100006E11ABC04D8EB6DA34B6DAB489D82F9CF6
:10011000EF2B10E3116BC776A5DECE49F4F2A7AE44
:100120009977673442ADDBB4EFDB6BCAF7989A3F3F
:100130006ECCEADF3FDD1D7D94E21D68BC1093FAB2
:100140001BBC07003B007664B72990D382AB6000EC
:10015000EBA5DD909D26F80072F000C88D3C663E50
:10016000D30F3F8E8D311B39DBEE593F4F0AB1D58E
:10017000C5C91DE6E30CDF7D74C711E003FA6FCA41
:100180002FD0EA754F4B39184C8350485FEB0580F0
:100190006A06332A17DC3438244605D8C246DF0DF8
:1001A00015334CCD35A0CC9FF84419BB74F86E6A5A
:1001B000948836979927BE4053946D5FBF5D67BCA6
:1001C0004517F0ED6204F3D368F8903B0D4A021D29
:1001D000A98E44214C1220B0E0221B10DFE3C5A9F8
:1001E0005F5494F29E6FC96474311808B04F24F5BF
:1001F000B02C67F458121729ABBAB39916DB4040FC
:10020000E2BED0A2B9804E8EA8C113F38AFC709BC7
:100210000B8F50D95CE252ACA6A6122B6DC4AA9BE0
:100220008C4A0713E118DF6D78A169F2F1145C2B99
:100230006BB9F7B346D57BBF22CE1F718FBD018846
:1002400000000000000000000000000000000000AE
:10025000000000000000000000000000000000009E
:10026000000000000000000000000000000000008E
:10027000000000000000000000000000000000007E
:10028000000000000000000000000000000000006E
:10029000000000000000000000000000000000005E
:1002A000000000000000000000000000000000004E
:1002B000000000000000000000000000000000003E
:1002C000000000000000000000000000000000002E
:1002D000000000000000000000000000000000001E
:1002E000000000000000000000000000000000000E
:1002F00000000000000000000000000000000000FE
:1003000000000000000000000000000000000000ED
:1003100000000000000000000000000000000000DD
:1003200000000000000000000000000000000000CD
:1003300000000000000000000000000000000000BD
:1003400000000000000000000000000000000000AD
:10035000000000000000000000000000000000009D
:10036000000000000000000000000000000000008D
:10037000000000000000000000000000000000007D
:10038000000000000000000000000000000000006D
:10039000000000000000000000000000000000005D
:1003A000000000000000000000000000000000004D
:1003B000000000000000000000000000000000003D
:1003C000000000000000000000000000000000002D
:1003D000000000000000000000000000000000001D
:1003E000000000000000000000000000000000000D
:1003F00000000000000000000000000000000000FD
:10040000000010349D180334517100345F710034C2
:10041000677100346F710034777100347F7100347C
:1004200000000000000000000000000087710034A0
:1004300095710034000000009D710034A5710034F6
:10044000F918033400000000F9180334F9180334D4
:10045000F9180334F9180334F9180334F91803347C
:10046000F918033400000000F9180334F9180334B4
:10047000F91803349D790034F918033400000000A2
:10048000F918033400000000F9180334F918033494
:10049000F9180334F9180334F9180334F91803343C
:1004A000F9180334F9180334F9180334F91803342C
:1004B000F9180334F9180334F9180334F91803341C
:1004C000F9180334F9180334F9180334F91803340C
:1004D000F9180334F9180334F9180334F9180334FC
:1004E000F918033400000000F9180334F918033434
:1004F000F9180334F9180334F9180334B1710034CE
:10050000CB7100340000000000000000000000007B
:10051000F918033409010334F9180334F9180334C2
:10052000F9180334F9180334F9180334F9180334AB
:10053000F9180334F9180334F9180334F91803349B
:10054000F9180334F9180334F9180334F91803348B
:10055000F9180334F9180334F9180334F91803347B
:1007400000000000F9180334F91803340000000019
:1007500010B5054C237833B9044B13B10448AFF3FB
:1007600000800123237010BDE0AB0B3400000000BB
:10077000DCCC033408B5034B1BB103490348AFF38A
:10078000008008BD00000000E4AB0B34DCCC033477
:1007900090EDAD6A30B52DED108B90EDA87BB5EEE8
:1007A000C06A87B08DED027B002390EDA47BF1EE53
:1007B00010FA91ED015A91ED004A91ED02FB91ED95
:1007C00004EB044690ED123B90EDAACB90ED16ABF6
:1007D0008DED047B90EDA6BB80F8603009DCD0F88D
:1007E000C832D14898474FF0FF3007B0BDEC108BAE
:1007F00030BDB8EE455B9FEDBE7BB8EE444B25EEB9
:10080000077BB4EEC47BF1EE10FA0FDD90ED1C7B9C
:100810009FEDB92B37EE022B9FEDB97BB4EEC72BC2
:10082000F1EE10FA37FE027B80ED1C7B9FEDB67B6C
:1008300025EE075BB4EEC45BF1EE10FA10D594ED33
:100840001C7B9FEDAD5B37EE457B9FEDB15BB4EE5E
:10085000C57BF1EE10FA58BFB0EE475B84ED1C5B30
:1008600083EE0C8BBCEEC88BB8EE488B94F85050DE
:1008700028EE0C8B012DB7EEC66A40F0AC809FEDE0
:10088000A67B3FEE4E5B85EE07DB3FEE0E5B85EE13
:10089000079BB0EECD7BB4EEC76BF1EE10FAB0EE75
:1008A000C95B1FDBB4EEC56BF1EE10FA1ADB002357
:1008B00084F8783094ED1A7BB5EEC07BF1EE10FA37
:1008C00040F33481012384F860309DED027BB4EE67
:1008D000C7ABF1EE10FA40F13C819DED047B3AEE9E
:1008E00007BB28E1B4EEC56BF1EE10FA0CD589EE2A
:1008F0000D5B94EDAE6AB0EEC55BB7EEC66AB4EEC2
:10090000C65BF1EE10FAD5DAF7EECA0BB7EEC70BFD
:100910003BF08EFCB2EE047BB7EEC00A20EE070B74
:10092000FCEEC87BB0EECE6BCDED017AB0EECF7BA6
:10093000B4EEC67BF1EE10FA62DCB5EEC0EBF1EE80
:1009400010FA62D538EE000B94ED3C7BB4EEC07B20
:10095000F1EE10FA03D5B0EE4BABB0EE470B94EDD1
:100960003A7BB4EEC07BF1EE10FA03DDB0EE4BAB98
:10097000B0EE470B80EE0C8BBCEEC88BB8EE488B0C
:10098000012D2CEE088B16D1B4F8E030022B3FD8A5
:10099000DDED017AB8EE677B04EBC30282ED207BCC
:1009A00082ED268B04EB0312013382ED2CDB82ED0A
:1009B0002E9BA4F8E03094F87830012B07D0FCEEA1
:1009C000C87B17EE903A019A93423FF473AF01232C
:1009D00084F860306EE7B0EECF7BB0EECE5BB4EE65
:1009E000475BF1EE10FA35FE077BB4EEC67BF1EE05
:1009F00010FA7FF65FAF9FED4A9BB0EE49DB83E7CD
:100A0000B5EEC0FBF1EE10FA9CD538EE400B9BE73B
:100A100094ED2A7B94EDAF6A38EE477BB7EEC66A59
:100A2000B0EEC77BB4EEC67BF1EE10FA56DB94ED68
:100A3000287B38EE477BB0EEC77BB4EEC76BF1EE98
:100A400010FA4BDD94ED320B94ED307B39EE400B18
:100A50003DEE477B20EE000BA7EE070B3AF03CFF84
:100A600094EDB07AB7EEC77AB4EEC70BF1EE10FA98
:100A700034D5DDED017AB8EE678B84F8785094F8C0
:100A80007830002B97D1102204F1880104F1800006
:100A900038F0DAFE102204F1A00104F1980038F0D9
:100AA000D3FED4E93023DDED017AB8EE677BC4E9EB
:100AB0002C23D4E9322384ED247BC4E92E23D4E90A
:100AC000342384ED2A8BC4E93023D4E9362384ED22
:100AD00034DB84ED369BC4E932236CE794F878303C
:100AE000012B04BF002384F87830C8E7AFF30080FF
:100AF0009A9999999999A93F7B14AE47E17A843FD5
:100B0000343333333333C33F333333333333C33F7C
:100B1000111111111111B13FCD3B7F669EA0F63F1F
:100B20000000000000000000466F0B3494F86030B5
:100B3000002B7FF4CAAE88EE0C7BBCEEC77BB8EE10
:100B4000477B27EE0C7B84ED16BB84ED127B0120E6
:100B50004BE69DED02BBEEE790ED1A6BB5EEC06B78
:100B600090ED124BF1EE10FA90EDAA5BB0EE467BE1
:100B7000DFBF84EE057BBCEEC77BB8EE477B27EE7C
:100B8000057BB7EEC77B90ED3C5BB7EEC74AB4EE92
:100B9000C54BF1EE10FAC8BFB7EEC57B90ED3A5BDE
:100BA000B7EEC74AB4EEC54BF1EE10FA48BFB7EE48
:100BB000C57BB7EEC75AD0F8743230B580ED125B02
:100BC00093ED005AD0EDAC7AB4EEC75AF1EE675A05
:100BD000F1EE10FA4FF00001B0F8F83075FEA77A88
:100BE000013B8AB2934205D8442202FB030303F57A
:100BF000907311E000EB8204D4ED445A77EEA55ACD
:100C0000F4EEC75AF1EE10FA01F10101E9DB4423D9
:100C100003FB020202F59073B5EEC06BF1EE10FA21
:100C2000C0F8743205DC93ED007AB7EEC77A80ED38
:100C3000127B5A6803F1380142609A6803F1240478
:100C40008260DA68C2601A69026100F138025D6987
:100C50000C334561DD680C30C5601D69A342056138
:100C600051F8045B42F8045BF1D1012030BD10B5AE
:100C7000044690B070B10023084C40212370C4F8A2
:100C8000C802074B6846074A38F094FC6846D4F817
:100C9000C8329847204610B010BD00BF00AC0B34DE
:100CA00028A50B34866F0B34002814BF01204FF0A9
:100CB000FF30704780ED000A30B50C6844604C6826
:100CC00084608C68C460C96802F12404016100F189
:100CD000380115680C32456152F8085C0C30C5606B
:100CE00052F8045CA242056153F8045B41F8045BCE
:100CF000EFD130BD2DE9F04F2DED068B0E46B0EE55
:100D0000409BB0EE418B1D460446C7B0002800F062
:100D10008F819FEDCBAB80ED12AB0020CE494FF021
:100D20000008C4E91601C4E9A601C4E9AA01CB4937
:100D3000DFF85C93C4F8B0124FF07E51C4F8B412DF
:100D40004FF07C51C4E91A890FF2FC29D9E90089D6
:100D5000C4E91C89C4E9A4894FF00008C4F8B8129A
:100D6000BF49DFF83093C4F8BC124FF07F51002325
:100D7000C4E9A88901274FF00008C4F8C012711E09
:100D8000DFF8149388B20428C4E9A0890FF2C029BF
:100D9000D9E9008984F86030C4E9A289A4F8E03078
:100DA00084F87830A4F8787214D905234FF4807150
:100DB000AC4A06A838F0FEFBD4F8C83206A898471B
:100DC00084F85070204647B0BDEC068BBDE8F04F6C
:100DD000FFF7C2BE95ED007AB7EEC77AB4EEC70B47
:100DE000F1EE10FA12DDD4F8C8329F48984795ED1D
:100DF000007AB7EEC77A8DED009B8DED027B9B4AA2
:100E00004FF4807106A838F0D5FBD5E74FF0440CBD
:100E10000CFB065818ED117AB7EEC77AB4EEC71B73
:100E2000F1EE10FA41D5D4F8C8329148984798EDC0
:100E3000007AB7EEC77A8DED008B8DED027B8D4A7F
:100E4000DEE70CFB08F705EB070944372F4499ED63
:100E5000007AD7ED007AB4EEE77AF1EE10FA08F1F5
:100E6000010A00F1010021DBD4F8C832824898471A
:100E700097ED007AB7EEC77A8DED047BCDF808A028
:100E800099ED007AB7EEC77A43468DED007B7B4A39
:100E90004FF4807106A838F08DFBD4F8C83206A84C
:100EA0009847012384F850308CE718461FFA80F8E1
:100EB0004145C6D800234FF0440CB01E9FB2B94242
:100EC00039D884ED3A9B84ED3C8B0020A4F8F8607F
:100ED00083B2994200F1010000F28B800027B846EE
:100EE00004F1FC0A04F5907905EB070B09EB070008
:100EF0004422594638F051FFDBF8003008F1010870
:100F00004AF8043B1FFA88F39E4207F14407EBD8E6
:100F1000731E9BB2002E03F1010314BF1A46012277
:100F2000C4F8749204F5B271013A6AD1012384F8CD
:100F30005030237046E702EB8709B842D9ED007ABA
:100F40004FEA870807F1010A1ED908F10408904406
:100F500098ED007AB4EEE77AF1EE10FA14D8D4F8EE
:100F6000C8324748984798ED007AB7EEC77A8DEDBA
:100F7000047BCDF808A099ED007AB7EEC77A3B461E
:100F80008DED007B3F4A83E70CFB07F805EB080A71
:100F90009AED007AB4EEE77AF1EE10FA08F144081F
:100FA000A84408DA98ED007AB4EEE77AF1EE10FA88
:100FB00003F1010382D8D4F8C8323348984798ED3A
:100FC000007AB7EEC77A8DED047B9AED007AB7EE22
:100FD000C77A8DED027B99ED007AB7EEC77A3B4672
:100FE0008DED007B4FF48071284A06A838F0E2FAB4
:100FF00053E702EB83073F6804EB8303C3F81071E8
:1010000066E7D4F8743291ED006A93ED007AB7EE9A
:10101000C66AB7EEC77A36EE4A6B37EE4A7BB4EE55
:10102000C76BF1EE10FA48BFC4F8741244317BE785
:101030004FF0FF3047B0BDEC068BBDE8F08F00BF2E
:10104000000000000088B3409A9999999999B93F96
:101050000000000000A06E400000F03F0000484289
:1010600000002F43966F0B34DA6F0B3461700B3432
:10107000BF700B3447710B34A4710B3408720B34FE
:1010800060720B34CF720B3439730B3490730B34A2
:101090000000F0BF000008400000244030B50546C5
:1010A00014468DB052B9D0F8C8321D489847D5F8CB
:1010B000C8321C48984720460DB030BD93ED042B34
:1010C00093ED021B93ED000B0AAA08A906A800F0F5
:1010D0002FF8DDE90823CDE90223DDE90A23CDE974
:1010E0000423012398420446CDE90033DFD1694649
:1010F0002846FFF74DFB0128044603D0D5F8C83237
:101100000948D7E795F86030012BD4D12846FFF77E
:1011100023FD01280446CED0D5F8C8320348C9E7DC
:1011200016740B3477740B34A0740B34D4740B34F2
:10113000B5EEC00BF1EE10FA1FB509D4B5EEC01B29
:10114000F1EE10FA04D4B5EEC02BF1EE10FA0DD585
:101150008DED022B8DED001B53EC102B444838F025
:10116000B9F94FF0FF3005B05DF804FB9FED327B1D
:10117000B4EEC70BF1EE10FA09DCB4EEC71BF1EECA
:1011800010FA04DCB4EEC72BF1EE10FA07DD8DED9A
:10119000022B8DED001B53EC102B3648DFE728B1F6
:1011A00089B1B2B93449354B084607E071B13349CA
:1011B0003148002A304A314B18BF134602463048A6
:1011C00038F088F9CDE72C492C48F2E72B4908463E
:1011D000EFE79FED1B7B9FED1C6B21EE077BB3EED2
:1011E000005BA0EE067B9FED1A6BA2EE057BA7EEDF
:1011F000065B9FED197B80ED005B27EE417BBBEE2C
:101200000A5BA0EE057B9FED165BA2EE057B27EE49
:10121000067B81ED007B9FED147B27EE411BB2EE38
:10122000047BA0EE051BA2EE471B21EE061B01204E
:1012300082ED001B97E700BF0000000000E06F4058
:101240000000000000A06340000000000080474054
:10125000000000000000703F0000000000805540CA
:101260000000000000005C400000000000805940C9
:1012700011750B344F750B340B750B3409750B342A
:101280008F750B340000000010B5044690B060B1BB
:101290000023074C40212370A065064B6846064A90
:1012A00038F088F96846A36D9847204610B010BD05
:1012B000D0AE0B342EA50B34D9750B34002814BFD7
:1012C00001204FF0FF30704738220A23C0E9042381
:1012D00064232D227821C0E9063240F2DC5230B579
:1012E000C0E9081241F2707442F6E062C0E90A42B5
:1012F0000BA5D5E9004505224FF0000C026548F228
:10130000E802C0E910C20122C0E90C4506A5D5E9F2
:101310000045C0E91223C0E90E4530BDAFF300809F
:1013200000000040E17A943F000000E04D62703F11
:1013300010B5044620B1FFF7C7FF0120207010BD93
:101340004FF0FF30FBE72DE9F0410E460446002840
:1013500000F0E180017801290BD102210170A56C18
:10136000C4E90126B54208D2616C914205D9A56055
:101370004CE00229F3D0002049E0D4F810C0B6EECA
:10138000005B07EE90CAB8EE676A07EE903AB8EED7
:10139000E77BB7EEC66A37EE057B86EE070B216D5D
:1013A000B7EEC00B8B424BD2F0EE007AB4EEE70AF8
:1013B000F1EE10FA44D4616CB7EE007A8A4220D282
:1013C000012A134638BF012307EE903AF8EEE77A78
:1013D00067EE807AFDEEE77A17EE903A8B42C1BF56
:1013E00007EE901AB8EEE76A07EE902AF8EE676A01
:1013F000C3BFC6EE267A0B4680EE270AB0EE470A38
:101400006360B4EEC70AF1EE10FA02DC0120BDE819
:10141000F081B7EEC00A3AF02BFAB3EE047B20EE6F
:10142000070B9FED3F7B20EE070BBDEEC00B10EED0
:10143000103AE26C33449342D4BFA360A260E5E764
:10144000ACEB0307E16987EAE770A0EBE77088423D
:1014500047D8606AD4F814E0A1690EEB0C089845EF
:1014600007FB01F143D207EE900A9FED2F7AF8EEC9
:10147000E77A67EE877A07EE101AF1EE676AB8EE40
:10148000C77AB4EEE67AF1EE10FA04D5FDEEE77A0B
:1014900017EE903A59420029B8D0B54232D1606C6B
:1014A000904201D800292DDA02FB077707EE902A37
:1014B00006EE907A0029B8EEE77BB8EEE66B1EDA0E
:1014C00094ED0E5BA5EE067BBDEEC77B17EE102AF2
:1014D000236C9A42B8BF1A468242D4BF62606060F1
:1014E00094E7216A88422CBFE06AA06AB2E7ACEBBD
:1014F0000E0C9C458ADD8142A8BF0146CBE794EDE6
:101500000C5BDFE70E44B5423FF731AFE56CB54207
:10151000A8BF35462BE74FF0FF3078E7AFF30080E8
:101520000000000000408F409A99593F034613F88D
:10153000012B002AFBD1181A0138704781F00041B5
:1015400002E000BF83F0004330B54FEA41044FEAA8
:10155000430594EA050F08BF90EA020F1FBF54EA43
:10156000000C55EA020C7FEA645C7FEA655C00F0DF
:10157000E2804FEA5454D4EB5555B8BF6D420CDDB0
:101580002C4480EA020281EA030382EA000083EA33
:10159000010180EA020281EA0303362D88BF30BDD3
:1015A00011F0004F4FEA01314FF4801C4CEA113129
:1015B00002D0404261EB410113F0004F4FEA033388
:1015C0004CEA133302D0524263EB430394EA050F13
:1015D00000F0A780A4F10104D5F1200E0DDB02FA82
:1015E0000EFC22FA05F2801841F1000103FA0EF216
:1015F000801843FA05F359410EE0A5F120050EF1DC
:10160000200E012A03FA0EFC28BF4CF0020C43FA0C
:1016100005F3C01851EBE37101F0004507D54FF019
:10162000000EDCF1000C7EEB00006EEB0101B1F569
:10163000801F1BD3B1F5001F0CD349085FEA3000AF
:101640004FEA3C0C04F101044FEA445212F5800FBA
:1016500080F09A80BCF1004F08BF5FEA500C50F157
:10166000000041EB045141EA050130BD5FEA4C0C3A
:10167000404141EB0101013C28BFB1F5801FE9D297
:1016800091F0000F04BF01460020B1FA81F308BFBA
:101690002033A3F10B03B3F120020CDA0C3208DD86
:1016A00002F1140CC2F10C0201FA0CF021FA02F161
:1016B0000CE002F11402D8BFC2F1200C01FA02F1D1
:1016C00020FA0CFCDCBF41EA0C019040E41AA2BFF6
:1016D00001EB0451294330BD6FEA04041F3C1CDABE
:1016E0000C340EDC04F11404C4F1200220FA04F0DE
:1016F00001FA02F340EA030021FA04F345EA030188
:1017000030BDC4F10C04C4F1200220FA02F001FA49
:1017100004F340EA0300294630BD21FA04F02946CB
:1017200030BD94F0000F83F4801306BF81F4801164
:101730000134013D4EE77FEA645C18BF7FEA655CD7
:1017400029D094EA050F08BF90EA020F05D054EAA9
:10175000000C04BF1946104630BD91EA030F1EBFAE
:101760000021002030BD5FEA545C05D140004941B2
:1017700028BF41F0004130BD14F580043CBF01F5A5
:10178000801130BD01F0004545F0FE4141F470018B
:101790004FF0000030BD7FEA645C1ABF1946104666
:1017A0007FEA655C1CBF0B46024650EA013406BF67
:1017B00052EA033591EA030F41F4002130BD00BF26
:1017C00090F0000F04BF0021704730B54FF48064E3
:1017D00004F132044FF000054FF0000150E700BF64
:1017E00090F0000F04BF0021704730B54FF48064C3
:1017F00004F1320410F0004548BF40424FF00001B0
:101800003EE700BF42004FEAE2014FEA31014FEAF2
:1018100002701FBF12F07F4393F07F4F81F0605141
:10182000704732F07F4208BF704793F07F4F04BF8C
:1018300041F40021704730B54FF4607401F0004569
:1018400021F000411CE700BF50EA010208BF7047C9
:1018500030B54FF000050AE050EA010208BF7047BA
:1018600030B511F0004502D5404261EB41014FF423
:10187000806404F132045FEA915C3FF4D8AE4FF02B
:1018800003025FEADC0C18BF03325FEADC0C18BF0E
:10189000033202EBDC02C2F1200300FA03FC20FA5F
:1018A00002F001FA03FE40EA0E0021FA02F11444AC
:1018B000BDE600BF7BB972B90029BEBF00204FF062
:1018C000004106E008BF00281CBF6FF000414FF048
:1018D000FF3000F031BAADF1080C6DE904CE0029FB
:1018E00009DB002B1ADB00F083F8DDF804E0DDE90A
:1018F000022304B07047404261EB4101002B1BDB27
:1019000000F076F8DDF804E0DDE9022304B040429F
:1019100061EB4101524263EB43037047524263EB78
:10192000430300F065F8DDF804E0DDE9022304B0CC
:10193000404261EB41017047524263EB430300F0C8
:1019400057F8DDF804E0DDE9022304B0524263EB0E
:101950004303704753B94AB9002908BF00281CBF88
:101960004FF0FF314FF0FF3000F0E6B9ADF1080C59
:101970006DE904CE00F03CF8DDF804E0DDE9022377
:1019800004B0704707EE900AF5EEC07AF1EE10FA57
:1019900001D400F00DB8F1EE677A08B517EE900AA1
:1019A00000F006F8404261EB410108BD0000000074
:1019B00007EE100A9FED0A6BB7EEC77A9FED0A5B40
:1019C00027EE066BBCEEC66BB8EE464B16EE101A51
:1019D000A4EE457BFCEEC77B17EE900A704700BF74
:1019E000000000000000F03D000000000000F04199
:1019F0002DE9F04F099D884604468E46002B4AD1BA
:101A00008A4217465FD9B2FA82F64EB1C6F1200378
:101A100001FA06FEB740B44020FA03F343EA0E0E83
:101A20004FEA17481FFA87FC230CBEFBF8F108FBAE
:101A300011EE01FB0CF243EA0E439A4207D9FB1860
:101A400001F1FF3002D29A4200F2548101469B1A02
:101A5000A2B2B3FBF8F008FB103300FB0CFC42EA27
:101A6000034294450BD9BA1800F1FF332CBF01246F
:101A70000024944502D9002C00F03F81184640EA2A
:101A80000140A2EB0C0200211DB1F2400023C5E988
:101A90000023BDE8F08F8B4205D90DB1C5E90001E7
:101AA00000210846F5E7B3FA83F100294ED14345FA
:101AB000C0F01281824240F20F810846002DE8D02A
:101AC000C5E9004EE5E7002A00F0AC80B2FA82F6E4
:101AD000002E40F0BB808B1A4FEA124EBCB201219F
:101AE000020C80B2B3FBFEFC0EFB1C3342EA034344
:101AF00004FB0CF29A420ED9FB180CF1FF382CBFF4
:101B00004FF001094FF000099A4203D9B9F1000FD3
:101B100000F0EC80C4469B1AB3FBFEF80EFB1833B2
:101B200004FB08F440EA034294420BD9BA1808F1C6
:101B3000FF332CBF01200020944202D9002800F07E
:101B4000D1809846121B48EA0C409DE7C1F120065F
:101B50008B4008FA01F400FA01F922FA06F728FA94
:101B600006F88A401F4320FA06F3380C23431FFA75
:101B700087FC1C0CB8FBF0FE00FB1E8844EA0844FE
:101B80000EFB0CF8A0450ED93C190EF1FF3A2CBF04
:101B90004FF0010B4FF0000BA04503D9BBF1000F34
:101BA00000F0B880D646A4EB08041FFA83F8B4FB13
:101BB000F0F300FB134403FB0CFC48EA0444A44587
:101BC0000ED93C1903F1FF302CBF4FF001084FF044
:101BD0000008A44503D9B8F1000F00F09F80034628
:101BE00043EA0E40A4EB0C04A0FB02EC64457346F0
:101BF000E04602D307D1F14505D2BEEB02036CEB00
:101C0000070C0138E0465DB1B9EB030264EB080450
:101C100004FA06F622FA01F3CC401E43C5E900643B
:101C2000002136E7B1FBF2FC010C144680B2964667
:101C300041EA08412026904640EA01431046B1FBA4
:101C4000F2F1A3EB080341EA0C414BE7B740C6F1C0
:101C5000200301FA06F221FA03F84FEA174E20FAA0
:101C600003F3BCB2B0401343020C190C80B2B8FBB2
:101C7000FEF90EFB198841EA084109FB04F8884582
:101C800051D9791809F1FF3C2CBF4FF0010A4FF0F0
:101C9000000A884502D9BAF1000F31D0A1EB080142
:101CA000B1FBFEF909FB04F80EFB19119BB243EAE4
:101CB0000143434535D2FB1809F1FF312CBF4FF0EA
:101CC000010A4FF0000A4345BBD2BAF1000FB8D168
:101CD000A9F102013B44B4E7841A68EB0302012036
:101CE0009646EBE63A44A8F102082BE7ACF1020C69
:101CF0003B4410E702393B44A9E63A440238BEE6C9
:101D0000A7EB0808A9F1020C4144B1FBFEF909FB5D
:101D100004F8C9E7AEF1020E3C4444E7023B3C4400
:101D20005EE749468DE7A1EB0801CC46B1FBFEF921
:101D300009FB04F8B8E700BF704700BF80B594B056
:101D400000AFF860B9607A60002387F84730FB681D
:101D50005B68B3F5F07F03D8FB685B68BB6402E0A7
:101D60004FF4F073BB64FB685B68B3F5F07F03D896
:101D7000FB685B68FB6402E04FF4F073FB64FA6C91
:101D8000BB681A60BA6C7B681A60FB6C7B61BB6CC9
:101D9000BB610123FB6102233B6297F84730FB6282
:101DA00000237B620023BB6207F1100207F11403DA
:101DB0001946012023F094FB38643B6C002B05D0BE
:101DC000044B054A5A21054836F04AFB00BF5037FC
:101DD000BD4680BD20CD0334840F043430CD0334A0
:101DE00080B590B000AF7860002387F83F30802343
:101DF000FB6080233B6100237B610323BB6197F879
:101E00003F307B620123FB6100233B6207F10C033F
:101E10007A681946022023F063FBB863BB6B002B82
:101E200005D0054B054A7C21054836F019FB00BF5B
:101E30004037BD4680BD00BF20CD03349C0F043425
:101E400030CD033480B58CB000AFF860B9607A60F3
:101E500000237B610023BB611E23FB6100233B62E7
:101E600000237B620023BB6207F11403184623F0B2
:101E700063FBF862FB6A002B05D00A4B0A4A8C21EF
:101E80000A4836F0EDFA07F11403BA68F968184603
:101E9000FFF754FF7868FFF7A3FF00BF3037BD4658
:101EA00080BD00BF68CD0334B00F043430CD03349F
:101EB00080B584B000AF786039603A6879680120F5
:101EC00023F0D0FBF860FB68002B05D0044B054ADB
:101ED0009C21054836F0C4FA00BF1037BD4680BDCE
:101EE00068CD0334BC0F043430CD033480B584B0E6
:101EF00000AF786039603A687968022023F0B2FB5D
:101F0000F860FB68002B05D0044B054AA421054866
:101F100036F0A6FA00BF1037BD4680BD68CD033449
:101F2000D40F043430CD033480B582B000AF002329
:101F30007B6023F067FC78607B68002B05D0054B45
:101F4000054AB221054836F08BFA00BF0837BD4676
:101F500080BD00BF68CD0334E80F043430CD0334B6
:101F600080B483B000AF78607B68022B05D1064B4C
:101F70001B680133044A136000BF002318460C3766
:101F8000BD465DF8047B704744B20B3480B586B023
:101F900000AF214B7B607C237B6107F10C023B1D72
:101FA0007969184609F04CFC0346002B2ED14FF4FA
:101FB000C0333B61FA683B6913403A699A4227D0C3
:101FC000FA683B691343FB60FA68381D002379699E
:101FD00009F06EFC0346002B15D107F10C023B1DE6
:101FE0007969184609F02CFC0346002B08D1FA68E1
:101FF0003B6913403A699A420AD000F00FF807E0B3
:1020000000F00CF804E000F009F801E000F006F838
:1020100000BF1837BD4680BD0090005680B400AFA9
:1020200000BFFDE780B584B000AF78607B68BB601F
:10203000BB6880221A60BB6880225A60BB68062297
:102040009A60BB68184ADA60BB68184A1A61BB68B4
:102050004FF460725A61BB680A229A61BB68144AE5
:10206000DA6105F00BF80023FB6012E0FA68134612
:102070005B0013441B010F4A99180F48FA68134676
:102080005B001344DB00034414331960FB68013325
:10209000FB60FB68092BE9DDB86829F093F903467A
:1020A00018461037BD4680BD3333333F9A99993E69
:1020B000B0690E3420B00B3430AF0B3480B588B02B
:1020C00000AFF860B9607A603B60BB68022B05D056
:1020D0000E4B0F4A20210F4836F0C2F97B68FB6196
:1020E000FB681B687B61FB685B68BB61FB690A4A34
:1020F0001A6007F114033A68F969184629F06DF976
:10210000034618462037BD4680BD00BF80CD03344E
:10211000F80F043490CD033430AF0B3480B588B061
:1021200000AFF860B9607A607B80FB687B61BB6858
:10213000FB617B88BA8D02FB03F33B610023BB612B
:1021400011E0BB697A6802FB03F37A6913443A69C8
:102150001946F86937F021FEFA693B691344FB61BF
:10216000BB690133BB613B8DBA699A42E9D300BFB9
:1021700000BF2037BD4680BD80B487B000AFF86097
:10218000B9607A607B804FF070533B6100237B61C4
:1021900018E07B69FA6813441B7807EE903AB8EEB2
:1021A000677AD7ED047A67EE277A7B699B00BA6875
:1021B0001344B7EE007A77EEC77AC3ED007A7B69F5
:1021C00001337B617B887A8803FB02F213465B0054
:1021D00013447A699A42DCDB00BF00BF1C37BD465E
:1021E0005DF8047B704780B598B000AFF862B962C3
:1021F00011461A4687ED080AC7ED070A87ED061A49
:10220000C7ED051A87ED042AC7ED032A87ED023AC8
:10221000C7ED013A0B46FB841346BB8497ED017A68
:10222000D7ED037A77EE676A97ED027AD7ED047AF5
:1022300077EE677AF0EE670AB0EE660A39F06CFB6B
:10224000F0EE407AF1EE677AC7ED137A97ED130A54
:102250003AF03EFA87ED120A97ED130A3AF074F954
:1022600087ED110A0023A7F85E30F8E0B7F85E307A
:1022700007EE903AF8EE677AB6EE007A77EE876A64
:10228000B7F86C3007EE903AB8EEE77AC6EE877A88
:10229000B6EE007A77EEC77AC7ED107A0023A7F87A
:1022A0005C30D0E0B7F85C3007EE903AF8EE677A31
:1022B000B6EE007A77EE876AB7F8683007EE903AA4
:1022C000B8EEE77AC6EE877AB6EE007A77EEC77A8E
:1022D000C7ED0F7A97ED0F7AD7ED067A27EE277ABA
:1022E000D7ED127A27EE277AD7ED087A37EE277ADC
:1022F000D7ED106AD7ED057A66EEA76AD7ED117AA9
:1023000066EEA77A77EE277AC7ED167A97ED107A00
:10231000D7ED057A27EE277AD7ED127A27EE277ABE
:10232000D7ED077A37EE277AD7ED0F6AD7ED067A21
:1023300066EEA76AD7ED117A66EEA77A77EE677A2E
:10234000C7ED157AD7ED167AF5EEC07AF1EE10FAF0
:1023500002D54FF00003BB65FB8C07EE903AF8EE18
:10236000E77A97ED167AB4EEE77AF1EE10FA07DB2A
:10237000FB8C013B07EE903AF8EEE77AC7ED167A50
:10238000D7ED157AF5EEC07AF1EE10FA02D54FF0DE
:1023900000037B65BB8C07EE903AF8EEE77A97ED89
:1023A000157AB4EEE77AF1EE10FA07DBBB8C013B4D
:1023B00007EE903AF8EEE77AC7ED157AD7ED157A81
:1023C000FCEEE77A17EE902AFB8C02FB03F3D7EDC5
:1023D000167AFCEEE77A17EE902A1344B7F87020CD
:1023E00002FB03F3FA6A1344BB63B7F85E30B7F835
:1023F000682003FB02F2B7F85C301344B7F8702092
:1024000002FB03F3BA6A13447B630023A7F852303C
:102410000EE0B7F85230BA6B1A44B7F85230796B05
:102420000B4412781A70B7F852300133A7F85230C3
:10243000B7F85220B7F870309A42EAD3B7F85C3058
:102440000133A7F85C30B7F85C20B7F868309A42DF
:10245000FFF428AFB7F85E300133A7F85E30B7F865
:102460005E20B7F86C309A42FFF400AF00BF00BFA7
:102470006037BD4680BD000090B58BB002AF78607C
:102480003960854B1868844B5968834B9A68824B36
:10249000DB680024009428F0FBF80023FB61F1E0E6
:1024A000FA6913465B001344DB001A467B68134449
:1024B00093ED017AFA6913465B001344DB001A4678
:1024C0007B681344D3ED036AB0EE006AC6EE867AE9
:1024D00037EE677A714B9B6807EE903AF8EE677AB1
:1024E00067EE277AFCEEE77A17EE902A6B4B1B68B3
:1024F0001344BB61FA6913465B001344DB001A46C0
:102500007B68134493ED027AFA6913465B00134427
:10251000DB001A467B681344D3ED046AB0EE006A10
:10252000C6EE867A37EE677A5C4BDB6807EE903A48
:10253000F8EE677A67EE277AFCEEE77A17EE903AC4
:102540007B61FA6913465B001344DB001A467B6823
:10255000134493ED037A514B9B6807EE903AF8EEE3
:10256000677A67EE277AFCEEE77A17EE903A3B61DE
:10257000FA6913465B001344DB001A467B68134478
:1025800093ED047A454BDB6807EE903AF8EE677AF4
:1025900067EE277AFCEEE77A17EE903AFB603F4B46
:1025A0001A683E4B9B681344BA699A4206D33B4B68
:1025B0001A683A4B9B681344013B00E0BB69BB615E
:1025C000364B5A68354BDB6813447A699A4206D316
:1025D000324B5A68314BDB681344013B00E07B69A6
:1025E0007B61BA693B691A442C4B19682B4B9B6879
:1025F0000B449A4208D3294B1A68284B9B681A440B
:10260000BB69D31A013B00E03B693B617A69FB6817
:102610001A44224B5968214BDB680B449A4208D379
:102620001E4B5A681D4BDB681A447B69D31A013B69
:1026300000E0FB68FB604FF0FF230093FB683A6902
:102640007969B86927F0FAFFBB695A423B69D01A29
:10265000FA6913465B001344DB001A467B68134497
:10266000D3ED007A9FED0E7A67EE877AB7EEE77AC0
:102670008DED007B0B4B0222796904F049FDFB696B
:102680000133FB61FA693B689A42FFF409AF00BF6E
:1026900000BF2437BD4690BD54A50B3444A50B3470
:1026A0000000C842D0CD033480B588B000AFF860D8
:1026B000B9607A600023FB616FE00023BB6165E0D5
:1026C000FA6913465B001344DB001A46FB681344A7
:1026D0005A69BB69DB00134493ED007A334B9B6866
:1026E00007EE903AF8EE677A67EE277AFCEEE77A23
:1026F00017EE902A2D4B1B6813447B61FA69134631
:102700005B001344DB001A46FB6813445A69BB693B
:10271000DB00134493ED017A244BDB6807EE903A1B
:10272000F8EE677A67EE277AFCEEE77A17EE903AD2
:102730003B611E4B1A681D4B9B6813447A699A4291
:1027400006D31A4B1A68194B9B681344013B00E0EF
:102750007B697B61154B5A68144BDB6813443A69FB
:102760009A4206D3114B5A68104BDB681344013B65
:1027700000E03B693B617B699BB23A6991B20C4ACC
:10278000184627F0DFFDBB690133BB61BA697B687E
:102790009A4295D3FB690133FB61FA69BB689A429F
:1027A0008BD300BF00BF2037BD4680BD44A50B348E
:1027B0000000FFFF80B586B000AF78601D4B7B61E5
:1027C0001D4B3B613B69002B1DDD7B6903F01F0244
:1027D0003B691344FB607B69BB60BFF34F8F00BF55
:1027E000164ABB68C2F85C32BB682033BB60FB682A
:1027F000203BFB60FB68002BF2DCBFF34F8F00BF78
:10280000BFF36F8F00BF00BF0D4B99680C4BDA68A8
:102810000223084804F06EFA0A4B1B685A1C094947
:102820000A601946786804F049FB00BF1837BD46B6
:1028300080BD00BF0070179100B80B0000ED00E0F4
:1028400044A50B341CB20B3480B586B002AFF860DF
:10285000B9607A604FF0804027F03CFC27F062FCC2
:102860000346DB885B001946FB680093184B012286
:10287000002004F04DFC27F055FC0346DB881A4687
:1028800013469B0013449B001946BB680093114BF1
:102890000122002004F03CFC27F044FC0346DB88C6
:1028A0001A4613465B001344DA00D31A19467B68B4
:1028B0000093094B0122002004F02AFC002027F09D
:1028C00009FC00F0D3F800BF1037BD4680BD00BF43
:1028D000D8CD0334E4CD0334F4CD033480B586B0D1
:1028E00000AFF860B9607A60254B1B68254A02FB8F
:1028F00003F3254A134401221946244810F0F4F842
:1029000003467B617B69002B05D0214B214A78214E
:10291000214835F0A5FDFB681A68FB685B6819461D
:102920001046FFF7A9FDFB681868FB685B68062284
:102930001946FFF7B9FEF868FFF73CFFFB685B68D4
:102940007A68B9681846FFF77FFF012202210F4815
:1029500010F086F803467B617B69002B05D00C4B99
:102960000C4A82210C4835F07BFD054B1B68C3F1F6
:102970000103034A136000BF1837BD4680BD00BF86
:1029800000B20B3400B80B0000000091CCAD0E3447
:1029900004CE03340C10043414CE033480B500AFDD
:1029A0000121002006F032FC294B1B68294A1360E4
:1029B000274B5B68274A9360254B1A68244B9B681A
:1029C0001344244A5360224B5A68214BDB6813445A
:1029D000204AD3601F4B02221A611F4A1D4B5A61C5
:1029E0001C4A0021002006F0C5FD1C4B1B68194A3B
:1029F00013601A4B5B68174A9360184B1A68174BA1
:102A00009B681344134A5360144B5A68134BDB689A
:102A10001344104AD3600F4B04221A61104A0D4B25
:102A20005A610C4A0121002006F0A4FD0D4827F050
:102A3000A3FA012027F0F6FA002027F0F1FC0A485B
:102A400027F05CFB4FF0FF3027F030FB00BF80BD6C
:102A500044A50B3404B20B340070179154A50B3409
:102A600000000091E8540B3444A90B3480B500AF4A
:102A7000214B1B68002B04D108F0B2FE03461E4A0E
:102A8000136008F0ADFE02461B4B1B68D31AB3F56A
:102A90007A6F2ED24FF0804027F01CFB27F042FBCC
:102AA0000346DB881B011946144B0122002004F069
:102AB0002FFB27F037FB0346DB881A4613461B0122
:102AC000134419460E4B0122002004F021FB27F08D
:102AD00029FB0346DB881A461346DB0013445B00E0
:102AE0001946084B0122002004F012FB002027F0B9
:102AF000F1FA00BF80BD00BF20B20B3454CE0334C6
:102B000068CE033484CE033480B584B002AF87ED41
:102B1000010A4FF0804027F0DDFA27F003FB03465F
:102B2000DB881A4613465B0013441946D7ED017A39
:102B3000B7EEE77A8DED007B054B0122002004F013
:102B4000E7FA002027F0C6FA00BF0837BD4680BD6F
:102B5000B0CE033480B582B000AF786039607A6857
:102B60003B6813441946786802F018F800BF08372C
:102B7000BD4680BD80B582B000AF786039607A68AC
:102B80003B6813441946786801F0C6FF00BF083758
:102B9000BD4680BD80B485B000AFF860B9607A6092
:102BA000032318461437BD465DF8047B704780B494
:102BB00083B000AF7860002318460C37BD465DF83F
:102BC000047B704780B485B000AFF860B9607A606C
:102BD000032318461437BD465DF8047B704780B464
:102BE00083B000AF7860002318460C37BD465DF80F
:102BF000047B704780B400AF01231846BD465DF8E2
:102C0000047B704780B400AF01231846BD465DF8D1
:102C1000047B704780B5B0B000AF786007F10C035B
:102C2000B4220021184636F029FE28233B73802366
:102C30003B6180237B610323BB610123FB614FF474
:102C400040433B624FF4C0637B620C23BB620423AE
:102C5000FB624FF440333B631D4B7B638023FB637C
:102C600080233B6403237B640123BB644FF4404314
:102C7000FB644FF4C0733B6503237B650123BB6595
:102C80004FF44043FB65134B3B66012387F86430E8
:102C90000123BB67104BC7F88C30012387F89030B5
:102CA0000123C7F8A4300D4BC7F8B830012387F8CB
:102CB000BC3007F10C0318462DF0B4FA4FF4404134
:102CC0000448FFF747FF00BFC037BD4680BD00BFC7
:102CD00000002E3400003134705B0272A05B02727F
:102CE00080B582B000AF78604FF4C0310348FFF781
:102CF00041FF00BF0837BD4680BD00BF0000313432
:102D000080B586B004AF78604FF4C0310F48FFF74C
:102D100031FF002100202AF099F80D4B19680D4B66
:102D20001B6807220392062202920B4A01920B4A69
:102D300000920B4A0B482BF0ADF84FF4C03103481A
:102D4000FFF708FF00BF0837BD4680BD00002E34E6
:102D500064A50B3468A50B346482053460820534A5
:102D600028820534F081053480B582B000AF7860E8
:102D70004FF4E0310348FFF7FDFE00BF0837BD46C2
:102D800080BD00BF00C02F3480B586B004AF78602E
:102D90004FF4E0310F48FFF7EDFE002100202AF04C
:102DA00055F80D4B19680D4B1B6802220392012246
:102DB00002920B4A01920B4A00920B4A0B482BF0ED
:102DC00069F84FF4E0310348FFF7C4FE00BF08374D
:102DD000BD4680BD008031346CA50B3470A50B342A
:102DE0001C83053418830534E0820534A882053439
:102DF00080B582B000AF78604FF400410348FFF720
:102E0000B9FE00BF0837BD4680BD00BF00802E342C
:102E100080B586B004AF78604FF400410F48FFF7EB
:102E2000A9FE002100202AF011F80D4B19680D4B66
:102E30001B6808220392042202920B4A01920B4A59
:102E400000920B4A0B482BF025F84FF40041034841
:102E5000FFF780FE00BF0837BD4680BD00002F345D
:102E600074A50B3478A50B34D4830534D083053492
:102E7000988305346083053480B582B000AF7860F4
:102E80004FF400410348FFF775FE00BF0837BD4609
:102E900080BD00BF00802E3480B586B004AF78605E
:102EA0004FF400410F48FFF765FE0021002029F094
:102EB000CDFF0D4B19680D4B1B68052203920322B1
:102EC00002920B4A01920B4A00920B4A0B482AF0DD
:102ED000E1FF4FF400410348FFF73CFE00BF083715
:102EE000BD4680BD00002F347CA50B3480A50B347B
:102EF0008C84053488840534508405341884053462
:102F000080B582B000AF78604FF410410348FFF7FE
:102F100031FE00BF0837BD4680BD00BF00002E3423
:102F200080B586B004AF78604FF410410F48FFF7CA
:102F300021FE0021002029F089FF0D4B19680D4B5F
:102F40001B6809220392022202920B4A01920B4A49
:102F500000920B4A0B482AF09DFF4FF410410348A2
:102F6000FFF7F8FD00BF0837BD4680BD00902E3446
:102F700084A50B3488A50B3444850534408505347D
:102F800008850534D084053480B582B000AF786000
:102F90004FF410410348FFF7EDFD00BF0837BD4671
:102FA00080BD00BF00202F3480B586B004AF7860AC
:102FB0004FF410410F48FFF7DDFD0021002029F0FC
:102FC00045FF0D4B19680D4B1B6800220392092227
:102FD00002920B4A01920B4A00920B4A0B482AF0CC
:102FE00059FF4FF410410348FFF7B4FD00BF083705
:102FF000BD4680BD004030348CA50B3490A50B3409
:10300000FC850534F8850534C0850534888505348C
:1030100080B582B000AF78604FF428410348FFF7D5
:10302000A9FD00BF0837BD4680BD00BF00A82E34F3
:1030300080B586B004AF78604FF428410F48FFF7A1
:1030400099FD0021002029F001FF0D4B19680D4B5F
:103050001B6800220392082202920B4A01920B4A3B
:1030600000920B4A0B482AF015FF4FF42841034801
:10307000FFF770FD00BF0837BD4680BD00502F34FC
:1030800094A50B3498A50B34B4860534B08605346A
:10309000788605344086053480B582B000AF78600C
:1030A0004FF440510348FFF765FD00BF0837BD46A8
:1030B00080BD00BF00302E3480B586B004AF78608C
:1030C0004FF440510F48FFF755FD0021002029F033
:1030D000BDFE0D4B19680D4B1B68042203920322A1
:1030E00002920B4A01920B4A00920B4A0B482AF0BB
:1030F000D1FE4FF440510348FFF72CFD00BF0837C5
:10310000BD4680BD00602E349CA50B34A0A50B34B9
:103110006C8705346887053430870534F8860534B4
:1031200080B582B000AF78604FF440510348FFF79C
:1031300021FD00BF0837BD4680BD00BF00302E34E2
:1031400080B586B004AF78604FF440510F48FFF768
:1031500011FD0021002029F079FE0D4B19680D4B5F
:103160001B6806220392052202920B4A01920B4A27
:1031700000920B4A0B482AF08DFE4FF44051034851
:10318000FFF7E8FC00BF0837BD4680BD00602E3465
:10319000A4A50B34A8A50B34248805342088053455
:1031A000E8870534B087053480B582B000AF786019
:1031B0004FF460510348FFF7DDFC00BF0837BD4600
:1031C00080BD00BF00002E3480B586B004AF7860AB
:1031D0004FF460510F48FFF7CDFC0021002029F08B
:1031E00035FE0D4B19680D4B1B6809220392022214
:1031F00002920B4A01920B4A00920B4A0B482AF0AA
:1032000049FE4FF460510348FFF7A4FC00BF0837A4
:10321000BD4680BD00382E34ACA50B34B0A50B34B0
:10322000DC880534D8880534A088053468880534DE
:1032300080B582B000AF78604FF460510348FFF76B
:1032400099FC00BF0837BD4680BD00BF00702E341A
:1032500080B586B004AF78604FF460510F48FFF737
:1032600089FC0021002029F0F1FD0D4B19680D4B60
:103270001B6809220392022202920B4A01920B4A16
:1032800000920B4A0B482AF005FE4FF460510348A8
:10329000FFF760FC00BF0837BD4680BD00E02E345C
:1032A000B4A50B34B8A50B34948905349089053442
:1032B000588905342089053480B582B000AF786024
:1032C0004FF480410348FFF755FC00BF0837BD4667
:1032D00080BD00BF00002E3480B586B004AF78609A
:1032E0004FF480410F48FFF745FC0021002029F0F2
:1032F000ADFD0D4B19680D4B1B6808220392072288
:1033000002920B4A01920B4A00920B4A0B482AF098
:10331000C1FD4FF480410348FFF71CFC00BF083794
:10332000BD4680BD00402E34BCA50B34C0A50B3477
:103330004C8A0534488A0534108A0534D889053406
:1033400080B582B000AF78604FF480410348FFF74A
:1033500011FC00BF0837BD4680BD00BF00802E3481
:1033600080B586B004AF78604FF480410F48FFF716
:1033700001FC0021002029F069FD0D4B19680D4B5F
:103380001B6801220392002202920B4A01920B4A0F
:1033900000920B4A0B482AF07DFD4FF48041034810
:1033A000FFF7D8FB00BF0837BD4680BD00102F34A3
:1033B000C4A50B34C8A50B34048B0534008B05342D
:1033C000C88A0534908A053480B582B000AF786031
:1033D0004FF490410348FFF7CDFB00BF0837BD46CF
:1033E00080BD00BF00002E3480B586B004AF786089
:1033F0004FF490410F48FFF7BDFB0021002029F05A
:1034000025FD0D4B19680D4B1B68082203920722FE
:1034100002920B4A01920B4A00920B4A0B482AF087
:1034200039FD4FF490410348FFF794FB00BF083784
:10343000BD4680BD00482E34CCA50B34D0A50B343E
:10344000BC8B0534B88B0534808B0534488B053430
:1034500080B582B000AF78604FF490410348FFF729
:1034600089FB00BF0837BD4680BD00BF00902E34E9
:1034700080B586B004AF78604FF490410F48FFF7F5
:1034800079FB0021002029F0E1FC0D4B19680D4B60
:103490001B6801220392002202920B4A01920B4AFE
:1034A00000920B4A0B482AF0F5FC4FF49041034878
:1034B000FFF750FB00BF0837BD4680BD00202F340A
:1034C000D4A50B34D8A50B34748C0534708C05341A
:1034D000388C0534008C053480B582B000AF78603C
:1034E0004FF4A0410348FFF745FB00BF0837BD4636
:1034F00080BD00BF00002E3480B586B004AF786078
:103500004FF4A0410F48FFF735FB0021002029F0C0
:103510009DFC0D4B19680D4B1B6809220392082274
:1035200002920B4A01920B4A00920B4A0B482AF076
:10353000B1FC4FF4A0410348FFF70CFB00BF083774
:10354000BD4680BD00502E34DCA50B34E0A50B3405
:103550002C8D0534288D0534F08C0534B88C053459
:1035600080B582B000AF78604FF4A0410348FFF708
:1035700001FB00BF0837BD4680BD00BF00A02E3450
:1035800080B586B004AF78604FF4A0410F48FFF7D4
:10359000F1FA0021002029F059FC0D4B19680D4B60
:1035A0001B6800220392092202920B4A01920B4AE5
:1035B00000920B4A0B482AF06DFC4FF4A0410348DF
:1035C000FFF7C8FA00BF0837BD4680BD00402F3462
:1035D000E4A50B34E8A50B34E48D0534E08D053407
:1035E000A88D0534708D053480B582B000AF786049
:1035F0004FF4B0410348FFF7BDFA00BF0837BD469E
:1036000080BD00BF00002E3480B586B004AF786066
:103610004FF4B0410F48FFF7ADFA0021002029F028
:1036200015FC0D4B19680D4B1B68082203920722ED
:1036300002920B4A01920B4A00920B4A0B482AF065
:1036400029FC4FF4B0410348FFF784FA00BF083764
:10365000BD4680BD00582E34ECA50B34F0A50B34CC
:103660009C8E0534988E0534608E0534288E053482
:1036700080B582B000AF78604FF4C0510348FFF7C7
:1036800079FA00BF0837BD4680BD00BF00982E34D0
:1036900080B586B004AF78604FF4C0510F48FFF793
:1036A00069FA0021002029F0D1FB0D4B19680D4B60
:1036B0001B6809220392072202920B4A01920B4ACD
:1036C00000920B4A0B482AF0E5FB4FF4C051034827
:1036D000FFF740FA00BF0837BD4680BD00182E3402
:1036E000F4A50B34F8A50B34548F0534508F0534F2
:1036F000188F0534E08E053480B582B000AF786055
:103700004FF460710548FFF735FA4FF460510448F3
:10371000FFF730FA00BF0837BD4680BD00182E34D1
:1037200000982E3480B5B0B000AF786007F10C037C
:10373000B4220021184636F0A1F82A233B73012356
:103740003B614FF460737B610123BB610123FB612B
:103750004FF460733B624FF460737B620123BB6282
:103760000123FB624FF460733B631F4B7B630123B8
:1037700087F838300123FB634FF460733B64012307
:103780007B640123BB644FF46073FB644FF460639C
:103790003B6504237B650423BB654FF46063FB65D5
:1037A000124B3B66012387F864300123BB67104B43
:1037B000C7F88C30012387F890300123C7F8A43074
:1037C0000C4BC7F8B830012387F8BC3007F10C0365
:1037D00018462CF0ADFE4FF460610448FFF7BAF9CB
:1037E00000BFC037BD4680BD00182E3400C02F3446
:1037F000805B0272B05B027280B584B002AF786009
:103800004FF460510C48FFF7B5F90021002029F072
:103810001DFB03230193022300930323074A022184
:1038200007482AF0FBFC4FF460510348FFF792F978
:1038300000BF0837BD4680BD00E02E3440900534FF
:10384000988F053480B5B0B000AF786007F10C03F5
:10385000B4220021184636F011F82A233B731023B6
:103860003B614FF460737B610123BB610123FB610A
:103870004FF460533B624FF460737B620123BB6281
:103880000123FB624FF460533B631F4B7B630123B7
:1038900087F838301023FB634FF460733B640123D7
:1038A0007B640123BB644FF46053FB644FF460639B
:1038B0003B6504237B650423BB654FF46043FB65D4
:1038C000124B3B66012387F864300123BB67104B22
:1038D000C7F88C30012387F890300123C7F8A43053
:1038E0000C4BC7F8B830012387F8BC3007F10C0344
:1038F00018462CF01DFE4FF460410448FFF72AF9EA
:1039000000BFC037BD4680BD00E02E3400002E341D
:10391000605B0272905B027280B582B000AF78602B
:103920004FF460410348FFF725F900BF0837BD4653
:1039300080BD00BF00E02E3480B400AF024B1846BB
:10394000BD465DF8047B70471C91053480B400AF20
:10395000024B1846BD465DF8047B7047B4940534AD
:1039600080B400AF024B1846BD465DF8047B70473B
:103970004495053480B400AF024B1846BD465DF84F
:10398000047B70472496053480B582B000AF786020
:1039900039607A683B6813441946786801F0FEF88C
:1039A00000BF0837BD4680BD80B582B000AF7860EB
:1039B00039607A683B6813441946786801F0ACF8BE
:1039C00000BF0837BD4680BD80B485B000AFF86049
:1039D000B9607A60032318461437BD465DF8047B4E
:1039E000704780B483B000AF7860002318460C376E
:1039F000BD465DF8047B704780B485B000AFF860C9
:103A0000B9607A60032318461437BD465DF8047B1D
:103A1000704780B483B000AF7860002318460C373D
:103A2000BD465DF8047B704780B400AF01231846A3
:103A3000BD465DF8047B704780B400AF0123184693
:103A4000BD465DF8047B704780B5B0B000AF7860CC
:103A500007F10C03B4220021184635F00FFF28238C
:103A60003B7370233B6170237B610323BB610123A4
:103A7000FB614FF413433B624FF4A8637B620C235A
:103A8000BB620423FB624FF413333B631D4B7B6328
:103A90007023FB6370233B6403237B640123BB64BB
:103AA0004FF41343FB644FF4A8733B6503237B651A
:103AB0000123BB654FF41343FB65134B3B660123A6
:103AC00087F864300123BB67104BC7F88C300123A3
:103AD00087F890300123C7F8A4300D4BC7F8B830F1
:103AE000012387F8BC3007F10C0318462CF09AFB31
:103AF0004FF413410448FFF747FF00BFC037BD46EE
:103B000080BD00BF00002E340072313490309971B6
:103B1000E030997180B582B000AF78604CF22041FE
:103B20000348FFF741FF00BF0837BD4680BD00BF17
:103B30000010313480B5ADF5087D00AF07F508738E
:103B4000A3F5077318602021E748FFF72DFF202118
:103B5000E648FFF729FF2021E548FFF725FF07F595
:103B60000873A3F5067318464FF406731A4600212E
:103B700035F084FE07F50873A3F5067301225A6039
:103B800007F50873A3F5067301229A6007F5087319
:103B9000A3F506734FF44442DA6007F50873A3F502
:103BA000067301221A6107F50873A3F506734FF433
:103BB00044425A6107F50873A3F506734FF4444273
:103BC0009A6107F50873A3F506734FF44442DA616E
:103BD00007F50873A3F5067301221A6207F5087347
:103BE000A3F506734FF444425A6207F50873A3F530
:103BF0000673C04A9A6207F50873A3F5067301229B
:103C000083F82C2007F50873A3F5067301221A63C5
:103C100007F50873A3F5067301225A6307F50873C5
:103C2000A3F5067380229A6307F50873A3F506735C
:103C30000122DA6307F50873A3F5067380221A647C
:103C400007F50873A3F5067380225A6407F5087315
:103C5000A3F5067380229A6407F50873A3F506732B
:103C60000122DA6407F50873A3F5067380221A654A
:103C700007F50873A3F506739F4A5A6507F508739D
:103C8000A3F50673012283F8582007F50873A3F5FE
:103C900006730122DA6507F50873A3F5067301229E
:103CA0001A6607F50873A3F506734FF444425A6683
:103CB00007F50873A3F5067380229A6607F5087363
:103CC000A3F506734FF4C402DA6607F50873A3F58B
:103CD00006734FF444421A6707F50873A3F5067399
:103CE0004FF444425A6707F50873A3F5067301229F
:103CF0009A6707F50873A3F506734FF44442DA6731
:103D000007F50873A3F506734FF0E242C3F880206D
:103D100007F50873A3F50673012283F8842007F5DD
:103D20000873A3F506730122C3F8882007F508730A
:103D3000A3F506730122C3F88C2007F50873A3F5D9
:103D400006736E4AC3F8902007F50873A3F506734F
:103D50000122C3F8942007F50873A3F50673674A98
:103D6000C3F8982007F50873A3F50673634AC3F8F0
:103D70009C2007F50873A3F50673604AC3F8A020DA
:103D800007F50873A3F506730122C3F8A42007F50D
:103D90000873A3F50673594AC3F8A82007F50873FA
:103DA000A3F50673564AC3F8AC2007F50873A3F5CC
:103DB0000673012283F8B02007F50873A3F5067394
:103DC0000122C3F8B42007F50873A3F50673012296
:103DD000C3F8B82007F50873A3F506738022C3F86B
:103DE000BC2007F50873A3F506730122C3F8C020B1
:103DF00007F50873A3F506738022C3F8C42007F5FE
:103E00000873A3F506734FF40072C3F8C82007F5D2
:103E10000873A3F506730422C3F8CC2007F50873D2
:103E2000A3F506730422C3F8D02007F50873A3F5A1
:103E300006734FF40072C3F8D42007F50873A3F596
:103E40000673304AC3F8D82007F50873A3F5067344
:103E5000012283F8DC2007F50873A3F5067301221D
:103E6000C3F8F02007F50873A3F50673264AC3F8D4
:103E7000042107F50873A3F506730122C3F81C217A
:103E800007F50873A3F50673204AC3F8302107F538
:103E90000873A3F50673012283F8342107F508732C
:103EA000A3F506730122C3F8482107F50873A3F5AB
:103EB0000673174AC3F85C2107F50873A3F5067368
:103EC0000122C3F8742107F50873A3F50673114A9C
:103ED000C3F8882107F50873A3F50673012283F858
:103EE0008C2107F5087317E00010313400D4313409
:103EF00080D431341010313410D431340310030025
:103F000000002E34602E997170309971C030997113
:103F100060309971B0309971A3F506730122C3F82E
:103F2000A02107F50873A3F506732A4AC3F8B42144
:103F300007F50873A3F506730122C3F8CC2107F532
:103F40000873A3F50673244AC3F8E02107F5087344
:103F5000A3F50673012283F8E42107F50873A3F59E
:103F600006730122C3F8E82107F50873A3F5067369
:103F70000122C3F8FC2107F50873A3F5067301229B
:103F8000C3F8002207F50873A3F506730122C3F8EE
:103F90000C2207F50873A3F506730122C3F810225B
:103FA00007F50873A3F50673052283F8142207F1B9
:103FB000080318462CF042FC08490948FFF7E4FCC6
:103FC000A0210848FFF7E0FC00BF07F50877BD46D1
:103FD00080BD00BF80309971D030997120100300EE
:103FE00000002E3400D4313480B5B0B000AF78601A
:103FF00007F10C03B4220021184635F03FFC2A23B8
:104000003B7301233B6101237B618023BB6101235F
:10401000FB6180233B6280237B620123BB6201231F
:10402000FB6280233B631E4B7B63012387F83830A0
:104030000123FB6301233B6480237B640123BB6476
:104040008023FB644FF400733B6504237B650423EA
:10405000BB654FF40073FB65124B3B66012387F889
:1040600064300123BB67104BC7F88C30012387F8FD
:1040700090300123C7F8A4300C4BC7F8B8300123A7
:1040800087F8BC3007F10C0318462CF051FA4FF4B6
:1040900000710448FFF778FC00BFC037BD4680BD03
:1040A00010D4313400002E34A0309971F030997161
:1040B00080B400AF024B1846BD465DF8047B7047E4
:1040C000E8E50A3480B400AF024B1846BD465DF8FF
:1040D000047B704774E60A3480B400AF024B184684
:1040E000BD465DF8047B704704E70A3480B400AF36
:1040F000024B1846BD465DF8047B70478CE70A34D6
:1041000080B588B000AFF860B9607A604FF0000306
:10411000FB614FF00003BB614FF000037B610023A4
:104120003B613EE03B699B00FA68134493ED007AE3
:104130003B699B00BA681344D3ED007A67EE277A97
:1041400097ED077A77EE277AC7ED077A3B699B00F0
:10415000FA68134493ED007A3B699B00FA681344B4
:10416000D3ED007A67EE277A97ED067A77EE277A15
:10417000C7ED067A3B699B00BA68134493ED007A59
:104180003B699B00BA681344D3ED007A67EE277A47
:1041900097ED057A77EE277AC7ED057A3B6901330B
:1041A0003B613A697B689A42BCD3D7ED067AF5EE5B
:1041B000407AF1EE10FA06D0D7ED057AF5EE407AA6
:1041C000F1EE10FA02D1DFED0D6A0FE097ED067AFD
:1041D000D7ED057A67EE277AB0EE670A37F09EFBD7
:1041E000B0EE407AD7ED077AC7EE876AF0EE667ACE
:1041F000B0EE670A2037BD4680BD00BF000000005A
:1042000080B485B000AF7860074A7B68C2F84C3A4A
:10421000054BD3F84C32FB60FB6800BF1437BD463A
:104220005DF8047B704700BF0080025680B485B003
:1042300000AF7860074A7B68C2F8603A054BD3F854
:104240006032FB60FB6800BF1437BD465DF8047B3D
:10425000704700BF0080025680B483B000AF786022
:10426000044A7B68C2F8203A00BF0C37BD465DF8AF
:10427000047B70470080025680B483B000AF786042
:10428000064B03F580531A467B68C2F8203200BF04
:104290000C37BD465DF8047B704700BF00800256B6
:1042A00080B483B000AF7860064B1B6A23F44032C1
:1042B00004497B6813430B6200BF0C37BD465DF8B1
:1042C000047B70470080025680B483B000AF7860F2
:1042D000064B1B6A23F0407204497B6813430B6250
:1042E00000BF0C37BD465DF8047B70470080025666
:1042F00080B485B000AF78607B681B7D002B05D053
:104300007B685B68FB60FB681B6801E07B685B683F
:1043100018461437BD465DF8047B704780B582B0FF
:1043200000AF78607868FFF7E3FF02467B689B6820
:10433000134418460837BD4680BD80B483B000AF33
:1043400078607B68DA687B689B68D31A18460C37FC
:10435000BD465DF8047B704780B582B000AF7860E1
:104360007A6807490748FDF76DFDFEF717FB002146
:104370000548FDF79DFD00BF0837BD4680BD00BF65
:1043800050A50B344CA50B340070179180B58CB040
:1043900002AF78603960FDF7C7FD3B68B3F5C07FB9
:1043A00004D004213848FDF7A1FD03E0042178681A
:1043B000FDF79CFD00BF354B1B68002BFBD0334B3A
:1043C00000221A603B68B3F5C07F31D02E4B7B6270
:1043D0004CF220033B623B6A002B1DDD7B6A03F03D
:1043E0001F023B6A1344FB617B6ABB61BFF34F8FC3
:1043F00000BF274ABB69C2F85C32BB692033BB618E
:10440000FB69203BFB61FB69002BF2DCBFF34F8FA4
:1044100000BFBFF36F8F00BF00BF03230193802352
:10442000009380233A6879681748FDF777FE26E005
:104430007B687B614FF440433B613B69002B1DDD92
:104440007B6903F01F023B691344FB607B69BB601F
:10445000BFF34F8F00BF0E4ABB68C2F85C32BB6827
:104460002033BB60FB68203BFB60FB68002BF2DC69
:10447000BFF34F8F00BFBFF36F8F00BF00BF00239C
:1044800018462837BD4680BD80B20B3444B20B3489
:1044900000ED00E080B584B000AFF860B9607A60EC
:1044A0007A68B968F868FEF719FA00BF1037BD4698
:1044B00080BD000080B5BAB004AF6C4B1B686B4A7E
:1044C00043F4005313600020FFF7EAFE0020FFF7DB
:1044D000FBFE07F01FF9664B5B6903F40033002B0A
:1044E0001BD1BFF34F8F00BFBFF36F8F00BF604B77
:1044F0000022C3F85022BFF34F8F00BFBFF36F8F6E
:1045000000BF5B4B5B695A4A43F400335361BFF30E
:104510004F8F00BFBFF36F8F00E000BF534B1B688E
:10452000524A43F480531360514B5B6903F4803368
:10453000002B3FD14E4B0022C3F88420BFF34F8F96
:1045400000BF4B4BD3F88030C7F88430D7F88430A5
:104550005B0BC3F30E03C7F88030D7F88430DB0859
:10456000C3F30903FB67D7F880305A0143F6E073C1
:104570001340FA6F92073E491343C1F86032FB6F54
:104580005A1EFA67002BEED1D7F880305A1EC7F8B2
:104590008020002BE1D1BFF34F8F00BF344B5B690C
:1045A000334A43F480335361BFF34F8F00BFBFF3EF
:1045B0006F8F00E000BF03F073F802F085FFFDF796
:1045C000E5FC02F0FFFF02F003FB002006F010F80C
:1045D000002006F0DBF8012387F83830012387F844
:1045E000393007F138031946002005F01FFE00207E
:1045F00005F006FF02F0EEFF03F042F802F0ACFF18
:104600002BF0D4FAFFF7A2F9C7F8C800FFF7A8F912
:10461000C7F8C400D7F8C800FFF780FE0346154A64
:1046200013600023C7F8D43004E0D7F8D430013346
:10463000C7F8D430D7F8D4201346DB009B1ADB0030
:104640001A46D7F8C43013441B68002BEDD1D7F8B5
:10465000D430052B05DD084B084AF921084833F012
:10466000FFFE0023C7F8D0303CE000BF00E001E0CF
:1046700000ED00E048B20B3490E50334BC070B3486
:10468000B4E50334D7F8D0201346DB009B1ADB00D7
:104690001A46D7F8C43013441846FFF73FFE0246C7
:1046A000D7F8D0309B00D8333B4443F8B42CD7F82C
:1046B000D0201346DB009B1ADB001A46D7F8C43023
:1046C00013441846FFF739FE03461A46D7F8D03090
:1046D0009B00D8333B4443F8C82CD7F8D030013383
:1046E000C7F8D030D7F8D020D7F8D4309A42C9DBF9
:1046F000D7F8C800FFF721FEC7F8C0000023FB6011
:10470000FFF7E0FCC7F8BC00FFF7E6FCC7F8B8000D
:10471000D7F8BC00FFF702FE0346BB4A1360D7F888
:10472000B800FFF7FBFD0346B84A1360D7F8BC009A
:10473000FFF703FE0346B64A1360D7F8B800FFF749
:10474000FCFD0346B34A1360B348FDF76BFC07F169
:104750000C031846FFF700FE3B4600221A605A6021
:104760009A60FB681946AD48FFF710FE0346002B20
:1047700040F0AE81AA4B19688023009380234FF448
:10478000C072A648FDF7F8FCA54B1A68D7F8C030F0
:10479000BA677B677B6F002B1DDDBB6F03F01F02C9
:1047A0007B6F13443B67BB6FFB66BFF34F8F00BF4C
:1047B0009C4AFB6EC2F87032FB6E2033FB663B6F87
:1047C000203B3B673B6F002BF2DCBFF34F8F00BFFA
:1047D000BFF36F8F00BF00BF07F002F803463B60D6
:1047E00091482AF0B9FC07F124008B4B8F4AD7F887
:1047F000D410FDF763FCC7F8B4008C4B5B68002B4A
:1048000000F0E080894B1B68C7F8B030D7F8B030B3
:10481000D3ED017A9FED867A67EE877AC7ED2B7A22
:10482000D7F8B030D3ED027A9FED817A67EE877AC0
:10483000C7ED2A7AD7F8B030D3ED037A9FED7C7AB2
:1048400067EE877AC7ED297AD7F8B030D3ED047ACE
:104850009FED777A67EE877AC7ED287AD7F8B03080
:104860005B69D3ED007A9FED727A67EE877AC7EDC8
:10487000277AD7F8B0305B69D3ED017A9FED6C7A77
:1048800067EE877AC7ED267AD7F8B0305B690833D0
:10489000D3ED007A9FED667A67EE877AC7ED257AC9
:1048A000D7F8B0305B690833D3ED017A9FED607AB9
:1048B00067EE877AC7ED247A03230293702301936E
:1048C00070230093D7ED243A97ED253AD7ED262AA9
:1048D00097ED272AD7ED281A97ED291AD7ED2A0A3E
:1048E00097ED2B0A8023802252494C48FDF77BFC30
:1048F000454B19687023009370234FF4A8724D48FC
:10490000FDF73AFC404B1B68414A1268BB657A656B
:104910007B6D002B1DDDBB6D03F01F027B6D13440F
:104920003B65BB6DFB64BFF34F8F00BF3D4AFB6C23
:10493000C2F87032FB6C2033FB643B6D203B3B655F
:104940003B6D002BF2DCBFF34F8F00BFBFF36F8FC7
:1049500000BF00BF38482AF0FFFB2C4B1B682D4AD4
:104960001268BB667A667B6E002B1DDDBB6E03F0A2
:104970001F027B6E13443B66BB6EFB65BFF34F8F1C
:1049800000BF284AFB6DC2F85C32FB6D2033FB652B
:104990003B6E203B3B663B6E002BF2DCBFF34F8F40
:1049A00000BFBFF36F8F00BF00BF184B1B68802292
:1049B00022491846FFF7A4FB87ED230A97ED230A47
:1049C000FEF7A2F806F00CFF03467B60BB68002BE5
:1049D00003D106F005FF0346BB60D7F8B430002BC7
:1049E00006D0174B174A40F24511174833F038FDEF
:1049F0007A683B68D31ABA6819460C48FFF74AFD33
:104A00000023C7F8CC305CE04CB20B3450B20B340E
:104A10005CB20B3460B20B3424B20B340028239107
:104A200048B20B3400ED00E0FCA50B3454B20B345B
:104A30000000004300E823912CA60B346CA60B3435
:104A4000E8E50334BC070B34B4E50334D7F8CC30C5
:104A50009B00D8333B4453F8B43CC7F88830D7F8B0
:104A6000CC309B00D8333B4453F8C83CD7F888205F
:104A7000BA647B647B6C002B1DDDBB6C03F01F02F2
:104A80007B6C13443B64BB6CFB63BFF34F8F00BF75
:104A9000104AFB6BC2F85C32FB6B2033FB633B6C50
:104AA000203B3B643B6C002BF2DCBFF34F8F00BF1D
:104AB000BFF36F8F00BF00BFD7F8CC300133C7F80A
:104AC000CC30D7F8CC20D7F8D4309A42BEDB48E6B9
:104AD00000BF46E600ED00E080B582B000AF786030
:104AE0004FF48060FFF78CFB4FF08040FFF79EFB98
:104AF0004FF08040FFF7B0FB4FF08040FFF7BCFB6A
:104B000000BF0837BD4680BD80B483B000AF786079
:104B1000396000BE00BFFDE780B487B000AF7860A9
:104B200039601D4B5B6903F48033002B01D00123F6
:104B300000E00023002B27D07B6839687A688A1A46
:104B40007B613A613B69002B1DDD7B6903F01F022D
:104B50003B691344FB607B69BB60BFF34F8F00BFB1
:104B60000D4ABB68C2F85C32BB682033BB60FB688F
:104B7000203BFB60FB68002BF2DCBFF34F8F00BFD4
:104B8000BFF36F8F00BF00BF002318461C37BD4620
:104B90005DF8047B704700BF00ED00E080B487B093
:104BA00000AF786039601D4B5B6903F48033002BE4
:104BB00001D0012300E00023002B27D07B68396857
:104BC0007A688A1A7B613A613B69002B1DDD7B693B
:104BD00003F01F023B691344FB607B69BB60BFF3BA
:104BE0004F8F00BF0D4ABB68C2F86832BB682033E4
:104BF000BB60FB68203BFB60FB68002BF2DCBFF373
:104C00004F8F00BFBFF36F8F00BF00BF0023184658
:104C10001C37BD465DF8047B704700BF00ED00E027
:104C200080B487B000AF786039601D4B5B6903F4D6
:104C30008033002B01D0012300E00023002B27D07C
:104C40007B6839687A688A1A7B613A613B69002B14
:104C50001DDD7B6903F01F023B691344FB607B6928
:104C6000BB60BFF34F8F00BF0D4ABB68C2F8703204
:104C7000BB682033BB60FB68203BFB60FB68002BFC
:104C8000F2DCBFF34F8F00BFBFF36F8F00BF00BFD9
:104C9000002318461C37BD465DF8047B704700BFF3
:104CA00000ED00E080B500AF034B044A1A600248F3
:104CB00006F018FF00BF80BDA0720C3400FC0D5838
:104CC00080B582B000AF064806F042FF0346FB7194
:104CD000FB79022BF7D000BF00BF0837BD4680BD6F
:104CE000A0720C3480B485B000AFF860B9607A600F
:104CF000FB68BA681A60FB687A685A6000BF1437AC
:104D0000BD465DF8047B704780B582B000AF786027
:104D10000B46FB707B681B687A685068F91C01229F
:104D2000984700BF0837BD4680BD80B588B000AF4A
:104D3000F860B9607A603B60BB681B68FB617B68A8
:104D40001B68BB613B6802331B881A46BB6913446E
:104D5000BB613B681B881A46BB69C3F1180302FAA2
:104D600003F3FA691343FB6114E0FB691B14FB7541
:104D7000FB7D1946F868FFF7C7FFFB7DFF2B03D1CA
:104D80000021F868FFF7C0FFFB691B02FB61BB69EC
:104D9000083BBB61BB69072BE7DCBB68FA691A609B
:104DA0007B68BA691A6000BF2037BD4680BD00002D
:104DB00080B4A1B000AFF860B9607A603B60FB6876
:104DC0001B68FB67BB681B68BB677B681B687B67EE
:104DD0003B681B683B67D7F888301B68FB66D7F8D1
:104DE0008C301B68BB66D7F890301B687B66D7F8A1
:104DF00094301B683B6697ED1F7AD7ED187A77EEF3
:104E0000277AC7ED177A97ED1F7AD7ED187A77EEE4
:104E1000677AC7ED167A97ED1E7AD7ED197A77EE95
:104E2000277AC7ED157A97ED1E7AD7ED197A77EEC6
:104E3000677AC7ED147A97ED1D7AD7ED1A7A77EE77
:104E4000277AC7ED137A97ED1D7AD7ED1A7A77EEA8
:104E5000677AC7ED127A97ED1C7AD7ED1B7A77EE59
:104E6000277AC7ED117A97ED1C7AD7ED1B7A77EE8A
:104E7000677AC7ED107A97ED177AD7ED117A77EE4A
:104E8000277AC7ED0F7A97ED177AD7ED117A77EE7B
:104E9000677AC7ED0E7A97ED157AD7ED137A77EE2C
:104EA000277AC7ED0D7A97ED157AD7ED137A77EE5D
:104EB000677AC7ED0C7A97ED0F7AD7ED0D7A77EE1A
:104EC000277AC7ED1F7A97ED0F7AD7ED0D7A77EE37
:104ED000677AC7ED1B7A97ED0C7AD7ED0E7A77EEED
:104EE000277A9FED527A67EE877AC7ED0B7A97EDB6
:104EF0000E7AD7ED0B7A77EE277AC7ED1D7A97ED0C
:104F00000E7AD7ED0B7A77EE677AC7ED197A97EDBF
:104F1000107AD7ED127A77EE277AC7ED0F7A97EDF0
:104F2000127AD7ED147A77EE277AC7ED0D7A97EDDE
:104F3000147AD7ED167A77EE277AC7ED0C7A97EDCB
:104F40000F7AD7ED0C7A77EE677A9FED397A67EEB4
:104F5000877AC7ED0A7AD7ED0F7A9FED367A67EE3A
:104F6000877A97ED0A7A77EE277AC7ED097AD7ED37
:104F70000C7A9FED317A67EE877A97ED0A7A77EEB1
:104F8000277AC7ED087AD7ED0D7A9FED287A67EE7C
:104F9000877AC7ED077A97ED167AD7ED077A77EE1D
:104FA000277AC7ED067A97ED167AD7ED077A77EE6E
:104FB000677AC7ED057A97ED057AD7ED097A77EE2E
:104FC000277AD7F88C30C3ED007A97ED057AD7EDC4
:104FD000097A77EE677A3B68C3ED007A97ED067A37
:104FE000D7ED087A77EE277ABB68C3ED007A97EDA4
:104FF000067AD7ED087A77EE677AD7F89430C3ED62
:10500000007AFB68FA6F1A607B687A6F1A60D7F8CB
:105010008830FA6E1A60D7F890307A6E1A6000BF46
:105020008437BD465DF8047B704700BFF304353F0D
:1050300015EFC33ED48B0A3F753DA73F80B485B0C2
:1050400000AF786039607B68002BB8BF5B42FB60C3
:105050007B68002B02DA7B68013B00E07B687B60A9
:105060003B68023301221A8005E03B6802331A884C
:10507000013292B21A80FB685B10FB60FB68002B68
:10508000F3D13B6802331B881A46012393409BB23D
:10509000013B9BB21AB27B681BB213401BB29AB29F
:1050A0003B681A8000BF1437BD465DF8047B70472B
:1050B000F0B5DBB004AF07F5AC74A4F5A6742060BE
:1050C00007F5AC70A0F5A870016007F5AC71A1F50B
:1050D000AA710A6007F5AC72A2F5AC721360D7F83A
:1050E00080311B88A7F82031D7F880315B88A7F87A
:1050F0002231D7F8803103F570731B88A7F81C3173
:10510000D7F8803103F570735B88A7F81E31002350
:10511000C7F85431D7F87031DB00C7F8343161E09B
:10512000D7F854319B0007F5AC72A2F5AC72126847
:10513000D518D7F8543101339B0007F5AC72A2F5AE
:10514000AC721268D618D7F8543102339B0007F5B9
:10515000AC72A2F5AC72126802EB030CD7F85431B2
:1051600003339B0007F5AC72A2F5AC72126802EB38
:10517000030ED7F8543104339B0007F5AC72A2F547
:10518000AC7212681344D7F854210532920007F527
:10519000AC71A1F5AC7109680A44D7F85411063115
:1051A000890007F5AC70A0F5AC7000680144D7F831
:1051B00054010730800007F5AC74A4F5AC74246882
:1051C0002044039002910192009373466246314657
:1051D0002846FFF7EDFDD7F85421D7F87031134476
:1051E000C7F85431D7F85421D7F834319A4297DBB5
:1051F0000023C7F854317DE0D7F854319B0007F500
:10520000AC72A2F5AC721268D518D7F85421D7F851
:10521000703113449B0007F5AC72A2F5AC721268B2
:10522000D618D7F870315A00D7F8543113449B0080
:1052300007F5AC72A2F5AC72126802EB030CD7F85A
:10524000702113465B001A44D7F8543113449B0075
:1052500007F5AC72A2F5AC72126802EB030ED7F838
:1052600070319A00D7F8543113449B0007F5AC72A3
:10527000A2F5AC721268D118D7F8702113469B00C2
:105280001A44D7F8543113449B0007F5AC72A2F5C9
:10529000AC721268D018D7F8702113465B00134423
:1052A0005B001A46D7F8543113449B0007F5AC72E3
:1052B000A2F5AC721268D418D7F870211346DB003F
:1052C0009A1AD7F8543113449B0007F5AC72A2F533
:1052D000AC721268134403930294019000917346D8
:1052E000624631462846FFF763FDD7F85431013353
:1052F000C7F85431D7F85431072B7FF77DAF00231F
:10530000C7F840310023C7F84C315EE00023C7F8EE
:10531000443151E0D7F84031D7F8702102FB03F354
:10532000D7F844211344C7F85031D7F850319B00C7
:1053300007F5AC72A2F5AC721268134493ED007AD3
:10534000D7F84C319B00D7F874211344D3ED007A81
:1053500067EE277AC7ED497AD7ED497AF5EEC07A3C
:10536000F1EE10FA08D5D7ED497AB6EE007A77EE6D
:10537000C77AFDEEE77A07E0D7ED497AB6EE007A14
:1053800077EE877AFDEEE77AB84AD7F84C311344C6
:105390001B781A4607F5AC73A3F59E7317EE901AA7
:1053A00043F82210D7F844310133C7F84431D7F815
:1053B0004C310133C7F84C31D7F84431072BA9DD04
:1053C000D7F840310133C7F84031D7F84031072BC7
:1053D0009CDD07F5AC73A3F59E731A68D7F8783196
:1053E000D31AC7F83031D7F83031002B13D107F575
:1053F000AC73A3F5AA7207F5AC73A3F5A87107F512
:10540000AC73A3F5A670D7F87C3112680968006800
:10541000FFF78BFC33E007F118031946D7F830018A
:10542000FFF70CFE07F5AC73A3F5A0735B889B0038
:10543000D7F87C21134407F5AC72A2F5AA7207F5E0
:10544000AC71A1F5A87107F5AC70A0F5A670126853
:1054500009680068FFF769FC07F1180307F5AC72EB
:10546000A2F5AA7207F5AC71A1F5A87107F5AC70A9
:10547000A0F5A670126809680068FFF756FC3F2384
:10548000C7F8483104E0D7F84831013BC7F8483144
:10549000D7F84831002B09DD07F5AC73A3F59E73EF
:1054A000D7F8482153F82230002BECD0D7F84831F8
:1054B000002B18D107F5907307F5AC72A2F5AA720C
:1054C00007F5AC71A1F5A87107F5AC70A0F5A67051
:1054D000126809680068FFF728FC07F5AC73A3F5AC
:1054E0009E731B68BCE00123C7F8503195E0D7F8E4
:1054F0005031C7F82C3104E0D7F850310133C7F8E8
:10550000503107F5AC73A3F59E73D7F8502153F8CB
:105510002230002B05D1D7F85021D7F848319A42D4
:10552000EADDD7F85021D7F82C31D31AC7F83C312F
:10553000D7F83C310F2B2CDDD7F83C311B11C7F8C5
:1055400028310123C7F8383117E007F58E7307F5C6
:10555000AC72A2F5AA7207F5AC71A1F5A87107F5B6
:10556000AC70A0F5A670126809680068FFF7DDFB53
:10557000D7F838310133C7F83831D7F83821D7F8A0
:1055800028319A42E1DDD7F83C3103F00F03C7F828
:105590003C3107F5AC73A3F59E73D7F8502153F84F
:1055A000223007F1140211461846FFF747FDD7F8DD
:1055B0003C311B0107F5AC72A2F5A272528813446C
:1055C0009B00D7F88021134407F5AC72A2F5AA72AC
:1055D00007F5AC71A1F5A87107F5AC70A0F5A67040
:1055E000126809680068FFF7A0FB07F1140307F5CC
:1055F000AC72A2F5AA7207F5AC71A1F5A87107F516
:10560000AC70A0F5A670126809680068FFF78DFB02
:10561000D7F850310133C7F85031D7F85021D7F8B7
:1056200048319A427FF763AFD7F848313F2B12D009
:1056300007F5907307F5AC72A2F5AA7207F5AC7185
:10564000A1F5A87107F5AC70A0F5A67012680968FD
:105650000068FFF76AFB07F5AC73A3F59E731B6840
:10566000184607F5AE77BD46F0BD00BF1C080B34E9
:1056700090B5ADF58A5D85B006AF07F59C74A4F5CD
:105680009674206007F59C70A0F59870016007F58E
:105690009C71A1F59A710A6007F59C72A2F59C7243
:1056A000136007F58A5303F108031B68002B1BD016
:1056B00007F59C73A3F598731B68002B14D007F5AE
:1056C0009C73A3F59A731B68002B0DD007F59C7390
:1056D000A3F59C731B68042B06DC07F59C73A3F5EC
:1056E0009C731B68002B02DC002301F03BBA07F51A
:1056F0008A5303F10C031B68002B05D007F58A536E
:1057000003F10C031B6800E05A2307F58A5202F1EB
:105710000C02136007F58A5303F10C031B685A2B24
:10572000D4BF01230023DBB207F5885202F1040243
:10573000136007F58A5303F10C031B68002B08DD87
:1057400007F58A5303F10C031B68642BA8BF64237D
:1057500000E0012307F58A5202F10C02136007F5FD
:105760008A5303F10C031B68312B09DC41F28832A8
:1057700007F58A5303F10C031B6892FBF3F307E070
:1057800007F58A5303F10C031B68C3F164035B0044
:1057900007F58A5202F10C021360002307F58952C3
:1057A00002F10C02136090E0564A07F5895303F1A9
:1057B0000C031B6852F8233007F58A5202F10C02E1
:1057C000126802FB03F332334F4A82FB0312521179
:1057D000DB17D31A07F5855202F11802136007F59B
:1057E000855303F118031B68002B0FDD07F5855364
:1057F00003F118031B68FF2B06DC07F5855303F143
:1058000018031B68DBB202E0FF2300E001233F49DD
:1058100007F5895202F10C0212680A441278114607
:1058200007F5895202F11802A2F531725354384A31
:1058300007F5895303F10C031B6852F8233007F571
:105840008A5202F10C02126802FB03F332332E4A31
:1058500082FB03125211DB17D31A07F5855202F1AE
:105860001402136007F5855303F114031B68002B22
:105870000FDD07F5855303F114031B68FF2B06DCCE
:1058800007F5855303F114031B68DBB202E0FF2325
:1058900000E001231D4907F5895202F10C0212684C
:1058A0000A441278114607F5895202F11802A2F54E
:1058B0004172535407F5895303F10C031B680133FC
:1058C00007F5895202F10C02136007F5895303F1C1
:1058D0000C031B683F2B7FF767AF002307F5895246
:1058E00002F114021360002307F5895202F1080245
:1058F0001360B6E0002307F5895202F1100213602D
:105900009CE000BF5C080B341F85EB511C080B3476
:105910005C090B34924A07F5895303F108031B68AD
:1059200013441B781A4607F5895303F11803A3F5AE
:1059300031739B5C07EE903AB8EEE77A894A07F537
:10594000895303F114031B689B001344D3ED007AC1
:1059500027EE277A834A07F5895303F110031B6862
:105960009B001344D3ED007A27EE277AF7EE006A06
:10597000C6EE877A07F5895303F11803A3F5C272BF
:1059800007F5895303F108031B689B001344C3ED1B
:10599000007A734A07F5895303F108031B6813441F
:1059A0001B781A4607F5895303F11803A3F54173D1
:1059B0009B5C07EE903AB8EEE77A6A4A07F589539E
:1059C00003F114031B689B001344D3ED007A27EE08
:1059D000277A644A07F5895303F110031B689B007B
:1059E0001344D3ED007A27EE277AF7EE006AC6EE6D
:1059F000877A07F5895303F11803A3F5217207F598
:105A0000895303F108031B689B001344C3ED007A1C
:105A100007F5895303F110031B68013307F5895219
:105A200002F11002136007F5895303F108031B68A4
:105A3000013307F5895202F10802136007F5895313
:105A400003F110031B68072B7FF764AF07F5895339
:105A500003F114031B68013307F5895202F11402A4
:105A6000136007F5895303F114031B68072B7FF7B5
:105A700041AF07F5895303F11803A3F54773FF22DC
:105A80001A7007F5895303F11803A3F54773C02271
:105A90005A7007F5895303F11803A3F547730022E1
:105AA0009A7007F5895303F11803A3F54773112280
:105AB000DA7007F5895303F11803A3F54773082239
:105AC0001A7107F59C73A3F59A731B681B12DAB25F
:105AD00007F5895303F11803A3F547735A7107F5C6
:105AE0009C73A3F59A731B68DAB207F5895303F127
:105AF0001803A3F547739A7107F59C73A3F5987380
:105B00001B681B12DAB207F5895303F11803A3F5DA
:105B10004773DA7107F59C73A3F598731B68DAB2C3
:105B200007F5895303F11803A3F547731A7207F5B4
:105B3000895303F11803A3F5477303225A7207F53B
:105B4000895303F11803A3F5477301229A7207F5ED
:105B5000885303F104031B68002B05D0222204E0C4
:105B60001C080B345C0A0B34112207F5895303F12E
:105B70001803A3F54773DA7207F5895303F1180385
:105B8000A3F5477300221A7307F5895303F118032D
:105B9000A3F5477302225A7307F5895303F11803DB
:105BA000A3F5477311229A7307F5895303F118037C
:105BB000A3F547730122DA7307F5895303F118033C
:105BC000A3F5477303221A7407F5895303F11803E9
:105BD000A3F5477311225A7407F5895303F118038B
:105BE000A3F5477301229A7407F5895303F118034B
:105BF000A3F54773FF22DA7407F5895303F11803FD
:105C0000A3F54773C4221A7507F5895303F11803E6
:105C1000A3F5477301225A7507F5895303F1180359
:105C2000A3F54773A2229A7507F5895303F1180368
:105C3000A3F547730022DA7507F59C73A3F59673F5
:105C40001B681B6807F59C72A2F596721268506873
:105C50001922BB49984707F59C73A3F596731B68F7
:105C60001B6807F59C72A2F596721268506807F6D9
:105C700074614022984707F59C73A3F59673012140
:105C80001868FFF741F807F59C73A3F596731B6836
:105C90001B6807F59C72A2F596721268506807F6A9
:105CA00034614022984707F59C73A3F596731B68EF
:105CB0001B6807F59C72A2F596721268506807F689
