:0200000470107A
:1000000053544D32000000000000000000000000CA
:1000100000000000000000000000000000000000E0
:1000200000000000000000000000000000000000D0
:1000300000000000000000000000000000000000C0
:1000400000000000000000000000000000000000B0
:1000500000000000000000000000000000000000A0
:100060000000000006EE200300030200E0D90A00B1
:100070007195033400000000FFFFFFFF0000000047
:100080000000000000000080A0010000000000004F
:100090000000000000000000000000000000000060
:1000A0005354FFFFA00100008B694420DA5A224616
:1000B000D66CF304DEA443A2B021C44969F836E04B
:1000C0000C5EB358A9734250112E02773651C268A4
:1000D00035F15A9914047D9C5259CEBD9A7AB0FCE0
:1000E0006A5C52F72487FF7CB16BD0F131D07B8BF7
:1000F0002D8CE60E5169D20C5C58D91E4C5EAF9027
:100100009EC3CB575D63E04097DF96666ECFF82ABB
:10011000EDACA8DB6550D645656C0B67A48022EA80
:1001200099B513DC280BA2D7871FF3134482FF284D
:100130002AA03B3FEED210D1DF1912D497F8DAE0B3
:10014000D03313EA58021B96C90D4BF1B6AEA17518
:10015000298351FD949CB3F28C2B56A61BCABE0278
:10016000EAE95B25C2F8D0CACF1B8740894ADD8601
:10017000EDAB8B6309320F280822A57FD4334514D9
:100180005C8301A77DB62B1708D710154C8C87A26E
:1001900023B15F091271DE447993D47F53EBC19C84
:1001A000EEB325F5596243214B4993B170E0FB2B27
:1001B0005F7BFD9213C95E194DBCD17B94DAF58A41
:1001C00089D7E1ADF31BCF57259EF79EA589A3F0F4
:1001D00090276AF37F13A12351996AEA1C1206EA59
:1001E0001B8CCE3F97F12684D540E953458672A4F7
:1001F000091171A9E49DF53BCCD10559F3307F4538
:100200003039CD704D71C8156ADC28026B05A2E447
:10021000BA4EABD3BDF29A7025AAFFC80AC6BB0975
:100220008735F494641D544731424A5CFBEA0AE680
:1002300018CA66AEA51904AE1CB2E5BFEBF955B8F5
:1002400000000000000000000000000000000000AE
:10025000000000000000000000000000000000009E
:10026000000000000000000000000000000000008E
:10027000000000000000000000000000000000007E
:10028000000000000000000000000000000000006E
:10029000000000000000000000000000000000005E
:1002A000000000000000000000000000000000004E
:1002B000000000000000000000000000000000003E
:1002C000000000000000000000000000000000002E
:1002D000000000000000000000000000000000001E
:1002E000000000000000000000000000000000000E
:1002F00000000000000000000000000000000000FE
:1003000000000000000000000000000000000000ED
:1003100000000000000000000000000000000000DD
:1003200000000000000000000000000000000000CD
:1003300000000000000000000000000000000000BD
:1003400000000000000000000000000000000000AD
:10035000000000000000000000000000000000009D
:10036000000000000000000000000000000000008D
:10037000000000000000000000000000000000007D
:10038000000000000000000000000000000000006D
:10039000000000000000000000000000000000005D
:1003A000000000000000000000000000000000004D
:1003B000000000000000000000000000000000003D
:1003C000000000000000000000000000000000002D
:1003D000000000000000000000000000000000001D
:1003E000000000000000000000000000000000000D
:1003F00000000000000000000000000000000000FD
:1004000000001034719503344DB700345BB70034ED
:1004100063B700346BB7003473B700347BB7003474
:1004200000000000000000000000000083B700345E
:1004300091B700340000000099B70034A1B7003430
:10044000CD95033400000000CD950334CD950334E1
:10045000CD950334CD950334CD950334CD95033438
:10046000CD95033400000000CD950334CD950334C1
:10047000CD950334A9BF0034CD95033400000000AE
:10048000CD95033400000000CD950334CD950334A1
:10049000CD950334CD950334CD950334CD950334F8
:1004A000CD950334CD950334CD950334CD950334E8
:1004B000CD950334CD950334CD950334CD950334D8
:1004C000CD950334E1B70034CD950334CD95033495
:1004D000CD950334CD950334CD950334CD950334B8
:1004E000CD95033400000000CD950334CD95033441
:1004F000CD950334CD950334CD950334ADB7003499
:10050000C7B7003400000000000000000000000039
:10051000CD95033459590334CD950334CD95033427
:10052000CD950334CD950334CD950334CD95033467
:10053000CD950334CD950334CD950334CD95033457
:10054000CD950334CD950334CD950334CD95033447
:10055000CD950334CD950334CD950334CD95033437
:1007400000000000CD950334CD9503340000000077
:1007500010B5054C237833B9044B13B10448AFF3FB
:1007600000800123237010BD20DC0A34000000004B
:100770000834043408B5034B1BB103490348AFF3F5
:10078000008008BD0000000024DC0A340834043472
:1007900090EDAD6A30B52DED108B90EDA87BB5EEE8
:1007A000C06A87B08DED027B002390EDA47BF1EE53
:1007B00010FA91ED015A91ED004A91ED02FB91ED95
:1007C00004EB044690ED123B90EDAACB90ED16ABF6
:1007D0008DED047B90EDA6BB80F8603009DCD0F88D
:1007E000C832D14898474FF0FF3007B0BDEC108BAE
:1007F00030BDB8EE455B9FEDBE7BB8EE444B25EEB9
:10080000077BB4EEC47BF1EE10FA0FDD90ED1C7B9C
:100810009FEDB92B37EE022B9FEDB97BB4EEC72BC2
:10082000F1EE10FA37FE027B80ED1C7B9FEDB67B6C
:1008300025EE075BB4EEC45BF1EE10FA10D594ED33
:100840001C7B9FEDAD5B37EE457B9FEDB15BB4EE5E
:10085000C57BF1EE10FA58BFB0EE475B84ED1C5B30
:1008600083EE0C8BBCEEC88BB8EE488B94F85050DE
:1008700028EE0C8B012DB7EEC66A40F0AC809FEDE0
:10088000A67B3FEE4E5B85EE07DB3FEE0E5B85EE13
:10089000079BB0EECD7BB4EEC76BF1EE10FAB0EE75
:1008A000C95B1FDBB4EEC56BF1EE10FA1ADB002357
:1008B00084F8783094ED1A7BB5EEC07BF1EE10FA37
:1008C00040F33481012384F860309DED027BB4EE67
:1008D000C7ABF1EE10FA40F13C819DED047B3AEE9E
:1008E00007BB28E1B4EEC56BF1EE10FA0CD589EE2A
:1008F0000D5B94EDAE6AB0EEC55BB7EEC66AB4EEC2
:10090000C65BF1EE10FAD5DAF7EECA0BB7EEC70BFD
:1009100040F07AFFB2EE047BB7EEC00A20EE070B80
:10092000FCEEC87BB0EECE6BCDED017AB0EECF7BA6
:10093000B4EEC67BF1EE10FA62DCB5EEC0EBF1EE80
:1009400010FA62D538EE000B94ED3C7BB4EEC07B20
:10095000F1EE10FA03D5B0EE4BABB0EE470B94EDD1
:100960003A7BB4EEC07BF1EE10FA03DDB0EE4BAB98
:10097000B0EE470B80EE0C8BBCEEC88BB8EE488B0C
:10098000012D2CEE088B16D1B4F8E030022B3FD8A5
:10099000DDED017AB8EE677B04EBC30282ED207BCC
:1009A00082ED268B04EB0312013382ED2CDB82ED0A
:1009B0002E9BA4F8E03094F87830012B07D0FCEEA1
:1009C000C87B17EE903A019A93423FF473AF01232C
:1009D00084F860306EE7B0EECF7BB0EECE5BB4EE65
:1009E000475BF1EE10FA35FE077BB4EEC67BF1EE05
:1009F00010FA7FF65FAF9FED4A9BB0EE49DB83E7CD
:100A0000B5EEC0FBF1EE10FA9CD538EE400B9BE73B
:100A100094ED2A7B94EDAF6A38EE477BB7EEC66A59
:100A2000B0EEC77BB4EEC67BF1EE10FA56DB94ED68
:100A3000287B38EE477BB0EEC77BB4EEC76BF1EE98
:100A400010FA4BDD94ED320B94ED307B39EE400B18
:100A50003DEE477B20EE000BA7EE070B3FF09CFB23
:100A600094EDB07AB7EEC77AB4EEC70BF1EE10FA98
:100A700034D5DDED017AB8EE678B84F8785094F8C0
:100A80007830002B97D1102204F1880104F1800006
:100A90003DF07AFA102204F1A00104F198003DF033
:100AA00073FAD4E93023DDED017AB8EE677BC4E94F
:100AB0002C23D4E9322384ED247BC4E92E23D4E90A
:100AC000342384ED2A8BC4E93023D4E9362384ED22
:100AD00034DB84ED369BC4E932236CE794F878303C
:100AE000012B04BF002384F87830C8E7AFF30080FF
:100AF0009A9999999999A93F7B14AE47E17A843FD5
:100B0000343333333333C33F333333333333C33F7C
:100B1000111111111111B13FCD3B7F669EA0F63F1F
:100B20000000000000000000069D0A3494F86030C8
:100B3000002B7FF4CAAE88EE0C7BBCEEC77BB8EE10
:100B4000477B27EE0C7B84ED16BB84ED127B0120E6
:100B50004BE69DED02BBEEE790ED1A6BB5EEC06B78
:100B600090ED124BF1EE10FA90EDAA5BB0EE467BE1
:100B7000DFBF84EE057BBCEEC77BB8EE477B27EE7C
:100B8000057BB7EEC77B90ED3C5BB7EEC74AB4EE92
:100B9000C54BF1EE10FAC8BFB7EEC57B90ED3A5BDE
:100BA000B7EEC74AB4EEC54BF1EE10FA48BFB7EE48
:100BB000C57BB7EEC75AD0F8743230B580ED125B02
:100BC00093ED005AD0EDAC7AB4EEC75AF1EE675A05
:100BD000F1EE10FA4FF00001B0F8F83075FEA77A88
:100BE000013B8AB2934205D8442202FB030303F57A
:100BF000907311E000EB8204D4ED445A77EEA55ACD
:100C0000F4EEC75AF1EE10FA01F10101E9DB4423D9
:100C100003FB020202F59073B5EEC06BF1EE10FA21
:100C2000C0F8743205DC93ED007AB7EEC77A80ED38
:100C3000127B5A6803F1380142609A6803F1240478
:100C40008260DA68C2601A69026100F138025D6987
:100C50000C334561DD680C30C5601D69A342056138
:100C600051F8045B42F8045BF1D1012030BD10B5AE
:100C7000044690B070B10023084C40212370C4F8A2
:100C8000C802074B6846074A3DF034F86846D4F876
:100C9000C8329847204610B010BD00BF40DC0A346F
:100CA000E8D70A34469D0A34002814BF01204FF0CB
:100CB000FF30704780ED000A30B50C6844604C6826
:100CC00084608C68C460C96802F12404016100F189
:100CD000380115680C32456152F8085C0C30C5606B
:100CE00052F8045CA242056153F8045B41F8045BCE
:100CF000EFD130BD2DE9F04F2DED068B0E46B0EE55
:100D0000409BB0EE418B1D460446C7B0002800F062
:100D10008F819FEDCBAB80ED12AB0020CE494FF021
:100D20000008C4E91601C4E9A601C4E9AA01CB4937
:100D3000DFF85C93C4F8B0124FF07E51C4F8B412DF
:100D40004FF07C51C4E91A890FF2FC29D9E90089D6
:100D5000C4E91C89C4E9A4894FF00008C4F8B8129A
:100D6000BF49DFF83093C4F8BC124FF07F51002325
:100D7000C4E9A88901274FF00008C4F8C012711E09
:100D8000DFF8149388B20428C4E9A0890FF2C029BF
:100D9000D9E9008984F86030C4E9A289A4F8E03078
:100DA00084F87830A4F8787214D905234FF4807150
:100DB000AC4A06A83CF09EFFD4F8C83206A8984773
:100DC00084F85070204647B0BDEC068BBDE8F04F6C
:100DD000FFF7C2BE95ED007AB7EEC77AB4EEC70B47
:100DE000F1EE10FA12DDD4F8C8329F48984795ED1D
:100DF000007AB7EEC77A8DED009B8DED027B9B4AA2
:100E00004FF4807106A83CF075FFD5E74FF0440C15
:100E10000CFB065818ED117AB7EEC77AB4EEC71B73
:100E2000F1EE10FA41D5D4F8C8329148984798EDC0
:100E3000007AB7EEC77A8DED008B8DED027B8D4A7F
:100E4000DEE70CFB08F705EB070944372F4499ED63
:100E5000007AD7ED007AB4EEE77AF1EE10FA08F1F5
:100E6000010A00F1010021DBD4F8C832824898471A
:100E700097ED007AB7EEC77A8DED047BCDF808A028
:100E800099ED007AB7EEC77A43468DED007B7B4A39
:100E90004FF4807106A83CF02DFFD4F8C83206A8A4
:100EA0009847012384F850308CE718461FFA80F8E1
:100EB0004145C6D800234FF0440CB01E9FB2B94242
:100EC00039D884ED3A9B84ED3C8B0020A4F8F8607F
:100ED00083B2994200F1010000F28B800027B846EE
:100EE00004F1FC0A04F5907905EB070B09EB070008
:100EF000442259463DF005FBDBF8003008F10108BB
:100F00004AF8043B1FFA88F39E4207F14407EBD8E6
:100F1000731E9BB2002E03F1010314BF1A46012277
:100F2000C4F8749204F5B271013A6AD1012384F8CD
:100F30005030237046E702EB8709B842D9ED007ABA
:100F40004FEA870807F1010A1ED908F10408904406
:100F500098ED007AB4EEE77AF1EE10FA14D8D4F8EE
:100F6000C8324748984798ED007AB7EEC77A8DEDBA
:100F7000047BCDF808A099ED007AB7EEC77A3B461E
:100F80008DED007B3F4A83E70CFB07F805EB080A71
:100F90009AED007AB4EEE77AF1EE10FA08F144081F
:100FA000A84408DA98ED007AB4EEE77AF1EE10FA88
:100FB00003F1010382D8D4F8C8323348984798ED3A
:100FC000007AB7EEC77A8DED047B9AED007AB7EE22
:100FD000C77A8DED027B99ED007AB7EEC77A3B4672
:100FE0008DED007B4FF48071284A06A83CF082FE0C
:100FF00053E702EB83073F6804EB8303C3F81071E8
:1010000066E7D4F8743291ED006A93ED007AB7EE9A
:10101000C66AB7EEC77A36EE4A6B37EE4A7BB4EE55
:10102000C76BF1EE10FA48BFC4F8741244317BE785
:101030004FF0FF3047B0BDEC068BBDE8F08F00BF2E
:10104000000000000088B3409A9999999999B93F96
:101050000000000000A06E400000F03F0000484289
:1010600000002F43569D0A349A9D0A34219E0A346B
:101070007F9E0A34079F0A34649F0A34C89F0A344B
:1010800020A00A348FA00A34F9A00A3450A10A34EF
:101090000000F0BF000008400000244030B50546C5
:1010A00014468DB052B9D0F8C8321D489847D5F8CB
:1010B000C8321C48984720460DB030BD93ED042B34
:1010C00093ED021B93ED000B0AAA08A906A800F0F5
:1010D0002FF8DDE90823CDE90223DDE90A23CDE974
:1010E0000423012398420446CDE90033DFD1694649
:1010F0002846FFF74DFB0128044603D0D5F8C83237
:101100000948D7E795F86030012BD4D12846FFF77E
:1011100023FD01280446CED0D5F8C8320348C9E7DC
:10112000D6A10A3437A20A3460A20A3494A20A343F
:10113000B5EEC00BF1EE10FA1FB509D4B5EEC01B29
:10114000F1EE10FA04D4B5EEC02BF1EE10FA0DD585
:101150008DED022B8DED001B53EC102B44483CF021
:1011600059FD4FF0FF3005B05DF804FB9FED327B79
:10117000B4EEC70BF1EE10FA09DCB4EEC71BF1EECA
:1011800010FA04DCB4EEC72BF1EE10FA07DD8DED9A
:10119000022B8DED001B53EC102B3648DFE728B1F6
:1011A00089B1B2B93449354B084607E071B13349CA
:1011B0003148002A304A314B18BF134602463048A6
:1011C0003CF028FDCDE72C492C48F2E72B49084696
:1011D000EFE79FED1B7B9FED1C6B21EE077BB3EED2
:1011E000005BA0EE067B9FED1A6BA2EE057BA7EEDF
:1011F000065B9FED197B80ED005B27EE417BBBEE2C
:101200000A5BA0EE057B9FED165BA2EE057B27EE49
:10121000067B81ED007B9FED147B27EE411BB2EE38
:10122000047BA0EE051BA2EE471B21EE061B01204E
:1012300082ED001B97E700BF0000000000E06F4058
:101240000000000000A06340000000000080474054
:10125000000000000000703F0000000000805540CA
:101260000000000000005C400000000000805940C9
:10127000D1A20A340FA30A34CBA20A34C9A20A3479
:101280004FA30A340000000010B5044690B060B1CE
:101290000023074C40212370A065064B6846064A90
:1012A0003CF028FD6846A36D9847204610B010BD5D
:1012B00010DF0A34EED70A3499A30A34002814BF89
:1012C00001204FF0FF30704738220A23C0E9042381
:1012D00064232D227821C0E9063240F2DC5230B579
:1012E000C0E9081241F2707442F6E062C0E90A42B5
:1012F0000BA5D5E9004505224FF0000C026548F228
:10130000E802C0E910C20122C0E90C4506A5D5E9F2
:101310000045C0E91223C0E90E4530BDAFF300809F
:1013200000000040E17A943F000000E04D62703F11
:1013300010B5044620B1FFF7C7FF0120207010BD93
:101340004FF0FF30FBE72DE9F0410E460446002840
:1013500000F0E180017801290BD102210170A56C18
:10136000C4E90126B54208D2616C914205D9A56055
:101370004CE00229F3D0002049E0D4F810C0B6EECA
:10138000005B07EE90CAB8EE676A07EE903AB8EED7
:10139000E77BB7EEC66A37EE057B86EE070B216D5D
:1013A000B7EEC00B8B424BD2F0EE007AB4EEE70AF8
:1013B000F1EE10FA44D4616CB7EE007A8A4220D282
:1013C000012A134638BF012307EE903AF8EEE77A78
:1013D00067EE807AFDEEE77A17EE903A8B42C1BF56
:1013E00007EE901AB8EEE76A07EE902AF8EE676A01
:1013F000C3BFC6EE267A0B4680EE270AB0EE470A38
:101400006360B4EEC70AF1EE10FA02DC0120BDE819
:10141000F081B7EEC00A3EF08BFEB3EE047B20EE07
:10142000070B9FED3F7B20EE070BBDEEC00B10EED0
:10143000103AE26C33449342D4BFA360A260E5E764
:10144000ACEB0307E16987EAE770A0EBE77088423D
:1014500047D8606AD4F814E0A1690EEB0C089845EF
:1014600007FB01F143D207EE900A9FED2F7AF8EEC9
:10147000E77A67EE877A07EE101AF1EE676AB8EE40
:10148000C77AB4EEE67AF1EE10FA04D5FDEEE77A0B
:1014900017EE903A59420029B8D0B54232D1606C6B
:1014A000904201D800292DDA02FB077707EE902A37
:1014B00006EE907A0029B8EEE77BB8EEE66B1EDA0E
:1014C00094ED0E5BA5EE067BBDEEC77B17EE102AF2
:1014D000236C9A42B8BF1A468242D4BF62606060F1
:1014E00094E7216A88422CBFE06AA06AB2E7ACEBBD
:1014F0000E0C9C458ADD8142A8BF0146CBE794EDE6
:101500000C5BDFE70E44B5423FF731AFE56CB54207
:10151000A8BF35462BE74FF0FF3078E7AFF30080E8
:101520000000000000408F409A99593F10F8012BAD
:1015300011F8013B012A28BF9A42F7D0D01A704710
:10154000034613F8012B002AFBD1181A0138704703
:1015500081F0004102E000BF83F0004330B54FEA64
:1015600041044FEA430594EA050F08BF90EA020FD1
:101570001FBF54EA000C55EA020C7FEA645C7FEA64
:10158000655C00F0E2804FEA5454D4EB5555B8BF87
:101590006D420CDD2C4480EA020281EA030382EAF8
:1015A000000083EA010180EA020281EA0303362D8A
:1015B00088BF30BD11F0004F4FEA01314FF4801C5D
:1015C0004CEA113102D0404261EB410113F0004F6F
:1015D0004FEA03334CEA133302D0524263EB430326
:1015E00094EA050F00F0A780A4F10104D5F1200EC4
:1015F0000DDB02FA0EFC22FA05F2801841F100011F
:1016000003FA0EF2801843FA05F359410EE0A5F1F2
:1016100020050EF1200E012A03FA0EFC28BF4CF023
:10162000020C43FA05F3C01851EBE37101F00045D9
:1016300007D54FF0000EDCF1000C7EEB00006EEBE6
:101640000101B1F5801F1BD3B1F5001F0CD3490870
:101650005FEA30004FEA3C0C04F101044FEA4452C7
:1016600012F5800F80F09A80BCF1004F08BF5FEA4E
:10167000500C50F1000041EB045141EA050130BD2E
:101680005FEA4C0C404141EB0101013C28BFB1F540
:10169000801FE9D291F0000F04BF01460020B1FA8B
:1016A00081F308BF2033A3F10B03B3F120020CDA5E
:1016B0000C3208DD02F1140CC2F10C0201FA0CF03C
:1016C00021FA02F10CE002F11402D8BFC2F1200CA1
:1016D00001FA02F120FA0CFCDCBF41EA0C01904057
:1016E000E41AA2BF01EB0451294330BD6FEA0404A0
:1016F0001F3C1CDA0C340EDC04F11404C4F120028B
:1017000020FA04F001FA02F340EA030021FA04F39C
:1017100045EA030130BDC4F10C04C4F1200220FAF3
:1017200002F001FA04F340EA0300294630BD21FA31
:1017300004F0294630BD94F0000F83F4801306BFF7
:1017400081F480110134013D4EE77FEA645C18BFEB
:101750007FEA655C29D094EA050F08BF90EA020F82
:1017600005D054EA000C04BF1946104630BD91EA7A
:10177000030F1EBF0021002030BD5FEA545C05D17D
:101780004000494128BF41F0004130BD14F58004BC
:101790003CBF01F5801130BD01F0004545F0FE4130
:1017A00041F470014FF0000030BD7FEA645C1ABF65
:1017B000194610467FEA655C1CBF0B46024650EA9C
:1017C000013406BF52EA033591EA030F41F40021C8
:1017D00030BD00BF90F0000F04BF0021704730B54E
:1017E0004FF4806404F132044FF000054FF0000123
:1017F00050E700BF90F0000F04BF0021704730B5E4
:101800004FF4806404F1320410F0004548BF4042B8
:101810004FF000013EE700BF42004FEAE2014FEA0D
:1018200031014FEA02701FBF12F07F4393F07F4FE8
:1018300081F06051704732F07F4208BF704793F0EB
:101840007F4F04BF41F40021704730B54FF46074FE
:1018500001F0004521F000411CE700BF50EA010201
:1018600008BF704730B54FF000050AE050EA0102AA
:1018700008BF704730B511F0004502D5404261EB1A
:1018800041014FF4806404F132045FEA915C3FF45B
:10189000D8AE4FF003025FEADC0C18BF03325FEAF8
:1018A000DC0C18BF033202EBDC02C2F1200300FAA9
:1018B00003FC20FA02F001FA03FE40EA0E0021FACE
:1018C00002F11444BDE600BF7BB972B90029BEBF66
:1018D00000204FF0004106E008BF00281CBF6FF059
:1018E00000414FF0FF3000F0FBB9ADF1080C6DE99D
:1018F00004CE002909DB002B1ADB00F04DF8DDF8DF
:1019000004E0DDE9022304B07047404261EB41018D
:10191000002B1BDB00F040F8DDF804E0DDE90223DA
:1019200004B0404261EB4101524263EB4303704714
:10193000524263EB430300F02FF8DDF804E0DDE9E9
:10194000022304B0404261EB41017047524263EB15
:10195000430300F021F8DDF804E0DDE9022304B0E0
:10196000524263EB4303704753B94AB9002908BF99
:1019700000281CBF4FF0FF314FF0FF3000F0B0B92E
:10198000ADF1080C6DE904CE00F006F8DDF804E0D6
:10199000DDE9022304B070472DE9F04F099D884628
:1019A00004468E46002B4AD18A4217465FD9B2FAC6
:1019B00082F64EB1C6F1200301FA06FEB740B440EC
:1019C00020FA03F343EA0E0E4FEA17481FFA87FC8A
:1019D000230CBEFBF8F108FB11EE01FB0CF243EA0D
:1019E0000E439A4207D9FB1801F1FF3002D29A4206
:1019F00000F2548101469B1AA2B2B3FBF8F008FB37
:101A0000103300FB0CFC42EA034294450BD9BA1890
:101A100000F1FF332CBF01240024944502D9002C8F
:101A200000F03F81184640EA0140A2EB0C02002181
:101A30001DB1F2400023C5E90023BDE8F08F8B42C1
:101A400005D90DB1C5E9000100210846F5E7B3FA53
:101A500083F100294ED14345C0F01281824240F209
:101A60000F810846002DE8D0C5E9004EE5E7002AC1
:101A700000F0AC80B2FA82F6002E40F0BB808B1AE8
:101A80004FEA124EBCB20121020C80B2B3FBFEFC45
:101A90000EFB1C3342EA034304FB0CF29A420ED9BC
:101AA000FB180CF1FF382CBF4FF001094FF0000973
:101AB0009A4203D9B9F1000F00F0EC80C4469B1A9A
:101AC000B3FBFEF80EFB183304FB08F440EA0342B4
:101AD00094420BD9BA1808F1FF332CBF0120002023
:101AE000944202D9002800F0D1809846121B48EA9F
:101AF0000C409DE7C1F120068B4008FA01F400FA82
:101B000001F922FA06F728FA06F88A401F4320FA5C
:101B100006F3380C23431FFA87FC1C0CB8FBF0FEBD
:101B200000FB1E8844EA08440EFB0CF8A0450ED9C1
:101B30003C190EF1FF3A2CBF4FF0010B4FF0000B98
:101B4000A04503D9BBF1000F00F0B880D646A4EB46
:101B500008041FFA83F8B4FBF0F300FB134403FB03
:101B60000CFC48EA0444A4450ED93C1903F1FF30AB
:101B70002CBF4FF001084FF00008A44503D9B8F17D
:101B8000000F00F09F80034643EA0E40A4EB0C04D4
:101B9000A0FB02EC64457346E04602D307D1F14551
:101BA00005D2BEEB02036CEB070C0138E0465DB1D9
:101BB000B9EB030264EB080404FA06F622FA01F317
:101BC000CC401E43C5E90064002136E7B1FBF2FCBE
:101BD000010C144680B2964641EA08412026904600
:101BE00040EA01431046B1FBF2F1A3EB080341EADE
:101BF0000C414BE7B740C6F1200301FA06F221FA87
:101C000003F84FEA174E20FA03F3BCB2B040134377
:101C1000020C190C80B2B8FBFEF90EFB198841EAE0
:101C2000084109FB04F8884551D9791809F1FF3CAE
:101C30002CBF4FF0010A4FF0000A884502D9BAF1D3
:101C4000000F31D0A1EB0801B1FBFEF909FB04F84C
:101C50000EFB19119BB243EA0143434535D2FB18F1
:101C600009F1FF312CBF4FF0010A4FF0000A434544
:101C7000BBD2BAF1000FB8D1A9F102013B44B4E7DD
:101C8000841A68EB030201209646EBE63A44A8F179
:101C900002082BE7ACF1020C3B4410E702393B444D
:101CA000A9E63A440238BEE6A7EB0808A9F1020CFF
:101CB0004144B1FBFEF909FB04F8C9E7AEF1020E9D
:101CC0003C4444E7023B3C445EE749468DE7A1EBD8
:101CD0000801CC46B1FBFEF909FB04F8B8E700BFE8
:101CE000704700BF80B594B000AFF860B9607A600B
:101CF000002387F84730FB685B68B3F5F07F03D8B3
:101D0000FB685B68BB6402E04FF4F073BB64FB6884
:101D10005B68B3F5F07F03D8FB685B68FB6402E0A7
:101D20004FF4F073FB64FA6CBB681A60BA6C7B68A2
:101D30001A60FB6C7B61BB6CBB610123FB610223FE
:101D40003B6297F84730FB6200237B620023BB6253
:101D500007F1100207F114031946012028F00AFDCB
:101D600038643B6C002B05D0044B054A5A210548CA
:101D70003AF0C0FF00BF5037BD4680BD4034043448
:101D8000147A04345034043480B590B000AF7860D5
:101D9000002387F83F308023FB6080233B610023D2
:101DA0007B610323BB6197F83F307B620123FB61BA
:101DB00000233B6207F10C037A681946022028F0E1
:101DC000D9FCB863BB6B002B05D0054B054A7C21C1
:101DD00005483AF08FFF00BF4037BD4680BD00BFC9
:101DE000403404342C7A04345034043480B58CB03C
:101DF00000AFF860B9607A6000237B610023BB61AB
:101E00001E23FB6100233B6200237B620023BB6235
:101E100007F11403184628F0D9FCF862FB6A002B7E
:101E200005D00A4B0A4A8C210A483AF063FF07F1B1
:101E30001403BA68F9681846FFF754FF7868FFF78B
:101E4000A3FF00BF3037BD4680BD00BF90340434CF
:101E5000407A04345034043480B584B000AF7860E4
:101E600039603A687968012028F046FDF860FB681F
:101E7000002B05D0044B054A9C2105483AF03AFF57
:101E800000BF1037BD4680BD903404344C7A043412
:101E90005034043480B584B000AF786039603A685B
:101EA0007968022028F028FDF860FB68002B05D037
:101EB000044B054AA42105483AF01CFF00BF103727
:101EC000BD4680BD90340434647A04345034043404
:101ED00080B582B000AF00237B6028F0DDFD786024
:101EE0007B68002B05D0054B054AB22105483AF026
:101EF00001FF00BF0837BD4680BD00BF90340434E9
:101F0000787A04345034043480B483B000AF7860FD
:101F10007B68022B05D1064B1B680133044A136012
:101F200000BF002318460C37BD465DF8047B7047A0
:101F300078E20A3480B582B000AF78607B68002B0D
:101F400002D14FF0FF330DE0786800F023F87B6892
:101F50004FF480329A66786800F008F802467B6891
:101F6000DA66002318460837BD4680BD80B584B0C8
:101F700000AF78607B68002B01D1002306E06C2362
:101F8000FB60F968786800F075F80346184610376A
:101F9000BD4680BD80B483B000AF78607B68304AB6
:101FA0001A607B684FF07C525A607B680A229A6004
:101FB0007B6801221A737B682A4A1A617B684FF09A
:101FC00086425A617B6864229A617B6801221A7793
:101FD0007B68254A1A627B684FF07C525A627B68A4
:101FE000224A9A627B680522DA627B68204A1A6379
:101FF0007B684FF07C525A637B68012283F838205B
:102000007B681E22DA637B684FF47A721A647B68FD
:102010000A225A647B68002283F848207B684FF4C8
:102020008032DA647B684FF47A721A657B68022228
:102030005A657B68012283F858207B684FF47A72D6
:10204000DA657B684FF47A721A667B68012283F83E
:10205000642000BF0C37BD465DF8047B704700BFAD
:102060003333333FCDCC0C3F9A99993F9A99993E9F
:102070009A99193F80B487B000AF786039604FF00B
:10208000FF337B6100233B6121E07A683B691344A5
:102090001B781A467B6953407B610023FB6010E08C
:1020A0007B6903F00103002B05D07B695A080E4BB6
:1020B00053407B6102E07B695B087B61FB68013315
:1020C000FB60FB68072BEBDD3B6901333B613A6941
:1020D0003B689A42D9D37B69DB4318461C37BD461F
:1020E0005DF8047B704700BF2083B8ED80B586B0F3
:1020F00000AF214B7B607C237B6107F10C023B1D11
:10210000796918460EF07EF90346002B2ED14FF464
:10211000C0333B61FA683B6913403A699A4227D061
:10212000FA683B691343FB60FA68381D002379693C
:102130000EF0A0F90346002B15D107F10C023B1D50
:10214000796918460EF05EF90346002B08D1FA684B
:102150003B6913403A699A420AD000F00FF807E051
:1021600000F00CF804E000F009F801E000F006F8D7
:1021700000BF1837BD4680BD0090005680B400AF48
:1021800000BFFDE780B584B000AF78607B68BB60BE
:10219000BB6880221A60BB6880225A60BB68052237
:1021A0009A60BB684FF07C52DA60BB68164A1A61CD
:1021B000BB684FF480625A61BB680A229A61BB68AF
:1021C0000022DA610023FB6012E0FA6813469B00EC
:1021D0001344DB000D4A99180D48FA6813465B005A
:1021E0001344DB00034414331960FB680133FB60C4
:1021F000FB68092BE9DDB8682EF098FA034618460B
:102200001037BD4680BD00BF9A99993E60E00A3400
:1022100070DF0A3480B58AB000AFF860B9607A60C8
:102220003B60BB68042B05D0114B124A1E2112489B
:102230003AF060FD7B687B62FB681B687B61FB6832
:102240005B68BB61FB689B68FB61FB68DB683B62AA
:102250007B6A0A4A1A6007F114033A68796A1846D9
:102260002EF06FFA034618462837BD4680BD00BFE2
:10227000A8340434887A0434B834043470DF0A345F
:1022800080B483B000AF7860064B1B6A23F4403201
:1022900004497B6813430B6200BF0C37BD465DF8F1
:1022A000047B70470080025680B483B000AF786032
:1022B000064B1B6A23F0407204497B6813430B6290
:1022C00000BF0C37BD465DF8047B704700800256A6
:1022D00080B584B000AF4D4B1B684C4A43F40053AB
:1022E00013600020FFF7CCFF0020FFF7DDFF0DF0AB
:1022F000F3FF474B5B6903F40033002B1BD1BFF3A3
:102300004F8F00BFBFF36F8F00BF414B0022C3F858
:102310005022BFF34F8F00BFBFF36F8F00BF3C4B06
:102320005B693B4A43F400335361BFF34F8F00BFF7
:10233000BFF36F8F00E000BF344B1B68334A43F498
:1023400080531360324B5B6903F48033002B38D128
:102350002F4B0022C3F88420BFF34F8F00BF2C4BBC
:10236000D3F88030FB60FB685B0BC3F30E03BB60EC
:10237000FB68DB08C3F309037B60BB685A0143F6C3
:10238000E07313407A68920721491343C1F8603221
:102390007B685A1E7A60002BEFD1BB685A1EBA6068
:1023A000002BE5D1BFF34F8F00BF194B5B69184A73
:1023B00043F480335361BFF34F8F00BFBFF36F8F80
:1023C00000E000BF09F072FC09F084FBFFF78EFE0D
:1023D00009F0FEFB00200CF0EDFE00200CF0B8FF31
:1023E00001233B7001237B703B46194600200CF013
:1023F000FFFC00200CF0E6FD09F0F2FB09F046FCC2
:1024000009F0B0FB00BF1037BD4680BD00E001E021
:1024100000ED00E080B588B000AFF860B9607A6088
:102420007B80FB687B61BB68FB617B88BA8D02FBAC
:1024300003F33B610023BB6111E0BB697A6802FBD7
:1024400003F37A6913443A691946F8693CF059F87C
:10245000FA693B691344FB61BB690133BB613B8D86
:10246000BA699A42E9D300BF00BF2037BD4680BD9C
:1024700080B489B000AFF860B9607A607B800023D7
:10248000FB8356E0FB8B7A6802FB03F3FA68134484
:10249000BB610023FB8245E0BB691978FB8B7A881E
:1024A00003FB02F2FB8A13449B00BA68134407EE55
:1024B000901AF8EE677AC3ED007ABB690133187899
:1024C0003B8D7A8803FB02F2FB8B798801FB03F3D7
:1024D0001A44FB8A13449B00BA68134407EE900A1F
:1024E000F8EE677AC3ED007ABB69023318783B8D4A
:1024F0007A8802FB03F35A00FB8B798801FB03F314
:102500001A44FB8A13449B00BA68134407EE900AEE
:10251000F8EE677AC3ED007ABB690333BB61FB8ACF
:102520000133FB82FA8A7B889A42B5D3FB8B013355
:10253000FB83FA8B3B8D9A42A4D300BF00BF2437A4
:10254000BD465DF8047B704780B489B000AFF86089
:10255000B9607A607B800023FB837AE0FB8B7A682A
:1025600002FB03F3FA681344BB610023FB8269E0BA
:10257000BB691B7807EE903AF8EE677AB7EEE77A18
:102580009FED396B37EE466B9FED375B86EE057B33
:10259000FB8B7A8803FB02F2FB8A13449B00BA6828
:1025A0001344F7EEC77BC3ED007ABB6901331B7898
:1025B00007EE903AF8EE677AB7EEE77A9FED2A6B6E
:1025C00037EE466B9FED285B86EE057B3B8D7A8868
:1025D00003FB02F2FB8B798801FB03F31A44FB8AAD
:1025E00013449B00BA681344F7EEC77BC3ED007A2F
:1025F000BB6902331B7807EE903AF8EE677AB7EEC4
:10260000E77A9FED196B37EE466B9FED175B86EE11
:10261000057B3B8D7A8802FB03F35A00FB8B79889C
:1026200001FB03F31A44FB8A13449B00BA6813446A
:10263000F7EEC77BC3ED007ABB690333BB61FB8A4E
:102640000133FB82FA8A7B889A4291D3FB8B013358
:10265000FB83FA8B3B8D9A4280D300BF00BF2437A7
:10266000BD465DF8047B70470000000000E05F405D
:1026700080B59AB000AFF8627A621A4687ED080A10
:10268000C7ED070A87ED061AC7ED051A87ED042A7C
:10269000C7ED032A87ED023AC7ED013A0B467B8569
:1026A00013463B8597ED017AD7ED037A77EE676A9B
:1026B00097ED027AD7ED047A77EE677AF0EE670A43
:1026C000B0EE660A3DF000FEF0EE407AF1EE677A79
:1026D000C7ED167A97ED160A3FF0E6FA87ED150A70
:1026E00097ED160A3FF01CFA87ED140AB7F874202C
:1026F000B7F878309A4206D9B7F8743007EE903AB6
:10270000F8EE677A05E0B7F8783007EE903AF8EE21
:10271000677AC7ED137AB7F8743007EE903AF8EE9F
:10272000677A97ED137A77EE677AB6EE007A67EEFE
:10273000877AC7ED127AB7F8783007EE903AF8EE5C
:10274000677A97ED137A77EE677AB6EE007A67EEDE
:10275000877AC7ED117A0023A7F86630F8E0B7F85A
:10276000663007EE903AB8EE677AD7ED117A77EED9
:10277000277AB6EE007A77EE876A97ED137AC6EE7F
:10278000877AB6EE007A77EEC77AC7ED107A002323
:10279000A7F86430D0E0B7F8643007EE903AB8EEAE
:1027A000677AD7ED127A77EE277AB6EE007A77EE6F
:1027B000876A97ED137AC6EE877AB6EE007A77EEDF
:1027C000C77AC7ED0F7A97ED0F7AD7ED067A27EE25
:1027D000277AD7ED157A27EE277AD7ED087A37EEE4
:1027E000277AD7ED106AD7ED057A66EEA76AD7ED9E
:1027F000147A66EEA77A77EE277AC7ED187A97ED06
:10280000107AD7ED057A27EE277AD7ED157A27EEDD
:10281000277AD7ED077A37EE277AD7ED0F6AD7ED0B
:10282000067A66EEA76AD7ED147A66EEA77A77EE97
:10283000677AC7ED177AD7ED187AF5EEC07AF1EE20
:1028400010FA02D54FF000033B663B8D07EE903A3D
:10285000F8EEE77A97ED187AB4EEE77AF1EE10FA2F
:1028600007DB3B8D013B07EE903AF8EEE77AC7EDC8
:10287000187AD7ED177AF5EEC07AF1EE10FA02D594
:102880004FF00003FB65B7F8703007EE903AF8EEB2
:10289000E77A97ED177AB4EEE77AF1EE10FA08DBF3
:1028A000B7F87030013B07EE903AF8EEE77AC7EDE3
:1028B000177AD7ED177AFCEEE77A17EE902A7B8D20
:1028C00002FB03F3D7ED187AFCEEE77A17EE902AB5
:1028D00013445B00FA6A1344BB63B7F86630B7F879
:1028E000742003FB02F2B7F864301A4413465B000D
:1028F00013447A6A13447B63BB6B1B887B867B8E95
:10290000DB0A9BB2DBB2DB00DAB27B6B1A707B8E28
:102910005B099BB2DAB27B6B01339200D2B21A70C0
:102920007B8EDAB27B6B0233D200D2B21A70B7F868
:1029300064300133A7F86430B7F86420B7F8743016
:102940009A42FFF428AFB7F866300133A7F8663033
:10295000B7F86620B7F878309A42FFF400AF00BFAE
:1029600000BF6837BD4680BD90B58DB002AFF8603E
:10297000B9607A60904B18688F4B59688E4B9A6893
:102980008D4BDB68002400942CF0CEFF00237B628B
:1029900007E17A6A13465B001344DB001A46FB68C2
:1029A000134493ED017A7A6A13465B001344DB000B
:1029B0001A46FB681344D3ED036AB0EE006AC6EE14
:1029C000867A37EE677A7D4B9B6807EE903AF8EE91
:1029D000677A67EE277AFCEEE77A17EE902A774B54
:1029E0001B6813443B627A6A13465B001344DB00A6
:1029F0001A46FB68134493ED027A7A6A13465B0029
:102A00001344DB001A46FB681344D3ED046AB0EEAE
:102A1000006AC6EE867A37EE677A684BDB6807EEA7
:102A2000903AF8EE677A67EE277AFCEEE77A17EECF
:102A3000903AFB617A6A13465B001344DB001A4646
:102A4000FB68134493ED037A5C4B9B6807EE903A66
:102A5000F8EE677A67EE277AFCEEE77A17EE903A9F
:102A6000BB617A6A13465B001344DB001A46FB68BD
:102A7000134493ED047A514BDB6807EE903AF8EE7D
:102A8000677A67EE277AFCEEE77A17EE903A7B6179
:102A90004A4B1A68494B9B6813443A6A9A4206D3D8
:102AA000464B1A68454B9B681344013B00E03B6A68
:102AB0003B62424B5A68414BDB681344FA699A42C5
:102AC00006D33E4B5A683D4BDB681344013B00E0A4
:102AD000FB69FB613A6ABB691A44384B1968374B8A
:102AE0009B680B449A4208D3344B1A68334B9B685B
:102AF0001A443B6AD31A013B00E0BB69BB61FA6927
:102B00007B691A442D4B59682C4BDB680B449A4265
:102B100008D32A4B5A68294BDB681A44FB69D31A3D
:102B2000013B00E07B697B617A6A13465B001344DA
:102B3000DB001A46FB681344D3ED007A9FED207A40
:102B4000F4EEC77AF1EE10FAACBF01230023DBB23A
:102B50003B611C4A3B6952F8233000937B69BA6998
:102B6000F969386A2CF0B6FEFB69A3F10F017A6AA5
:102B700013465B001344DB001A46FB681344D3ED95
:102B8000007A9FED117A67EE877AB7EEE77A8DEDDE
:102B9000007B0E4B0322386A08F0B8FD7B6A0133D4
:102BA0007B627A6ABB689A42FFF4F3AE00BF00BF53
:102BB0002C37BD4690BD00BF14D80A3404D80A345F
:102BC0003333333F9C7A04340000C8420035043468
:102BD00080B588B000AFF860B9607A600023FB610F
:102BE0006FE00023BB6165E0FA6913465B001344A4
:102BF000DB001A46FB6813445A69BB69DB001344C7
:102C000093ED007A334B9B6807EE903AF8EE677AC3
:102C100067EE277AFCEEE77A17EE902A2D4B1B68B9
:102C200013447B61FA6913465B001344DB001A46C8
:102C3000FB6813445A69BB69DB00134493ED017AC6
:102C4000244BDB6807EE903AF8EE677A67EE277A56
:102C5000FCEEE77A17EE903A3B611E4B1A681D4B6B
:102C60009B6813447A699A4206D31A4B1A68194B27
:102C70009B681344013B00E07B697B61154B5A68FC
:102C8000144BDB6813443A699A4206D3114B5A68D5
:102C9000104BDB681344013B00E03B693B617B69FF
:102CA0009BB23A6991B20C4A18462CF097FCBB696A
:102CB0000133BB61BA697B689A4295D3FB690133E2
:102CC000FB61FA69BB689A428BD300BF00BF203713
:102CD000BD4680BD04D80A340000FFFF80B58AB02D
:102CE00004AF78601B4B7B611B4B3B613B69002B46
:102CF0001DDD7B6903F01F023B691344FB607B69A8
:102D0000BB60BFF34F8F00BF144ABB68C2F85C3290
:102D1000BB682033BB60FB68203BFB60FB68002B7B
:102D2000F2DCBFF34F8F00BFBFF36F8F00BF00BF58
:102D30000B4B99680A4BDA68002302937B68019376
:102D4000084B00930223034800F060FB00BF1837D4
:102D5000BD4680BD009C199100B80B0000ED00E05D
:102D600004D80A340835043490B587B002AFF8604F
:102D7000B9607A604FF080402CF0F8FA2CF01EFB1E
:102D80000346DB881A4613469B0013449B001946F2
:102D9000BB6800931A4B0122002008F0B7FC2CF00E
:102DA0000DFB0346DB881A4613465B001344DA002A
:102DB000D31A1C4609F05CFA03460A2201920093DA
:102DC000104B01222146002008F0A0FC2CF0F6FA5E
:102DD0000346DB881A46162302FB03F319467B6879
:102DE0000093094B0122002008F090FC00202CF0F9
:102DF000BDFA00F0D3F800BF1437BD4690BD00BF48
:102E00000C3504341C3504343035043480B586B0B8
:102E100000AFF860B9607A603B60254B1B68254ABB
:102E200002FB03F3244A134401221946234814F0F9
:102E3000A5FF03467B617B69002B05D0204B214A0F
:102E40008421214839F056FFFB681868FB685B68ED
:102E50003A681946FFF788FDFB681868FB685B68ED
:102E600005221946FFF7B4FEF868FFF737FFFB6845
:102E70005B687A68B9681846FFF776FF012202217D
:102E80000E4814F037FF03467B617B69002B05D0A9
:102E90000B4B0C4A8E210C4839F02CFF044B1B685D
:102EA000C3F10103024A136000BF1837BD4680BD5D
:102EB000F0E10A3400B80B000000009148D20B3456
:102EC00040350434C47A04345035043480B500AF3E
:102ED000012100200AF07CFF294B1B68294A13605E
:102EE000274B5B68274A9360254B1A68244B9B68E5
:102EF0001344244A5360224B5A68214BDB68134425
:102F0000204AD3601F4B02221A611F4A1D4B5A618F
:102F10001C4A002100200BF00FF91C4B1B68194ABA
:102F200013601A4B5B68174A9360184B1A68174B6B
:102F30009B681344134A5360144B5A68134BDB6865
:102F40001344104AD3600F4B04221A61104A0D4BF0
:102F50005A610C4A012100200BF0EEF80D482CF0CC
:102F600057F901202CF0AAF900202CF0A5FB0A4803
:102F70002CF010FA4FF0FF302CF0E4F900BF80BDC8
:102F800004D80A34F4E10A34009C199114D80A34A4
:102F900000000091D4830A348CD90A3480B500AF84
:102FA000214B1B68002B04D10DF0FCF903461E4A8F
:102FB00013600DF0F7F902461B4B1B68D31AB3F5EB
:102FC0007A6F2ED24FF080402CF0D0F92CF0F6F929
:102FD0000346DB881B011946144B0122002008F030
:102FE00095FB2CF0EBF90346DB881A4613461B01D0
:102FF000134419460E4B0122002008F087FB2CF0E9
:10300000DDF90346DB881A461346DB0013445B00F8
:103010001946084B0122002008F078FB00202CF014
:10302000A5F900BF80BD00BF0CE20A34943504341A
:10303000A8350434C035043480B485B000AF78605E
:10304000074A7B68C2F85C3A054BD3F85C32FB60F8
:10305000FB6800BF1437BD465DF8047B704700BFB6
:103060000080025680B500AF114B124A1A60104B17
:1030700000221A710E4B00225A710D4B0022DA60A9
:103080000B4B00225A610A4B00229A61084B032223
:103090001A624FF40020FFF7CFFF05480DF004FD42
:1030A0000346002B01D0002300E00123184680BD19
:1030B00054E20A34004C025680B582B000AF78600A
:1030C00039607B68002B02D03B68002B01D10023C4
:1030D00008E03B6803339B081A46796803480DF003
:1030E000C1FD034618460837BD4680BD54E20A3488
:1030F00080B483B000AF0346FB71FB790F2B15D86A
:10310000FB790E4903F1100252000A449288013201
:1031100090B20A4903F1100252000A44014691801C
:10312000064A10335B0013449B8800E000231846D6
:103130000C37BD465DF8047B704700BF10E20A34CF
:1031400080B485B000AF0346FB80FB88DB0A9BB2EE
:10315000DBB2DB00FB73FB885B099BB2DBB29B003D
:10316000BB73FB88DBB2DB007B73FA7B13461B016E
:103170009B1A5B001946BA7B13461B019B1A9B00E6
:103180009B1A19447A7B13469B0013445B0013443B
:103190000B44064A82FB03125211DB17D31ADBB22F
:1031A00018461437BD465DF8047B70471F85EB5108
:1031B00080B483B000AF0346FB710B46BB7113466E
:1031C0007B71FA7913461B019B1A5B001946BA7989
:1031D00013461B019B1A9B009B1A19447A791346CC
:1031E0009B0013445B0013440B44064A82FB03120A
:1031F0005211DB17D31ADBB218460C37BD465DF807
:10320000047B70471F85EB5180B58AB000AF034641
:10321000B9607A60FB73604B1B7F83F00103DBB204
:10322000002B01D00023B3E07B684FF6FD72934280
:1032300006D9594B1B690133574A13610023A7E094
:103240007B6803333B623B6AB3F5803F06D9524B40
:103250001B690133504A1361002399E0FB7B3B76E5
:10326000FB7B1846FFF744FF0346FB83FB8BDBB277
:103270007B76FB8B1B0A9BB2DBB2BB7600237B62A7
:103280007B68002B04D07968B868FFF715FF786277
:103290007B6ADBB23B757B6A1B0ADBB27B757B6AA0
:1032A0001B0CDBB2BB757B6A1B0EDBB2FB75AA2362
:1032B0003B743B6ADBB27B743B6A1B0ADBB2BB74B8
:1032C0003A7C7B7C5340DAB2BB7C5340DBB2FB746C
:1032D00007F110014FF47A730422304825F07AF98F
:1032E00003467B777B7F002B06D02B4B1B6901337A
:1032F000294A136100234BE007F118014FF47A7358
:103300000322264825F066F903467B777B7F002B56
:1033100006D0214B1B6901331F4A1361002337E09C
:103320007B68002B13D07B689AB24FF47A73B9682C
:103330001A4825F04FF903467B777B7F002B06D098
:10334000154B1B690133144A1361002320E007F178
:1033500014014FF47A730422104825F03BF9034618
:103360007B777B7F002B06D00B4B1B6901330A4A0E
:10337000136100230CE0084B1B680133064A1360FD
:10338000054B9A683B6A13440833034A9360012350
:1033900018462837BD4680BD10E20A345CC60B349F
:1033A00080B500AF144B1B7F002B22D113490020A6
:1033B00009F0A8FEFFF756FE034683F00103DBB2D7
:1033C000002B03D00E483AF08DFC13E01C220021A4
:1033D00009483AF0F3FD202200210A483AF0EEFDB8
:1033E000054B01221A7708483AF07CFC00F0E8F916
:1033F00000E000BF80BD00BF10E20A3424D80A34C8
:10340000EC35043434E20A3414360434B0B594B0E4
:1034100000AFF860B9607A603B60FB68002B02D0B7
:103420003B6E002B01D10023E8E07649386EFEF7B1
:103430007DF80346002B0CBF0123002387F83F30A3
:1034400097F83F30002B01D0012300E00223BB633B
:10345000BA68BB6BB2FBF3F3FB647A68BB6BB2FB7D
:10346000F3F3BB64FB6CB3F5A07F02D94FF4A073F8
:10347000FB64BB6CF02B01D9F023BB6400237B649D
:1034800068E07B6CBA6B02FB03F3BA6802FB03F3E0
:103490003A6802FB03F3FA681344BB6200233B64FF
:1034A00051E03B68022B19D1BB6A3B623B6CBA6BA3
:1034B00002FB03F35B003A6A13441B88FB837B6CBB
:1034C000FA6C03FB02F23B6CD418FB8B1846FFF737
:1034D00037FE03461A464C4B1A5531E03B68032B26
:1034E0001FD13B6CBA6B03FB02F213465B00134423
:1034F000BA6A13447B627B6A18787B6A0133197855
:103500007B6A02331D787B6CFA6C03FB02F23B6C26
:10351000D4182A46FFF74CFE03461A463A4B1A5572
:103520000EE03B6CBA6B02FB03F3BA6A1A447B6C85
:10353000F96C03FB01F13B6C0B441178324AD15416
:103540003B6C01333B643A6CFB6C9A42A9D37B6CB5
:1035500001337B647A6CBB6C9A4292D307F11003FF
:1035600000221A605A609A60FB6C7B61BB6CBB6185
:1035700007F110030322396E18463AF017FF0023B3
:10358000FB74FB6CBA6C02FB03F37B637B6B0C3349
:103590003B633B6B4FF6FD72934206D91B4B1B6995
:1035A00001331A4A1361002328E0194B1C4607F126
:1035B000100393E8070084E80700164B7A6B124962
:1035C00018463AF09EFF3A6B11490120FFF71CFEA6
:1035D000034687F82F30BB6E002B02D0B86E00F088
:1035E000DBF87B6E002B07D07B6E5B68002B03D073
:1035F000796E002000F05AF897F82F3018465037AF
:10360000BD46B0BD4C3604340070189110E20A3447
:10361000007017910C70179180B586B000AF78607C
:1036200039607B68002B06D03B68002B03D03B68D9
:10363000B3F5806F01D900232FE01A4B7B61002383
:103640003B613B68BB607A693B691344BA681A60A6
:103650003B6904333B613B689B00FB603A69FB6854
:103660001344B3F5803F06D90F4B1B6901330E4A53
:103670001361002311E07A693B691344FA687968A1
:1036800018463AF03EFF3A69FB6813443B613A69D9
:1036900079690320FFF7B8FD034618461837BD4681
:1036A00080BD00BF0070179110E20A34B0B590B031
:1036B00000AF786039603B68002B03D03B685B68E3
:1036C000002B01D1002360E0324B7B630023FB63BE
:1036D0007B687B623B685B68BB627A6BFB6B134405
:1036E0001A4607F1240303CB10605160FB6B0833CB
:1036F000FB630A233B630023BB6335E03B68196827
:10370000BA6B13465B001344DB000B44FB620023DF
:10371000BB60FB6A5B68FB60FB6A9B683B61FB6AA2
:10372000DB687B61FB6A1B69BB61FB6A1B68FB6131
:1037300000233B62FB6B1C33B3F5803F1ED87A6BD2
:10374000FB6B13441D4607F108040FCC2860696029
:10375000AA60EB6007CC28616961AA61FB6B1C332E
:10376000FB63BB6B0133BB633B685B68BA6B9A421C
:1037700005D2BA6B3B6B9A42C0D300E000BFFA6B34
:10378000796B0220FFF740FD034618464037BD46DF
:10379000B0BD00BF0070179180B582B000AF7860F7
:1037A0007B68002B01D1002305E01C2279680420EE
:1037B000FFF72AFD034618460837BD4680BD0000C6
:1037C00080B582B000AF0CF0EDFD03467B603B1D81
:1037D000042219460520FFF717FD7B68024A136291
:1037E00000BF0837BD4680BD10E20A3480B582B004
:1037F00000AF786039607A683B681344194678688E
:1038000007F0C8FE00BF0837BD4680BD80B582B056
:1038100000AF786039607A683B681344194678686D
:1038200007F076FE00BF0837BD4680BD80B485B086
:1038300000AFF860B9607A60032318461437BD46BC
:103840005DF8047B704780B483B000AF78600023DC
:1038500018460C37BD465DF8047B704780B485B0D0
:1038600000AFF860B9607A60032318461437BD468C
:103870005DF8047B704780B483B000AF78600023AC
:1038800018460C37BD465DF8047B704780B400AF26
:1038900001231846BD465DF8047B704780B400AF35
:1038A00001231846BD465DF8047B704780B5B0B073
:1038B00000AF786007F10C03B422002118463AF0FB
:1038C0007DFB28233B7303233B6180237B618023A3
:1038D000BB610123FB614FF440433B624FF48033F3
:1038E0007B624FF40073BB620423FB624FF44033EE
:1038F0003B631D4B7B630323FB6380233B6480237B
:103900007B640123BB644FF44043FB644FF480436A
:103910003B6580237B650123BB654FF44043FB651A
:10392000124B3B66012387F864300123BB67104BC1
:10393000C7F88C30012387F890300123C7F8A430F2
:103940000C4BC7F8B830012387F8BC3007F10C03E3
:10395000184635F001FB4FF440410448FFF746FF9D
:1039600000BFC037BD4680BD00002E34000031349A
:10397000F07625714077257180B582B000AF786010
:103980004FF4C0710348FFF741FF00BF0837BD4641
:1039900080BD00BF80EB2F3480B584B002AF78606B
:1039A0004FF4C0610C48FFF731FF002100202EF0DA
:1039B000CDFB09230193032300930123074A04212C
:1039C00007482FF02DFE4FF4C0610348FFF70EFFAC
:1039D00000BF0837BD4680BD00E02F34F89707349C
:1039E000E096073480B586B004AF78604FF4C061CC
:1039F0000D48FFF70BFF002100202EF0A7FB01234D
:103A0000029300230193022300930223074A01211A
:103A100007482FF0E9FD4FF4C0610348FFF7E6FEC9
:103A200000BF0837BD4680BD00E62F34309907340B
:103A3000C098073480B582B000AF78604FF4C061A1
:103A40000348FFF7E3FE00BF0837BD4680BD00BF57
:103A500000FA2F3480B584B002AF78604FF4C051C3
:103A60000C48FFF7D3FE002100202EF06FFB05234A
:103A70000193042300930123074A042107482FF0F0
:103A8000CFFD4FF4C0510348FFF7B0FE00BF083729
:103A9000BD4680BD00E02F34089B0734F099073401
:103AA00080B586B004AF78604FF4C0510D48FFF781
:103AB000ADFE002100202EF049FB072302930623D0
:103AC0000193022300930223074A012107482FF0A4
:103AD0008BFD4FF4C0510348FFF788FE00BF083745
:103AE000BD4680BD00F82F34409C0734D09B07347E
:103AF00080B582B000AF78604FF4C0510348FFF743
:103B000085FE00BF0837BD4680BD00BF00E02F34F2
:103B100080B584B002AF78604FF4C0410C48FFF725
:103B200075FE002100202EF011FB022301930123DA
:103B300000930123074A042107482FF071FD4FF439
:103B4000C0410348FFF752FE00BF0837BD4680BDA5
:103B500000603134189E0734009D073480B586B06C
:103B600004AF78604FF4C0410D48FFF74FFE0021CD
:103B700000202EF0EBFA0823029303230193022383
:103B800000930223074A012107482FF02DFD4FF42F
:103B9000C0410348FFF72AFE00BF0837BD4680BD7D
:103BA00000C03134509F0734E09E073480B582B0A6
:103BB00000AF78604FF420510348FFF727FE00BFA5
:103BC0000837BD4680BD00BF0020303480B5B0B09E
:103BD00000AF786007F10C03B422002118463AF0D8
:103BE000EDF92A233B7320233B6120237B610A23C9
:103BF000BB610123FB614FF420533B624FF4A07380
:103C00007B620A23BB620123FB624FF420533B63B8
:103C10001E4B7B63012387F838302023FB6320236E
:103C20003B640A237B640123BB644FF42053FB6491
:103C30004FF4A0633B6528237B650423BB654FF4E9
:103C40002043FB65124B3B66012387F86430012358
:103C5000BB67104BC7F88C30012387F890300123E5
:103C6000C7F8A4300C4BC7F8B830012387F8BC3034
:103C700007F10C03184635F0F5FA4FF420410448DB
:103C8000FFF7B4FD00BFC037BD4680BD0020303413
:103C900000002E34007725715077257180B582B0F1
:103CA00000AF78604FF480510348FFF7AFFD00BFCD
:103CB0000837BD4680BD00BF00002F3480B5B0B0CE
:103CC00000AF786007F10C03B422002118463AF0E7
:103CD00075F92A233B7320233B6120237B61022358
:103CE000BB610123FB614FF400633B6240237B62B5
:103CF0000223BB620123FB624FF400633B631F4B53
:103D00007B63012387F838302023FB6320233B6447
:103D100002237B640123BB644FF40063FB644FF414
:103D200080733B6508237B650423BB654FF4005318
:103D3000FB65134B3B66012387F864300123BB67A7
:103D4000104BC7F88C30012387F890300123C7F857
:103D5000A4300D4BC7F8B830012387F8BC3007F109
:103D60000C03184635F07EFA4FF400510448FFF773
:103D70003DFD00BFC037BD4680BD00BF00002F34F1
:103D800000602F34107725716077257180B5B0B051
:103D900000AF786007F10C03B422002118463AF016
:103DA0000DF92A233B7320233B6120237B610223EF
:103DB000BB610123FB614FF400633B6240237B62E4
:103DC0000223BB620123FB624FF400633B631F4B82
:103DD0007B63012387F838302023FB6320233B6477
:103DE00002237B640123BB644FF40063FB644FF444
:103DF00080733B6508237B650423BB654FF4005348
:103E0000FB65134B3B66012387F864300123BB67D6
:103E1000104BC7F88C30012387F890300123C7F886
:103E2000A4300D4BC7F8B830012387F8BC3007F138
:103E30000C03184635F016FA4FF400510448FFF70A
:103E4000D5FC00BFC037BD4680BD00BF00082F3481
:103E500000802F34207725717077257180B582B06E
:103E600000AF78604FF480610348FFF7CFFC00BFDC
:103E70000837BD4680BD00BF00B02E3480B5B0B05D
:103E800000AF786007F10C03B422002118463AF025
:103E900095F82A233B7320233B6120237B61012378
:103EA000BB610123FB614FF480633B6220237B6293
:103EB0000123BB620123FB624FF480633B631E4B13
:103EC0007B63012387F838302023FB6320233B6486
:103ED00001237B640123BB644FF48063FB64802374
:103EE0003B6504237B650423BB654FF48053FB656E
:103EF000124B3B66012387F864300123BB67104BEC
:103F0000C7F88C30012387F890300123C7F8A4301C
:103F10000C4BC7F8B830012387F8BC3007F10C030D
:103F2000184635F09FF94FF480510448FFF75EFCC6
:103F300000BFC037BD4680BD00B02E3400A02E3477
:103F4000307725718077257180B400AF024B184619
:103F5000BD465DF8047B704710A0073480B400AF05
:103F6000024B1846BD465DF8047B7047A0A107349C
:103F700080B400AF024B1846BD465DF8047B704725
:103F800030A2073480B400AF024B1846BD465DF83E
:103F9000047B7047A8A3073480B582B000AF786077
:103FA00039607A683B6813441946786807F0F2FA7A
:103FB00000BF0837BD4680BD80B582B000AF7860D5
:103FC00039607A683B6813441946786807F0A0FAAC
:103FD00000BF0837BD4680BD80B485B000AFF86033
:103FE000B9607A60032318461437BD465DF8047B38
:103FF000704780B483B000AF7860002318460C3758
:10400000BD465DF8047B704780B485B000AFF860B2
:10401000B9607A60032318461437BD465DF8047B07
:10402000704780B483B000AF7860002318460C3727
:10403000BD465DF8047B704780B400AF012318468D
:10404000BD465DF8047B704780B400AF012318467D
:10405000BD465DF8047B704780B582B000AF7860E4
:104060004FF413310348FFF7A7FF00BF0837BD46E1
:1040700080BD00BF004C303480B5B0B000AF786078
:1040800007F10C03B4220021184639F097FF2823CA
:104090003B7370233B6170237B610323BB6101236E
:1040A000FB614FF413433B624FF4A8637B620C2324
:1040B000BB620423FB624FF413333B631D4B7B63F2
:1040C0007023FB6370233B6403237B640123BB6485
:1040D0004FF41343FB644FF4A8733B6503237B65E4
:1040E0000123BB654FF41343FB65134B3B66012370
:1040F00087F864300123BB67104BC7F88C3001236D
:1041000087F890300123C7F8A4300D4BC7F8B830BA
:10411000012387F8BC3007F10C03184634F01CFF6C
:104120004FF413410448FFF737FF00BFC037BD46C7
:1041300080BD00BF004C303400983234C0F01272A1
:1041400030F5127280B582B000AF78604FF4443120
:104150000348FFF731FF00BF0837BD4680BD00BFF1
:1041600000002E3480B5B0B000AF786007F10C03CA
:10417000B4220021184639F021FF2A233B7338234B
:104180003B6138237B614023BB610123FB614FF41A
:1041900044333B624FF460637B624023BB62012384
:1041A000FB624FF444333B631D4B7B63012387F871
:1041B00038303823FB6338233B6440237B6401237E
:1041C000BB644FF44433FB644FF460533B654FF4DE
:1041D00080737B650423BB654FF44423FB65114B5F
:1041E0003B660123BB67104BC7F88C30012387F86F
:1041F00090300123C7F8A4300C4BC7F8B830012326
:1042000087F8BC3007F10C03184635F02BF84FF453
:1042100044210448FFF7C0FE00BFC037BD4680BD43
:1042200000002E3400001034E0EC127250F11272D3
:1042300080B5AAB000AF786007F10C039C22002182
:10424000184639F0BBFE02233B7338233B61382309
:104250007B614023BB610123FB614FF444333B622C
:104260004FF460537B624FF48073BB620423FB62A4
:104270004FF444233B63214B7B633823FB63382398
:104280003B6440237B640123BB644FF44433FB64F1
:104290004FF460533B654FF480737B650423BB652B
:1042A0004FF44423FB65164B3B660123BB66012399
:1042B000FB6641233B6701237B674123BB674FF4C8
:1042C0008273FB674FF48273C7F880300423C7F80A
:1042D00084304FF48273C7F888300A4BC7F88C30AB
:1042E00007F10C03184632F081F94FF444210448D9
:1042F000FFF752FE00BFA837BD4680BD0000103456
:1043000000401C34B0EA127280B5B0B000AF7860E3
:1043100007F10C03B4220021184639F04FFE282380
:104320003B7338233B6138237B614023BB6101230E
:10433000FB614FF444333B624FF460537B624FF4B4
:104340008073BB620423FB624FF444233B631D4B29
:104350007B633823FB6338233B6440237B64012366
:10436000BB644FF44433FB644FF460633B6540230C
:104370007B650123BB654FF44433FB65124B3B6601
:10438000012387F864300123BB67104BC7F88C30DA
:10439000012387F890300123C7F8A4300C4BC7F8ED
:1043A000B830012387F8BC3007F10C03184634F00D
:1043B000D3FD4FF444310448FFF7EEFD00BFC03792
:1043C000BD4680BD00401C3400103134C0ED127277
:1043D00030F2127280B582B000AF78604FF4443191
:1043E0000348FFF7E9FD00BF0837BD4680BD00BFA9
:1043F00000002E3480B5B0B000AF786007F10C0338
:10440000B4220021184639F0D9FD2A233B73382302
:104410003B6138237B614023BB610123FB614FF487
:1044200044333B624FF460637B624023BB620123F1
:10443000FB624FF444333B631D4B7B63012387F8DE
:1044400038303823FB6338233B6440237B640123EB
:10445000BB644FF44433FB644FF460533B654FF44B
:1044600080737B650423BB654FF44423FB65114BCC
:104470003B660123BB67104BC7F88C30012387F8DC
:1044800090300123C7F8A4300C4BC7F8B830012393
:1044900087F8BC3007F10C03184634F0E3FE4FF404
:1044A00044210448FFF778FD00BFC037BD4680BDFA
:1044B00000002E3400001034F0EC127260F1127221
:1044C00080B5AAB000AF786007F10C039C220021F0
:1044D000184639F073FD02233B7338233B613823C0
:1044E0007B614023BB610123FB614FF444333B629A
:1044F0004FF460537B624FF48073BB620423FB6212
:104500004FF444233B63214B7B633823FB63382305
:104510003B6440237B640123BB644FF44433FB645E
:104520004FF460533B654FF480737B650423BB6598
:104530004FF44423FB65164B3B660123BB66012306
:10454000FB6641233B6701237B674123BB674FF435
:104550008273FB674FF48273C7F880300423C7F877
:1045600084304FF48273C7F888300A4BC7F88C3018
:1045700007F10C03184632F039F84FF4442104488F
:10458000FFF70AFD00BFA837BD4680BD000010340C
:1045900000102A34C0EB127280B5B0B000AF786062
:1045A00007F10C03B4220021184639F007FD282337
:1045B0003B7338233B6138237B614023BB6101237C
:1045C000FB614FF444333B624FF460537B624FF422
:1045D0008073BB620423FB624FF444233B631D4B97
:1045E0007B633823FB6338233B6440237B640123D4
:1045F000BB644FF44433FB644FF460633B6540237A
:104600007B650123BB654FF44433FB65124B3B666E
:10461000012387F864300123BB67104BC7F88C3047
:10462000012387F890300123C7F8A4300C4BC7F85A
:10463000B830012387F8BC3007F10C03184634F07A
:104640008BFC4FF444310448FFF7A6FC00BFC03791
:10465000BD4680BD00102A3400002734D0ED127210
:1046600040F2127280B582B000AF78604FF4C4217E
:104670000348FFF7A1FC00BF0837BD4680BD00BF5F
:1046800000002E3480B5B0B000AF786007F10C03A5
:10469000B4220021184639F091FC2A233B733823B9
:1046A0003B6138237B618023BB610123FB614FF4B5
:1046B000C4233B624FF4E0537B628023BB6201233F
:1046C000FB624FF4C4233B631D4B7B63012387F8DC
:1046D00038303823FB6338233B6480237B64012319
:1046E000BB644FF4C423FB644FF4E0433B654FF4D9
:1046F00000737B650423BB654FF4C413FB65114B4A
:104700003B660123BB67104BC7F88C30012387F849
:1047100090300123C7F8A4300C4BC7F8B830012300
:1047200087F8BC3007F10C03184634F09BFD4FF4BA
:10473000C4110448FFF730FC00BFC037BD4680BD40
:1047400000002E3400001034D0EC127240F11272CE
:1047500080B5AAB000AF786007F10C039C2200215D
:10476000184639F02BFC02233B7338233B61382376
:104770007B618023BB610123FB614FF4C4233B6257
:104780004FF4E0437B624FF40073BB620423FB628F
:104790004FF4C4133B63224B7B633823FB63382302
:1047A0003B6480237B640123BB644FF4C423FB641C
:1047B0004FF4E0433B654FF400737B650423BB6516
:1047C0004FF4C413FB654FF010433B660123BB66F7
:1047D0000123FB6681233B6701237B678123BB6742
:1047E0004FF40173FB674FF40173C7F88030042363
:1047F000C7F884304FF40173C7F88830094BC7F805
:104800008C3007F10C03184631F0F0FE4FF4C41160
:104810004FF01040FFF7C0FB00BFA837BD4680BD7A
:104820000000103410D2127280B5B0B000AF7860C2
:1048300007F10C03B4220021184639F0BFFB2823EE
:104840003B7338233B6138237B618023BB610123A9
:10485000FB614FF4C4233B624FF4E0437B624FF4AF
:104860000073BB620423FB624FF4C4133B634FF03D
:1048700010437B633823FB6338233B6480237B64D2
:104880000123BB644FF4C423FB644FF4E0533B6546
:1048900080237B650123BB654FF4C423FB65124B6A
:1048A0003B66012387F864300123BB670F4BC7F8D1
:1048B0008C30012387F890300123C7F8A4300C4BCB
:1048C000C7F8B830012387F8BC3007F10C0318464D
:1048D00034F042FB4FF4C4210348FFF75DFB00BFF7
:1048E000C037BD4680BD00BF00002E3410ED1272EF
:1048F00080F1127280B582B000AF78604FF4C4319D
:104900000348FFF759FB00BF0837BD4680BD00BF15
:104910000000273480B5B0B000AF786007F10C0319
:10492000B4220021184639F049FB2A233B731C238B
:104930003B611C237B618023BB610123FB614FF43E
:10494000C4333B624FF460637B628023BB6201230C
:10495000FB624FF4C4333B631D4B7B63012387F839
:1049600038301C23FB631C233B6480237B640123BE
:10497000BB644FF4C433FB644FF460533B654FF4A6
:1049800000737B650423BB654FF4C423FB65114BA7
:104990003B660123BB67104BC7F88C30012387F8B7
:1049A00090300123C7F8A4300C4BC7F8B83001236E
:1049B00087F8BC3007F10C03184634F053FC4FF471
:1049C000C4210448FFF7E8FA00BFC037BD4680BDE8
:1049D0000000273400002E3420ED127290F1127284
:1049E00080B5AAB000AF786007F10C039C220021CB
:1049F000184639F0E3FA02233B731C233B611C2366
:104A00007B618023BB610123FB614FF4C4333B62B4
:104A10004FF460537B624FF40073BB620423FB626C
:104A20004FF4C4233B63214B7B631C23FB631C2398
:104A30003B6480237B640123BB644FF4C433FB6479
:104A40004FF460533B654FF400737B650423BB65F3
:104A50004FF4C423FB65164B3B660123BB66012361
:104A6000FB6681233B6701237B678123BB674FF490
:104A70000173FB674FF40173C7F880300423C7F854
:104A800084304FF40173C7F888300A4BC7F88C3074
:104A900007F10C03184631F0A9FD4FF4C421044876
:104AA000FFF77AFA00BFA837BD4680BD00002E345C
:104AB0000000273420D4127280B5B0B000AF786007
:104AC00007F10C03B4220021184639F077FA2823A5
:104AD0003B731C233B611C237B618023BB6101234F
:104AE000FB614FF4C4333B624FF460537B624FF47D
:104AF0000073BB620423FB624FF4C4233B631D4B72
:104B00007B631C23FB631C233B6480237B640123A6
:104B1000BB644FF4C433FB644FF460633B65802394
:104B20007B650123BB654FF4C433FB65124B3B66C9
:104B3000012387F864300123BB67104BC7F88C3022
:104B4000012387F890300123C7F8A4300C4BC7F835
:104B5000B830012387F8BC3007F10C03184634F055
:104B6000FBF94FF4C4310448FFF716FA00BFC03711
:104B7000BD4680BD0000273400002E34C0EE127206
:104B800030F3127280B582B000AF78604FF4C43158
:104B90000348FFF711FA00BF0837BD4680BD00BFCC
:104BA0000000273480B5B0B000AF786007F10C0387
:104BB000B4220021184639F001FA2A233B731C2342
:104BC0003B611C237B618023BB610123FB614FF4AC
:104BD000C4333B624FF460637B628023BB6201237A
:104BE000FB624FF4C4333B631D4B7B63012387F8A7
:104BF00038301C23FB631C233B6480237B6401232C
:104C0000BB644FF4C433FB644FF460533B654FF413
:104C100000737B650423BB654FF4C423FB65114B14
:104C20003B660123BB67104BC7F88C30012387F824
:104C300090300123C7F8A4300C4BC7F8B8300123DB
:104C400087F8BC3007F10C03184634F00BFB4FF427
:104C5000C4210448FFF7A0F900BFC037BD4680BD9E
:104C60000000273400002E3430ED1272A0F11272D1
:104C700080B5AAB000AF786007F10C039C22002138
:104C8000184639F09BF902233B731C233B611C231C
:104C90007B618023BB610123FB614FF4C4333B6222
:104CA0004FF460537B624FF40073BB620423FB62DA
:104CB0004FF4C4233B63214B7B631C23FB631C2306
:104CC0003B6480237B640123BB644FF4C433FB64E7
:104CD0004FF460533B654FF400737B650423BB6561
:104CE0004FF4C423FB65164B3B660123BB660123CF
:104CF000FB6681233B6701237B678123BB674FF4FE
:104D00000173FB674FF40173C7F880300423C7F8C1
:104D100084304FF40173C7F888300A4BC7F88C30E1
:104D200007F10C03184631F061FC4FF4C42104482C
:104D3000FFF732F900BFA837BD4680BD00002E3412
:104D40000000273430D6127280B5B0B000AF786062
:104D500007F10C03B4220021184639F02FF928235B
:104D60003B731C233B611C237B618023BB610123BC
:104D7000FB614FF4C4333B624FF460537B624FF4EA
:104D80000073BB620423FB624FF4C4233B631D4BDF
:104D90007B631C23FB631C233B6480237B64012314
:104DA000BB644FF4C433FB644FF460633B65802302
:104DB0007B650123BB654FF4C433FB65124B3B6637
:104DC000012387F864300123BB67104BC7F88C3090
:104DD000012387F890300123C7F8A4300C4BC7F8A3
:104DE000B830012387F8BC3007F10C03184634F0C3
:104DF000B3F84FF4C4310448FFF7CEF800BFC03712
:104E0000BD4680BD0000273400002E34D0EE127263
:104E100040F3127280B582B000AF78604FF4C431B5
:104E20000348FFF7C9F800BF0837BD4680BD00BF83
:104E30000000273480B5B0B000AF786007F10C03F4
:104E4000B4220021184639F0B9F82A233B731C23F9
:104E50003B611C237B618023BB610123FB614FF419
:104E6000C4333B624FF460637B628023BB620123E7
:104E7000FB624FF4C4333B631D4B7B63012387F814
:104E800038301C23FB631C233B6480237B64012399
:104E9000BB644FF4C433FB644FF460533B654FF481
:104EA00000737B650423BB654FF4C423FB65114B82
:104EB0003B660123BB67104BC7F88C30012387F892
:104EC00090300123C7F8A4300C4BC7F8B830012349
:104ED00087F8BC3007F10C03184634F0C3F94FF4DF
:104EE000C4210448FFF758F800BFC037BD4680BD55
:104EF0000000273400002E3440ED1272B0F112721F
:104F000080B5AAB000AF786007F10C039C220021A5
:104F1000184639F053F802233B731C233B611C23D2
:104F20007B618023BB610123FB614FF4C4333B628F
:104F30004FF460537B624FF40073BB620423FB6247
:104F40004FF4C4233B63214B7B631C23FB631C2373
:104F50003B6480237B640123BB644FF4C433FB6454
:104F60004FF460533B654FF400737B650423BB65CE
:104F70004FF4C423FB65164B3B660123BB6601233C
:104F8000FB6681233B6701237B678123BB674FF46B
:104F90000173FB674FF40173C7F880300423C7F82F
:104FA00084304FF40173C7F888300A4BC7F88C304F
:104FB00007F10C03184631F019FB4FF4C4210448E3
:104FC000FEF7EAFF00BFA837BD4680BD00002E34C3
:104FD0000000273440D8127280B5B0B000AF7860BE
:104FE00007F10C03B4220021184638F0E7FF28230C
:104FF0003B731C233B611C237B618023BB6101232A
:10500000FB614FF4C4333B624FF460537B624FF457
:105010000073BB620423FB624FF4C4233B631D4B4C
:105020007B631C23FB631C233B6480237B64012381
:10503000BB644FF4C433FB644FF460633B6580236F
:105040007B650123BB654FF4C433FB65124B3B66A4
:10505000012387F864300123BB67104BC7F88C30FD
:10506000012387F890300123C7F8A4300C4BC7F810
:10507000B830012387F8BC3007F10C03184633F031
:105080006BFF4FF4C4310448FEF786FF00BFC03702
:10509000BD4680BD0000273400002E34E0EE1272C1
:1050A00050F3127280B582B000AF78604FF4C43113
:1050B0000348FEF781FF00BF0837BD4680BD00BF33
:1050C0000000273480B5B0B000AF786007F10C0362
:1050D000B4220021184638F071FF2A233B731C23A9
:1050E0003B611C237B618023BB610123FB614FF487
:1050F000C4333B624FF460637B628023BB62012355
:10510000FB624FF4C4333B631D4B7B63012387F881
:1051100038301C23FB631C233B6480237B64012306
:10512000BB644FF4C433FB644FF460533B654FF4EE
:1051300000737B650423BB654FF4C423FB65114BEF
:105140003B660123BB67104BC7F88C30012387F8FF
:1051500090300123C7F8A4300C4BC7F8B8300123B6
:1051600087F8BC3007F10C03184634F07BF84FF495
:10517000C4210448FEF710FF00BFC037BD4680BD04
:105180000000273400002E3450ED1272C0F112726C
:1051900080B5AAB000AF786007F10C039C22002113
:1051A000184638F00BFF02233B731C233B611C2382
:1051B0007B618023BB610123FB614FF4C4333B62FD
:1051C0004FF460537B624FF40073BB620423FB62B5
:1051D0004FF4C4233B63214B7B631C23FB631C23E1
:1051E0003B6480237B640123BB644FF4C433FB64C2
:1051F0004FF460533B654FF400737B650423BB653C
:105200004FF4C423FB65164B3B660123BB660123A9
:10521000FB6681233B6701237B678123BB674FF4D8
:105220000173FB674FF40173C7F880300423C7F89C
:1052300084304FF40173C7F888300A4BC7F88C30BC
:1052400007F10C03184631F0D1F94FF4C42104489A
:10525000FEF7A2FE00BFA837BD4680BD00002E3479
:105260000000273450DA127280B5B0B000AF786019
:1052700007F10C03B4220021184638F09FFE2823C2
:105280003B731C233B611C237B618023BB61012397
:10529000FB614FF4C4333B624FF460537B624FF4C5
:1052A0000073BB620423FB624FF4C4233B631D4BBA
:1052B0007B631C23FB631C233B6480237B640123EF
:1052C000BB644FF4C433FB644FF460633B658023DD
:1052D0007B650123BB654FF4C433FB65124B3B6612
:1052E000012387F864300123BB67104BC7F88C306B
:1052F000012387F890300123C7F8A4300C4BC7F87E
:10530000B830012387F8BC3007F10C03184633F09E
:1053100023FE4FF4C4310448FEF73EFE00BFC03701
:10532000BD4680BD0000273400002E34F0EE12721E
:1053300060F3127280B582B000AF78604FF4C43170
:105340000348FEF739FE00BF0837BD4680BD00BFE9
:105350000000273480B5B0B000AF786007F10C03CF
:10536000B4220021184638F029FE2A233B731C235F
:105370003B611C237B618023BB610123FB614FF4F4
:10538000C4333B624FF460637B628023BB620123C2
:10539000FB624FF4C4333B631D4B7B63012387F8EF
:1053A00038301C23FB631C233B6480237B64012374
:1053B000BB644FF4C433FB644FF460533B654FF45C
:1053C00000737B650423BB654FF4C423FB65114B5D
:1053D0003B660123BB67104BC7F88C30012387F86D
:1053E00090300123C7F8A4300C4BC7F8B830012324
:1053F00087F8BC3007F10C03184633F033FF4FF445
:10540000C4210448FEF7C8FD00BFC037BD4680BDBB
:105410000000273400002E3460ED1272D0F11272B9
:1054200080B5AAB000AF786007F10C039C22002180
:10543000184638F0C3FD02233B731C233B611C2339
:105440007B618023BB610123FB614FF4C4333B626A
:105450004FF460537B624FF40073BB620423FB6222
:105460004FF4C4233B63214B7B631C23FB631C234E
:105470003B6480237B640123BB644FF4C433FB642F
:105480004FF460533B654FF400737B650423BB65A9
:105490004FF4C423FB65164B3B660123BB66012317
:1054A000FB6681233B6701237B678123BB674FF446
:1054B0000173FB674FF40173C7F880300423C7F80A
:1054C00084304FF40173C7F888300A4BC7F88C302A
:1054D00007F10C03184631F089F84FF4C421044851
:1054E000FEF75AFD00BFA837BD4680BD00002E3430
:1054F0000000273460DC127280B5B0B000AF786075
:1055000007F10C03B4220021184638F057FD282378
:105510003B731C233B611C237B618023BB61012304
:10552000FB614FF4C4333B624FF460537B624FF432
:105530000073BB620423FB624FF4C4233B631D4B27
:105540007B631C23FB631C233B6480237B6401235C
:10555000BB644FF4C433FB644FF460633B6580234A
:105560007B650123BB654FF4C433FB65124B3B667F
:10557000012387F864300123BB67104BC7F88C30D8
:10558000012387F890300123C7F8A4300C4BC7F8EB
:10559000B830012387F8BC3007F10C03184633F00C
:1055A000DBFC4FF4C4310448FEF7F6FC00BFC03703
:1055B000BD4680BD0000273400002E3400EF12727B
:1055C00070F3127280B582B000AF78604FF4C431CE
:1055D0000348FEF7F1FC00BF0837BD4680BD00BFA1
:1055E0000000273480B5B0B000AF786007F10C033D
:1055F000B4220021184638F0E1FC2A233B731C2317
:105600003B611C237B618023BB610123FB614FF461
:10561000C4333B624FF460637B628023BB6201232F
:10562000FB624FF4C4333B631D4B7B63012387F85C
:1056300038301C23FB631C233B6480237B640123E1
:10564000BB644FF4C433FB644FF460533B654FF4C9
:1056500000737B650423BB654FF4C423FB65114BCA
:105660003B660123BB67104BC7F88C30012387F8DA
:1056700090300123C7F8A4300C4BC7F8B830012391
:1056800087F8BC3007F10C03184633F0EBFD4FF4FC
:10569000C4210448FEF780FC00BFC037BD4680BD72
:1056A0000000273400002E3470ED1272E0F1127207
:1056B00080B5AAB000AF786007F10C039C220021EE
:1056C000184638F07BFC02233B731C233B611C23F0
:1056D0007B618023BB610123FB614FF4C4333B62D8
:1056E0004FF460537B624FF40073BB620423FB6290
:1056F0004FF4C4233B63214B7B631C23FB631C23BC
:105700003B6480237B640123BB644FF4C433FB649C
:105710004FF460533B654FF400737B650423BB6516
:105720004FF4C423FB65164B3B660123BB66012384
:10573000FB6681233B6701237B678123BB674FF4B3
:105740000173FB674FF40173C7F880300423C7F877
:1057500084304FF40173C7F888300A4BC7F88C3097
:1057600007F10C03184630F041FF4FF4C421044800
:10577000FEF712FC00BFA837BD4680BD00002E34E6
:105780000000273470DE127280B5B0B000AF7860D0
:1057900007F10C03B4220021184638F00FFC28232F
:1057A0003B731C233B611C237B618023BB61012372
:1057B000FB614FF4C4333B624FF460537B624FF4A0
:1057C0000073BB620423FB624FF4C4233B631D4B95
:1057D0007B631C23FB631C233B6480237B640123CA
:1057E000BB644FF4C433FB644FF460633B658023B8
:1057F0007B650123BB654FF4C433FB65124B3B66ED
:10580000012387F864300123BB67104BC7F88C3045
:10581000012387F890300123C7F8A4300C4BC7F858
:10582000B830012387F8BC3007F10C03184633F079
:1058300093FB4FF4C4310448FEF7AEFB00BFC03702
:10584000BD4680BD0000273400002E3410EF1272D8
:1058500080F3127280B582B000AF78604FF4C4312B
:105860000348FEF7A9FB00BF0837BD4680BD00BF57
:105870000000273480B5B0B000AF786007F10C03AA
:10588000B4220021184638F099FB2A233B731C23CD
:105890003B611C237B618023BB610123FB614FF4CF
:1058A000C4333B624FF460637B628023BB6201239D
:1058B000FB624FF4C4333B631D4B7B63012387F8CA
:1058C00038301C23FB631C233B6480237B6401234F
:1058D000BB644FF4C433FB644FF460533B654FF437
:1058E00000737B650423BB654FF4C423FB65114B38
:1058F0003B660123BB67104BC7F88C30012387F848
:1059000090300123C7F8A4300C4BC7F8B8300123FE
:1059100087F8BC3007F10C03184633F0A3FC4FF4B2
:10592000C4210448FEF738FB00BFC037BD4680BD28
:105930000000273400002E3480ED1272F0F1127254
:1059400080B5AAB000AF786007F10C039C2200215B
:10595000184638F033FB02233B731C233B611C23A6
:105960007B618023BB610123FB614FF4C4333B6245
:105970004FF460537B624FF40073BB620423FB62FD
:105980004FF4C4233B63214B7B631C23FB631C2329
:105990003B6480237B640123BB644FF4C433FB640A
:1059A0004FF460533B654FF400737B650423BB6584
:1059B0004FF4C423FB65164B3B660123BB660123F2
:1059C000FB6681233B6701237B678123BB674FF421
:1059D0000173FB674FF40173C7F880300423C7F8E5
:1059E00084304FF40173C7F888300A4BC7F88C3005
:1059F00007F10C03184630F0F9FD4FF4C4210448B8
:105A0000FEF7CAFA00BFA837BD4680BD00002E349D
:105A10000000273480E0127280B5B0B000AF78602B
:105A200007F10C03B4220021184638F0C7FA2823E6
:105A30003B731C233B611C237B618023BB610123DF
:105A4000FB614FF4C4333B624FF460537B624FF40D
:105A50000073BB620423FB624FF4C4233B631D4B02
:105A60007B631C23FB631C233B6480237B64012337
:105A7000BB644FF4C433FB644FF460633B65802325
:105A80007B650123BB654FF4C433FB65124B3B665A
:105A9000012387F864300123BB67104BC7F88C30B3
:105AA000012387F890300123C7F8A4300C4BC7F8C6
:105AB000B830012387F8BC3007F10C03184633F0E7
:105AC0004BFA4FF4C4310448FEF766FA00BFC03702
:105AD000BD4680BD0000273400002E3420EF127236
:105AE00090F3127280B582B000AF78604FF4C43189
:105AF0000348FEF761FA00BF0837BD4680BD00BF0E
:105B00000000273480B5B0B000AF786007F10C0317
:105B1000B4220021184638F051FA2A233B731C2383
:105B20003B611C237B618023BB610123FB614FF43C
:105B3000C4333B624FF460637B628023BB6201230A
:105B4000FB624FF4C4333B631D4B7B63012387F837
:105B500038301C23FB631C233B6480237B640123BC
:105B6000BB644FF4C433FB644FF460533B654FF4A4
:105B700000737B650423BB654FF4C423FB65114BA5
:105B80003B660123BB67104BC7F88C30012387F8B5
:105B900090300123C7F8A4300C4BC7F8B83001236C
:105BA00087F8BC3007F10C03184633F05BFB4FF469
:105BB000C4210448FEF7F0F900BFC037BD4680BDE0
:105BC0000000273400002E3490ED127200F21272A1
:105BD00080B5AAB000AF786007F10C039C220021C9
:105BE000184638F0EBF902233B731C233B611C235E
:105BF0007B618023BB610123FB614FF4C4333B62B3
:105C00004FF460537B624FF40073BB620423FB626A
:105C10004FF4C4233B63214B7B631C23FB631C2396
:105C20003B6480237B640123BB644FF4C433FB6477
:105C30004FF460533B654FF400737B650423BB65F1
:105C40004FF4C423FB65164B3B660123BB6601235F
:105C5000FB6681233B6701237B678123BB674FF48E
:105C60000173FB674FF40173C7F880300423C7F852
:105C700084304FF40173C7F888300A4BC7F88C3072
:105C800007F10C03184630F0B1FC4FF4C42104486E
:105C9000FEF782F900BFA837BD4680BD00002E3454
:105CA0000000273490E2127280B5B0B000AF786087
:105CB00007F10C03B4220021184638F07FF928239D
