:0200000470107A
:1000000053544D32000000000000000000000000CA
:1000100000000000000000000000000000000000E0
:1000200000000000000000000000000000000000D0
:1000300000000000000000000000000000000000C0
:1000400000000000000000000000000000000000B0
:1000500000000000000000000000000000000000A0
:10006000000000003AAA29030003020060F50A001C
:10007000ED9E033400000000FFFFFFFF00000000C2
:100080000000000000000080A0010000000000004F
:100090000000000000000000000000000000000060
:1000A0005354FFFFA0010000C630F7B2C08972DAD6
:1000B000C811F804802DF33612497C00570F0371E4
:1000C000555568C399DF1BF05BB0150DCE52957680
:1000D000E4E966E05F044AAF2E5557F276C9300670
:1000E0008A1930057E85F03A5565197A1AF968B78C
:1000F000169667CD6F3135E7103BBDF9F82A4C7D78
:1001000086908F1A2A5AB1CE702F7A8B186FF5F31A
:100110007E47C1CFA751C6F960DCD7BC30656B966E
:10012000564774CC50FA30289702FAF2B6158E3B37
:100130002E50F9EF56EB4B2D5E30253E0C8143BB24
:100140001D75B6301E1D18029EC8A1189D284B5A59
:100150005E26E89D1ED0A2D176995A797ACB362CAC
:10016000740A4FFD380D5F7A25018F3726A2EA39D0
:10017000714D21082FED36F39366DF997D1E1E30F9
:1001800099239BD94448274CCFBA39C88AA3640D18
:10019000684606760965FE92E0432F1C2ED738A6E6
:1001A0004439A553610ABD5E8E9F4FF4FD90FC89D2
:1001B00063FD627B70690F9BFC98197386C6E183AF
:1001C000556B66C5F4788EDC402764EF3FC3484C1E
:1001D000A730ADF139270FED05AC5867E10F8E243C
:1001E000E81436DEBBC449A4A39113C9F0CAAB47D7
:1001F000C446B639B461352222EFE19274B0608E04
:10020000F774AF470C881B707754CDCB60AAF140D0
:10021000A2DDA54149036E459C0A81660C67F53055
:100220002BBAE291C745C55F518C8EDC10A05FDE12
:100230009173B9109F3EC25AE76E3315B5995C159C
:1002400000000000000000000000000000000000AE
:10025000000000000000000000000000000000009E
:10026000000000000000000000000000000000008E
:10027000000000000000000000000000000000007E
:10028000000000000000000000000000000000006E
:10029000000000000000000000000000000000005E
:1002A000000000000000000000000000000000004E
:1002B000000000000000000000000000000000003E
:1002C000000000000000000000000000000000002E
:1002D000000000000000000000000000000000001E
:1002E000000000000000000000000000000000000E
:1002F00000000000000000000000000000000000FE
:1003000000000000000000000000000000000000ED
:1003100000000000000000000000000000000000DD
:1003200000000000000000000000000000000000CD
:1003300000000000000000000000000000000000BD
:1003400000000000000000000000000000000000AD
:10035000000000000000000000000000000000009D
:10036000000000000000000000000000000000008D
:10037000000000000000000000000000000000007D
:10038000000000000000000000000000000000006D
:10039000000000000000000000000000000000005D
:1003A000000000000000000000000000000000004D
:1003B000000000000000000000000000000000003D
:1003C000000000000000000000000000000000002D
:1003D000000000000000000000000000000000001D
:1003E000000000000000000000000000000000000D
:1003F00000000000000000000000000000000000FD
:1004000000001034ED9E033455BF003463BF003448
:100410006BBF003473BF00347BBF003483BF003434
:100420000000000000000000000000008BBF00344E
:1004300099BF003400000000A1BF0034A9BF003400
:10044000499F033400000000499F0334499F03344F
:10045000499F0334499F0334499F0334499F033420
:10046000499F033400000000499F0334499F03342F
:10047000499F0334B1C70034499F03340000000092
:10048000499F033400000000499F0334499F03340F
:10049000499F0334499F0334499F0334499F0334E0
:1004A000499F0334499F0334499F0334499F0334D0
:1004B000499F0334499F0334499F0334499F0334C0
:1004C000499F0334E9BF0034499F0334499F0334F3
:1004D000499F0334499F0334499F0334499F0334A0
:1004E000499F033400000000499F0334499F0334AF
:1004F000499F0334499F0334499F0334B5BF0034F7
:10050000CFBF003400000000000000000000000029
:10051000499F0334D5620334499F0334499F033410
:10052000499F0334499F0334499F0334499F03344F
:10053000499F0334499F0334499F0334499F03343F
:10054000499F0334499F0334499F0334499F03342F
:10055000499F0334499F0334499F0334499F03341F
:1007400000000000499F0334499F0334000000006B
:1007500010B5054C237833B9044B13B10448AFF3FB
:1007600000800123237010BDA0F70A3400000000B0
:10077000803D043408B5034B1BB103490348AFF374
:10078000008008BD00000000A4F70A34803D043456
:1007900090EDAD6A30B52DED108B90EDA87BB5EEE8
:1007A000C06A87B08DED027B002390EDA47BF1EE53
:1007B00010FA91ED015A91ED004A91ED02FB91ED95
:1007C00004EB044690ED123B90EDAACB90ED16ABF6
:1007D0008DED047B90EDA6BB80F8603009DCD0F88D
:1007E000C832D14898474FF0FF3007B0BDEC108BAE
:1007F00030BDB8EE455B9FEDBE7BB8EE444B25EEB9
:10080000077BB4EEC47BF1EE10FA0FDD90ED1C7B9C
:100810009FEDB92B37EE022B9FEDB97BB4EEC72BC2
:10082000F1EE10FA37FE027B80ED1C7B9FEDB67B6C
:1008300025EE075BB4EEC45BF1EE10FA10D594ED33
:100840001C7B9FEDAD5B37EE457B9FEDB15BB4EE5E
:10085000C57BF1EE10FA58BFB0EE475B84ED1C5B30
:1008600083EE0C8BBCEEC88BB8EE488B94F85050DE
:1008700028EE0C8B012DB7EEC66A40F0AC809FEDE0
:10088000A67B3FEE4E5B85EE07DB3FEE0E5B85EE13
:10089000079BB0EECD7BB4EEC76BF1EE10FAB0EE75
:1008A000C95B1FDBB4EEC56BF1EE10FA1ADB002357
:1008B00084F8783094ED1A7BB5EEC07BF1EE10FA37
:1008C00040F33481012384F860309DED027BB4EE67
:1008D000C7ABF1EE10FA40F13C819DED047B3AEE9E
:1008E00007BB28E1B4EEC56BF1EE10FA0CD589EE2A
:1008F0000D5B94EDAE6AB0EEC55BB7EEC66AB4EEC2
:10090000C65BF1EE10FAD5DAF7EECA0BB7EEC70BFD
:1009100041F036FCB2EE047BB7EEC00A20EE070BC6
:10092000FCEEC87BB0EECE6BCDED017AB0EECF7BA6
:10093000B4EEC67BF1EE10FA62DCB5EEC0EBF1EE80
:1009400010FA62D538EE000B94ED3C7BB4EEC07B20
:10095000F1EE10FA03D5B0EE4BABB0EE470B94EDD1
:100960003A7BB4EEC07BF1EE10FA03DDB0EE4BAB98
:10097000B0EE470B80EE0C8BBCEEC88BB8EE488B0C
:10098000012D2CEE088B16D1B4F8E030022B3FD8A5
:10099000DDED017AB8EE677B04EBC30282ED207BCC
:1009A00082ED268B04EB0312013382ED2CDB82ED0A
:1009B0002E9BA4F8E03094F87830012B07D0FCEEA1
:1009C000C87B17EE903A019A93423FF473AF01232C
:1009D00084F860306EE7B0EECF7BB0EECE5BB4EE65
:1009E000475BF1EE10FA35FE077BB4EEC67BF1EE05
:1009F00010FA7FF65FAF9FED4A9BB0EE49DB83E7CD
:100A0000B5EEC0FBF1EE10FA9CD538EE400B9BE73B
:100A100094ED2A7B94EDAF6A38EE477BB7EEC66A59
:100A2000B0EEC77BB4EEC67BF1EE10FA56DB94ED68
:100A3000287B38EE477BB0EEC77BB4EEC76BF1EE98
:100A400010FA4BDD94ED320B94ED307B39EE400B18
:100A50003DEE477B20EE000BA7EE070B40F058F869
:100A600094EDB07AB7EEC77AB4EEC70BF1EE10FA98
:100A700034D5DDED017AB8EE678B84F8785094F8C0
:100A80007830002B97D1102204F1880104F1800006
:100A90003DF036FF102204F1A00104F198003DF072
:100AA0002FFFD4E93023DDED017AB8EE677BC4E98E
:100AB0002C23D4E9322384ED247BC4E92E23D4E90A
:100AC000342384ED2A8BC4E93023D4E9362384ED22
:100AD00034DB84ED369BC4E932236CE794F878303C
:100AE000012B04BF002384F87830C8E7AFF30080FF
:100AF0009A9999999999A93F7B14AE47E17A843FD5
:100B0000343333333333C33F333333333333C33F7C
:100B1000111111111111B13FCD3B7F669EA0F63F1F
:100B200000000000000000007EB80A3494F8603035
:100B3000002B7FF4CAAE88EE0C7BBCEEC77BB8EE10
:100B4000477B27EE0C7B84ED16BB84ED127B0120E6
:100B50004BE69DED02BBEEE790ED1A6BB5EEC06B78
:100B600090ED124BF1EE10FA90EDAA5BB0EE467BE1
:100B7000DFBF84EE057BBCEEC77BB8EE477B27EE7C
:100B8000057BB7EEC77B90ED3C5BB7EEC74AB4EE92
:100B9000C54BF1EE10FAC8BFB7EEC57B90ED3A5BDE
:100BA000B7EEC74AB4EEC54BF1EE10FA48BFB7EE48
:100BB000C57BB7EEC75AD0F8743230B580ED125B02
:100BC00093ED005AD0EDAC7AB4EEC75AF1EE675A05
:100BD000F1EE10FA4FF00001B0F8F83075FEA77A88
:100BE000013B8AB2934205D8442202FB030303F57A
:100BF000907311E000EB8204D4ED445A77EEA55ACD
:100C0000F4EEC75AF1EE10FA01F10101E9DB4423D9
:100C100003FB020202F59073B5EEC06BF1EE10FA21
:100C2000C0F8743205DC93ED007AB7EEC77A80ED38
:100C3000127B5A6803F1380142609A6803F1240478
:100C40008260DA68C2601A69026100F138025D6987
:100C50000C334561DD680C30C5601D69A342056138
:100C600051F8045B42F8045BF1D1012030BD10B5AE
:100C7000044690B070B10023084C40212370C4F8A2
:100C8000C802074B6846074A3DF0F0FC6846D4F8B6
:100C9000C8329847204610B010BD00BFC0F70A34D4
:100CA00060F30A34BEB80A34002814BF01204FF0A4
:100CB000FF30704780ED000A30B50C6844604C6826
:100CC00084608C68C460C96802F12404016100F189
:100CD000380115680C32456152F8085C0C30C5606B
:100CE00052F8045CA242056153F8045B41F8045BCE
:100CF000EFD130BD2DE9F04F2DED068B0E46B0EE55
:100D0000409BB0EE418B1D460446C7B0002800F062
:100D10008F819FEDCBAB80ED12AB0020CE494FF021
:100D20000008C4E91601C4E9A601C4E9AA01CB4937
:100D3000DFF85C93C4F8B0124FF07E51C4F8B412DF
:100D40004FF07C51C4E91A890FF2FC29D9E90089D6
:100D5000C4E91C89C4E9A4894FF00008C4F8B8129A
:100D6000BF49DFF83093C4F8BC124FF07F51002325
:100D7000C4E9A88901274FF00008C4F8C012711E09
:100D8000DFF8149388B20428C4E9A0890FF2C029BF
:100D9000D9E9008984F86030C4E9A289A4F8E03078
:100DA00084F87830A4F8787214D905234FF4807150
:100DB000AC4A06A83DF05AFCD4F8C83206A89847B9
:100DC00084F85070204647B0BDEC068BBDE8F04F6C
:100DD000FFF7C2BE95ED007AB7EEC77AB4EEC70B47
:100DE000F1EE10FA12DDD4F8C8329F48984795ED1D
:100DF000007AB7EEC77A8DED009B8DED027B9B4AA2
:100E00004FF4807106A83DF031FCD5E74FF0440C5B
:100E10000CFB065818ED117AB7EEC77AB4EEC71B73
:100E2000F1EE10FA41D5D4F8C8329148984798EDC0
:100E3000007AB7EEC77A8DED008B8DED027B8D4A7F
:100E4000DEE70CFB08F705EB070944372F4499ED63
:100E5000007AD7ED007AB4EEE77AF1EE10FA08F1F5
:100E6000010A00F1010021DBD4F8C832824898471A
:100E700097ED007AB7EEC77A8DED047BCDF808A028
:100E800099ED007AB7EEC77A43468DED007B7B4A39
:100E90004FF4807106A83DF0E9FBD4F8C83206A8EB
:100EA0009847012384F850308CE718461FFA80F8E1
:100EB0004145C6D800234FF0440CB01E9FB2B94242
:100EC00039D884ED3A9B84ED3C8B0020A4F8F8607F
:100ED00083B2994200F1010000F28B800027B846EE
:100EE00004F1FC0A04F5907905EB070B09EB070008
:100EF000442259463DF0C1FFDBF8003008F10108FB
:100F00004AF8043B1FFA88F39E4207F14407EBD8E6
:100F1000731E9BB2002E03F1010314BF1A46012277
:100F2000C4F8749204F5B271013A6AD1012384F8CD
:100F30005030237046E702EB8709B842D9ED007ABA
:100F40004FEA870807F1010A1ED908F10408904406
:100F500098ED007AB4EEE77AF1EE10FA14D8D4F8EE
:100F6000C8324748984798ED007AB7EEC77A8DEDBA
:100F7000047BCDF808A099ED007AB7EEC77A3B461E
:100F80008DED007B3F4A83E70CFB07F805EB080A71
:100F90009AED007AB4EEE77AF1EE10FA08F144081F
:100FA000A84408DA98ED007AB4EEE77AF1EE10FA88
:100FB00003F1010382D8D4F8C8323348984798ED3A
:100FC000007AB7EEC77A8DED047B9AED007AB7EE22
:100FD000C77A8DED027B99ED007AB7EEC77A3B4672
:100FE0008DED007B4FF48071284A06A83DF03EFB52
:100FF00053E702EB83073F6804EB8303C3F81071E8
:1010000066E7D4F8743291ED006A93ED007AB7EE9A
:10101000C66AB7EEC77A36EE4A6B37EE4A7BB4EE55
:10102000C76BF1EE10FA48BFC4F8741244317BE785
:101030004FF0FF3047B0BDEC068BBDE8F08F00BF2E
:10104000000000000088B3409A9999999999B93F96
:101050000000000000A06E400000F03F0000484289
:1010600000002F43CEB80A3412B90A3499B90A34B1
:10107000F7B90A347FBA0A34DCBA0A3440BB0A34FE
:1010800098BB0A3407BC0A3471BC0A34C8BC0A34A1
:101090000000F0BF000008400000244030B50546C5
:1010A00014468DB052B9D0F8C8321D489847D5F8CB
:1010B000C8321C48984720460DB030BD93ED042B34
:1010C00093ED021B93ED000B0AAA08A906A800F0F5
:1010D0002FF8DDE90823CDE90223DDE90A23CDE974
:1010E0000423012398420446CDE90033DFD1694649
:1010F0002846FFF74DFB0128044603D0D5F8C83237
:101100000948D7E795F86030012BD4D12846FFF77E
:1011100023FD01280446CED0D5F8C8320348C9E7DC
:101120004EBD0A34AFBD0A34D8BD0A340CBE0A34F1
:10113000B5EEC00BF1EE10FA1FB509D4B5EEC01B29
:10114000F1EE10FA04D4B5EEC02BF1EE10FA0DD585
:101150008DED022B8DED001B53EC102B44483DF020
:1011600015FA4FF0FF3005B05DF804FB9FED327BC0
:10117000B4EEC70BF1EE10FA09DCB4EEC71BF1EECA
:1011800010FA04DCB4EEC72BF1EE10FA07DD8DED9A
:10119000022B8DED001B53EC102B3648DFE728B1F6
:1011A00089B1B2B93449354B084607E071B13349CA
:1011B0003148002A304A314B18BF134602463048A6
:1011C0003DF0E4F9CDE72C492C48F2E72B490846DD
:1011D000EFE79FED1B7B9FED1C6B21EE077BB3EED2
:1011E000005BA0EE067B9FED1A6BA2EE057BA7EEDF
:1011F000065B9FED197B80ED005B27EE417BBBEE2C
:101200000A5BA0EE057B9FED165BA2EE057B27EE49
:10121000067B81ED007B9FED147B27EE411BB2EE38
:10122000047BA0EE051BA2EE471B21EE061B01204E
:1012300082ED001B97E700BF0000000000E06F4058
:101240000000000000A06340000000000080474054
:10125000000000000000703F0000000000805540CA
:101260000000000000005C400000000000805940C9
:1012700049BE0A3487BE0A3443BE0A3441BE0A342A
:10128000C7BE0A340000000010B5044690B060B13B
:101290000023074C40212370A065064B6846064A90
:1012A0003DF0E4F96846A36D9847204610B010BDA4
:1012B00090FA0A3466F30A3411BF0A34002814BFC6
:1012C00001204FF0FF30704738220A23C0E9042381
:1012D00064232D227821C0E9063240F2DC5230B579
:1012E000C0E9081241F2707442F6E062C0E90A42B5
:1012F0000BA5D5E9004505224FF0000C026548F228
:10130000E802C0E910C20122C0E90C4506A5D5E9F2
:101310000045C0E91223C0E90E4530BDAFF300809F
:1013200000000040E17A943F000000E04D62703F11
:1013300010B5044620B1FFF7C7FF0120207010BD93
:101340004FF0FF30FBE72DE9F0410E460446002840
:1013500000F0E180017801290BD102210170A56C18
:10136000C4E90126B54208D2616C914205D9A56055
:101370004CE00229F3D0002049E0D4F810C0B6EECA
:10138000005B07EE90CAB8EE676A07EE903AB8EED7
:10139000E77BB7EEC66A37EE057B86EE070B216D5D
:1013A000B7EEC00B8B424BD2F0EE007AB4EEE70AF8
:1013B000F1EE10FA44D4616CB7EE007A8A4220D282
:1013C000012A134638BF012307EE903AF8EEE77A78
:1013D00067EE807AFDEEE77A17EE903A8B42C1BF56
:1013E00007EE901AB8EEE76A07EE902AF8EE676A01
:1013F000C3BFC6EE267A0B4680EE270AB0EE470A38
:101400006360B4EEC70AF1EE10FA02DC0120BDE819
:10141000F081B7EEC00A3FF047FBB3EE047B20EE4D
:10142000070B9FED3F7B20EE070BBDEEC00B10EED0
:10143000103AE26C33449342D4BFA360A260E5E764
:10144000ACEB0307E16987EAE770A0EBE77088423D
:1014500047D8606AD4F814E0A1690EEB0C089845EF
:1014600007FB01F143D207EE900A9FED2F7AF8EEC9
:10147000E77A67EE877A07EE101AF1EE676AB8EE40
:10148000C77AB4EEE67AF1EE10FA04D5FDEEE77A0B
:1014900017EE903A59420029B8D0B54232D1606C6B
:1014A000904201D800292DDA02FB077707EE902A37
:1014B00006EE907A0029B8EEE77BB8EEE66B1EDA0E
:1014C00094ED0E5BA5EE067BBDEEC77B17EE102AF2
:1014D000236C9A42B8BF1A468242D4BF62606060F1
:1014E00094E7216A88422CBFE06AA06AB2E7ACEBBD
:1014F0000E0C9C458ADD8142A8BF0146CBE794EDE6
:101500000C5BDFE70E44B5423FF731AFE56CB54207
:10151000A8BF35462BE74FF0FF3078E7AFF30080E8
:101520000000000000408F409A99593F10F8012BAD
:1015300011F8013B012A28BF9A42F7D0D01A704710
:10154000034613F8012B002AFBD1181A0138704703
:1015500081F0004102E000BF83F0004330B54FEA64
:1015600041044FEA430594EA050F08BF90EA020FD1
:101570001FBF54EA000C55EA020C7FEA645C7FEA64
:10158000655C00F0E2804FEA5454D4EB5555B8BF87
:101590006D420CDD2C4480EA020281EA030382EAF8
:1015A000000083EA010180EA020281EA0303362D8A
:1015B00088BF30BD11F0004F4FEA01314FF4801C5D
:1015C0004CEA113102D0404261EB410113F0004F6F
:1015D0004FEA03334CEA133302D0524263EB430326
:1015E00094EA050F00F0A780A4F10104D5F1200EC4
:1015F0000DDB02FA0EFC22FA05F2801841F100011F
:1016000003FA0EF2801843FA05F359410EE0A5F1F2
:1016100020050EF1200E012A03FA0EFC28BF4CF023
:10162000020C43FA05F3C01851EBE37101F00045D9
:1016300007D54FF0000EDCF1000C7EEB00006EEBE6
:101640000101B1F5801F1BD3B1F5001F0CD3490870
:101650005FEA30004FEA3C0C04F101044FEA4452C7
:1016600012F5800F80F09A80BCF1004F08BF5FEA4E
:10167000500C50F1000041EB045141EA050130BD2E
:101680005FEA4C0C404141EB0101013C28BFB1F540
:10169000801FE9D291F0000F04BF01460020B1FA8B
:1016A00081F308BF2033A3F10B03B3F120020CDA5E
:1016B0000C3208DD02F1140CC2F10C0201FA0CF03C
:1016C00021FA02F10CE002F11402D8BFC2F1200CA1
:1016D00001FA02F120FA0CFCDCBF41EA0C01904057
:1016E000E41AA2BF01EB0451294330BD6FEA0404A0
:1016F0001F3C1CDA0C340EDC04F11404C4F120028B
:1017000020FA04F001FA02F340EA030021FA04F39C
:1017100045EA030130BDC4F10C04C4F1200220FAF3
:1017200002F001FA04F340EA0300294630BD21FA31
:1017300004F0294630BD94F0000F83F4801306BFF7
:1017400081F480110134013D4EE77FEA645C18BFEB
:101750007FEA655C29D094EA050F08BF90EA020F82
:1017600005D054EA000C04BF1946104630BD91EA7A
:10177000030F1EBF0021002030BD5FEA545C05D17D
:101780004000494128BF41F0004130BD14F58004BC
:101790003CBF01F5801130BD01F0004545F0FE4130
:1017A00041F470014FF0000030BD7FEA645C1ABF65
:1017B000194610467FEA655C1CBF0B46024650EA9C
:1017C000013406BF52EA033591EA030F41F40021C8
:1017D00030BD00BF90F0000F04BF0021704730B54E
:1017E0004FF4806404F132044FF000054FF0000123
:1017F00050E700BF90F0000F04BF0021704730B5E4
:101800004FF4806404F1320410F0004548BF4042B8
:101810004FF000013EE700BF42004FEAE2014FEA0D
:1018200031014FEA02701FBF12F07F4393F07F4FE8
:1018300081F06051704732F07F4208BF704793F0EB
:101840007F4F04BF41F40021704730B54FF46074FE
:1018500001F0004521F000411CE700BF50EA010201
:1018600008BF704730B54FF000050AE050EA0102AA
:1018700008BF704730B511F0004502D5404261EB1A
:1018800041014FF4806404F132045FEA915C3FF45B
:10189000D8AE4FF003025FEADC0C18BF03325FEAF8
:1018A000DC0C18BF033202EBDC02C2F1200300FAA9
:1018B00003FC20FA02F001FA03FE40EA0E0021FACE
:1018C00002F11444BDE600BF7BB972B90029BEBF66
:1018D00000204FF0004106E008BF00281CBF6FF059
:1018E00000414FF0FF3000F0FBB9ADF1080C6DE99D
:1018F00004CE002909DB002B1ADB00F04DF8DDF8DF
:1019000004E0DDE9022304B07047404261EB41018D
:10191000002B1BDB00F040F8DDF804E0DDE90223DA
:1019200004B0404261EB4101524263EB4303704714
:10193000524263EB430300F02FF8DDF804E0DDE9E9
:10194000022304B0404261EB41017047524263EB15
:10195000430300F021F8DDF804E0DDE9022304B0E0
:10196000524263EB4303704753B94AB9002908BF99
:1019700000281CBF4FF0FF314FF0FF3000F0B0B92E
:10198000ADF1080C6DE904CE00F006F8DDF804E0D6
:10199000DDE9022304B070472DE9F04F099D884628
:1019A00004468E46002B4AD18A4217465FD9B2FAC6
:1019B00082F64EB1C6F1200301FA06FEB740B440EC
:1019C00020FA03F343EA0E0E4FEA17481FFA87FC8A
:1019D000230CBEFBF8F108FB11EE01FB0CF243EA0D
:1019E0000E439A4207D9FB1801F1FF3002D29A4206
:1019F00000F2548101469B1AA2B2B3FBF8F008FB37
:101A0000103300FB0CFC42EA034294450BD9BA1890
:101A100000F1FF332CBF01240024944502D9002C8F
:101A200000F03F81184640EA0140A2EB0C02002181
:101A30001DB1F2400023C5E90023BDE8F08F8B42C1
:101A400005D90DB1C5E9000100210846F5E7B3FA53
:101A500083F100294ED14345C0F01281824240F209
:101A60000F810846002DE8D0C5E9004EE5E7002AC1
:101A700000F0AC80B2FA82F6002E40F0BB808B1AE8
:101A80004FEA124EBCB20121020C80B2B3FBFEFC45
:101A90000EFB1C3342EA034304FB0CF29A420ED9BC
:101AA000FB180CF1FF382CBF4FF001094FF0000973
:101AB0009A4203D9B9F1000F00F0EC80C4469B1A9A
:101AC000B3FBFEF80EFB183304FB08F440EA0342B4
:101AD00094420BD9BA1808F1FF332CBF0120002023
:101AE000944202D9002800F0D1809846121B48EA9F
:101AF0000C409DE7C1F120068B4008FA01F400FA82
:101B000001F922FA06F728FA06F88A401F4320FA5C
:101B100006F3380C23431FFA87FC1C0CB8FBF0FEBD
:101B200000FB1E8844EA08440EFB0CF8A0450ED9C1
:101B30003C190EF1FF3A2CBF4FF0010B4FF0000B98
:101B4000A04503D9BBF1000F00F0B880D646A4EB46
:101B500008041FFA83F8B4FBF0F300FB134403FB03
:101B60000CFC48EA0444A4450ED93C1903F1FF30AB
:101B70002CBF4FF001084FF00008A44503D9B8F17D
:101B8000000F00F09F80034643EA0E40A4EB0C04D4
:101B9000A0FB02EC64457346E04602D307D1F14551
:101BA00005D2BEEB02036CEB070C0138E0465DB1D9
:101BB000B9EB030264EB080404FA06F622FA01F317
:101BC000CC401E43C5E90064002136E7B1FBF2FCBE
:101BD000010C144680B2964641EA08412026904600
:101BE00040EA01431046B1FBF2F1A3EB080341EADE
:101BF0000C414BE7B740C6F1200301FA06F221FA87
:101C000003F84FEA174E20FA03F3BCB2B040134377
:101C1000020C190C80B2B8FBFEF90EFB198841EAE0
:101C2000084109FB04F8884551D9791809F1FF3CAE
:101C30002CBF4FF0010A4FF0000A884502D9BAF1D3
:101C4000000F31D0A1EB0801B1FBFEF909FB04F84C
:101C50000EFB19119BB243EA0143434535D2FB18F1
:101C600009F1FF312CBF4FF0010A4FF0000A434544
:101C7000BBD2BAF1000FB8D1A9F102013B44B4E7DD
:101C8000841A68EB030201209646EBE63A44A8F179
:101C900002082BE7ACF1020C3B4410E702393B444D
:101CA000A9E63A440238BEE6A7EB0808A9F1020CFF
:101CB0004144B1FBFEF909FB04F8C9E7AEF1020E9D
:101CC0003C4444E7023B3C445EE749468DE7A1EBD8
:101CD0000801CC46B1FBFEF909FB04F8B8E700BFE8
:101CE000704700BF80B594B000AFF860B9607A600B
:101CF000002387F84730FB685B68B3F5F07F03D8B3
:101D0000FB685B68BB6402E04FF4F073BB64FB6884
:101D10005B68B3F5F07F03D8FB685B68FB6402E0A7
:101D20004FF4F073FB64FA6CBB681A60BA6C7B68A2
:101D30001A60FB6C7B61BB6CBB610123FB610223FE
:101D40003B6297F84730FB6200237B620023BB6253
:101D500007F1100207F114031946012029F00EF9CA
:101D600038643B6C002B05D0044B054A5A210548CA
:101D70003BF07CFC00BF5037BD4680BDC03D043405
:101D8000CC880434D03D043480B590B000AF786086
:101D9000002387F83F308023FB6080233B610023D2
:101DA0007B610323BB6197F83F307B620123FB61BA
:101DB00000233B6207F10C037A681946022029F0E0
:101DC000DDF8B863BB6B002B05D0054B054A7C21C1
:101DD00005483BF04BFC00BF4037BD4680BD00BF0F
:101DE000C03D0434E4880434D03D043480B58CB064
:101DF00000AFF860B9607A6000237B610023BB61AB
:101E00001E23FB6100233B6200237B620023BB6235
:101E100007F11403184629F0DDF8F862FB6A002B7D
:101E200005D00A4B0A4A8C210A483BF01FFC07F1F7
:101E30001403BA68F9681846FFF754FF7868FFF78B
:101E4000A3FF00BF3037BD4680BD00BF143E043441
:101E5000F8880434D03D043480B584B000AF786095
:101E600039603A687968012029F04AF9F860FB681E
:101E7000002B05D0044B054A9C2105483BF0F6FB9E
:101E800000BF1037BD4680BD143E043404890434BD
:101E9000D03D043480B584B000AF786039603A68D2
:101EA0007968022029F02CF9F860FB68002B05D036
:101EB000044B054AA42105483BF0D8FB00BF10376E
:101EC000BD4680BD143E04341C890434D03D043426
:101ED00080B582B000AF00237B6029F0E1F9786023
:101EE0007B68002B05D0054B054AB22105483BF025
:101EF000BDFB00BF0837BD4680BD00BF143E0434A3
:101F000030890434D03D043480B483B000AF7860AD
:101F10007B68022B05D1064B1B680133044A136012
:101F200000BF002318460C37BD465DF8047B7047A0
:101F3000F8FD0A3480B582B000AF78607B68002B72
:101F400002D14FF0FF330DE0786800F023F87B6892
:101F50004FF480329A66786800F008F802467B6891
:101F6000DA66002318460837BD4680BD80B584B0C8
:101F700000AF78607B68002B01D1002306E06C2362
:101F8000FB60F968786800F075F80346184610376A
:101F9000BD4680BD80B483B000AF78607B68304AB6
:101FA0001A607B684FF07C525A607B680A229A6004
:101FB0007B6801221A737B682A4A1A617B684FF09A
:101FC00086425A617B6864229A617B6801221A7793
:101FD0007B68254A1A627B684FF07C525A627B68A4
:101FE000224A9A627B680522DA627B68204A1A6379
:101FF0007B684FF07C525A637B68012283F838205B
:102000007B681E22DA637B684FF47A721A647B68FD
:102010000A225A647B68002283F848207B684FF4C8
:102020008032DA647B684FF47A721A657B68022228
:102030005A657B68012283F858207B684FF47A72D6
:10204000DA657B684FF47A721A667B68012283F83E
:10205000642000BF0C37BD465DF8047B704700BFAD
:102060003333333FCDCC0C3F9A99993F9A99993E9F
:102070009A99193F80B487B000AF786039604FF00B
:10208000FF337B6100233B6121E07A683B691344A5
:102090001B781A467B6953407B610023FB6010E08C
:1020A0007B6903F00103002B05D07B695A080E4BB6
:1020B00053407B6102E07B695B087B61FB68013315
:1020C000FB60FB68072BEBDD3B6901333B613A6941
:1020D0003B689A42D9D37B69DB4318461C37BD461F
:1020E0005DF8047B704700BF2083B8ED80B586B0F3
:1020F00000AF214B7B607C237B6107F10C023B1D11
:10210000796918460EF082FD0346002B2ED14FF45C
:10211000C0333B61FA683B6913403A699A4227D061
:10212000FA683B691343FB60FA68381D002379693C
:102130000EF0A4FD0346002B15D107F10C023B1D48
:10214000796918460EF062FD0346002B08D1FA6843
:102150003B6913403A699A420AD000F00FF807E051
:1021600000F00CF804E000F009F801E000F006F8D7
:1021700000BF1837BD4680BD0090005680B400AF48
:1021800000BFFDE780B584B000AF78607B68BB60BE
:10219000BB6880221A60BB6880225A60BB68052237
:1021A0009A60BB684FF07C52DA60BB68164A1A61CD
:1021B000BB684FF480625A61BB680A229A61BB68AF
:1021C0000022DA610023FB6012E0FA6813469B00EC
:1021D0001344DB000D4A99180D48FA6813465B005A
:1021E0001344DB00034414331960FB680133FB60C4
:1021F000FB68092BE9DDB8682EF056FF0346184648
:102200001037BD4680BD00BF9A99993EE0FB0A3465
:10221000F0FA0A3480B58AB000AFF860B9607A602D
:102220003B60BB68042B05D0114B124A1E2112489B
:102230003BF01CFA7B687B62FB681B687B61FB6878
:102240005B68BB61FB689B68FB61FB68DB683B62AA
:102250007B6A0A4A1A6007F114033A68796A1846D9
:102260002EF02DFF034618462837BD4680BD00BF1F
:102270002C3E0434408904343C3E0434F0FA0A34E1
:1022800080B483B000AF7860064B1B6A23F4403201
:1022900004497B6813430B6200BF0C37BD465DF8F1
:1022A000047B70470080025680B483B000AF786032
:1022B000064B1B6A23F0407204497B6813430B6290
:1022C00000BF0C37BD465DF8047B704700800256A6
:1022D00080B584B000AF4D4B1B684C4A43F40053AB
:1022E00013600020FFF7CCFF0020FFF7DDFF0EF0AA
:1022F000F7FB474B5B6903F40033002B1BD1BFF3A3
:102300004F8F00BFBFF36F8F00BF414B0022C3F858
:102310005022BFF34F8F00BFBFF36F8F00BF3C4B06
:102320005B693B4A43F400335361BFF34F8F00BFF7
:10233000BFF36F8F00E000BF344B1B68334A43F498
:1023400080531360324B5B6903F48033002B38D128
:102350002F4B0022C3F88420BFF34F8F00BF2C4BBC
:10236000D3F88030FB60FB685B0BC3F30E03BB60EC
:10237000FB68DB08C3F309037B60BB685A0143F6C3
:10238000E07313407A68920721491343C1F8603221
:102390007B685A1E7A60002BEFD1BB685A1EBA6068
:1023A000002BE5D1BFF34F8F00BF194B5B69184A73
:1023B00043F480335361BFF34F8F00BFBFF36F8F80
:1023C00000E000BF0AF076F809F088FF00200DF069
:1023D000F5FA00200DF0C0FB01233B7001237B7058
:1023E0003B46194600200DF007F900200DF0EEF9EC
:1023F000FFF77CFE09F0F0FF09F0F6FF0AF04AF85B
:1024000009F0B4FF00BF1037BD4680BD00E001E019
:1024100000ED00E080B48FB000AFF860B9607A6082
:102420007B80B7F840307A8802FB03F3BB62BB685D
:102430007B62BB6A9B00BA6813443B62BB6ADB00E9
:10244000BA681344FB610023FB8645E0FB8E7A6883
:1024500002FB03F3FA6813443B63FB8E7A8802FBAA
:1024600003F3BB610023FB852FE0FB8DBA691344A6
:102470007B613B6B19787B699B007A6A134407EE9A
:10248000901AF8EE677AC3ED007A3B6B0133197846
:102490007B699B003A6A134407EE901AF8EE677A5C
:1024A000C3ED007A3B6B023319787B699B00FA69B4
:1024B000134407EE901AF8EE677AC3ED007A3B6B8F
:1024C00003333B63FB8D0133FB85FA8D7B889A4296
:1024D000CBD3FB8E0133FB86FA8EB7F840309A429D
:1024E000B4D300BF00BF3C37BD465DF8047B7047E6
:1024F00080B48FB000AFF860B9607A607B80404BE9
:10250000BB62B7F840307A8802FB03F37B62BB689A
:102510003B627B6A9B00BA681344FB617B6ADB0009
:10252000BA681344BB610023FB865DE0FB8E7A68CA
:1025300002FB03F3FA6813443B63FB8E7A8802FBC9
:1025400003F37B610023FB8547E0FB8D7A6913442D
:102550003B613B6B1B7807EE903AB8EE677AD7ED9C
:102560000A7A67EE277A3B699B003A6A1344B7EE12
:10257000007A77EEC77AC3ED007A3B6B01331B78A4
:1025800007EE903AB8EE677AD7ED0A7A67EE277AC7
:102590003B699B00FA691344B7EE007A77EEC77A7D
:1025A000C3ED007A3B6B02331B7807EE903AB8EE2E
:1025B000677AD7ED0A7A67EE277A3B699B00BA699A
:1025C0001344B7EE007A77EEC77AC3ED007A3B6B1F
:1025D00003333B63FB8D0133FB85FA8D7B889A4285
:1025E000B3D3FB8E0133FB86FA8EB7F840309A42A4
:1025F0009CD300BF00BF3C37BD465DF8047B7047ED
:102600008180003C80B5A6B000AFF8627A621A46BD
:1026100087ED080AC7ED070A87ED061AC7ED051A08
:1026200087ED042AC7ED032A87ED023AC7ED013A88
:102630000B467B8513463B8597ED017AD7ED037AF0
:1026400077EE676A97ED027AD7ED047A77EE677ACC
:10265000F0EE670AB0EE660A3EF0F2FAF0EE407A6B
:10266000F1EE677AC7ED227A97ED220A3FF0D8FFA4
:1026700087ED210A97ED220A3FF00EFF87ED200A31
:10268000B7F8A420B7F8A8309A4206D9B7F8A43012
:1026900007EE903AF8EE677A05E0B7F8A83007EE53
:1026A000903AF8EE677AC7ED1F7AB7F8A43007EED4
:1026B000903AF8EE677A97ED1F7A77EE677AB6EE82
:1026C000007A67EE877AC7ED1E7AB7F8A83007EE72
:1026D000903AF8EE677A97ED1F7A77EE677AB6EE62
:1026E000007A67EE877AC7ED1D7AF7EE006A97EDFC
:1026F0001F7AC6EE877AC7ED1C7A97ED067AD7ED7A
:10270000217A67EE277AC7ED1B7A97ED067AD7ED27
:10271000207A67EE277AC7ED1A7A97ED057AD7ED1A
:10272000217A67EE277AC7ED197A97ED057AD7ED0A
:10273000207A67EE277AC7ED187A3B8D013B07EECA
:10274000903AF8EEE77AC7ED177AB7F8A030013B78
:1027500007EE903AF8EEE77AC7ED167AFB6A7B65EA
:102760000023A7F89630E7E0B7F8963007EE903AE6
:10277000B8EE677AD7ED1D7A77EE277AB6EE007A53
:1027800037EE877AD7ED1C7A67EE277AB6EE007AB5
:1027900077EEC77AC7ED147A97ED147AD7ED197AE8
:1027A00067EE277AC7ED137A97ED147AD7ED187A8A
:1027B00067EE277AC7ED127AB7F89630B7F8A420FB
:1027C00003FB02F213465B0013441A467B6A134470
:1027D0007B640023A7F89430A2E0B7F8943007EEAA
:1027E000903AB8EE677AD7ED1E7A77EE277AB6EE92
:1027F000007A37EE877AD7ED1C7A67EE277AB6EE45
:10280000007A77EEC77AC7ED107A97ED107AD7ED98
:102810001B7A27EE277AD7ED087A77EE277A97ED9D
:10282000127A77EE277AC7ED247A97ED077AD7EDFB
:10283000137A37EE277AD7ED106AD7ED1A7A66EE5B
:10284000A77A77EE677AC7ED237AD7ED247AF5EE8B
:10285000C07AF1EE10FA03D54FF00003C7F89030BC
:1028600097ED247AD7ED177AB4EEE77AF1EE10FA05
:1028700002DDFB6DC7F89030D7ED237AF5EEC07A14
:10288000F1EE10FA03D54FF00003C7F88C3097ED46
:10289000237AD7ED167AB4EEE77AF1EE10FA02DD7C
:1028A000BB6DC7F88C30D7ED237AFCEEE77A17EED4
:1028B000902A7B8D02FB03F3D7ED247AFCEEE77AB6
:1028C00017EE902A13445B007A6D1344FB63B7F84C
:1028D000942013465B0013441A467B6C1344BB637D
:1028E000FB6B1B88FB86FB8EDB0A9BB2DBB2DB003B
:1028F000DAB2BB6B1A70FB8E5B099BB2DAB2BB6BB0
:1029000001339200D2B21A70FB8EDAB2BB6B023383
:10291000D200D2B21A70B7F894300133A7F89430CD
:10292000B7F89420B7F8A4309A42FFF456AFB7F83E
:1029300096300133A7F89630B7F89620B7F8A8304C
:102940009A42FFF411AF00BF00BF9837BD4680BD6B
:1029500090B5A9B002AFF860B9607A60784B18689A
:10296000774B5968764B9A68754BDB680024009466
:102970002DF098FC0023C7F894306AE3D7F8942030
:1029800013465B001344DB001A46FB68134493EDC7
:10299000017AD7F8942013465B001344DB001A46F3
:1029A000FB681344D3ED036AB0EE006AC6EE867A84
:1029B00037EE677A634B9B6807EE903AF8EE677ADA
:1029C00067EE277AFCEEE77A17EE902A5D4B1B68DC
:1029D0001344C7F88C30D7F8942013465B00134497
:1029E000DB001A46FB68134493ED027AD7F8942073
:1029F00013465B001344DB001A46FB681344D3ED17
:102A0000046AB0EE006AC6EE867A37EE677A4D4BFE
:102A1000DB6807EE903AF8EE677A67EE277AFCEE0D
:102A2000E77A17EE903AC7F88830D7F89420134623
:102A30005B001344DB001A46FB68134493ED037AF2
:102A4000404B9B6807EE903AF8EE677A67EE277A7C
:102A5000FCEEE77A17EE903AC7F88430D7F8942066
:102A600013465B001344DB001A46FB68134493EDE6
:102A7000047A344BDB6807EE903AF8EE677A67EE3B
:102A8000277AFCEEE77A17EE903AC7F880302D4BA4
:102A90001A682C4B9B681344D7F88C209A4206D3B3
:102AA000284B1A68274B9B681344013B01E0D7F879
:102AB0008C30C7F88C30234B5A68224BDB681344A8
:102AC000D7F888209A4206D31E4B5A681D4BDB6804
:102AD0001344013B01E0D7F88830C7F88830D7F8B5
:102AE0008C20D7F884301A44164B1968154B9B6814
:102AF0000B449A4209D3134B1A68124B9B681A4431
:102B0000D7F88C30D31A013B01E0D7F88430C7F8EE
:102B10008430D7F88820D7F880301A44094B596898
:102B2000084BDB680B449A4210D3064B5A68054B9E
:102B3000DB681A44D7F88830D31A013B08E000BF9D
:102B40008CF30A347CF30A343333333FD7F88030C4
:102B5000C7F88030D7F8942013465B001344DB009D
:102B60001A46FB681344D3ED007A1FED097AF4EEA0
:102B7000C77AF1EE10FAACBF01230023DBB2FB678A
:102B8000E74AFB6F52F823300093D7F88030D7F82C
:102B90008420D7F88810D7F88C002DF059FBD7F88F
:102BA000942013465B001344DB001A46FB68134471
:102BB000D3ED007A9FEDDB7AF4EEC77AF1EE10FAEE
:102BC000C0F22582D7F8942013465B001344DB0043
:102BD0001A46FB6813445B6993ED007AD24B9B68FD
:102BE00007EE903AF8EE677A27EE277ACE4B1B680D
:102BF00007EE903AF8EE677A77EE277AC7ED1E7AFD
:102C0000D7F8942013465B001344DB001A46FB6898
:102C100013445B6993ED017AC34BDB6807EE903A8E
:102C2000F8EE677A67EE277AC7ED1D7AD7F8942019
:102C300013465B001344DB001A46FB6813445B69D0
:102C4000083393ED007AB84B9B6807EE903AF8EEA4
:102C5000677A27EE277AB44B1B6807EE903AF8EEB6
:102C6000677A77EE277AC7ED1C7AD7F89420134657
:102C70005B001344DB001A46FB6813445B690833AE
:102C800093ED017AA84BDB6807EE903AF8EE677A8D
:102C900067EE277AC7ED1B7AD7F8942013465B00BE
:102CA0001344DB001A46FB68134493ED017A9E4BF4
:102CB0009B6807EE903AF8EE677A27EE277A9A4BF0
:102CC0001B6807EE903AF8EE677A77EE277AC7ED41
:102CD0001A7AD7F8942013465B001344DB001A4697
:102CE000FB68134493ED027A8F4BDB6807EE903A52
:102CF000F8EE677A67EE277AC7ED197AD7F894204D
:102D000013465B001344DB001A46FB68134493ED43
:102D1000037A854B9B6807EE903AF8EE677A67EE88
:102D2000277A9FED827A67EE877AC7ED187AD7F80F
:102D3000942013465B001344DB001A46FB681344DF
:102D400093ED047A784BDB6807EE903AF8EE677AF9
:102D500067EE277A9FED757A67EE877AC7ED177A67
:102D600097ED1B7AD7ED1D7A77EE676A97ED1C7A9F
:102D7000D7ED1E7A77EE677AF0EE670AB0EE660A54
:102D80003DF05EFF87ED160A97ED160A3FF048FC0E
:102D900087ED150A97ED160A3FF07EFB87ED140AC2
:102DA000D7ED187AB6EE007A67EE877AC7ED137A18
:102DB000D7ED177AB6EE007A67EE877AC7ED127A0A
:102DC000D7ED137AB1EE677AD7ED157A27EE277A29
:102DD000D7ED126AD7ED147A66EEA77A37EE277A26
:102DE000D7ED1A7A77EE277AC7ED097AD7ED137AFD
:102DF000B1EE677AD7ED147A27EE277AD7ED127AFB
:102E0000F1EE676AD7ED157A66EEA77A37EE277A84
:102E1000D7ED197A77EE277AC7ED057A97ED137A11
:102E2000D7ED157A27EE277AD7ED126AD7ED147A07
:102E300066EEA77A37EE277AD7ED1A7A77EE277AF9
:102E4000C7ED0A7A97ED137AD7ED147A27EE277A31
:102E5000D7ED127AF1EE676AD7ED157A66EEA77AAA
:102E600037EE277AD7ED197A77EE277AC7ED067A0B
:102E700097ED137AD7ED157A27EE277AD7ED126AF8
:102E8000D7ED147A66EEA77A37EE677AD7ED1A7A1D
:102E900077EE277AC7ED0B7A97ED137AD7ED147A90
:102EA00027EE277AD7ED126AD7ED157A66EEA77A64
:102EB00037EE277AD7ED197A77EE277AC7ED077ABA
:102EC000D7ED137AB1EE677AD7ED157A27EE277A28
:102ED000D7ED126AD7ED147A66EEA77A37EE677AE5
:102EE000D7ED1A7A77EE277AC7ED0C7AD7ED137AF9
:102EF000B1EE677AD7ED147A27EE277AD7ED126A0A
:102F0000D7ED157A66EEA77A37EE277AD7ED197ADC
:102F100077EE277AC7ED087A0023C7F8903072E081
:102F2000548904343333333F7CF30A349A99993FFC
:102F3000D7F8903001335A4203F0030302F0030242
:102F400053EA42B37B64D7F890309B0098333B44FC
:102F5000743BD3ED007AFCEEE77A17EE903A3B64CF
:102F6000D7F890309B0098333B44843BD3ED007AF4
:102F7000FCEEE77A17EE903AFB637B6C9B0098338C
:102F80003B44743BD3ED007AFCEEE77A17EE903ABF
:102F9000BB637B6C9B0098333B44843BD3ED007A4E
:102FA000FCEEE77A17EE903A7B632F4B1A682E4BB4
:102FB0009B6813443A6C9A4220D22B4B5A682A4B96
:102FC000DB681344FA6B9A4218D2274B1A68264BD7
:102FD0009B681344BA6B9A4210D2234B5A68224B17
:102FE000DB6813447A6B9A4208D26FF47F03009334
:102FF0007B6BBA6BF96B386C2DF070F8D7F89030AA
:103000000133C7F89030D7F89030032B90DDD7F814
:103010008830A3F10F01D7F8942013465B001344C6
:10302000DB001A46FB681344D3ED007A9FED0F7A5C
:1030300067EE877AB7EEE77A8DED007B0C4B0322C3
:10304000D7F88C0008F066FFD7F894300133C7F842
:103050009430D7F89420BB689A42FFF48FAC00BF3D
:1030600000BF9C37BD4690BD7CF30A340000C842C7
:10307000883E043480B588B000AFF860B9607A60EB
:103080000023FB616FE00023BB6165E0FA69134632
:103090005B001344DB001A46FB6813445A69BB69A2
:1030A000DB00134493ED007A334B9B6807EE903AB4
:1030B000F8EE677A67EE277AFCEEE77A17EE902A49
:1030C0002D4B1B6813447B61FA6913465B00134464
:1030D000DB001A46FB6813445A69BB69DB001344E2
:1030E00093ED017A244BDB6807EE903AF8EE677AAD
:1030F00067EE277AFCEEE77A17EE903A3B611E4BBB
:103100001A681D4B9B6813447A699A4206D31A4B7E
:103110001A68194B9B681344013B00E07B697B6193
:10312000154B5A68144BDB6813443A699A4206D32C
:10313000114B5A68104BDB681344013B00E03B69BC
:103140003B617B699BB23A6991B20C4A18462CF0FC
:1031500049FEBB690133BB61BA697B689A4295D36A
:10316000FB690133FB61FA69BB689A428BD300BFEC
:1031700000BF2037BD4680BD7CF30A340000FFFF4E
:1031800090B587B002AFF860B9607A604FF08040C8
:103190002CF0F0FC2CF016FD0346DB881A46134693
:1031A0009B0013449B0019464FF47A72BB68B2FB34
:1031B000F3F300931A4B0122002008F0ABFE2CF031
:1031C00001FD0346DB881A4613465B001344DA0010
:1031D000D31A1C4609F050FC03460A2201920093C0
:1031E000104B01222146002008F094FE2CF0EAFC4E
:1031F0000346DB881A46162302FB03F319467B6855
:103200000093094B0122002008F084FE00202CF0DE
:10321000B1FC00F0D1F800BF1437BD4690BD00BF2F
:10322000903E0434983E0434AC3E043480B586B0FD
:1032300000AFF860B9607A603B60244B1B68244A99
:1032400002FB03F3234A134401221946224815F0D6
:1032500099F903467B617B69002B05D01F4B204AFF
:10326000C12120483AF002FAFB681868FB685B68E5
:103270003A681946FFF76CFBFB681868FB685B68E7
:1032800005221946FFF7F6FEFB685B687A68B968A5
:103290001846FFF775FF012202210F4815F02EF99D
:1032A00003467B617B69002B05D00C4B0C4AD12176
:1032B0000C483AF0DBF9054B1B68C3F10103034AE4
:1032C000136000BF1837BD4680BD00BF70FD0A34D3
:1032D00000B80B000000009198EC0B34BC3E0434A5
:1032E0007C890434CC3E043480B500AF0121002039
:1032F0000BF072F9294B1B68294A1360274B5B6856
:10330000274A9360254B1A68244B9B681344244A30
:103310005360224B5A68214BDB681344204AD36028
:103320001F4B02221A611F4A1D4B5A611C4A002181
:1033300000200BF005FB1C4B1B68194A13601A4B4D
:103340005B68174A9360184B1A68174B9B681344C5
:10335000134A5360144B5A68134BDB681344104AEA
:10336000D3600F4B04221A61104A0D4B5A610C4A6C
:10337000012100200BF0E4FA0D482CF04DFB012058
:103380002CF0A0FB00202CF09BFD0A482CF006FC42
:103390004FF0FF302CF0DAFB00BF80BD7CF30A3425
:1033A00074FD0A34009C19918CF30A3400000091DA
:1033B0004C9F0A3404F50A3480B500AF1B4B1B68E0
:1033C000002B04D10DF0F2FB0346184A13600DF0F8
:1033D000EDFB0246154B1B68D31AB3F57A6F23D267
:1033E0004FF080402CF0C6FB2CF0ECFB0346DB8852
:1033F0001A4613461B01134419460D4B01220020A7
:1034000008F088FD2CF0DEFB0346DB881A461346E5
:10341000DB0013445B001946064B0122002008F034
:1034200079FD00202CF0A6FB00BF80BD8CFD0A3486
:10343000143F0434303F043480B485B000AF78606A
:10344000074A7B68C2F85C3A054BD3F85C32FB60F4
:10345000FB6800BF1437BD465DF8047B704700BFB2
:103460000080025680B500AF114B124A1A60104B13
:1034700000221A710E4B00225A710D4B0022DA60A5
:103480000B4B00225A610A4B00229A61084B03221F
:103490001A624FF40020FFF7CFFF05480DF008FF38
:1034A0000346002B01D0002300E00123184680BD15
:1034B000D4FD0A34004C025680B582B000AF78606B
:1034C00039607B68002B02D03B68002B01D10023C0
:1034D00008E03B6803339B081A46796803480DF0FF
:1034E000C5FF034618460837BD4680BDD4FD0A34E3
:1034F00080B483B000AF0346FB71FB790F2B15D866
:10350000FB790E4903F1100252000A4492880132FD
:1035100090B20A4903F1100252000A440146918018
:10352000064A10335B0013449B8800E000231846D2
:103530000C37BD465DF8047B704700BF90FD0A3430
:1035400080B485B000AF0346FB80FB88DB0A9BB2EA
:10355000DBB2DB00FB73FB885B099BB2DBB29B0039
:10356000BB73FB88DBB2DB007B73FA7B13461B016A
:103570009B1A5B001946BA7B13461B019B1A9B00E2
:103580009B1A19447A7B13469B0013445B00134437
:103590000B44064A82FB03125211DB17D31ADBB22B
:1035A00018461437BD465DF8047B70471F85EB5104
:1035B00080B483B000AF0346FB710B46BB7113466A
:1035C0007B71FA7913461B019B1A5B001946BA7985
:1035D00013461B019B1A9B009B1A19447A791346C8
:1035E0009B0013445B0013440B44064A82FB031206
:1035F0005211DB17D31ADBB218460C37BD465DF803
:10360000047B70471F85EB5180B58AB000AF03463D
:10361000B9607A60FB73604B1B7F83F00103DBB200
:10362000002B01D00023B3E07B684FF6FD7293427C
:1036300006D9594B1B690133574A13610023A7E090
:103640007B6803333B623B6AB3F5803F06D9524B3C
:103650001B690133504A1361002399E0FB7B3B76E1
:10366000FB7B1846FFF744FF0346FB83FB8BDBB273
:103670007B76FB8B1B0A9BB2DBB2BB7600237B62A3
:103680007B68002B04D07968B868FFF715FF786273
:103690007B6ADBB23B757B6A1B0ADBB27B757B6A9C
:1036A0001B0CDBB2BB757B6A1B0EDBB2FB75AA235E
:1036B0003B743B6ADBB27B743B6A1B0ADBB2BB74B4
:1036C0003A7C7B7C5340DAB2BB7C5340DBB2FB7468
:1036D00007F110014FF47A730422304825F07EFB85
:1036E00003467B777B7F002B06D02B4B1B69013376
:1036F000294A136100234BE007F118014FF47A7354
:103700000322264825F06AFB03467B777B7F002B4C
:1037100006D0214B1B6901331F4A1361002337E098
:103720007B68002B13D07B689AB24FF47A73B96828
:103730001A4825F053FB03467B777B7F002B06D08E
:10374000154B1B690133144A1361002320E007F174
:1037500014014FF47A730422104825F03FFB03460E
:103760007B777B7F002B06D00B4B1B6901330A4A0A
:10377000136100230CE0084B1B680133064A1360F9
:10378000054B9A683B6A13440833034A936001234C
:1037900018462837BD4680BD90FD0A34ACE00B3496
:1037A00080B500AF144B1B7F002B22D113490020A2
:1037B0000AF0ACF8FFF756FE034683F00103DBB2D4
:1037C000002B03D00E483AF049FF13E01C220021E1
:1037D00009483BF0AFF8202200210A483BF0AAF844
:1037E000054B01221A7708483AF038FF00F0E8F953
:1037F00000E000BF80BD00BF90FD0A349CF30A3496
:10380000503F0434B4FD0A34783F0434B0B594B06A
:1038100000AFF860B9607A603B60FB68002B02D0B3
:103820003B6E002B01D10023E8E07649386EFDF7AE
:103830007DFE0346002B0CBF0123002387F83F3099
:1038400097F83F30002B01D0012300E00223BB6337
:10385000BA68BB6BB2FBF3F3FB647A68BB6BB2FB79
:10386000F3F3BB64FB6CB3F5A07F02D94FF4A073F4
:10387000FB64BB6CF02B01D9F023BB6400237B6499
:1038800068E07B6CBA6B02FB03F3BA6802FB03F3DC
:103890003A6802FB03F3FA681344BB6200233B64FB
:1038A00051E03B68022B19D1BB6A3B623B6CBA6B9F
:1038B00002FB03F35B003A6A13441B88FB837B6CB7
:1038C000FA6C03FB02F23B6CD418FB8B1846FFF733
:1038D00037FE03461A464C4B1A5531E03B68032B22
:1038E0001FD13B6CBA6B03FB02F213465B0013441F
:1038F000BA6A13447B627B6A18787B6A0133197851
:103900007B6A02331D787B6CFA6C03FB02F23B6C22
:10391000D4182A46FFF74CFE03461A463A4B1A556E
:103920000EE03B6CBA6B02FB03F3BA6A1A447B6C81
:10393000F96C03FB01F13B6C0B441178324AD15412
:103940003B6C01333B643A6CFB6C9A42A9D37B6CB1
:1039500001337B647A6CBB6C9A4292D307F11003FB
:1039600000221A605A609A60FB6C7B61BB6CBB6181
:1039700007F110030322396E18463BF0D3F90023F8
:10398000FB74FB6CBA6C02FB03F37B637B6B0C3345
:103990003B633B6B4FF6FD72934206D91B4B1B6991
:1039A00001331A4A1361002328E0194B1C4607F122
:1039B000100393E8070084E80700164B7A6B12495E
:1039C00018463BF05AFA3A6B11490120FFF71CFEEA
:1039D000034687F82F30BB6E002B02D0B86E00F084
:1039E000DBF87B6E002B07D07B6E5B68002B03D06F
:1039F000796E002000F05AF897F82F3018465037AB
:103A0000BD46B0BDB03F04340070189190FD0A343B
:103A1000007017910C70179180B586B000AF786078
:103A200039607B68002B06D03B68002B03D03B68D5
:103A3000B3F5806F01D900232FE01A4B7B6100237F
:103A40003B613B68BB607A693B691344BA681A60A2
:103A50003B6904333B613B689B00FB603A69FB6850
:103A60001344B3F5803F06D90F4B1B6901330E4A4F
:103A70001361002311E07A693B691344FA6879689D
:103A800018463BF0FAF93A69FB6813443B613A691E
:103A900079690320FFF7B8FD034618461837BD467D
:103AA00080BD00BF0070179190FD0A34B0B590B092
:103AB00000AF786039603B68002B03D03B685B68DF
:103AC000002B01D1002360E0324B7B630023FB63BA
:103AD0007B687B623B685B68BB627A6BFB6B134401
:103AE0001A4607F1240303CB10605160FB6B0833C7
:103AF000FB630A233B630023BB6335E03B68196823
:103B0000BA6B13465B001344DB000B44FB620023DB
:103B1000BB60FB6A5B68FB60FB6A9B683B61FB6A9E
:103B2000DB687B61FB6A1B69BB61FB6A1B68FB612D
:103B300000233B62FB6B1C33B3F5803F1ED87A6BCE
:103B4000FB6B13441D4607F108040FCC2860696025
:103B5000AA60EB6007CC28616961AA61FB6B1C332A
:103B6000FB63BB6B0133BB633B685B68BA6B9A4218
:103B700005D2BA6B3B6B9A42C0D300E000BFFA6B30
:103B8000796B0220FFF740FD034618464037BD46DB
:103B9000B0BD00BF0070179180B582B000AF7860F3
:103BA0007B68002B01D1002305E01C2279680420EA
:103BB000FFF72AFD034618460837BD4680BD0000C2
:103BC00080B582B000AF0CF0F1FF03467B603B1D77
:103BD000042219460520FFF717FD7B68024A13628D
:103BE00000BF0837BD4680BD90FD0A3480B582B065
:103BF00000AF786039607A683B681344194678688A
:103C000008F0CCF800BF0837BD4680BD80B582B053
:103C100000AF786039607A683B6813441946786869
:103C200008F07AF800BF0837BD4680BD80B485B083
:103C300000AFF860B9607A60032318461437BD46B8
:103C40005DF8047B704780B483B000AF78600023D8
:103C500018460C37BD465DF8047B704780B485B0CC
:103C600000AFF860B9607A60032318461437BD4688
:103C70005DF8047B704780B483B000AF78600023A8
:103C800018460C37BD465DF8047B704780B400AF22
:103C900001231846BD465DF8047B704780B400AF31
:103CA00001231846BD465DF8047B704780B5B0B06F
:103CB00000AF786007F10C03B422002118463AF0F7
:103CC00039FE28233B7303233B6180237B618023E0
:103CD000BB610123FB614FF440433B624FF48033EF
:103CE0007B624FF40073BB620423FB624FF44033EA
:103CF0003B631D4B7B630323FB6380233B64802377
:103D00007B640123BB644FF44043FB644FF4804366
:103D10003B6580237B650123BB654FF44043FB6516
:103D2000124B3B66012387F864300123BB67104BBD
:103D3000C7F88C30012387F890300123C7F8A430EE
:103D40000C4BC7F8B830012387F8BC3007F10C03DF
:103D5000184635F0BFFD4FF440410448FFF746FFD9
:103D600000BFC037BD4680BD00002E340000313496
:103D7000E07625713077257180B582B000AF78602C
:103D80004FF4C0710348FFF741FF00BF0837BD463D
:103D900080BD00BF00E92F3480B584B002AF7860E9
:103DA0004FF4C0610C48FFF731FF002100202EF0D6
:103DB0008BFE09230193082300930123074A042162
:103DC000074830F0EBF84FF4C0610348FFF70EFFEF
:103DD00000BF0837BD4680BD00E02F34C0B90734AE
:103DE000A8B8073480B586B004AF78604FF4C061DE
:103DF0000D48FFF70BFF002100202EF065FE012388
:103E0000029300230193022300930223074A012116
:103E1000074830F0A7F84FF4C0610348FFF7E6FE0B
:103E200000BF0837BD4680BD00E62F34F8BA07341E
:103E300088BA073480B582B000AF78604FF4C061B3
:103E40000348FFF7E3FE00BF0837BD4680BD00BF53
:103E500000FA2F3480B584B002AF78604FF4C051BF
:103E60000C48FFF7D3FE002100202EF02DFE022388
:103E70000193012300930123074A0421074830F0EE
:103E80008DF84FF4C0510348FFF7B0FE00BF08376C
:103E9000BD4680BD00E02F34D0BC0734B8BB07342A
:103EA00080B586B004AF78604FF4C0510D48FFF77D
:103EB000ADFE002100202EF007FE04230293032311
:103EC0000193022300930223074A0121074830F09F
:103ED00049F84FF4C0510348FFF788FE00BF083788
:103EE000BD4680BD00F82F3408BE073498BD0734A6
:103EF00080B582B000AF78604FF4C0510348FFF73F
:103F000085FE00BF0837BD4680BD00BF00E02F34EE
:103F100080B584B002AF78604FF4C0410C48FFF721
:103F200075FE002100202EF0CFFD00230193042315
:103F300000930123074A0421074830F02FF84FF47B
:103F4000C0410348FFF752FE00BF0837BD4680BDA1
:103F500000603134E0BF0734C8BE073480B586B096
:103F600004AF78604FF4C0410D48FFF74FFE0021C9
:103F700000202EF0A9FD06230293052301930223BE
:103F800000930223074A012107482FF0EBFF4FF46B
:103F9000C0410348FFF72AFE00BF0837BD4680BD79
:103FA00000C0313418C10734A8C0073480B582B0CE
:103FB00000AF78604FF420510348FFF727FE00BFA1
:103FC0000837BD4680BD00BF0020303480B5B0B09A
:103FD00000AF786007F10C03B422002118463AF0D4
:103FE000A9FC2A233B7320233B6120237B610A2306
:103FF000BB610123FB614FF420533B624FF4A0737C
:104000007B620A23BB620123FB624FF420533B63B4
:104010001E4B7B63012387F838302023FB6320236A
:104020003B640A237B640123BB644FF42053FB648D
:104030004FF4A0633B6528237B650423BB654FF4E5
:104040002043FB65124B3B66012387F86430012354
:10405000BB67104BC7F88C30012387F890300123E1
:10406000C7F8A4300C4BC7F8B830012387F8BC3030
:1040700007F10C03184635F0B3FD4FF42041044816
:10408000FFF7B4FD00BFC037BD4680BD002030340F
:1040900000002E34F07625714077257180B582B00E
:1040A00000AF78604FF480510348FFF7AFFD00BFC9
:1040B0000837BD4680BD00BF00002F3480B5B0B0CA
:1040C00000AF786007F10C03B422002118463AF0E3
:1040D00031FC2A233B7320233B6120237B61022395
:1040E000BB610123FB614FF400633B6240237B62B1
:1040F0000223BB620123FB624FF400633B631F4B4F
:104100007B63012387F838302023FB6320233B6443
:1041100002237B640123BB644FF40063FB644FF410
:1041200080733B6508237B650423BB654FF4005314
:10413000FB65134B3B66012387F864300123BB67A3
:10414000104BC7F88C30012387F890300123C7F853
:10415000A4300D4BC7F8B830012387F8BC3007F105
:104160000C03184635F03CFD4FF400510448FFF7AE
:104170003DFD00BFC037BD4680BD00BF00002F34ED
:1041800000602F34007725715077257180B5B0B06D
:1041900000AF786007F10C03B422002118463AF012
:1041A000C9FB2A233B7320233B6120237B6102232D
:1041B000BB610123FB614FF400633B6240237B62E0
:1041C0000223BB620123FB624FF400633B631F4B7E
:1041D0007B63012387F838302023FB6320233B6473
:1041E00002237B640123BB644FF40063FB644FF440
:1041F00080733B6508237B650423BB654FF4005344
:10420000FB65134B3B66012387F864300123BB67D2
:10421000104BC7F88C30012387F890300123C7F882
:10422000A4300D4BC7F8B830012387F8BC3007F134
:104230000C03184635F0D4FC4FF400510448FFF746
:10424000D5FC00BFC037BD4680BD00BF00082F347D
:1042500000802F34107725716077257180B582B08A
:1042600000AF78604FF480610348FFF7CFFC00BFD8
:104270000837BD4680BD00BF00B02E3480B5B0B059
:1042800000AF786007F10C03B422002118463AF021
:1042900051FB2A233B7320233B6120237B610123B5
:1042A000BB610123FB614FF480633B6220237B628F
:1042B0000123BB620123FB624FF480633B631E4B0F
:1042C0007B63012387F838302023FB6320233B6482
:1042D00001237B640123BB644FF48063FB64802370
:1042E0003B6504237B650423BB654FF48053FB656A
:1042F000124B3B66012387F864300123BB67104BE8
:10430000C7F88C30012387F890300123C7F8A43018
:104310000C4BC7F8B830012387F8BC3007F10C0309
:10432000184635F05DFC4FF480510448FFF75EFC01
:1043300000BFC037BD4680BD00B02E3400A02E3473
:10434000207725717077257180B400AF024B184635
:10435000BD465DF8047B7047D8C1073480B400AF18
:10436000024B1846BD465DF8047B704768C30734AE
:1043700080B400AF024B1846BD465DF8047B704721
:10438000F8C3073480B400AF024B1846BD465DF851
:10439000047B704770C5073480B582B000AF786089
:1043A00039607A683B6813441946786807F0F6FC70
:1043B00000BF0837BD4680BD80B582B000AF7860D1
:1043C00039607A683B6813441946786807F0A4FCA2
:1043D00000BF0837BD4680BD80B485B000AFF8602F
:1043E000B9607A60032318461437BD465DF8047B34
:1043F000704780B483B000AF7860002318460C3754
:10440000BD465DF8047B704780B485B000AFF860AE
:10441000B9607A60032318461437BD465DF8047B03
:10442000704780B483B000AF7860002318460C3723
:10443000BD465DF8047B704780B400AF0123184689
:10444000BD465DF8047B704780B400AF0123184679
:10445000BD465DF8047B704780B582B000AF7860E0
:104460004FF413310348FFF7A7FF00BF0837BD46DD
:1044700080BD00BF004C303480B5B0B000AF786074
:1044800007F10C03B422002118463AF053FA28230E
:104490003B7370233B6170237B610323BB6101236A
:1044A000FB614FF413433B624FF4A8637B620C2320
:1044B000BB620423FB624FF413333B631D4B7B63EE
:1044C0007023FB6370233B6403237B640123BB6481
:1044D0004FF41343FB644FF4A8733B6503237B65E0
:1044E0000123BB654FF41343FB65134B3B6601236C
:1044F00087F864300123BB67104BC7F88C30012369
:1045000087F890300123C7F8A4300D4BC7F8B830B6
:10451000012387F8BC3007F10C03184635F0DAF9AF
:104520004FF413410448FFF737FF00BFC037BD46C3
:1045300080BD00BF004C303400983234C0F012729D
:1045400030F5127280B582B000AF78604FF444311C
:104550000348FFF731FF00BF0837BD4680BD00BFED
:1045600000002E3480B5B0B000AF786007F10C03C6
:10457000B422002118463AF0DDF92A233B73382390
:104580003B6138237B614023BB610123FB614FF416
:1045900044333B624FF460637B624023BB62012380
:1045A000FB624FF444333B631D4B7B63012387F86D
:1045B00038303823FB6338233B6440237B6401237A
:1045C000BB644FF44433FB644FF460533B654FF4DA
:1045D00080737B650423BB654FF44423FB65114B5B
:1045E0003B660123BB67104BC7F88C30012387F86B
:1045F00090300123C7F8A4300C4BC7F8B830012322
:1046000087F8BC3007F10C03184635F0E9FA4FF48F
:1046100044210448FFF7C0FE00BFC037BD4680BD3F
:1046200000002E3400001034E0EC127250F11272CF
:1046300080B5AAB000AF786007F10C039C2200217E
:1046400018463AF077F902233B7338233B6138234D
:104650007B614023BB610123FB614FF444333B6228
:104660004FF460537B624FF48073BB620423FB62A0
:104670004FF444233B63214B7B633823FB63382394
:104680003B6440237B640123BB644FF44433FB64ED
:104690004FF460533B654FF480737B650423BB6527
:1046A0004FF44423FB65164B3B660123BB66012395
:1046B000FB6641233B6701237B674123BB674FF4C4
:1046C0008273FB674FF48273C7F880300423C7F806
:1046D00084304FF48273C7F888300A4BC7F88C30A7
:1046E00007F10C03184632F03FFC4FF44421044814
:1046F000FFF752FE00BFA837BD4680BD0000103452
:1047000000401C34B0EA127280B5B0B000AF7860DF
:1047100007F10C03B422002118463AF00BF92823C4
:104720003B7338233B6138237B614023BB6101230A
:10473000FB614FF444333B624FF460537B624FF4B0
:104740008073BB620423FB624FF444233B631D4B25
:104750007B633823FB6338233B6440237B64012362
:10476000BB644FF44433FB644FF460633B65402308
:104770007B650123BB654FF44433FB65124B3B66FD
:10478000012387F864300123BB67104BC7F88C30D6
:10479000012387F890300123C7F8A4300C4BC7F8E9
:1047A000B830012387F8BC3007F10C03184635F008
:1047B00091F84FF444310448FFF7EEFD00BFC037D5
:1047C000BD4680BD00401C3400103134C0ED127273
:1047D00030F2127280B582B000AF78604FF444318D
:1047E0000348FFF7E9FD00BF0837BD4680BD00BFA5
:1047F00000002E3480B5B0B000AF786007F10C0334
:10480000B422002118463AF095F82A233B73382346
:104810003B6138237B614023BB610123FB614FF483
:1048200044333B624FF460637B624023BB620123ED
:10483000FB624FF444333B631D4B7B63012387F8DA
:1048400038303823FB6338233B6440237B640123E7
:10485000BB644FF44433FB644FF460533B654FF447
:1048600080737B650423BB654FF44423FB65114BC8
:104870003B660123BB67104BC7F88C30012387F8D8
:1048800090300123C7F8A4300C4BC7F8B83001238F
:1048900087F8BC3007F10C03184635F0A1F94FF446
:1048A00044210448FFF778FD00BFC037BD4680BDF6
:1048B00000002E3400001034F0EC127260F112721D
:1048C00080B5AAB000AF786007F10C039C220021EC
:1048D00018463AF02FF802233B7338233B61382304
:1048E0007B614023BB610123FB614FF444333B6296
:1048F0004FF460537B624FF48073BB620423FB620E
:104900004FF444233B63214B7B633823FB63382301
:104910003B6440237B640123BB644FF44433FB645A
:104920004FF460533B654FF480737B650423BB6594
:104930004FF44423FB65164B3B660123BB66012302
:10494000FB6641233B6701237B674123BB674FF431
:104950008273FB674FF48273C7F880300423C7F873
:1049600084304FF48273C7F888300A4BC7F88C3014
:1049700007F10C03184632F0F7FA4FF444210448CB
:10498000FFF70AFD00BFA837BD4680BD0000103408
:1049900000102A34C0EB127280B5B0B000AF78605E
:1049A00007F10C03B4220021184639F0C3FF282375
:1049B0003B7338233B6138237B614023BB61012378
:1049C000FB614FF444333B624FF460537B624FF41E
:1049D0008073BB620423FB624FF444233B631D4B93
:1049E0007B633823FB6338233B6440237B640123D0
:1049F000BB644FF44433FB644FF460633B65402376
:104A00007B650123BB654FF44433FB65124B3B666A
:104A1000012387F864300123BB67104BC7F88C3043
:104A2000012387F890300123C7F8A4300C4BC7F856
:104A3000B830012387F8BC3007F10C03184634F076
:104A400049FF4FF444310448FFF7A6FC00BFC037CC
:104A5000BD4680BD00102A3400002734D0ED12720C
:104A600040F2127280B582B000AF78604FF4C4217A
:104A70000348FFF7A1FC00BF0837BD4680BD00BF5B
:104A800000002E3480B5B0B000AF786007F10C03A1
:104A9000B4220021184639F04DFF2A233B733823F6
:104AA0003B6138237B618023BB610123FB614FF4B1
:104AB000C4233B624FF4E0537B628023BB6201233B
:104AC000FB624FF4C4233B631D4B7B63012387F8D8
:104AD00038303823FB6338233B6480237B64012315
:104AE000BB644FF4C423FB644FF4E0433B654FF4D5
:104AF00000737B650423BB654FF4C413FB65114B46
:104B00003B660123BB67104BC7F88C30012387F845
:104B100090300123C7F8A4300C4BC7F8B8300123FC
:104B200087F8BC3007F10C03184635F059F84FF4FC
:104B3000C4110448FFF730FC00BFC037BD4680BD3C
:104B400000002E3400001034D0EC127240F11272CA
:104B500080B5AAB000AF786007F10C039C22002159
:104B6000184639F0E7FE02233B7338233B613823B4
:104B70007B618023BB610123FB614FF4C4233B6253
:104B80004FF4E0437B624FF40073BB620423FB628B
:104B90004FF4C4133B63224B7B633823FB633823FE
:104BA0003B6480237B640123BB644FF4C423FB6418
:104BB0004FF4E0433B654FF400737B650423BB6512
:104BC0004FF4C413FB654FF010433B660123BB66F3
:104BD0000123FB6681233B6701237B678123BB673E
:104BE0004FF40173FB674FF40173C7F8803004235F
:104BF000C7F884304FF40173C7F88830094BC7F801
:104C00008C3007F10C03184632F0AEF94FF4C411A2
:104C10004FF01040FFF7C0FB00BFA837BD4680BD76
:104C20000000103410D2127280B5B0B000AF7860BE
:104C300007F10C03B4220021184639F07BFE28232B
:104C40003B7338233B6138237B618023BB610123A5
:104C5000FB614FF4C4233B624FF4E0437B624FF4AB
:104C60000073BB620423FB624FF4C4133B634FF039
:104C700010437B633823FB6338233B6480237B64CE
:104C80000123BB644FF4C423FB644FF4E0533B6542
:104C900080237B650123BB654FF4C423FB65124B66
:104CA0003B66012387F864300123BB670F4BC7F8CD
:104CB0008C30012387F890300123C7F8A4300C4BC7
:104CC000C7F8B830012387F8BC3007F10C03184649
:104CD00034F000FE4FF4C4210348FFF75DFB00BF32
:104CE000C037BD4680BD00BF00002E3410ED1272EB
:104CF00080F1127280B582B000AF78604FF4C43199
:104D00000348FFF759FB00BF0837BD4680BD00BF11
:104D10000000273480B5B0B000AF786007F10C0315
:104D2000B4220021184639F005FE2A233B731C23C8
:104D30003B611C237B618023BB610123FB614FF43A
:104D4000C4333B624FF460637B628023BB62012308
:104D5000FB624FF4C4333B631D4B7B63012387F835
:104D600038301C23FB631C233B6480237B640123BA
:104D7000BB644FF4C433FB644FF460533B654FF4A2
:104D800000737B650423BB654FF4C423FB65114BA3
:104D90003B660123BB67104BC7F88C30012387F8B3
:104DA00090300123C7F8A4300C4BC7F8B83001236A
:104DB00087F8BC3007F10C03184634F011FF4FF4AC
:104DC000C4210448FFF7E8FA00BFC037BD4680BDE4
:104DD0000000273400002E3420ED127290F1127280
:104DE00080B5AAB000AF786007F10C039C220021C7
:104DF000184639F09FFD02233B731C233B611C23A3
:104E00007B618023BB610123FB614FF4C4333B62B0
:104E10004FF460537B624FF40073BB620423FB6268
:104E20004FF4C4233B63214B7B631C23FB631C2394
:104E30003B6480237B640123BB644FF4C433FB6475
:104E40004FF460533B654FF400737B650423BB65EF
:104E50004FF4C423FB65164B3B660123BB6601235D
:104E6000FB6681233B6701237B678123BB674FF48C
:104E70000173FB674FF40173C7F880300423C7F850
:104E800084304FF40173C7F888300A4BC7F88C3070
:104E900007F10C03184632F067F84FF4C4210448B8
:104EA000FFF77AFA00BFA837BD4680BD00002E3458
:104EB0000000273420D4127280B5B0B000AF786003
:104EC00007F10C03B4220021184639F033FD2823E2
:104ED0003B731C233B611C237B618023BB6101234B
:104EE000FB614FF4C4333B624FF460537B624FF479
:104EF0000073BB620423FB624FF4C4233B631D4B6E
:104F00007B631C23FB631C233B6480237B640123A2
:104F1000BB644FF4C433FB644FF460633B65802390
:104F20007B650123BB654FF4C433FB65124B3B66C5
:104F3000012387F864300123BB67104BC7F88C301E
:104F4000012387F890300123C7F8A4300C4BC7F831
:104F5000B830012387F8BC3007F10C03184634F051
:104F6000B9FC4FF4C4310448FFF716FA00BFC0374C
:104F7000BD4680BD0000273400002E34C0EE127202
:104F800030F3127280B582B000AF78604FF4C43154
:104F90000348FFF711FA00BF0837BD4680BD00BFC8
:104FA0000000273480B5B0B000AF786007F10C0383
:104FB000B4220021184639F0BDFC2A233B731C2380
:104FC0003B611C237B618023BB610123FB614FF4A8
:104FD000C4333B624FF460637B628023BB62012376
:104FE000FB624FF4C4333B631D4B7B63012387F8A3
:104FF00038301C23FB631C233B6480237B64012328
:10500000BB644FF4C433FB644FF460533B654FF40F
:1050100000737B650423BB654FF4C423FB65114B10
:105020003B660123BB67104BC7F88C30012387F820
:1050300090300123C7F8A4300C4BC7F8B8300123D7
:1050400087F8BC3007F10C03184634F0C9FD4FF463
:10505000C4210448FFF7A0F900BFC037BD4680BD9A
:105060000000273400002E3430ED1272A0F11272CD
:1050700080B5AAB000AF786007F10C039C22002134
:10508000184639F057FC02233B731C233B611C2359
:105090007B618023BB610123FB614FF4C4333B621E
:1050A0004FF460537B624FF40073BB620423FB62D6
:1050B0004FF4C4233B63214B7B631C23FB631C2302
:1050C0003B6480237B640123BB644FF4C433FB64E3
:1050D0004FF460533B654FF400737B650423BB655D
:1050E0004FF4C423FB65164B3B660123BB660123CB
:1050F000FB6681233B6701237B678123BB674FF4FA
:105100000173FB674FF40173C7F880300423C7F8BD
:1051100084304FF40173C7F888300A4BC7F88C30DD
:1051200007F10C03184631F01FFF4FF4C421044867
:10513000FFF732F900BFA837BD4680BD00002E340E
:105140000000273430D6127280B5B0B000AF78605E
:1051500007F10C03B4220021184639F0EBFB282399
:105160003B731C233B611C237B618023BB610123B8
:10517000FB614FF4C4333B624FF460537B624FF4E6
:105180000073BB620423FB624FF4C4233B631D4BDB
:105190007B631C23FB631C233B6480237B64012310
:1051A000BB644FF4C433FB644FF460633B658023FE
:1051B0007B650123BB654FF4C433FB65124B3B6633
:1051C000012387F864300123BB67104BC7F88C308C
:1051D000012387F890300123C7F8A4300C4BC7F89F
:1051E000B830012387F8BC3007F10C03184634F0BF
:1051F00071FB4FF4C4310448FFF7CEF800BFC0374D
:10520000BD4680BD0000273400002E34D0EE12725F
:1052100040F3127280B582B000AF78604FF4C431B1
:105220000348FFF7C9F800BF0837BD4680BD00BF7F
:105230000000273480B5B0B000AF786007F10C03F0
:10524000B4220021184639F075FB2A233B731C2336
:105250003B611C237B618023BB610123FB614FF415
:10526000C4333B624FF460637B628023BB620123E3
:10527000FB624FF4C4333B631D4B7B63012387F810
:1052800038301C23FB631C233B6480237B64012395
:10529000BB644FF4C433FB644FF460533B654FF47D
:1052A00000737B650423BB654FF4C423FB65114B7E
:1052B0003B660123BB67104BC7F88C30012387F88E
:1052C00090300123C7F8A4300C4BC7F8B830012345
:1052D00087F8BC3007F10C03184634F081FC4FF41A
:1052E000C4210448FFF758F800BFC037BD4680BD51
:1052F0000000273400002E3440ED1272B0F112721B
:1053000080B5AAB000AF786007F10C039C220021A1
:10531000184639F00FFB02233B731C233B611C230F
:105320007B618023BB610123FB614FF4C4333B628B
:105330004FF460537B624FF40073BB620423FB6243
:105340004FF4C4233B63214B7B631C23FB631C236F
:105350003B6480237B640123BB644FF4C433FB6450
:105360004FF460533B654FF400737B650423BB65CA
:105370004FF4C423FB65164B3B660123BB66012338
:10538000FB6681233B6701237B678123BB674FF467
:105390000173FB674FF40173C7F880300423C7F82B
:1053A00084304FF40173C7F888300A4BC7F88C304B
:1053B00007F10C03184631F0D7FD4FF4C42104481F
:1053C000FEF7EAFF00BFA837BD4680BD00002E34BF
:1053D0000000273440D8127280B5B0B000AF7860BA
:1053E00007F10C03B4220021184639F0A3FA282350
:1053F0003B731C233B611C237B618023BB61012326
:10540000FB614FF4C4333B624FF460537B624FF453
:105410000073BB620423FB624FF4C4233B631D4B48
:105420007B631C23FB631C233B6480237B6401237D
:10543000BB644FF4C433FB644FF460633B6580236B
:105440007B650123BB654FF4C433FB65124B3B66A0
:10545000012387F864300123BB67104BC7F88C30F9
:10546000012387F890300123C7F8A4300C4BC7F80C
:10547000B830012387F8BC3007F10C03184634F02C
:1054800029FA4FF4C4310448FEF786FF00BFC03745
:10549000BD4680BD0000273400002E34E0EE1272BD
:1054A00050F3127280B582B000AF78604FF4C4310F
:1054B0000348FEF781FF00BF0837BD4680BD00BF2F
:1054C0000000273480B5B0B000AF786007F10C035E
:1054D000B4220021184639F02DFA2A233B731C23ED
:1054E0003B611C237B618023BB610123FB614FF483
:1054F000C4333B624FF460637B628023BB62012351
:10550000FB624FF4C4333B631D4B7B63012387F87D
:1055100038301C23FB631C233B6480237B64012302
:10552000BB644FF4C433FB644FF460533B654FF4EA
:1055300000737B650423BB654FF4C423FB65114BEB
:105540003B660123BB67104BC7F88C30012387F8FB
:1055500090300123C7F8A4300C4BC7F8B8300123B2
:1055600087F8BC3007F10C03184634F039FB4FF4D0
:10557000C4210448FEF710FF00BFC037BD4680BD00
:105580000000273400002E3450ED1272C0F1127268
:1055900080B5AAB000AF786007F10C039C2200210F
:1055A000184639F0C7F902233B731C233B611C23C7
:1055B0007B618023BB610123FB614FF4C4333B62F9
:1055C0004FF460537B624FF40073BB620423FB62B1
:1055D0004FF4C4233B63214B7B631C23FB631C23DD
:1055E0003B6480237B640123BB644FF4C433FB64BE
:1055F0004FF460533B654FF400737B650423BB6538
:105600004FF4C423FB65164B3B660123BB660123A5
:10561000FB6681233B6701237B678123BB674FF4D4
:105620000173FB674FF40173C7F880300423C7F898
:1056300084304FF40173C7F888300A4BC7F88C30B8
:1056400007F10C03184631F08FFC4FF4C4210448D5
:10565000FEF7A2FE00BFA837BD4680BD00002E3475
:105660000000273450DA127280B5B0B000AF786015
:1056700007F10C03B4220021184639F05BF9282306
:105680003B731C233B611C237B618023BB61012393
:10569000FB614FF4C4333B624FF460537B624FF4C1
:1056A0000073BB620423FB624FF4C4233B631D4BB6
:1056B0007B631C23FB631C233B6480237B640123EB
:1056C000BB644FF4C433FB644FF460633B658023D9
:1056D0007B650123BB654FF4C433FB65124B3B660E
:1056E000012387F864300123BB67104BC7F88C3067
:1056F000012387F890300123C7F8A4300C4BC7F87A
:10570000B830012387F8BC3007F10C03184634F099
:10571000E1F84FF4C4310448FEF73EFE00BFC03745
:10572000BD4680BD0000273400002E34F0EE12721A
:1057300060F3127280B582B000AF78604FF4C4316C
:105740000348FEF739FE00BF0837BD4680BD00BFE5
:105750000000273480B5B0B000AF786007F10C03CB
:10576000B4220021184639F0E5F82A233B731C23A4
:105770003B611C237B618023BB610123FB614FF4F0
:10578000C4333B624FF460637B628023BB620123BE
:10579000FB624FF4C4333B631D4B7B63012387F8EB
:1057A00038301C23FB631C233B6480237B64012370
:1057B000BB644FF4C433FB644FF460533B654FF458
:1057C00000737B650423BB654FF4C423FB65114B59
:1057D0003B660123BB67104BC7F88C30012387F869
:1057E00090300123C7F8A4300C4BC7F8B830012320
:1057F00087F8BC3007F10C03184634F0F1F94FF488
:10580000C4210448FEF7C8FD00BFC037BD4680BDB7
:105810000000273400002E3460ED1272D0F11272B5
:1058200080B5AAB000AF786007F10C039C2200217C
:10583000184639F07FF802233B731C233B611C237D
:105840007B618023BB610123FB614FF4C4333B6266
:105850004FF460537B624FF40073BB620423FB621E
:105860004FF4C4233B63214B7B631C23FB631C234A
:105870003B6480237B640123BB644FF4C433FB642B
:105880004FF460533B654FF400737B650423BB65A5
:105890004FF4C423FB65164B3B660123BB66012313
:1058A000FB6681233B6701237B678123BB674FF442
:1058B0000173FB674FF40173C7F880300423C7F806
:1058C00084304FF40173C7F888300A4BC7F88C3026
:1058D00007F10C03184631F047FB4FF4C42104488C
:1058E000FEF75AFD00BFA837BD4680BD00002E342C
:1058F0000000273460DC127280B5B0B000AF786071
:1059000007F10C03B4220021184639F013F82823BC
:105910003B731C233B611C237B618023BB61012300
:10592000FB614FF4C4333B624FF460537B624FF42E
:105930000073BB620423FB624FF4C4233B631D4B23
:105940007B631C23FB631C233B6480237B64012358
:10595000BB644FF4C433FB644FF460633B65802346
:105960007B650123BB654FF4C433FB65124B3B667B
:10597000012387F864300123BB67104BC7F88C30D4
:10598000012387F890300123C7F8A4300C4BC7F8E7
:10599000B830012387F8BC3007F10C03184633F008
:1059A00099FF4FF4C4310448FEF7F6FC00BFC0373E
:1059B000BD4680BD0000273400002E3400EF127277
:1059C00070F3127280B582B000AF78604FF4C431CA
:1059D0000348FEF7F1FC00BF0837BD4680BD00BF9D
:1059E0000000273480B5B0B000AF786007F10C0339
:1059F000B4220021184638F09DFF2A233B731C2354
:105A00003B611C237B618023BB610123FB614FF45D
:105A1000C4333B624FF460637B628023BB6201232B
:105A2000FB624FF4C4333B631D4B7B63012387F858
:105A300038301C23FB631C233B6480237B640123DD
:105A4000BB644FF4C433FB644FF460533B654FF4C5
:105A500000737B650423BB654FF4C423FB65114BC6
:105A60003B660123BB67104BC7F88C30012387F8D6
:105A700090300123C7F8A4300C4BC7F8B83001238D
:105A800087F8BC3007F10C03184634F0A9F84FF43E
:105A9000C4210448FEF780FC00BFC037BD4680BD6E
:105AA0000000273400002E3470ED1272E0F1127203
:105AB00080B5AAB000AF786007F10C039C220021EA
:105AC000184638F037FF02233B731C233B611C232D
:105AD0007B618023BB610123FB614FF4C4333B62D4
:105AE0004FF460537B624FF40073BB620423FB628C
:105AF0004FF4C4233B63214B7B631C23FB631C23B8
:105B00003B6480237B640123BB644FF4C433FB6498
:105B10004FF460533B654FF400737B650423BB6512
:105B20004FF4C423FB65164B3B660123BB66012380
:105B3000FB6681233B6701237B678123BB674FF4AF
:105B40000173FB674FF40173C7F880300423C7F873
:105B500084304FF40173C7F888300A4BC7F88C3093
:105B600007F10C03184631F0FFF94FF4C421044843
:105B7000FEF712FC00BFA837BD4680BD00002E34E2
:105B80000000273470DE127280B5B0B000AF7860CC
:105B900007F10C03B4220021184638F0CBFE28236D
:105BA0003B731C233B611C237B618023BB6101236E
:105BB000FB614FF4C4333B624FF460537B624FF49C
:105BC0000073BB620423FB624FF4C4233B631D4B91
:105BD0007B631C23FB631C233B6480237B640123C6
:105BE000BB644FF4C433FB644FF460633B658023B4
:105BF0007B650123BB654FF4C433FB65124B3B66E9
:105C0000012387F864300123BB67104BC7F88C3041
:105C1000012387F890300123C7F8A4300C4BC7F854
:105C2000B830012387F8BC3007F10C03184633F075
:105C300051FE4FF4C4310448FEF7AEFB00BFC0373D
:105C4000BD4680BD0000273400002E3410EF1272D4
:105C500080F3127280B582B000AF78604FF4C43127
:105C60000348FEF7A9FB00BF0837BD4680BD00BF53
:105C70000000273480B5B0B000AF786007F10C03A6
:105C8000B4220021184638F055FE2A233B731C230A
:105C90003B611C237B618023BB610123FB614FF4CB
:105CA000C4333B624FF460637B628023BB62012399
:105CB000FB624FF4C4333B631D4B7B63012387F8C6
